{
  "abi": [
    {
      "inputs": [],
      "stateMutability": "nonpayable",
      "type": "constructor"
    },
    {
      "inputs": [
        {
          "internalType": "bytes32",
          "name": "role",
          "type": "bytes32"
        },
        {
          "internalType": "uint256",
          "name": "hat",
          "type": "uint256"
        },
        {
          "internalType": "address",
          "name": "account",
          "type": "address"
        }
      ],
      "name": "NotWearingRoleHat",
      "type": "error"
    },
    {
      "inputs": [
        {
          "internalType": "bytes32",
          "name": "role",
          "type": "bytes32"
        },
        {
          "internalType": "uint256",
          "name": "roleHat",
          "type": "uint256"
        }
      ],
      "name": "RoleAlreadyAssigned",
      "type": "error"
    },
    {
      "anonymous": false,
      "inputs": [
        {
          "indexed": true,
          "internalType": "address",
          "name": "owner",
          "type": "address"
        },
        {
          "indexed": true,
          "internalType": "address",
          "name": "approved",
          "type": "address"
        },
        {
          "indexed": true,
          "internalType": "uint256",
          "name": "tokenId",
          "type": "uint256"
        }
      ],
      "name": "Approval",
      "type": "event"
    },
    {
      "anonymous": false,
      "inputs": [
        {
          "indexed": true,
          "internalType": "address",
          "name": "owner",
          "type": "address"
        },
        {
          "indexed": true,
          "internalType": "address",
          "name": "operator",
          "type": "address"
        },
        {
          "indexed": false,
          "internalType": "bool",
          "name": "approved",
          "type": "bool"
        }
      ],
      "name": "ApprovalForAll",
      "type": "event"
    },
    {
      "anonymous": false,
      "inputs": [
        {
          "indexed": false,
          "internalType": "uint256",
          "name": "newShare",
          "type": "uint256"
        }
      ],
      "name": "ChangedShares",
      "type": "event"
    },
    {
      "anonymous": false,
      "inputs": [
        {
          "indexed": false,
          "internalType": "uint256",
          "name": "newStake",
          "type": "uint256"
        }
      ],
      "name": "ChangedStake",
      "type": "event"
    },
    {
      "anonymous": false,
      "inputs": [
        {
          "indexed": false,
          "internalType": "uint256",
          "name": "newTime",
          "type": "uint256"
        }
      ],
      "name": "ChangedTime",
      "type": "event"
    },
    {
      "anonymous": false,
      "inputs": [
        {
          "indexed": false,
          "internalType": "address",
          "name": "newMember",
          "type": "address"
        },
        {
          "indexed": false,
          "internalType": "uint256",
          "name": "claimAmount",
          "type": "uint256"
        }
      ],
      "name": "Claim",
      "type": "event"
    },
    {
      "anonymous": false,
      "inputs": [
        {
          "indexed": false,
          "internalType": "address",
          "name": "user",
          "type": "address"
        },
        {
          "indexed": false,
          "internalType": "address",
          "name": "treasury",
          "type": "address"
        },
        {
          "indexed": false,
          "internalType": "string",
          "name": "feedback",
          "type": "string"
        }
      ],
      "name": "Feedback",
      "type": "event"
    },
    {
      "anonymous": false,
      "inputs": [
        {
          "indexed": true,
          "internalType": "address",
          "name": "previousHatsContract",
          "type": "address"
        },
        {
          "indexed": true,
          "internalType": "address",
          "name": "newHatsContract",
          "type": "address"
        }
      ],
      "name": "HatsContractChanged",
      "type": "event"
    },
    {
      "anonymous": false,
      "inputs": [
        {
          "indexed": false,
          "internalType": "uint8",
          "name": "version",
          "type": "uint8"
        }
      ],
      "name": "Initialized",
      "type": "event"
    },
    {
      "anonymous": false,
      "inputs": [
        {
          "indexed": false,
          "internalType": "address",
          "name": "newInitiate",
          "type": "address"
        },
        {
          "indexed": false,
          "internalType": "address",
          "name": "benefactor",
          "type": "address"
        },
        {
          "indexed": false,
          "internalType": "uint256",
          "name": "tokenId",
          "type": "uint256"
        },
        {
          "indexed": false,
          "internalType": "uint256",
          "name": "stake",
          "type": "uint256"
        },
        {
          "indexed": false,
          "internalType": "uint256",
          "name": "deadline",
          "type": "uint256"
        }
      ],
      "name": "Initiation",
      "type": "event"
    },
    {
      "anonymous": false,
      "inputs": [
        {
          "indexed": true,
          "internalType": "bytes32",
          "name": "role",
          "type": "bytes32"
        },
        {
          "indexed": true,
          "internalType": "bytes32",
          "name": "previousAdminRole",
          "type": "bytes32"
        },
        {
          "indexed": true,
          "internalType": "bytes32",
          "name": "newAdminRole",
          "type": "bytes32"
        }
      ],
      "name": "RoleAdminChanged",
      "type": "event"
    },
    {
      "anonymous": false,
      "inputs": [
        {
          "indexed": true,
          "internalType": "bytes32",
          "name": "role",
          "type": "bytes32"
        },
        {
          "indexed": true,
          "internalType": "uint256",
          "name": "hat",
          "type": "uint256"
        },
        {
          "indexed": true,
          "internalType": "address",
          "name": "sender",
          "type": "address"
        }
      ],
      "name": "RoleGranted",
      "type": "event"
    },
    {
      "anonymous": false,
      "inputs": [
        {
          "indexed": true,
          "internalType": "bytes32",
          "name": "role",
          "type": "bytes32"
        },
        {
          "indexed": true,
          "internalType": "uint256",
          "name": "previousRoleHat",
          "type": "uint256"
        },
        {
          "indexed": true,
          "internalType": "uint256",
          "name": "newRoleHat",
          "type": "uint256"
        }
      ],
      "name": "RoleHatChanged",
      "type": "event"
    },
    {
      "anonymous": false,
      "inputs": [
        {
          "indexed": true,
          "internalType": "bytes32",
          "name": "role",
          "type": "bytes32"
        },
        {
          "indexed": true,
          "internalType": "uint256",
          "name": "hat",
          "type": "uint256"
        },
        {
          "indexed": true,
          "internalType": "address",
          "name": "sender",
          "type": "address"
        }
      ],
      "name": "RoleRevoked",
      "type": "event"
    },
    {
      "anonymous": false,
      "inputs": [
        {
          "indexed": false,
          "internalType": "address",
          "name": "sacrifice",
          "type": "address"
        },
        {
          "indexed": false,
          "internalType": "uint256",
          "name": "slashedAmount",
          "type": "uint256"
        },
        {
          "indexed": false,
          "internalType": "address",
          "name": "slasher",
          "type": "address"
        }
      ],
      "name": "Sacrifice",
      "type": "event"
    },
    {
      "anonymous": false,
      "inputs": [
        {
          "indexed": true,
          "internalType": "address",
          "name": "from",
          "type": "address"
        },
        {
          "indexed": true,
          "internalType": "address",
          "name": "to",
          "type": "address"
        },
        {
          "indexed": true,
          "internalType": "uint256",
          "name": "tokenId",
          "type": "uint256"
        }
      ],
      "name": "Transfer",
      "type": "event"
    },
    {
      "inputs": [],
      "name": "ADMIN",
      "outputs": [
        {
          "internalType": "bytes32",
          "name": "",
          "type": "bytes32"
        }
      ],
      "stateMutability": "view",
      "type": "function"
    },
    {
      "inputs": [],
      "name": "DEFAULT_ADMIN_ROLE",
      "outputs": [
        {
          "internalType": "bytes32",
          "name": "",
          "type": "bytes32"
        }
      ],
      "stateMutability": "view",
      "type": "function"
    },
    {
      "inputs": [],
      "name": "HATS",
      "outputs": [
        {
          "internalType": "contract IHats",
          "name": "",
          "type": "address"
        }
      ],
      "stateMutability": "view",
      "type": "function"
    },
    {
      "inputs": [],
      "name": "adminHat",
      "outputs": [
        {
          "internalType": "uint256",
          "name": "",
          "type": "uint256"
        }
      ],
      "stateMutability": "view",
      "type": "function"
    },
    {
      "inputs": [
        {
          "internalType": "address",
          "name": "to",
          "type": "address"
        },
        {
          "internalType": "uint256",
          "name": "tokenId",
          "type": "uint256"
        }
      ],
      "name": "approve",
      "outputs": [],
      "stateMutability": "nonpayable",
      "type": "function"
    },
    {
      "inputs": [],
      "name": "baal",
      "outputs": [
        {
          "internalType": "contract IBaal",
          "name": "",
          "type": "address"
        }
      ],
      "stateMutability": "view",
      "type": "function"
    },
    {
      "inputs": [
        {
          "internalType": "address",
          "name": "owner",
          "type": "address"
        }
      ],
      "name": "balanceOf",
      "outputs": [
        {
          "internalType": "uint256",
          "name": "",
          "type": "uint256"
        }
      ],
      "stateMutability": "view",
      "type": "function"
    },
    {
      "inputs": [
        {
          "internalType": "address[]",
          "name": "to",
          "type": "address[]"
        }
      ],
      "name": "batchMintBaalShares",
      "outputs": [],
      "stateMutability": "nonpayable",
      "type": "function"
    },
    {
      "inputs": [
        {
          "internalType": "address",
          "name": "newHatsContract",
          "type": "address"
        }
      ],
      "name": "changeHatsContract",
      "outputs": [],
      "stateMutability": "nonpayable",
      "type": "function"
    },
    {
      "inputs": [
        {
          "internalType": "uint256",
          "name": "_cohortSize",
          "type": "uint256"
        }
      ],
      "name": "changeJoinSizeLimit",
      "outputs": [],
      "stateMutability": "nonpayable",
      "type": "function"
    },
    {
      "inputs": [
        {
          "internalType": "uint256",
          "name": "_joinDuration",
          "type": "uint256"
        }
      ],
      "name": "changeJoinTimeDuration",
      "outputs": [],
      "stateMutability": "nonpayable",
      "type": "function"
    },
    {
      "inputs": [
        {
          "internalType": "bytes32",
          "name": "role",
          "type": "bytes32"
        },
        {
          "internalType": "uint256",
          "name": "newRoleHat",
          "type": "uint256"
        }
      ],
      "name": "changeRoleHat",
      "outputs": [],
      "stateMutability": "nonpayable",
      "type": "function"
    },
    {
      "inputs": [
        {
          "internalType": "address",
          "name": "user",
          "type": "address"
        }
      ],
      "name": "checkStake",
      "outputs": [
        {
          "internalType": "uint256",
          "name": "",
          "type": "uint256"
        }
      ],
      "stateMutability": "view",
      "type": "function"
    },
    {
      "inputs": [],
      "name": "claimStake",
      "outputs": [],
      "stateMutability": "nonpayable",
      "type": "function"
    },
    {
      "inputs": [],
      "name": "cohortCounter",
      "outputs": [
        {
          "internalType": "uint256",
          "name": "",
          "type": "uint256"
        }
      ],
      "stateMutability": "view",
      "type": "function"
    },
    {
      "inputs": [],
      "name": "cohortName",
      "outputs": [
        {
          "internalType": "string",
          "name": "",
          "type": "string"
        }
      ],
      "stateMutability": "view",
      "type": "function"
    },
    {
      "inputs": [],
      "name": "cohortSeason",
      "outputs": [
        {
          "internalType": "uint256",
          "name": "",
          "type": "uint256"
        }
      ],
      "stateMutability": "view",
      "type": "function"
    },
    {
      "inputs": [],
      "name": "cohortSize",
      "outputs": [
        {
          "internalType": "uint256",
          "name": "",
          "type": "uint256"
        }
      ],
      "stateMutability": "view",
      "type": "function"
    },
    {
      "inputs": [
        {
          "internalType": "string",
          "name": "feedback",
          "type": "string"
        }
      ],
      "name": "cryForHelp",
      "outputs": [],
      "stateMutability": "nonpayable",
      "type": "function"
    },
    {
      "inputs": [
        {
          "internalType": "address",
          "name": "",
          "type": "address"
        }
      ],
      "name": "deadlines",
      "outputs": [
        {
          "internalType": "uint256",
          "name": "",
          "type": "uint256"
        }
      ],
      "stateMutability": "view",
      "type": "function"
    },
    {
      "inputs": [
        {
          "internalType": "uint256",
          "name": "_extension",
          "type": "uint256"
        }
      ],
      "name": "extendJoinTimeLimit",
      "outputs": [],
      "stateMutability": "nonpayable",
      "type": "function"
    },
    {
      "inputs": [
        {
          "internalType": "uint256",
          "name": "tokenId",
          "type": "uint256"
        }
      ],
      "name": "getApproved",
      "outputs": [
        {
          "internalType": "address",
          "name": "",
          "type": "address"
        }
      ],
      "stateMutability": "view",
      "type": "function"
    },
    {
      "inputs": [
        {
          "internalType": "address",
          "name": "user",
          "type": "address"
        }
      ],
      "name": "getDeadline",
      "outputs": [
        {
          "internalType": "uint256",
          "name": "",
          "type": "uint256"
        }
      ],
      "stateMutability": "view",
      "type": "function"
    },
    {
      "inputs": [
        {
          "internalType": "bytes32",
          "name": "role",
          "type": "bytes32"
        }
      ],
      "name": "getRoleAdmin",
      "outputs": [
        {
          "internalType": "bytes32",
          "name": "",
          "type": "bytes32"
        }
      ],
      "stateMutability": "view",
      "type": "function"
    },
    {
      "inputs": [
        {
          "internalType": "bytes32",
          "name": "role",
          "type": "bytes32"
        },
        {
          "internalType": "uint256",
          "name": "hat",
          "type": "uint256"
        }
      ],
      "name": "grantRole",
      "outputs": [],
      "stateMutability": "nonpayable",
      "type": "function"
    },
    {
      "inputs": [
        {
          "internalType": "bytes32",
          "name": "role",
          "type": "bytes32"
        },
        {
          "internalType": "address",
          "name": "account",
          "type": "address"
        }
      ],
      "name": "hasRole",
      "outputs": [
        {
          "internalType": "bool",
          "name": "",
          "type": "bool"
        }
      ],
      "stateMutability": "view",
      "type": "function"
    },
    {
      "inputs": [],
      "name": "hatsContract",
      "outputs": [
        {
          "internalType": "address",
          "name": "",
          "type": "address"
        }
      ],
      "stateMutability": "view",
      "type": "function"
    },
    {
      "inputs": [
        {
          "components": [
            {
              "internalType": "address",
              "name": "membershipCriteria",
              "type": "address"
            },
            {
              "internalType": "address",
              "name": "stakingAsset",
              "type": "address"
            },
            {
              "internalType": "address",
              "name": "treasury",
              "type": "address"
            },
            {
              "internalType": "address",
              "name": "admin1",
              "type": "address"
            },
            {
              "internalType": "address",
              "name": "admin2",
              "type": "address"
            },
            {
              "internalType": "uint256",
              "name": "cohortSize",
              "type": "uint256"
            },
            {
              "internalType": "uint256",
              "name": "joinDuration",
              "type": "uint256"
            },
            {
              "internalType": "uint256",
              "name": "threshold",
              "type": "uint256"
            },
            {
              "internalType": "uint256",
              "name": "assetAmount",
              "type": "uint256"
            },
            {
              "internalType": "uint256",
              "name": "stakeDuration",
              "type": "uint256"
            },
            {
              "internalType": "uint256",
              "name": "topHatId",
              "type": "uint256"
            },
            {
              "internalType": "string",
              "name": "cohortName",
              "type": "string"
            },
            {
              "internalType": "string",
              "name": "sbtName",
              "type": "string"
            },
            {
              "internalType": "string",
              "name": "sbtSymbol",
              "type": "string"
            },
            {
              "internalType": "string",
              "name": "baseUri",
              "type": "string"
            },
            {
              "internalType": "bool",
              "name": "shamanOn",
              "type": "bool"
            }
          ],
          "internalType": "struct IInitData.InitData",
          "name": "initData",
          "type": "tuple"
        },
        {
          "internalType": "address",
          "name": "hatsProtocol",
          "type": "address"
        },
        {
          "internalType": "address",
          "name": "caller_",
          "type": "address"
        }
      ],
      "name": "initialize",
      "outputs": [],
      "stateMutability": "nonpayable",
      "type": "function"
    },
    {
      "inputs": [
        {
          "internalType": "address",
          "name": "_deployer",
          "type": "address"
        },
        {
          "internalType": "address",
          "name": "_admin1",
          "type": "address"
        },
        {
          "internalType": "address",
          "name": "_admin2",
          "type": "address"
        }
      ],
      "name": "initializeHatTree",
      "outputs": [],
      "stateMutability": "nonpayable",
      "type": "function"
    },
    {
      "inputs": [
        {
          "internalType": "address",
          "name": "owner",
          "type": "address"
        },
        {
          "internalType": "address",
          "name": "operator",
          "type": "address"
        }
      ],
      "name": "isApprovedForAll",
      "outputs": [
        {
          "internalType": "bool",
          "name": "",
          "type": "bool"
        }
      ],
      "stateMutability": "view",
      "type": "function"
    },
    {
      "inputs": [
        {
          "internalType": "address",
          "name": "user",
          "type": "address"
        }
      ],
      "name": "isMember",
      "outputs": [
        {
          "internalType": "bool",
          "name": "",
          "type": "bool"
        }
      ],
      "stateMutability": "view",
      "type": "function"
    },
    {
      "inputs": [],
      "name": "joinDuration",
      "outputs": [
        {
          "internalType": "uint256",
          "name": "",
          "type": "uint256"
        }
      ],
      "stateMutability": "view",
      "type": "function"
    },
    {
      "inputs": [],
      "name": "joinEndTime",
      "outputs": [
        {
          "internalType": "uint256",
          "name": "",
          "type": "uint256"
        }
      ],
      "stateMutability": "view",
      "type": "function"
    },
    {
      "inputs": [
        {
          "internalType": "address",
          "name": "user",
          "type": "address"
        }
      ],
      "name": "joinInitiation",
      "outputs": [],
      "stateMutability": "nonpayable",
      "type": "function"
    },
    {
      "inputs": [],
      "name": "maximumTime",
      "outputs": [
        {
          "internalType": "uint256",
          "name": "",
          "type": "uint256"
        }
      ],
      "stateMutability": "view",
      "type": "function"
    },
    {
      "inputs": [],
      "name": "minimumShare",
      "outputs": [
        {
          "internalType": "uint256",
          "name": "",
          "type": "uint256"
        }
      ],
      "stateMutability": "view",
      "type": "function"
    },
    {
      "inputs": [],
      "name": "minimumStake",
      "outputs": [
        {
          "internalType": "uint256",
          "name": "",
          "type": "uint256"
        }
      ],
      "stateMutability": "view",
      "type": "function"
    },
    {
      "inputs": [
        {
          "internalType": "address",
          "name": "_to",
          "type": "address"
        }
      ],
      "name": "mintAdminHatProposal",
      "outputs": [],
      "stateMutability": "nonpayable",
      "type": "function"
    },
    {
      "inputs": [],
      "name": "name",
      "outputs": [
        {
          "internalType": "string",
          "name": "",
          "type": "string"
        }
      ],
      "stateMutability": "view",
      "type": "function"
    },
    {
      "inputs": [
        {
          "internalType": "uint256",
          "name": "tokenId",
          "type": "uint256"
        }
      ],
      "name": "ownerOf",
      "outputs": [
        {
          "internalType": "address",
          "name": "",
          "type": "address"
        }
      ],
      "stateMutability": "view",
      "type": "function"
    },
    {
      "inputs": [
        {
          "internalType": "bytes32",
          "name": "role",
          "type": "bytes32"
        },
        {
          "internalType": "uint256",
          "name": "hat",
          "type": "uint256"
        }
      ],
      "name": "revokeRole",
      "outputs": [],
      "stateMutability": "nonpayable",
      "type": "function"
    },
    {
      "inputs": [],
      "name": "sacrifice",
      "outputs": [],
      "stateMutability": "nonpayable",
      "type": "function"
    },
    {
      "inputs": [
        {
          "internalType": "address",
          "name": "from",
          "type": "address"
        },
        {
          "internalType": "address",
          "name": "to",
          "type": "address"
        },
        {
          "internalType": "uint256",
          "name": "tokenId",
          "type": "uint256"
        }
      ],
      "name": "safeTransferFrom",
      "outputs": [],
      "stateMutability": "nonpayable",
      "type": "function"
    },
    {
      "inputs": [
        {
          "internalType": "address",
          "name": "from",
          "type": "address"
        },
        {
          "internalType": "address",
          "name": "to",
          "type": "address"
        },
        {
          "internalType": "uint256",
          "name": "tokenId",
          "type": "uint256"
        },
        {
          "internalType": "bytes",
          "name": "data",
          "type": "bytes"
        }
      ],
      "name": "safeTransferFrom",
      "outputs": [],
      "stateMutability": "nonpayable",
      "type": "function"
    },
    {
      "inputs": [
        {
          "internalType": "address",
          "name": "operator",
          "type": "address"
        },
        {
          "internalType": "bool",
          "name": "approved",
          "type": "bool"
        }
      ],
      "name": "setApprovalForAll",
      "outputs": [],
      "stateMutability": "nonpayable",
      "type": "function"
    },
    {
      "inputs": [
        {
          "internalType": "uint256",
          "name": "newMaxTime",
          "type": "uint256"
        }
      ],
      "name": "setMaxDuration",
      "outputs": [],
      "stateMutability": "nonpayable",
      "type": "function"
    },
    {
      "inputs": [
        {
          "internalType": "uint256",
          "name": "newMinimumStake",
          "type": "uint256"
        }
      ],
      "name": "setMinimumStake",
      "outputs": [],
      "stateMutability": "nonpayable",
      "type": "function"
    },
    {
      "inputs": [
        {
          "internalType": "uint256",
          "name": "newShareThreshold",
          "type": "uint256"
        }
      ],
      "name": "setShareThreshold",
      "outputs": [],
      "stateMutability": "nonpayable",
      "type": "function"
    },
    {
      "inputs": [
        {
          "internalType": "address",
          "name": "_to",
          "type": "address"
        }
      ],
      "name": "singleMintBaalShares",
      "outputs": [],
      "stateMutability": "nonpayable",
      "type": "function"
    },
    {
      "inputs": [
        {
          "internalType": "address",
          "name": "_sacrificialLamb",
          "type": "address"
        }
      ],
      "name": "slaughter",
      "outputs": [],
      "stateMutability": "nonpayable",
      "type": "function"
    },
    {
      "inputs": [
        {
          "internalType": "bytes4",
          "name": "interfaceId",
          "type": "bytes4"
        }
      ],
      "name": "supportsInterface",
      "outputs": [
        {
          "internalType": "bool",
          "name": "",
          "type": "bool"
        }
      ],
      "stateMutability": "view",
      "type": "function"
    },
    {
      "inputs": [],
      "name": "symbol",
      "outputs": [
        {
          "internalType": "string",
          "name": "",
          "type": "string"
        }
      ],
      "stateMutability": "view",
      "type": "function"
    },
    {
      "inputs": [
        {
          "internalType": "uint256",
          "name": "tokenId",
          "type": "uint256"
        }
      ],
      "name": "tokenURI",
      "outputs": [
        {
          "internalType": "string",
          "name": "",
          "type": "string"
        }
      ],
      "stateMutability": "view",
      "type": "function"
    },
    {
      "inputs": [],
      "name": "topHat",
      "outputs": [
        {
          "internalType": "uint256",
          "name": "",
          "type": "uint256"
        }
      ],
      "stateMutability": "view",
      "type": "function"
    },
    {
      "inputs": [
        {
          "internalType": "address",
          "name": "_from",
          "type": "address"
        },
        {
          "internalType": "address",
          "name": "_to",
          "type": "address"
        }
      ],
      "name": "transferAdminHat",
      "outputs": [],
      "stateMutability": "nonpayable",
      "type": "function"
    },
    {
      "inputs": [
        {
          "internalType": "address",
          "name": "from",
          "type": "address"
        },
        {
          "internalType": "address",
          "name": "to",
          "type": "address"
        },
        {
          "internalType": "uint256",
          "name": "tokenId",
          "type": "uint256"
        }
      ],
      "name": "transferFrom",
      "outputs": [],
      "stateMutability": "nonpayable",
      "type": "function"
    },
    {
      "inputs": [],
      "name": "treasury",
      "outputs": [
        {
          "internalType": "address",
          "name": "",
          "type": "address"
        }
      ],
      "stateMutability": "view",
      "type": "function"
    }
  ],
  "bytecode": {
    "object": "0x60806040523480156200001157600080fd5b506200001c62000022565b620000e3565b600054610100900460ff16156200008f5760405162461bcd60e51b815260206004820152602760248201527f496e697469616c697a61626c653a20636f6e747261637420697320696e697469604482015266616c697a696e6760c81b606482015260840160405180910390fd5b60005460ff90811614620000e1576000805460ff191660ff9081179091556040519081527f7f26b83ff96e1f2b6a682f133852f6798a09c465da95921460cefb38474024989060200160405180910390a15b565b61455e80620000f36000396000f3fe608060405234801561001057600080fd5b50600436106103835760003560e01c8063a217fddf116101de578063c733d5e91161010f578063e5d05722116100ad578063f3450f001161007c578063f3450f00146107a1578063f68659bd146107b4578063f9bb68fc146107bd578063fc4c0958146107c657600080fd5b8063e5d0572214610734578063e985e9c514610754578063eb32117314610790578063ec5ffac21461079857600080fd5b8063ccfa5d33116100e9578063ccfa5d33146106e8578063cf0f34c4146106fb578063cfdb44d61461070e578063e5a2a2a51461072157600080fd5b8063c733d5e9146106af578063c81f83a2146106c2578063c87b56dd146106d557600080fd5b8063b5436cec1161017c578063b8ebdcd911610156578063b8ebdcd914610677578063bc5fa8df1461068a578063c2d14f021461069d578063c6db8129146106a657600080fd5b8063b5436cec1461063e578063b88d4fde14610651578063b8c453611461066457600080fd5b8063a230c524116101b8578063a230c524146105fc578063a3919d1f1461060f578063a3beab6a14610622578063aee4c96f1461063557600080fd5b8063a217fddf146105b8578063a2213262146105c0578063a22cb465146105e957600080fd5b80632e152618116102b85780637150ef881161025657806390d96d761161023057806390d96d761461056357806391d148541461058c57806395d89b411461059f57806397e39fef146105a757600080fd5b80637150ef881461054057806373f78fd0146105535780638a040df41461055b57600080fd5b80634558e83d116102925780634558e83d146104f457806361d027b3146105075780636352211e1461051a57806370a082311461052d57600080fd5b80632e152618146104cf57806335439bb3146104d857806342842e0e146104e157600080fd5b80631b6ea9f91161032557806323b872dd116102ff57806323b872dd14610471578063248a9ca3146104845780632a0acc6a146104a75780632a4a1342146104bc57600080fd5b80631b6ea9f914610442578063232b043214610455578063233e99031461045e57600080fd5b8063095ea7b311610361578063095ea7b3146103f05780630c538f2f14610405578063172bf8541461041857806319d61ad91461042f57600080fd5b806301ffc9a71461038857806306fdde03146103b0578063081812fc146103c5575b600080fd5b61039b610396366004613758565b6107d9565b60405190151581526020015b60405180910390f35b6103b86107ea565b6040516103a791906137c5565b6103d86103d33660046137d8565b61087c565b6040516001600160a01b0390911681526020016103a7565b6104036103fe366004613806565b6108a3565b005b610403610413366004613832565b6109bd565b61042160a55481565b6040519081526020016103a7565b61040361043d3660046138a4565b610a62565b6104036104503660046138a4565b610a87565b61042160ad5481565b61040361046c3660046137d8565b610aac565b61040361047f3660046138c6565b610ad1565b6104216104923660046137d8565b60009081526098602052604090206001015490565b61042160008051602061447783398151915281565b6104036104ca3660046137d8565b610b02565b61042160a75481565b61042160a65481565b6104036104ef3660046138c6565b610b2f565b6104036105023660046137d8565b610b4a565b60aa546103d8906001600160a01b031681565b6103d86105283660046137d8565b610b68565b61042161053b366004613907565b610bc8565b60ab546103d8906001600160a01b031681565b6103b8610c4e565b610403610cdc565b610421610571366004613907565b6001600160a01b031660009081526099602052604090205490565b61039b61059a366004613924565b610cff565b6103b8610d8b565b6097546001600160a01b03166103d8565b610421600081565b6104216105ce366004613907565b6001600160a01b03166000908152609a602052604090205490565b6104036105f7366004613962565b610d9a565b61039b61060a366004613907565b610da5565b61040361061d366004613907565b610e23565b610403610630366004613907565b610f2d565b61042160a45481565b61040361064c3660046138a4565b611056565b61040361065f3660046139a6565b61107b565b610403610672366004613907565b6110ad565b6104036106853660046137d8565b6110c1565b6104036106983660046137d8565b6110df565b61042160ac5481565b61042160a35481565b6104036106bd366004613907565b611100565b6104036106d0366004613a86565b611288565b6103b86106e33660046137d8565b611393565b6104036106f6366004613ae9565b6113f9565b6104036107093660046137d8565b6114d8565b61040361071c366004613b17565b6114f9565b609d546103d8906001600160a01b031681565b610421610742366004613907565b609a6020526000908152604090205481565b61039b610762366004613ae9565b6001600160a01b039182166000908152606a6020908152604080832093909416825291909152205460ff1690565b610403611c54565b61042160a85481565b6104036107af366004613b81565b611ca2565b61042160a25481565b61042160a95481565b6104036107d4366004613907565b611ff4565b60006107e48261202f565b92915050565b6060606580546107f990613ba1565b80601f016020809104026020016040519081016040528092919081815260200182805461082590613ba1565b80156108725780601f1061084757610100808354040283529160200191610872565b820191906000526020600020905b81548152906001019060200180831161085557829003601f168201915b5050505050905090565b60006108878261207f565b506000908152606960205260409020546001600160a01b031690565b60006108ae82610b68565b9050806001600160a01b0316836001600160a01b0316036109205760405162461bcd60e51b815260206004820152602160248201527f4552433732313a20617070726f76616c20746f2063757272656e74206f776e656044820152603960f91b60648201526084015b60405180910390fd5b336001600160a01b038216148061093c575061093c8133610762565b6109ae5760405162461bcd60e51b815260206004820152603d60248201527f4552433732313a20617070726f76652063616c6c6572206973206e6f7420746f60448201527f6b656e206f776e6572206f7220617070726f76656420666f7220616c6c0000006064820152608401610917565b6109b883836120de565b505050565b6109c633610bc8565b600114610a155760405162461bcd60e51b815260206004820152601960248201527f4f6e6c7920636f686f7274207061727469636970616e747321000000000000006044820152606401610917565b60aa546040517f7ad32bfb950c825d7d252f51537ad223c191a793ae9109cffc3bbd287485f6df91610a569133916001600160a01b03169086908690613bdb565b60405180910390a15050565b600082815260986020526040902060010154610a7d8161214c565b6109b88383612156565b600082815260986020526040902060010154610aa28161214c565b6109b883836121ac565b600080516020614477833981519152610ac48161214c565b610acd8261222c565b5050565b610adb33826122c9565b610af75760405162461bcd60e51b815260040161091790613c27565b6109b8838383612348565b600080516020614477833981519152610b1a8161214c565b8160a654610b289190613c8a565b60a6555050565b6109b88383836040518060200160405280600081525061107b565b600080516020614477833981519152610b628161214c565b5060a555565b6000818152606760205260408120546001600160a01b0316806107e45760405162461bcd60e51b8152602060048201526018602482015277115490cdcc8c4e881a5b9d985b1a59081d1bdad95b88125160421b6044820152606401610917565b60006001600160a01b038216610c325760405162461bcd60e51b815260206004820152602960248201527f4552433732313a2061646472657373207a65726f206973206e6f7420612076616044820152683634b21037bbb732b960b91b6064820152608401610917565b506001600160a01b031660009081526068602052604090205490565b60a18054610c5b90613ba1565b80601f0160208091040260200160405190810160405280929190818152602001828054610c8790613ba1565b8015610cd45780601f10610ca957610100808354040283529160200191610cd4565b820191906000526020600020905b815481529060010190602001808311610cb757829003601f168201915b505050505081565b600080516020614477833981519152610cf48161214c565b610cfc6124b9565b50565b6097546000838152609860205260408082205490516321a9204d60e11b81526001600160a01b038581166004830152602482019290925291921690634352409a90604401602060405180830381865afa158015610d60573d6000803e3d6000fd5b505050506040513d601f19601f82011682018060405250810190610d849190613c9d565b9392505050565b6060606680546107f990613ba1565b610acd338383612714565b609e546040516370a0823160e01b81526001600160a01b03838116600483015260009283929116906370a0823190602401602060405180830381865afa158015610df3573d6000803e3d6000fd5b505050506040513d601f19601f82011682018060405250810190610e179190613cba565b60a75411159392505050565b600080516020614477833981519152610e3b8161214c565b60408051600180825281830190925260009160208083019080368337505060408051600180825281830190925292935060009291506020808301908036833701905050905060a75482600081518110610e9657610e96613cd3565b6020026020010181815250508381600081518110610eb657610eb6613cd3565b6001600160a01b039283166020918202929092010152609d54604051632c78fd0360e21b815291169063b1e3f40c90610ef59084908690600401613d24565b600060405180830381600087803b158015610f0f57600080fd5b505af1158015610f23573d6000803e3d6000fd5b5050505050505050565b6060610f8760ad5483604051602481018390526001600160a01b038216604482015260609060640160408051601f198184030181529190526020810180516001600160e01b031663320fbbb760e11b179052905092915050565b60408051600180825281830190925291925060009190816020015b6060815260200190600190039081610fa25790505090508181600081518110610fcd57610fcd613cd3565b6020908102919091010152604080516001808252818301909252600091816020016020820280368337505060ab5482519293506001600160a01b03169183915060009061101c5761101c613cd3565b60200260200101906001600160a01b031690816001600160a01b03168152505061105061104983836127e2565b60036128c3565b50505050565b6000828152609860205260409020600101546110718161214c565b6109b88383612aaf565b61108533836122c9565b6110a15760405162461bcd60e51b815260040161091790613c27565b61105084848484612b18565b60006110b88161214c565b610acd82612b4b565b6000805160206144778339815191526110d98161214c565b5060a355565b6000805160206144778339815191526110f78161214c565b610acd82612b9d565b32331461114f5760405162461bcd60e51b815260206004820152601f60248201527f5468652063616c6c657220697320616e6f7468657220636f6e747261637421006044820152606401610917565b60a6544211156111a15760405162461bcd60e51b815260206004820152601960248201527f5468697320636f686f7274206973206e6f7720636c6f736564000000000000006044820152606401610917565b60a354609c5411156111f55760405162461bcd60e51b815260206004820152601b60248201527f5468697320636f686f727420697320616c72656164792066756c6c00000000006044820152606401610917565b6111fe81612c34565b61123c5760405162461bcd60e51b815260206004820152600f60248201526e5374616b696e67206661696c65642160881b6044820152606401610917565b60a4805490600061124c83613d84565b909155505060a2546000908152609b6020908152604080832060a4548452909152902080546001600160a01b03191633179055610cfc81612d48565b6000805160206144778339815191526112a08161214c565b8160008167ffffffffffffffff8111156112bc576112bc613990565b6040519080825280602002602001820160405280156112e5578160200160208202803683370190505b50905060005b828110156113255760a75482828151811061130857611308613cd3565b60209081029190910101528061131d81613d84565b9150506112eb565b50609d54604051632c78fd0360e21b81526001600160a01b039091169063b1e3f40c9061135a90889088908690600401613d9d565b600060405180830381600087803b15801561137457600080fd5b505af1158015611388573d6000803e3d6000fd5b505050505050505050565b606061139e8261207f565b60006113a8612dda565b905060008151116113c85760405180602001604052806000815250610d84565b806113d284612de9565b6040516020016113e3929190613dfe565b6040516020818303038152906040529392505050565b606061140860ad548484612e7c565b60408051600180825281830190925291925060009190816020015b6060815260200190600190039081611423579050509050818160008151811061144e5761144e613cd3565b6020908102919091010152604080516001808252818301909252600091816020016020820280368337505060ab5482519293506001600160a01b03169183915060009061149d5761149d613cd3565b60200260200101906001600160a01b031690816001600160a01b0316815250506114d16114ca83836127e2565b60046128c3565b5050505050565b6000805160206144778339815191526114f08161214c565b610acd82612ed6565b600054610100900460ff16158080156115195750600054600160ff909116105b806115335750303b158015611533575060005460ff166001145b6115965760405162461bcd60e51b815260206004820152602e60248201527f496e697469616c697a61626c653a20636f6e747261637420697320616c72656160448201526d191e481a5b9a5d1a585b1a5e995960921b6064820152608401610917565b6000805460ff1916600117905580156115b9576000805461ff0019166101001790555b6115c7609c80546001019055565b600160a2556115da610160850185613e2d565b60a1916115e8919083613ec9565b5060a084013560a35560c084013560a58190556116059042613c8a565b60a655611696611619610180860186613e2d565b8080601f01602080910402602001604051908101604052809392919081815260200183838082843760009201919091525061165c925050506101a0870187613e2d565b8080601f016020809104026020016040519081016040528093929190818152602001838380828437600092019190915250612f6c92505050565b6116a36020850185613907565b609d80546001600160a01b0319166001600160a01b0392909216918217905560408051638009ba1f60e01b81529051638009ba1f9160048082019260209290919082900301816000875af11580156116ff573d6000803e3d6000fd5b505050506040513d601f19601f820116820180604052508101906117239190613f89565b609e80546001600160a01b0319166001600160a01b03929092169190911790556117536060850160408601613907565b60aa80546001600160a01b0319166001600160a01b03929092169190911790556117836040850160208601613907565b609f80546001600160a01b0319166001600160a01b03929092169190911790556117b161010085013561222c565b6117be8460e00135612b9d565b6117cc846101200135612ed6565b6117e26117dd6101c0860186613e2d565b612f9d565b60ab80546001600160a01b0319166001600160a01b03851617905561180683612b4b565b61181861020085016101e08601613fa6565b156118f757606061182a306002612faa565b60408051600180825281830190925291925060009190816020015b6060815260200190600190039081611845579050509050818160008151811061187057611870613cd3565b60209081029190910101526040805160018082528183019092526000918160200160208202803683375050609d5482519293506001600160a01b0316918391506000906118bf576118bf613cd3565b60200260200101906001600160a01b031690816001600160a01b0316815250506118f36118ec83836127e2565b60016128c3565b5050505b60ab5460aa546040516321a9204d60e11b81526001600160a01b0391821660048201526101408701356024820152911690634352409a90604401602060405180830381865afa15801561194e573d6000803e3d6000fd5b505050506040513d601f19601f820116820180604052508101906119729190613c9d565b15611b455761014084013560ac81905560aa54606091829161199e91906001600160a01b031630612e7c565b9150611a1e846119b46080890160608a01613907565b6119c460a08a0160808b01613907565b6040516001600160a01b03808516602483015280841660448301528216606482015260609060840160408051601f198184030181529190526020810180516001600160e01b031662f3450f60e81b17905290509392505050565b6040805160028082526060820190925291925060009190816020015b6060815260200190600190039081611a3a5790505090508281600081518110611a6557611a65613cd3565b60200260200101819052508181600181518110611a8457611a84613cd3565b602090810291909101015260408051600280825260608201909252600091816020016020820280368337505060ab5482519293506001600160a01b031691839150600090611ad457611ad4613cd3565b60200260200101906001600160a01b031690816001600160a01b0316815250503081600181518110611b0857611b08613cd3565b60200260200101906001600160a01b031690816001600160a01b031681525050611b3c611b3583836127e2565b60026128c3565b50505050611c09565b60ab54604051631a64dfad60e01b815230600482015260606024820152600a6064820152691493d348151bdc12185d60b21b608482015260a06044820152600060a48201526001600160a01b0390911690631a64dfad9060c4016020604051808303816000875af1158015611bbe573d6000803e3d6000fd5b505050506040513d601f19601f82011682018060405250810190611be29190613cba565b60ac55611c0982611bf96080870160608801613907565b6107af60a0880160808901613907565b8015611050576000805461ff0019169055604051600181527f7f26b83ff96e1f2b6a682f133852f6798a09c465da95921460cefb38474024989060200160405180910390a150505050565b611c5c613088565b611c64613141565b611ca05760405162461bcd60e51b815260206004820152600d60248201526c436c61696d206661696c65642160981b6044820152606401610917565b565b60ae5460ff1615611cf55760405162461bcd60e51b815260206004820152601860248201527f4861747320616c726561647920696e697469616c697a656400000000000000006044820152606401610917565b60ae805460ff1916600190811790915560ab5460ac54609d54604051635829492f60e11b8152600481019290925260e06024830152600960e4830152682927a69020b236b4b760b91b610104830152600360448301526001600160a01b0390811660648301819052608483015260a482019390935261012060c4820152600061012482015291169063b052925e90610144016020604051808303816000875af1158015611da6573d6000803e3d6000fd5b505050506040513d601f19601f82011682018060405250810190611dca9190613cba565b60ad819055611de890600080516020614477833981519152906121ac565b60ab5460ad5460405163320fbbb760e11b815260048101919091526001600160a01b0385811660248301529091169063641f776e906044016020604051808303816000875af1158015611e3f573d6000803e3d6000fd5b505050506040513d601f19601f82011682018060405250810190611e639190613c9d565b506001600160a01b03821615611ef05760ab5460ad5460405163320fbbb760e11b815260048101919091526001600160a01b0384811660248301529091169063641f776e906044016020604051808303816000875af1158015611eca573d6000803e3d6000fd5b505050506040513d601f19601f82011682018060405250810190611eee9190613c9d565b505b6001600160a01b03811615611f7c5760ab5460ad5460405163320fbbb760e11b815260048101919091526001600160a01b0383811660248301529091169063641f776e906044016020604051808303816000875af1158015611f56573d6000803e3d6000fd5b505050506040513d601f19601f82011682018060405250810190611f7a9190613c9d565b505b60ab5460ac5460aa546040516329287c1b60e21b815260048101929092523060248301526001600160a01b0390811660448301529091169063a4a1f06c90606401600060405180830381600087803b158015611fd757600080fd5b505af1158015611feb573d6000803e3d6000fd5b50505050505050565b60008051602061447783398151915261200c8161214c565b61201582613278565b5060a4805490600061202683613fc3565b91905055505050565b60006001600160e01b031982166380ac58cd60e01b148061206057506001600160e01b03198216635b5e139f60e01b145b806107e457506301ffc9a760e01b6001600160e01b03198316146107e4565b6000818152606760205260409020546001600160a01b0316610cfc5760405162461bcd60e51b8152602060048201526018602482015277115490cdcc8c4e881a5b9d985b1a59081d1bdad95b88125160421b6044820152606401610917565b600081815260696020526040902080546001600160a01b0319166001600160a01b038416908117909155819061211382610b68565b6001600160a01b03167f8c5be1e5ebec7d5bd14f71427d1e84f3dd0314c0f7b2291e5b200ac8c7c3b92560405160405180910390a45050565b610cfc81336132e8565b600082815260986020526040902054819003610acd57600082815260986020526040808220829055513391839185917f641261709a27417e18d0ccc3db95ddc812d61be919b2a5a3af21a5870590922a91a45050565b60008281526098602052604090205480156121e45760405163aab0817760e01b81526004810184905260248101829052604401610917565b8181146109b857600083815260986020526040808220849055513391849186917f7c2a2c4bb5a44dafa473fc49e557303dba6db62123713789deefe8ccb384654991a4505050565b6000811161228d5760405162461bcd60e51b815260206004820152602860248201527f4d696e696d756d207374616b65206d7573742062652067726561746572207468604482015267616e207a65726f2160c01b6064820152608401610917565b60a88190556040518181527fb4b5fad09421a48c68e8513475c3adbf47ed48a5eefe543d4fec52c82db47469906020015b60405180910390a150565b6000806122d583610b68565b9050806001600160a01b0316846001600160a01b0316148061231c57506001600160a01b038082166000908152606a602090815260408083209388168352929052205460ff165b806123405750836001600160a01b03166123358461087c565b6001600160a01b0316145b949350505050565b826001600160a01b031661235b82610b68565b6001600160a01b0316146123815760405162461bcd60e51b815260040161091790613fda565b6001600160a01b0382166123e35760405162461bcd60e51b8152602060048201526024808201527f4552433732313a207472616e7366657220746f20746865207a65726f206164646044820152637265737360e01b6064820152608401610917565b6123f08383836001613339565b826001600160a01b031661240382610b68565b6001600160a01b0316146124295760405162461bcd60e51b815260040161091790613fda565b600081815260696020908152604080832080546001600160a01b03199081169091556001600160a01b0387811680865260688552838620805460001901905590871680865283862080546001019055868652606790945282852080549092168417909155905184937fddf252ad1be2c89b69c2b068fc378daa952ba7f163c4a11628f55a4df523b3ef91a4505050565b60a2546000908190816124cd826001613c8a565b905060015b60a454811161262a576000838152609b602090815260408083208484528252808320546001600160a01b0316808452609990925290912054600190156125ed576001600160a01b0382166000908152609a60205260409020544211156125735761253b82613278565b6125459088613c8a565b6000868152609b60209081526040808320878452909152902080546001600160a01b03191690559650612615565b6000848152609b60209081526040808320848452909152902080546001600160a01b0319166001600160a01b038416179055806125af81613d84565b91505085806125bd90613d84565b6000878152609b60209081526040808320888452909152902080546001600160a01b031916905596506126159050565b6000858152609b60209081526040808320868452909152902080546001600160a01b03191690555b5050808061262290613d84565b9150506124d2565b50609f5460aa5460405163a9059cbb60e01b81526001600160a01b0391821660048201526024810187905291169063a9059cbb906044016020604051808303816000875af1158015612680573d6000803e3d6000fd5b505050506040513d601f19601f820116820180604052508101906126a49190613c9d565b6126e45760405162461bcd60e51b81526020600482015260116024820152704661696c6564205361637269666963652160781b6044820152606401610917565b60a483905560a5546126f69042613c8a565b60a65560a2805490600061270983613d84565b919050555050505050565b816001600160a01b0316836001600160a01b0316036127755760405162461bcd60e51b815260206004820152601960248201527f4552433732313a20617070726f766520746f2063616c6c6572000000000000006044820152606401610917565b6001600160a01b038381166000818152606a6020908152604080832094871680845294825291829020805460ff191686151590811790915591519182527f17307eab39ab6107e8899845ad3d59bd9653f200f220920489ca2b5937696c31910160405180910390a3505050565b60608060005b845181101561287e5781600085838151811061280657612806613cd3565b6020026020010151600088858151811061282257612822613cd3565b60200260200101515189868151811061283d5761283d613cd3565b602002602001015160405160200161285a9695949392919061401f565b6040516020818303038152906040529150808061287690613d84565b9150506127e8565b508060405160240161289091906137c5565b60408051601f198184030181529190526020810180516001600160e01b03166346c07f8560e11b17905291505092915050565b609d5460408051639a2f747f60e01b815290516000926001600160a01b031691639a2f747f916004808301926020929190829003018187875af115801561290e573d6000803e3d6000fd5b505050506040513d601f19601f820116820180604052508101906129329190613cba565b90508034146129755760405162461bcd60e51b815260206004820152600f60248201526e4d697373696e67207472696275746560881b6044820152606401610917565b60608260010361299f576040518060c00160405280609c81526020016142ec609c91399050612a33565b826002036129c7576040518060c0016040528060928152602001614497609291399050612a33565b826003036129ef576040518060a00160405280607e815260200161426e607e91399050612a33565b82600403612a17576040518060c00160405280608a81526020016143ed608a91399050612a33565b6040518060a00160405280606581526020016143886065913990505b609d546040516307505ff960e31b81526001600160a01b0390911690633a82ffc8908490612a6c90889060009081908890600401614089565b60206040518083038185885af1158015612a8a573d6000803e3d6000fd5b50505050506040513d601f19601f820116820180604052508101906114d19190613cba565b60008281526098602052604081205490819003612ad057612ad083836121ac565b8181146109b857600083815260986020526040808220849055518391839186917fc3d694cb68f99c4c204d7aedbaba300907c24102aeeeecd32de2c9910609f30a91a4505050565b612b23848484612348565b612b2f84848484613390565b6110505760405162461bcd60e51b8152600401610917906140c0565b609780546001600160a01b038381166001600160a01b0319831681179093556040519116919082907fe2c5fed45442eae2ee9c94b63f1e24155d9bfe92ecd80e48c35ebf292767573790600090a35050565b60008111612bff5760405162461bcd60e51b815260206004820152602960248201527f4d696e696d756d20736861726573206d7573742062652067726561746572207460448201526868616e207a65726f2160b81b6064820152608401610917565b60a78190556040518181527f7155dd2d80b479664a5c9bf2c04a1b00c07aad515f3c089a20ce1ebff2c6ecdd906020016122be565b6000612c3f82610bc8565b15612c8c5760405162461bcd60e51b815260206004820152601e60248201527f416c7265616479206a6f696e65642074686520696e6974696174696f6e2100006044820152606401610917565b60a8546001600160a01b03831660009081526099602052604090205560a954612cb59042613c8a565b6001600160a01b038381166000908152609a60205260409081902092909255609f5460a85492516323b872dd60e01b8152336004820152306024820152604481019390935216906323b872dd906064016020604051808303816000875af1158015612d24573d6000803e3d6000fd5b505050506040513d601f19601f820116820180604052508101906107e49190613c9d565b6000612d53609c5490565b9050612d63609c80546001019055565b612d6d8282613491565b60a8546001600160a01b0383166000818152609a60209081526040918290205482519384523391840191909152908201849052606082019290925260808101919091527f9da9a86fb849b37cb0098539441b747ca3c0c5a367f5eaef701e6877e4b124d79060a001610a56565b606060a080546107f990613ba1565b60606000612df68361362a565b600101905060008167ffffffffffffffff811115612e1657612e16613990565b6040519080825280601f01601f191660200182016040528015612e40576020820181803683370190505b5090508181016020015b600019016f181899199a1a9b1b9c1cb0b131b232b360811b600a86061a8153600a8504945084612e4a57509392505050565b604051602481018490526001600160a01b0380841660448301528216606482015260609060840160408051601f198184030181529190526020810180516001600160e01b03166329287c1b60e21b17905290509392505050565b60008111612f375760405162461bcd60e51b815260206004820152602860248201527f4d696e696d756d206475726174696f6e206d7573742062652067726561746572604482015267207468616e20302160c01b6064820152608401610917565b60a98190556040518181527f856717cb327b027e506a205b6a989525427e169d7b6acb09ad84d849dea2b93f906020016122be565b600054610100900460ff16612f935760405162461bcd60e51b815260040161091790614112565b610acd8282613702565b60a06109b8828483613ec9565b60408051600180825281830190925260609160009190602080830190803683370190505090508381600081518110612fe457612fe4613cd3565b6001600160a01b039290921660209283029190910190910152604080516001808252818301909252600091816020016020820280368337019050509050838160008151811061303557613035613cd3565b6020026020010181815250508181604051602401613054929190613d24565b60408051601f198184030181529190526020810180516001600160e01b0316630f656a2160e01b1790529250505092915050565b609e546040516370a0823160e01b81523360048201526000916001600160a01b0316906370a0823190602401602060405180830381865afa1580156130d1573d6000803e3d6000fd5b505050506040513d601f19601f820116820180604052508101906130f59190613cba565b905060a754811015610cfc5760405162461bcd60e51b8152602060048201526015602482015274596f75206d7573742062652061206d656d6265722160581b6044820152606401610917565b336000818152609960205260408120549091906131965760405162461bcd60e51b81526020600482015260136024820152725573657220686173206e6f207374616b65212160681b6044820152606401610917565b6001600160a01b0381166000818152609960209081526040808320805490849055609a835281842093909355805193845290830182905290917f47cee97cb7acd717b3c0aa1435d004cd5b3c8c57d70dbceb4e4458bbd60e39d4910160405180910390a1609f5460405163a9059cbb60e01b81526001600160a01b038481166004830152602482018490529091169063a9059cbb906044016020604051808303816000875af115801561324d573d6000803e3d6000fd5b505050506040513d601f19601f820116820180604052508101906132719190613c9d565b9250505090565b6001600160a01b0381166000818152609960209081526040808320805490849055609a83528184208490558151948552918401829052339084015290917f1b4365d94ccfc86d7cd3eef46bf15cd821f8abb29721248eca1d751eebb669009060600160405180910390a192915050565b6132f28282610cff565b610acd5760008281526098602052604090819020549051631612509360e01b81526004810184905260248101919091526001600160a01b0382166044820152606401610917565b6001600160a01b038416156110505760405162461bcd60e51b815260206004820152601960248201527f5342542063616e6e6f74206265207472616e73666572726564000000000000006044820152606401610917565b60006001600160a01b0384163b1561348657604051630a85bd0160e11b81526001600160a01b0385169063150b7a02906133d490339089908890889060040161415d565b6020604051808303816000875af192505050801561340f575060408051601f3d908101601f1916820190925261340c91810190614190565b60015b61346c573d80801561343d576040519150601f19603f3d011682016040523d82523d6000602084013e613442565b606091505b5080516000036134645760405162461bcd60e51b8152600401610917906140c0565b805181602001fd5b6001600160e01b031916630a85bd0160e11b149050612340565b506001949350505050565b6001600160a01b0382166134e75760405162461bcd60e51b815260206004820181905260248201527f4552433732313a206d696e7420746f20746865207a65726f20616464726573736044820152606401610917565b6000818152606760205260409020546001600160a01b03161561354c5760405162461bcd60e51b815260206004820152601c60248201527f4552433732313a20746f6b656e20616c7265616479206d696e746564000000006044820152606401610917565b61355a600083836001613339565b6000818152606760205260409020546001600160a01b0316156135bf5760405162461bcd60e51b815260206004820152601c60248201527f4552433732313a20746f6b656e20616c7265616479206d696e746564000000006044820152606401610917565b6001600160a01b038216600081815260686020908152604080832080546001019055848352606790915280822080546001600160a01b0319168417905551839291907fddf252ad1be2c89b69c2b068fc378daa952ba7f163c4a11628f55a4df523b3ef908290a45050565b60008072184f03e93ff9f4daa797ed6e38ed64bf6a1f0160401b83106136695772184f03e93ff9f4daa797ed6e38ed64bf6a1f0160401b830492506040015b6d04ee2d6d415b85acef81000000008310613695576d04ee2d6d415b85acef8100000000830492506020015b662386f26fc1000083106136b357662386f26fc10000830492506010015b6305f5e10083106136cb576305f5e100830492506008015b61271083106136df57612710830492506004015b606483106136f1576064830492506002015b600a83106107e45760010192915050565b600054610100900460ff166137295760405162461bcd60e51b815260040161091790614112565b606561373583826141ad565b5060666109b882826141ad565b6001600160e01b031981168114610cfc57600080fd5b60006020828403121561376a57600080fd5b8135610d8481613742565b60005b83811015613790578181015183820152602001613778565b50506000910152565b600081518084526137b1816020860160208601613775565b601f01601f19169290920160200192915050565b602081526000610d846020830184613799565b6000602082840312156137ea57600080fd5b5035919050565b6001600160a01b0381168114610cfc57600080fd5b6000806040838503121561381957600080fd5b8235613824816137f1565b946020939093013593505050565b6000806020838503121561384557600080fd5b823567ffffffffffffffff8082111561385d57600080fd5b818501915085601f83011261387157600080fd5b81358181111561388057600080fd5b86602082850101111561389257600080fd5b60209290920196919550909350505050565b600080604083850312156138b757600080fd5b50508035926020909101359150565b6000806000606084860312156138db57600080fd5b83356138e6816137f1565b925060208401356138f6816137f1565b929592945050506040919091013590565b60006020828403121561391957600080fd5b8135610d84816137f1565b6000806040838503121561393757600080fd5b823591506020830135613949816137f1565b809150509250929050565b8015158114610cfc57600080fd5b6000806040838503121561397557600080fd5b8235613980816137f1565b9150602083013561394981613954565b634e487b7160e01b600052604160045260246000fd5b600080600080608085870312156139bc57600080fd5b84356139c7816137f1565b935060208501356139d7816137f1565b925060408501359150606085013567ffffffffffffffff808211156139fb57600080fd5b818701915087601f830112613a0f57600080fd5b813581811115613a2157613a21613990565b604051601f8201601f19908116603f01168101908382118183101715613a4957613a49613990565b816040528281528a6020848701011115613a6257600080fd5b82602086016020830137600060208483010152809550505050505092959194509250565b60008060208385031215613a9957600080fd5b823567ffffffffffffffff80821115613ab157600080fd5b818501915085601f830112613ac557600080fd5b813581811115613ad457600080fd5b8660208260051b850101111561389257600080fd5b60008060408385031215613afc57600080fd5b8235613b07816137f1565b91506020830135613949816137f1565b600080600060608486031215613b2c57600080fd5b833567ffffffffffffffff811115613b4357600080fd5b84016102008187031215613b5657600080fd5b92506020840135613b66816137f1565b91506040840135613b76816137f1565b809150509250925092565b600080600060608486031215613b9657600080fd5b8335613b56816137f1565b600181811c90821680613bb557607f821691505b602082108103613bd557634e487b7160e01b600052602260045260246000fd5b50919050565b6001600160a01b0385811682528416602082015260606040820181905281018290526000828460808401376000608084840101526080601f19601f850116830101905095945050505050565b6020808252602d908201527f4552433732313a2063616c6c6572206973206e6f7420746f6b656e206f776e6560408201526c1c881bdc88185c1c1c9bdd9959609a1b606082015260800190565b634e487b7160e01b600052601160045260246000fd5b808201808211156107e4576107e4613c74565b600060208284031215613caf57600080fd5b8151610d8481613954565b600060208284031215613ccc57600080fd5b5051919050565b634e487b7160e01b600052603260045260246000fd5b600081518084526020808501945080840160005b83811015613d1957815187529582019590820190600101613cfd565b509495945050505050565b604080825283519082018190526000906020906060840190828701845b82811015613d665781516001600160a01b031684529284019290840190600101613d41565b50505083810382850152613d7a8186613ce9565b9695505050505050565b600060018201613d9657613d96613c74565b5060010190565b6040808252810183905260008460608301825b86811015613de0578235613dc3816137f1565b6001600160a01b0316825260209283019290910190600101613db0565b508381036020850152613df38186613ce9565b979650505050505050565b60008351613e10818460208801613775565b835190830190613e24818360208801613775565b01949350505050565b6000808335601e19843603018112613e4457600080fd5b83018035915067ffffffffffffffff821115613e5f57600080fd5b602001915036819003821315613e7457600080fd5b9250929050565b601f8211156109b857600081815260208120601f850160051c81016020861015613ea25750805b601f850160051c820191505b81811015613ec157828155600101613eae565b505050505050565b67ffffffffffffffff831115613ee157613ee1613990565b613ef583613eef8354613ba1565b83613e7b565b6000601f841160018114613f295760008515613f115750838201355b600019600387901b1c1916600186901b1783556114d1565b600083815260209020601f19861690835b82811015613f5a5786850135825560209485019460019092019101613f3a565b5086821015613f775760001960f88860031b161c19848701351681555b505060018560011b0183555050505050565b600060208284031215613f9b57600080fd5b8151610d84816137f1565b600060208284031215613fb857600080fd5b8135610d8481613954565b600081613fd257613fd2613c74565b506000190190565b60208082526025908201527f4552433732313a207472616e736665722066726f6d20696e636f72726563742060408201526437bbb732b960d91b606082015260800190565b60008751614031818460208c01613775565b808301905060ff60f81b8860f81b1681526bffffffffffffffffffffffff198760601b1660018201528560158201528460358201528351614079816055840160208801613775565b0160550198975050505050505050565b60808152600061409c6080830187613799565b63ffffffff861660208401528460408401528281036060840152613df38185613799565b60208082526032908201527f4552433732313a207472616e7366657220746f206e6f6e20455243373231526560408201527131b2b4bb32b91034b6b83632b6b2b73a32b960711b606082015260800190565b6020808252602b908201527f496e697469616c697a61626c653a20636f6e7472616374206973206e6f74206960408201526a6e697469616c697a696e6760a81b606082015260800190565b6001600160a01b0385811682528416602082015260408101839052608060608201819052600090613d7a90830184613799565b6000602082840312156141a257600080fd5b8151610d8481613742565b815167ffffffffffffffff8111156141c7576141c7613990565b6141db816141d58454613ba1565b84613e7b565b602080601f83116001811461421057600084156141f85750858301515b600019600386901b1c1916600185901b178555613ec1565b600085815260208120601f198616915b8281101561423f57888601518255948401946001909101908401614220565b508582101561425d5787850151600019600388901b60f8161c191681555b5050505050600190811b0190555056fe7b2270726f706f73616c54797065223a20224d494e545f41444d494e484154222c20227469746c65223a202252697465206f66204d6f6c6f63682028524f4d293a204d696e742041646d696e20486174222c20226465736372697074696f6e223a20224d696e7420524f4d2d41646d696e2068617420746f20454f41227d7b2270726f706f73616c54797065223a20224144445f5348414d414e222c20227469746c65223a202252697465206f66204d6f6c6f63682028524f4d293a205368616d616e2050726f706f73616c222c20226465736372697074696f6e223a202241737369676e20524f4d2061732061204d616e616765722d5368616d616e20746f206d696e74206d696e696d756d2044414f20736861726573227d7b2270726f706f73616c54797065223a2022554e444546494e4544222c20227469746c65223a202252697465206f66204d6f6c6f63682028524f4d293a20756e646566696e6564222c20226465736372697074696f6e223a2022556e646566696e6564227d7b2270726f706f73616c54797065223a20225452414e534645525f41444d494e484154222c20227469746c65223a202252697465206f66204d6f6c6f63682028524f4d293a205472616e736665722041646d696e20486174222c20226465736372697074696f6e223a20225472616e7366657220524f4d2d41646d696e2068617420746f20454f41227ddf8b4c520ffe197c5343c6f5aec59570151ef9a492f2c624fd45ddde6135ec427b2270726f706f73616c54797065223a2022424f52524f575f544f50484154222c20227469746c65223a202252697465206f66204d6f6c6f63682028524f4d293a20486174732050726f706f73616c222c20226465736372697074696f6e223a202243726561746520616e64206d696e7420524f4d2d41646d696e20686174732066726f6d2044414f20546f70486174227da2646970667358221220fd93ff997db0cb95d7bb88a6be9eb9a12c755afb38ca286d2bcb82779589ff0864736f6c63430008110033",
    "linkReferences": {}
  },
  "methodIdentifiers": {
    "ADMIN()": "2a0acc6a",
    "DEFAULT_ADMIN_ROLE()": "a217fddf",
    "HATS()": "7150ef88",
    "adminHat()": "232b0432",
    "approve(address,uint256)": "095ea7b3",
    "baal()": "e5a2a2a5",
    "balanceOf(address)": "70a08231",
    "batchMintBaalShares(address[])": "c81f83a2",
    "changeHatsContract(address)": "b8c45361",
    "changeJoinSizeLimit(uint256)": "b8ebdcd9",
    "changeJoinTimeDuration(uint256)": "4558e83d",
    "changeRoleHat(bytes32,uint256)": "b5436cec",
    "checkStake(address)": "90d96d76",
    "claimStake()": "eb321173",
    "cohortCounter()": "aee4c96f",
    "cohortName()": "73f78fd0",
    "cohortSeason()": "f68659bd",
    "cohortSize()": "c6db8129",
    "cryForHelp(string)": "0c538f2f",
    "deadlines(address)": "e5d05722",
    "extendJoinTimeLimit(uint256)": "2a4a1342",
    "getApproved(uint256)": "081812fc",
    "getDeadline(address)": "a2213262",
    "getRoleAdmin(bytes32)": "248a9ca3",
    "grantRole(bytes32,uint256)": "1b6ea9f9",
    "hasRole(bytes32,address)": "91d14854",
    "hatsContract()": "97e39fef",
    "initialize((address,address,address,address,address,uint256,uint256,uint256,uint256,uint256,uint256,string,string,string,string,bool),address,address)": "cfdb44d6",
    "initializeHatTree(address,address,address)": "f3450f00",
    "isApprovedForAll(address,address)": "e985e9c5",
    "isMember(address)": "a230c524",
    "joinDuration()": "172bf854",
    "joinEndTime()": "35439bb3",
    "joinInitiation(address)": "c733d5e9",
    "maximumTime()": "f9bb68fc",
    "minimumShare()": "2e152618",
    "minimumStake()": "ec5ffac2",
    "mintAdminHatProposal(address)": "a3beab6a",
    "name()": "06fdde03",
    "ownerOf(uint256)": "6352211e",
    "revokeRole(bytes32,uint256)": "19d61ad9",
    "sacrifice()": "8a040df4",
    "safeTransferFrom(address,address,uint256)": "42842e0e",
    "safeTransferFrom(address,address,uint256,bytes)": "b88d4fde",
    "setApprovalForAll(address,bool)": "a22cb465",
    "setMaxDuration(uint256)": "cf0f34c4",
    "setMinimumStake(uint256)": "233e9903",
    "setShareThreshold(uint256)": "bc5fa8df",
    "singleMintBaalShares(address)": "a3919d1f",
    "slaughter(address)": "fc4c0958",
    "supportsInterface(bytes4)": "01ffc9a7",
    "symbol()": "95d89b41",
    "tokenURI(uint256)": "c87b56dd",
    "topHat()": "c2d14f02",
    "transferAdminHat(address,address)": "ccfa5d33",
    "transferFrom(address,address,uint256)": "23b872dd",
    "treasury()": "61d027b3"
  },
  "id": 58
}