{
  "abi": [
    {
      "inputs": [],
      "stateMutability": "nonpayable",
      "type": "constructor"
    },
    {
      "inputs": [
        {
          "internalType": "bytes32",
          "name": "role",
          "type": "bytes32"
        },
        {
          "internalType": "uint256",
          "name": "hat",
          "type": "uint256"
        },
        {
          "internalType": "address",
          "name": "account",
          "type": "address"
        }
      ],
      "name": "NotWearingRoleHat",
      "type": "error"
    },
    {
      "inputs": [
        {
          "internalType": "bytes32",
          "name": "role",
          "type": "bytes32"
        },
        {
          "internalType": "uint256",
          "name": "roleHat",
          "type": "uint256"
        }
      ],
      "name": "RoleAlreadyAssigned",
      "type": "error"
    },
    {
      "anonymous": false,
      "inputs": [
        {
          "indexed": true,
          "internalType": "address",
          "name": "owner",
          "type": "address"
        },
        {
          "indexed": true,
          "internalType": "address",
          "name": "approved",
          "type": "address"
        },
        {
          "indexed": true,
          "internalType": "uint256",
          "name": "tokenId",
          "type": "uint256"
        }
      ],
      "name": "Approval",
      "type": "event"
    },
    {
      "anonymous": false,
      "inputs": [
        {
          "indexed": true,
          "internalType": "address",
          "name": "owner",
          "type": "address"
        },
        {
          "indexed": true,
          "internalType": "address",
          "name": "operator",
          "type": "address"
        },
        {
          "indexed": false,
          "internalType": "bool",
          "name": "approved",
          "type": "bool"
        }
      ],
      "name": "ApprovalForAll",
      "type": "event"
    },
    {
      "anonymous": false,
      "inputs": [
        {
          "indexed": false,
          "internalType": "uint256",
          "name": "newShare",
          "type": "uint256"
        }
      ],
      "name": "ChangedShares",
      "type": "event"
    },
    {
      "anonymous": false,
      "inputs": [
        {
          "indexed": false,
          "internalType": "uint256",
          "name": "newStake",
          "type": "uint256"
        }
      ],
      "name": "ChangedStake",
      "type": "event"
    },
    {
      "anonymous": false,
      "inputs": [
        {
          "indexed": false,
          "internalType": "uint256",
          "name": "newTime",
          "type": "uint256"
        }
      ],
      "name": "ChangedTime",
      "type": "event"
    },
    {
      "anonymous": false,
      "inputs": [
        {
          "indexed": false,
          "internalType": "address",
          "name": "newMember",
          "type": "address"
        },
        {
          "indexed": false,
          "internalType": "uint256",
          "name": "claimAmount",
          "type": "uint256"
        }
      ],
      "name": "Claim",
      "type": "event"
    },
    {
      "anonymous": false,
      "inputs": [
        {
          "indexed": false,
          "internalType": "address",
          "name": "user",
          "type": "address"
        },
        {
          "indexed": false,
          "internalType": "address",
          "name": "treasury",
          "type": "address"
        },
        {
          "indexed": false,
          "internalType": "string",
          "name": "feedback",
          "type": "string"
        }
      ],
      "name": "Feedback",
      "type": "event"
    },
    {
      "anonymous": false,
      "inputs": [
        {
          "indexed": true,
          "internalType": "address",
          "name": "previousHatsContract",
          "type": "address"
        },
        {
          "indexed": true,
          "internalType": "address",
          "name": "newHatsContract",
          "type": "address"
        }
      ],
      "name": "HatsContractChanged",
      "type": "event"
    },
    {
      "anonymous": false,
      "inputs": [
        {
          "indexed": false,
          "internalType": "uint8",
          "name": "version",
          "type": "uint8"
        }
      ],
      "name": "Initialized",
      "type": "event"
    },
    {
      "anonymous": false,
      "inputs": [
        {
          "indexed": false,
          "internalType": "address",
          "name": "newInitiate",
          "type": "address"
        },
        {
          "indexed": false,
          "internalType": "address",
          "name": "benefactor",
          "type": "address"
        },
        {
          "indexed": false,
          "internalType": "uint256",
          "name": "tokenId",
          "type": "uint256"
        },
        {
          "indexed": false,
          "internalType": "uint256",
          "name": "stake",
          "type": "uint256"
        },
        {
          "indexed": false,
          "internalType": "uint256",
          "name": "deadline",
          "type": "uint256"
        }
      ],
      "name": "Initiation",
      "type": "event"
    },
    {
      "anonymous": false,
      "inputs": [
        {
          "indexed": true,
          "internalType": "bytes32",
          "name": "role",
          "type": "bytes32"
        },
        {
          "indexed": true,
          "internalType": "bytes32",
          "name": "previousAdminRole",
          "type": "bytes32"
        },
        {
          "indexed": true,
          "internalType": "bytes32",
          "name": "newAdminRole",
          "type": "bytes32"
        }
      ],
      "name": "RoleAdminChanged",
      "type": "event"
    },
    {
      "anonymous": false,
      "inputs": [
        {
          "indexed": true,
          "internalType": "bytes32",
          "name": "role",
          "type": "bytes32"
        },
        {
          "indexed": true,
          "internalType": "uint256",
          "name": "hat",
          "type": "uint256"
        },
        {
          "indexed": true,
          "internalType": "address",
          "name": "sender",
          "type": "address"
        }
      ],
      "name": "RoleGranted",
      "type": "event"
    },
    {
      "anonymous": false,
      "inputs": [
        {
          "indexed": true,
          "internalType": "bytes32",
          "name": "role",
          "type": "bytes32"
        },
        {
          "indexed": true,
          "internalType": "uint256",
          "name": "previousRoleHat",
          "type": "uint256"
        },
        {
          "indexed": true,
          "internalType": "uint256",
          "name": "newRoleHat",
          "type": "uint256"
        }
      ],
      "name": "RoleHatChanged",
      "type": "event"
    },
    {
      "anonymous": false,
      "inputs": [
        {
          "indexed": true,
          "internalType": "bytes32",
          "name": "role",
          "type": "bytes32"
        },
        {
          "indexed": true,
          "internalType": "uint256",
          "name": "hat",
          "type": "uint256"
        },
        {
          "indexed": true,
          "internalType": "address",
          "name": "sender",
          "type": "address"
        }
      ],
      "name": "RoleRevoked",
      "type": "event"
    },
    {
      "anonymous": false,
      "inputs": [
        {
          "indexed": false,
          "internalType": "address",
          "name": "sacrifice",
          "type": "address"
        },
        {
          "indexed": false,
          "internalType": "uint256",
          "name": "slashedAmount",
          "type": "uint256"
        },
        {
          "indexed": false,
          "internalType": "address",
          "name": "slasher",
          "type": "address"
        }
      ],
      "name": "Sacrifice",
      "type": "event"
    },
    {
      "anonymous": false,
      "inputs": [
        {
          "indexed": true,
          "internalType": "address",
          "name": "from",
          "type": "address"
        },
        {
          "indexed": true,
          "internalType": "address",
          "name": "to",
          "type": "address"
        },
        {
          "indexed": true,
          "internalType": "uint256",
          "name": "tokenId",
          "type": "uint256"
        }
      ],
      "name": "Transfer",
      "type": "event"
    },
    {
      "inputs": [],
      "name": "ADMIN",
      "outputs": [
        {
          "internalType": "bytes32",
          "name": "",
          "type": "bytes32"
        }
      ],
      "stateMutability": "view",
      "type": "function"
    },
    {
      "inputs": [],
      "name": "DEFAULT_ADMIN_ROLE",
      "outputs": [
        {
          "internalType": "bytes32",
          "name": "",
          "type": "bytes32"
        }
      ],
      "stateMutability": "view",
      "type": "function"
    },
    {
      "inputs": [],
      "name": "HATS",
      "outputs": [
        {
          "internalType": "contract IHats",
          "name": "",
          "type": "address"
        }
      ],
      "stateMutability": "view",
      "type": "function"
    },
    {
      "inputs": [],
      "name": "adminHat",
      "outputs": [
        {
          "internalType": "uint256",
          "name": "",
          "type": "uint256"
        }
      ],
      "stateMutability": "view",
      "type": "function"
    },
    {
      "inputs": [
        {
          "internalType": "address",
          "name": "to",
          "type": "address"
        },
        {
          "internalType": "uint256",
          "name": "tokenId",
          "type": "uint256"
        }
      ],
      "name": "approve",
      "outputs": [],
      "stateMutability": "nonpayable",
      "type": "function"
    },
    {
      "inputs": [],
      "name": "baal",
      "outputs": [
        {
          "internalType": "contract IBaal",
          "name": "",
          "type": "address"
        }
      ],
      "stateMutability": "view",
      "type": "function"
    },
    {
      "inputs": [
        {
          "internalType": "address",
          "name": "owner",
          "type": "address"
        }
      ],
      "name": "balanceOf",
      "outputs": [
        {
          "internalType": "uint256",
          "name": "",
          "type": "uint256"
        }
      ],
      "stateMutability": "view",
      "type": "function"
    },
    {
      "inputs": [
        {
          "internalType": "address[]",
          "name": "to",
          "type": "address[]"
        }
      ],
      "name": "batchMintBaalShares",
      "outputs": [],
      "stateMutability": "nonpayable",
      "type": "function"
    },
    {
      "inputs": [
        {
          "internalType": "address",
          "name": "newHatsContract",
          "type": "address"
        }
      ],
      "name": "changeHatsContract",
      "outputs": [],
      "stateMutability": "nonpayable",
      "type": "function"
    },
    {
      "inputs": [
        {
          "internalType": "uint256",
          "name": "_cohortSize",
          "type": "uint256"
        }
      ],
      "name": "changeJoinSizeLimit",
      "outputs": [],
      "stateMutability": "nonpayable",
      "type": "function"
    },
    {
      "inputs": [
        {
          "internalType": "uint256",
          "name": "_joinDuration",
          "type": "uint256"
        }
      ],
      "name": "changeJoinTimeDuration",
      "outputs": [],
      "stateMutability": "nonpayable",
      "type": "function"
    },
    {
      "inputs": [
        {
          "internalType": "bytes32",
          "name": "role",
          "type": "bytes32"
        },
        {
          "internalType": "uint256",
          "name": "newRoleHat",
          "type": "uint256"
        }
      ],
      "name": "changeRoleHat",
      "outputs": [],
      "stateMutability": "nonpayable",
      "type": "function"
    },
    {
      "inputs": [
        {
          "internalType": "address",
          "name": "user",
          "type": "address"
        }
      ],
      "name": "checkStake",
      "outputs": [
        {
          "internalType": "uint256",
          "name": "",
          "type": "uint256"
        }
      ],
      "stateMutability": "view",
      "type": "function"
    },
    {
      "inputs": [],
      "name": "claimStake",
      "outputs": [],
      "stateMutability": "nonpayable",
      "type": "function"
    },
    {
      "inputs": [],
      "name": "cohortCounter",
      "outputs": [
        {
          "internalType": "uint256",
          "name": "",
          "type": "uint256"
        }
      ],
      "stateMutability": "view",
      "type": "function"
    },
    {
      "inputs": [],
      "name": "cohortName",
      "outputs": [
        {
          "internalType": "string",
          "name": "",
          "type": "string"
        }
      ],
      "stateMutability": "view",
      "type": "function"
    },
    {
      "inputs": [],
      "name": "cohortSeason",
      "outputs": [
        {
          "internalType": "uint256",
          "name": "",
          "type": "uint256"
        }
      ],
      "stateMutability": "view",
      "type": "function"
    },
    {
      "inputs": [],
      "name": "cohortSize",
      "outputs": [
        {
          "internalType": "uint256",
          "name": "",
          "type": "uint256"
        }
      ],
      "stateMutability": "view",
      "type": "function"
    },
    {
      "inputs": [
        {
          "internalType": "string",
          "name": "feedback",
          "type": "string"
        }
      ],
      "name": "cryForHelp",
      "outputs": [],
      "stateMutability": "nonpayable",
      "type": "function"
    },
    {
      "inputs": [
        {
          "internalType": "address",
          "name": "",
          "type": "address"
        }
      ],
      "name": "deadlines",
      "outputs": [
        {
          "internalType": "uint256",
          "name": "",
          "type": "uint256"
        }
      ],
      "stateMutability": "view",
      "type": "function"
    },
    {
      "inputs": [
        {
          "internalType": "uint256",
          "name": "_extension",
          "type": "uint256"
        }
      ],
      "name": "extendJoinTimeLimit",
      "outputs": [],
      "stateMutability": "nonpayable",
      "type": "function"
    },
    {
      "inputs": [
        {
          "internalType": "uint256",
          "name": "tokenId",
          "type": "uint256"
        }
      ],
      "name": "getApproved",
      "outputs": [
        {
          "internalType": "address",
          "name": "",
          "type": "address"
        }
      ],
      "stateMutability": "view",
      "type": "function"
    },
    {
      "inputs": [
        {
          "internalType": "address",
          "name": "user",
          "type": "address"
        }
      ],
      "name": "getDeadline",
      "outputs": [
        {
          "internalType": "uint256",
          "name": "",
          "type": "uint256"
        }
      ],
      "stateMutability": "view",
      "type": "function"
    },
    {
      "inputs": [
        {
          "internalType": "bytes32",
          "name": "role",
          "type": "bytes32"
        }
      ],
      "name": "getRoleAdmin",
      "outputs": [
        {
          "internalType": "bytes32",
          "name": "",
          "type": "bytes32"
        }
      ],
      "stateMutability": "view",
      "type": "function"
    },
    {
      "inputs": [
        {
          "internalType": "bytes32",
          "name": "role",
          "type": "bytes32"
        },
        {
          "internalType": "uint256",
          "name": "hat",
          "type": "uint256"
        }
      ],
      "name": "grantRole",
      "outputs": [],
      "stateMutability": "nonpayable",
      "type": "function"
    },
    {
      "inputs": [
        {
          "internalType": "bytes32",
          "name": "role",
          "type": "bytes32"
        },
        {
          "internalType": "address",
          "name": "account",
          "type": "address"
        }
      ],
      "name": "hasRole",
      "outputs": [
        {
          "internalType": "bool",
          "name": "",
          "type": "bool"
        }
      ],
      "stateMutability": "view",
      "type": "function"
    },
    {
      "inputs": [],
      "name": "hatsContract",
      "outputs": [
        {
          "internalType": "address",
          "name": "",
          "type": "address"
        }
      ],
      "stateMutability": "view",
      "type": "function"
    },
    {
      "inputs": [
        {
          "components": [
            {
              "internalType": "address",
              "name": "membershipCriteria",
              "type": "address"
            },
            {
              "internalType": "address",
              "name": "stakingAsset",
              "type": "address"
            },
            {
              "internalType": "address",
              "name": "treasury",
              "type": "address"
            },
            {
              "internalType": "address",
              "name": "admin1",
              "type": "address"
            },
            {
              "internalType": "address",
              "name": "admin2",
              "type": "address"
            },
            {
              "internalType": "uint256",
              "name": "cohortSize",
              "type": "uint256"
            },
            {
              "internalType": "uint256",
              "name": "joinDuration",
              "type": "uint256"
            },
            {
              "internalType": "uint256",
              "name": "threshold",
              "type": "uint256"
            },
            {
              "internalType": "uint256",
              "name": "assetAmount",
              "type": "uint256"
            },
            {
              "internalType": "uint256",
              "name": "stakeDuration",
              "type": "uint256"
            },
            {
              "internalType": "uint256",
              "name": "topHatId",
              "type": "uint256"
            },
            {
              "internalType": "string",
              "name": "cohortName",
              "type": "string"
            },
            {
              "internalType": "string",
              "name": "sbtName",
              "type": "string"
            },
            {
              "internalType": "string",
              "name": "sbtSymbol",
              "type": "string"
            },
            {
              "internalType": "string",
              "name": "baseUri",
              "type": "string"
            },
            {
              "internalType": "bool",
              "name": "shamanOn",
              "type": "bool"
            }
          ],
          "internalType": "struct IInitData.InitData",
          "name": "initData",
          "type": "tuple"
        },
        {
          "internalType": "address",
          "name": "hatsProtocol",
          "type": "address"
        },
        {
          "internalType": "address",
          "name": "caller_",
          "type": "address"
        }
      ],
      "name": "initialize",
      "outputs": [],
      "stateMutability": "nonpayable",
      "type": "function"
    },
    {
      "inputs": [
        {
          "internalType": "address",
          "name": "_deployer",
          "type": "address"
        },
        {
          "internalType": "address",
          "name": "_admin1",
          "type": "address"
        },
        {
          "internalType": "address",
          "name": "_admin2",
          "type": "address"
        }
      ],
      "name": "initializeHatTree",
      "outputs": [],
      "stateMutability": "nonpayable",
      "type": "function"
    },
    {
      "inputs": [
        {
          "internalType": "address",
          "name": "owner",
          "type": "address"
        },
        {
          "internalType": "address",
          "name": "operator",
          "type": "address"
        }
      ],
      "name": "isApprovedForAll",
      "outputs": [
        {
          "internalType": "bool",
          "name": "",
          "type": "bool"
        }
      ],
      "stateMutability": "view",
      "type": "function"
    },
    {
      "inputs": [
        {
          "internalType": "address",
          "name": "user",
          "type": "address"
        }
      ],
      "name": "isMember",
      "outputs": [
        {
          "internalType": "bool",
          "name": "",
          "type": "bool"
        }
      ],
      "stateMutability": "view",
      "type": "function"
    },
    {
      "inputs": [],
      "name": "joinDuration",
      "outputs": [
        {
          "internalType": "uint256",
          "name": "",
          "type": "uint256"
        }
      ],
      "stateMutability": "view",
      "type": "function"
    },
    {
      "inputs": [],
      "name": "joinEndTime",
      "outputs": [
        {
          "internalType": "uint256",
          "name": "",
          "type": "uint256"
        }
      ],
      "stateMutability": "view",
      "type": "function"
    },
    {
      "inputs": [
        {
          "internalType": "address",
          "name": "user",
          "type": "address"
        }
      ],
      "name": "joinInitiation",
      "outputs": [],
      "stateMutability": "nonpayable",
      "type": "function"
    },
    {
      "inputs": [],
      "name": "maximumTime",
      "outputs": [
        {
          "internalType": "uint256",
          "name": "",
          "type": "uint256"
        }
      ],
      "stateMutability": "view",
      "type": "function"
    },
    {
      "inputs": [],
      "name": "minimumShare",
      "outputs": [
        {
          "internalType": "uint256",
          "name": "",
          "type": "uint256"
        }
      ],
      "stateMutability": "view",
      "type": "function"
    },
    {
      "inputs": [],
      "name": "minimumStake",
      "outputs": [
        {
          "internalType": "uint256",
          "name": "",
          "type": "uint256"
        }
      ],
      "stateMutability": "view",
      "type": "function"
    },
    {
      "inputs": [
        {
          "internalType": "address",
          "name": "_to",
          "type": "address"
        }
      ],
      "name": "mintAdminHatProposal",
      "outputs": [],
      "stateMutability": "nonpayable",
      "type": "function"
    },
    {
      "inputs": [],
      "name": "name",
      "outputs": [
        {
          "internalType": "string",
          "name": "",
          "type": "string"
        }
      ],
      "stateMutability": "view",
      "type": "function"
    },
    {
      "inputs": [
        {
          "internalType": "uint256",
          "name": "tokenId",
          "type": "uint256"
        }
      ],
      "name": "ownerOf",
      "outputs": [
        {
          "internalType": "address",
          "name": "",
          "type": "address"
        }
      ],
      "stateMutability": "view",
      "type": "function"
    },
    {
      "inputs": [
        {
          "internalType": "bytes32",
          "name": "role",
          "type": "bytes32"
        },
        {
          "internalType": "uint256",
          "name": "hat",
          "type": "uint256"
        }
      ],
      "name": "revokeRole",
      "outputs": [],
      "stateMutability": "nonpayable",
      "type": "function"
    },
    {
      "inputs": [],
      "name": "sacrifice",
      "outputs": [],
      "stateMutability": "nonpayable",
      "type": "function"
    },
    {
      "inputs": [
        {
          "internalType": "address",
          "name": "from",
          "type": "address"
        },
        {
          "internalType": "address",
          "name": "to",
          "type": "address"
        },
        {
          "internalType": "uint256",
          "name": "tokenId",
          "type": "uint256"
        }
      ],
      "name": "safeTransferFrom",
      "outputs": [],
      "stateMutability": "nonpayable",
      "type": "function"
    },
    {
      "inputs": [
        {
          "internalType": "address",
          "name": "from",
          "type": "address"
        },
        {
          "internalType": "address",
          "name": "to",
          "type": "address"
        },
        {
          "internalType": "uint256",
          "name": "tokenId",
          "type": "uint256"
        },
        {
          "internalType": "bytes",
          "name": "data",
          "type": "bytes"
        }
      ],
      "name": "safeTransferFrom",
      "outputs": [],
      "stateMutability": "nonpayable",
      "type": "function"
    },
    {
      "inputs": [
        {
          "internalType": "address",
          "name": "operator",
          "type": "address"
        },
        {
          "internalType": "bool",
          "name": "approved",
          "type": "bool"
        }
      ],
      "name": "setApprovalForAll",
      "outputs": [],
      "stateMutability": "nonpayable",
      "type": "function"
    },
    {
      "inputs": [
        {
          "internalType": "uint256",
          "name": "newMaxTime",
          "type": "uint256"
        }
      ],
      "name": "setMaxDuration",
      "outputs": [],
      "stateMutability": "nonpayable",
      "type": "function"
    },
    {
      "inputs": [
        {
          "internalType": "uint256",
          "name": "newMinimumStake",
          "type": "uint256"
        }
      ],
      "name": "setMinimumStake",
      "outputs": [],
      "stateMutability": "nonpayable",
      "type": "function"
    },
    {
      "inputs": [
        {
          "internalType": "uint256",
          "name": "newShareThreshold",
          "type": "uint256"
        }
      ],
      "name": "setShareThreshold",
      "outputs": [],
      "stateMutability": "nonpayable",
      "type": "function"
    },
    {
      "inputs": [
        {
          "internalType": "address",
          "name": "_to",
          "type": "address"
        }
      ],
      "name": "singleMintBaalShares",
      "outputs": [],
      "stateMutability": "nonpayable",
      "type": "function"
    },
    {
      "inputs": [
        {
          "internalType": "address",
          "name": "_sacrificialLamb",
          "type": "address"
        }
      ],
      "name": "slaughter",
      "outputs": [],
      "stateMutability": "nonpayable",
      "type": "function"
    },
    {
      "inputs": [
        {
          "internalType": "bytes4",
          "name": "interfaceId",
          "type": "bytes4"
        }
      ],
      "name": "supportsInterface",
      "outputs": [
        {
          "internalType": "bool",
          "name": "",
          "type": "bool"
        }
      ],
      "stateMutability": "view",
      "type": "function"
    },
    {
      "inputs": [],
      "name": "symbol",
      "outputs": [
        {
          "internalType": "string",
          "name": "",
          "type": "string"
        }
      ],
      "stateMutability": "view",
      "type": "function"
    },
    {
      "inputs": [
        {
          "internalType": "uint256",
          "name": "tokenId",
          "type": "uint256"
        }
      ],
      "name": "tokenURI",
      "outputs": [
        {
          "internalType": "string",
          "name": "",
          "type": "string"
        }
      ],
      "stateMutability": "view",
      "type": "function"
    },
    {
      "inputs": [],
      "name": "topHat",
      "outputs": [
        {
          "internalType": "uint256",
          "name": "",
          "type": "uint256"
        }
      ],
      "stateMutability": "view",
      "type": "function"
    },
    {
      "inputs": [
        {
          "internalType": "address",
          "name": "_from",
          "type": "address"
        },
        {
          "internalType": "address",
          "name": "_to",
          "type": "address"
        }
      ],
      "name": "transferAdminHat",
      "outputs": [],
      "stateMutability": "nonpayable",
      "type": "function"
    },
    {
      "inputs": [
        {
          "internalType": "address",
          "name": "from",
          "type": "address"
        },
        {
          "internalType": "address",
          "name": "to",
          "type": "address"
        },
        {
          "internalType": "uint256",
          "name": "tokenId",
          "type": "uint256"
        }
      ],
      "name": "transferFrom",
      "outputs": [],
      "stateMutability": "nonpayable",
      "type": "function"
    },
    {
      "inputs": [],
      "name": "treasury",
      "outputs": [
        {
          "internalType": "address",
          "name": "",
          "type": "address"
        }
      ],
      "stateMutability": "view",
      "type": "function"
    }
  ],
  "bytecode": {
    "object": "0x60808060405234620000c6576000549060ff8260081c1662000074575060ff8082160362000038575b6040516145909081620000cc8239f35b60ff90811916176000557f7f26b83ff96e1f2b6a682f133852f6798a09c465da95921460cefb3847402498602060405160ff8152a13862000028565b62461bcd60e51b815260206004820152602760248201527f496e697469616c697a61626c653a20636f6e747261637420697320696e697469604482015266616c697a696e6760c81b6064820152608490fd5b600080fdfe608080604052600436101561001357600080fd5b600090813560e01c90816301ffc9a7146131735750806306fdde03146130df578063081812fc146130c0578063095ea7b314612f4b5780630c538f2f14612e44578063172bf85414612e2657806319d61ad914612db65780631b6ea9f914612d86578063232b043214612d68578063233e990314612d4357806323b872dd14612d19578063248a9ca314612cec5780632a0acc6a14612cb15780632a4a134214612c835780632e15261814612c6557806335439bb314612c4757806342842e0e14612bf65780634558e83d14612bd357806361d027b314612baa5780636352211e14612b7957806370a0823114612b4d5780637150ef8814612b2457806373f78fd014612a905780638a040df41461285957806390d96d761461282057806391d14854146127ef57806395d89b411461271c57806397e39fef146126f3578063a217fddf146126d7578063a2213262146105f8578063a22cb46514612607578063a230c52414612565578063a3919d1f146124a9578063a3beab6a146122cd578063aee4c96f146122af578063b5436cec1461221f578063b88d4fde146121bf578063b8c45361146120f1578063b8ebdcd9146120ce578063bc5fa8df146120a9578063c2d14f021461208b578063c6db81291461206d578063c733d5e914611cd0578063c81f83a214611b63578063c87b56dd1461187c578063ccfa5d331461161a578063cf0f34c4146115f5578063cfdb44d61461065a578063e5a2a2a514610631578063e5d05722146105f8578063e985e9c5146105a4578063eb32117314610378578063ec5ffac21461035a578063f3450f0014610324578063f68659bd14610306578063f9bb68fc146102e85763fc4c09581461029457600080fd5b346102e55760203660031901126102e5576102bd6102b0613228565b6102b861346c565b613f9f565b5060a45480156102d1576000190160a45580f35b634e487b7160e01b82526011600452602482fd5b80fd5b50346102e557806003193601126102e557602060a954604051908152f35b50346102e557806003193601126102e557602060a254604051908152f35b50346102e55760603660031901126102e557610357610341613228565b61034961323e565b610351613254565b91614001565b80f35b50346102e557806003193601126102e557602060a854604051908152f35b50346102e557806003193601126102e557609e546040516370a0823160e01b81523360048201526020916001600160a01b03919083908290602490829086165afa908115610599578491610567575b5060a7541161052a57338352609982526040832054156104ef5733808452609983526040808520805490869055609a855281862086905581519283526020830181905285938593610467937f47cee97cb7acd717b3c0aa1435d004cd5b3c8c57d70dbceb4e4458bbd60e39d491a1609f5460405163a9059cbb60e01b81523360048201526024810193909352919485939190921691839182906044820190565b03925af19081156104e45783916104b7575b5015610483575080f35b6064906040519062461bcd60e51b82526004820152600d60248201526c436c61696d206661696c65642160981b6044820152fd5b6104d79150823d84116104dd575b6104cf818361336e565b8101906133e1565b38610479565b503d6104c5565b6040513d85823e3d90fd5b60405162461bcd60e51b81526004810183905260136024820152725573657220686173206e6f207374616b65212160681b6044820152606490fd5b60405162461bcd60e51b8152600481018390526015602482015274596f75206d7573742062652061206d656d6265722160581b6044820152606490fd5b90508281813d8311610592575b61057e818361336e565b8101031261058d5751386103c7565b600080fd5b503d610574565b6040513d86823e3d90fd5b50346102e55760403660031901126102e5576105be613228565b60406105c861323e565b9260018060a01b038093168152606a602052209116600052602052602060ff604060002054166040519015158152f35b50346102e55760203660031901126102e5576020906040906001600160a01b03610620613228565b168152609a83522054604051908152f35b50346102e557806003193601126102e557609d546040516001600160a01b039091168152602090f35b50346102e55760603660031901126102e5576001600160401b03600435116102e557610200600435360360031901126102e55761069561323e565b61069d613254565b9082549160ff8360081c1615928380946115e8575b80156115d1575b156115755760ff198116600117855583611564575b506001609c5401609c55600160a2556106f261016460043501600435600401613bbc565b906001600160401b03821161120a57819061070e60a1546132b5565b601f81116114f0575b508690601f831160011461147d578792611472575b50508160011b916000199060031b1c19161760a1555b60a4600435013560a35561076060c460043501358060a55542613bee565b60a6556107a861077b61018460043501600435600401613bbc565b6107a06107966101a460049594953501600435600401613bbc565b94909236916133aa565b9236916133aa565b906107c260ff875460081c166107bd81613cb2565b613cb2565b8051906001600160401b03821161145e5781906107e06065546132b5565b601f81116113e7575b50602090601f8311600114611371578892611366575b50508160011b916000199060031b1c1916176065555b8051906001600160401b03821161120a5781906108336066546132b5565b601f81116112ef575b50602090601f831160011461127957879261126e575b50508160011b916000199060031b1c1916176066555b6001600160a01b0361087d6004803501613c11565b166020856004609d54846001600160601b0360a01b821617609d55826040519586948593638009ba1f60e01b855216175af190811561126357859161121e575b50609e80546001600160a01b0319166001600160a01b039283161790556108e8600435604401613c11565b166001600160601b0360a01b60aa54161760aa5560018060a01b03610911602460043501613c11565b166001600160601b0360a01b609f541617609f556109356101046004350135613dab565b61094460e46004350135613e38565b6109546101246004350135613ec6565b6109696101c460043501600435600401613bbc565b6001600160401b03819492941161120a579085929161098960a0546132b5565b601f8111611192575b5083601f821160011461111257819085966109e4959692611107575b50508160011b916000199060031b1c19161760a0555b60ab80546001600160a01b0319166001600160a01b03831617905561359a565b6101e46004350135801515810361110357610e8c575b60ab5460aa546040516321a9204d60e11b81526001600160a01b039182166004808301919091523561014401356024820152911690602081604481855afa908115610599578491610e6e575b5015610db95750610144600435013560ac81905560aa54919250610a779130916001600160a01b03909116906143bd565b90610a86606460043501613c11565b610a94608460043501613c11565b60405162f3450f60e81b60208201526001600160a01b03938416602482015291831660448301529091166064808301919091528152610ad28161331d565b60405191610adf83613353565b6002835260005b60408110610da8575091610b5e91600093610b0083613c6b565b52610b0a82613c6b565b50610b1482613c8e565b52610b1e81613c8e565b5060405190610b2c82613353565b60028252604036602084013760ab546001600160a01b0316610b4d83613c6b565b5230610b5883613c8e565b526143f9565b609d54604051639a2f747f60e01b81529260209184916004918391906001600160a01b03165af1918215610d3257600092610d75575b5081610d3e57610cb891602091610c9860405192610bb184613338565b609284527f7b2270726f706f73616c54797065223a2022424f52524f575f544f5048415422858501527f2c20227469746c65223a202252697465206f66204d6f6c6f63682028524f4d2960408501527f3a20486174732050726f706f73616c222c20226465736372697074696f6e223a60608501527f202243726561746520616e64206d696e7420524f4d2d41646d696e20686174736080850152712066726f6d2044414f20546f70486174227d60701b60a085015260018060a01b03609d541692604051968795869485936307505ff960e31b8552608060048601526084850190613203565b906000602485015260006044850152600319848303016064850152613203565b03925af18015610d3257610d07575b505b610cd05780f35b61ff001981541681557f7f26b83ff96e1f2b6a682f133852f6798a09c465da95921460cefb3847402498602060405160018152a180f35b602090813d8111610d2b575b610d1d818361336e565b8101031261058d5738610cc7565b503d610d13565b6040513d6000823e3d90fd5b60405162461bcd60e51b815260206004820152600f60248201526e4d697373696e67207472696275746560881b6044820152606490fd5b90916020823d8211610da0575b81610d8f6020938361336e565b810103126102e55750519038610b94565b3d9150610d82565b806060602080938701015201610ae6565b60209060c460405180958193631a64dfad60e01b835230600484015260606024840152600a6064840152691493d348151bdc12185d60b21b608484015260a060448401528160a48401525af18015610599578490610e3b575b610e36925060ac55610e28606460043501613c11565b610351608460043501613c11565b610cc9565b506020823d8211610e66575b81610e546020938361336e565b8101031261058d57610e369151610e12565b3d9150610e47565b610e86915060203d81116104dd576104cf818361336e565b38610a46565b60009150604051610e9c81613302565b600181526020368183013730610eb182613c6b565b52610f0660405191610ec283613302565b60018352602036818501376002610ed884613c6b565b52610ef8604051938492630f656a2160e01b602085015260248401613d55565b03601f19810183528261336e565b610f0e613c3c565b90610f1882613c6b565b52610f2281613c6b565b506020610f55604051610f3481613302565b60018152823681830137609d546001600160a01b03169384610b5883613c6b565b91600460405180968193639a2f747f60e01b83525af1928315610d32576000936110d0575b5082610d3e5761108992602091610c9860405192610f9784613338565b609c84527f7b2270726f706f73616c54797065223a20224144445f5348414d414e222c2022858501527f7469746c65223a202252697465206f66204d6f6c6f63682028524f4d293a205360408501527f68616d616e2050726f706f73616c222c20226465736372697074696f6e223a2060608501527f2241737369676e20524f4d2061732061204d616e616765722d5368616d616e2060808501527f746f206d696e74206d696e696d756d2044414f20736861726573227d0000000060a085015260018060a01b03609d541692604051978895869485936307505ff960e31b8552608060048601526084850190613203565b03925af1918215610d325784926110a1575b506109fa565b6020809293503d81116110c9575b6110b9818361336e565b8101031261058d5782903861109b565b503d6110af565b90926020823d82116110fb575b816110ea6020938361336e565b810103126102e55750519138610f7a565b3d91506110dd565b8280fd5b0135905038806109ae565b909192939460a0865260008051602061451b83398151915291865b601f198516811061117757509183916001936109e49695601f1981161061115d575b505050811b0160a0556109c4565b0135600019600384901b60f8161c1916905538808061114f565b8183013584558997506001909301926020918201910161112d565b909192935060a0600052601f820160051c60008051602061451b83398151915201602083106111f5575b9087949392915b601f820160051c60008051602061451b8339815191520181106111e65750610992565b600081558895506001016111c3565b5060008051602061451b8339815191526111bc565b634e487b7160e01b86526041600452602486fd5b90506020813d821161125b575b816112386020938361336e565b8101031261125757516001600160a01b038116810361125757386108bd565b8480fd5b3d915061122b565b6040513d87823e3d90fd5b015190503880610852565b9250606687526000805160206144db8339815191529087935b601f19841685106112d4576001945083601f198116106112bb575b505050811b01606655610868565b015160001960f88460031b161c191690553880806112ad565b81810151835560209485019460019093019290910190611292565b9091506066600052601f830160051c6000805160206144db833981519152019060208410611350575b90601f8493920160051c6000805160206144db83398151915201905b818110611341575061083c565b60008155849350600101611334565b6000805160206144db8339815191529150611318565b0151905038806107ff565b9250606588526000805160206144fb8339815191529088935b601f19841685106113cc576001945083601f198116106113b3575b505050811b01606555610815565b015160001960f88460031b161c191690553880806113a5565b8181015183556020948501946001909301929091019061138a565b9091506065600052601f830160051c6000805160206144fb833981519152019060208410611448575b90601f8493920160051c6000805160206144fb83398151915201905b81811061143957506107e9565b6000815584935060010161142c565b6000805160206144fb8339815191529150611410565b634e487b7160e01b87526041600452602487fd5b01359050388061072c565b60a1885287935060008051602061453b833981519152915b601f19841685106114d8576001945083601f198116106114be575b505050811b0160a155610742565b0135600019600384901b60f8161c191690553880806114b0565b81810135835560209485019460019093019201611495565b90915060a1600052601f830160051c60008051602061453b833981519152016020841061154f575b908392915b601f820160051c60008051602061453b8339815191520181106115405750610717565b6000815584935060010161151d565b5060008051602061453b833981519152611518565b61ffff1916610101178455386106ce565b60405162461bcd60e51b815260206004820152602e60248201527f496e697469616c697a61626c653a20636f6e747261637420697320616c72656160448201526d191e481a5b9a5d1a585b1a5e995960921b6064820152608490fd5b50303b1580156106b95750600160ff8216146106b9565b50600160ff8216106106b2565b50346102e55760203660031901126102e55761160f61346c565b610357600435613ec6565b50346102e55760031960403682011261187857611649611638613228565b61164061323e565b9060ad546143bd565b90611652613c3c565b9161165c83613c6b565b5261166682613c6b565b506040519161167483613302565b6001835261169c60209384368183013760ab546001600160a01b0393908416610b5883613c6b565b60008483609d5416600460405180948193639a2f747f60e01b83525af1908115610d325760009161184b575b508061181457906117bd859392604051936116e285613338565b608a85527f7b2270726f706f73616c54797065223a20225452414e534645525f41444d494e868601527f484154222c20227469746c65223a202252697465206f66204d6f6c6f6368202860408601527f524f4d293a205472616e736665722041646d696e20486174222c20226465736360608601527f72697074696f6e223a20225472616e7366657220524f4d2d41646d696e2068616080860152697420746f20454f41227d60b01b60a0860152609d5416926117da604051978896879586946307505ff960e31b8652608060048701526084860190613203565b916000602486015260006044860152848303016064850152613203565b03925af18015610d32576117ec578280f35b813d831161180d575b6117ff818361336e565b8101031261058d5738808280f35b503d6117f5565b60405162461bcd60e51b815260048101869052600f60248201526e4d697373696e67207472696275746560881b6044820152606490fd5b908582813d8311611871575b611861818361336e565b810103126102e5575051386116c8565b503d611857565b5080fd5b50346102e557602090816003193601126102e5576004356000818152606760205260409020548391906118b9906001600160a01b031615156136ce565b60405190600060a0546118cb816132b5565b8085528486810193600193888582169182600014611b48575050600114611afc575b6118f99250038561336e565b835115611abd5782839187947a184f03e93ff9f4daa797ed6e38ed64bf6a1f0100000000000000009081811015611aaf575b5050866d04ee2d6d415b85acef810000000080851015611aa1575b5050662386f26fc1000080841015611a92575b506305f5e10080841015611a83575b5061271080841015611a74575b506064831015611a64575b600a80931015611a5b575b90816021818701966119b561199f8961338f565b986119ad6040519a8b61336e565b808a5261338f565b888b019b90601f1901368d3750870101905b611a25575b5050505093611a0b9392916119ff6119f096604051978895518092888801906131e0565b840191518093868401906131e0565b0103808452018261336e565b905b611a21604051928284938452830190613203565b0390f35b600019019083906f181899199a1a9b1b9c1cb0b131b232b360811b8282061a835304918215611a56579190826119c7565b6119cc565b8094019361198b565b9391606460029104920193611980565b60049195930492019338611975565b60089195930492019338611968565b60109195930492019338611959565b950194909204918638611946565b60409650049250388061192b565b5050505050604051908282018281106001600160401b03821117611ae657604052815290611a0d565b634e487b7160e01b600052604160045260246000fd5b505060a0600052848660008051602061451b833981519152846000915b858310611b2f5750506118f993508201016118ed565b80919294505483858b0101520191018790848893611b19565b60ff191687526118f994151560051b84010191506118ed9050565b50346102e557602090600319828136011261187857600435926001600160401b0391828511611ccc5736602386011215611ccc578460040135928311611ccc573660248460051b87010111611ccc57611bba61346c565b611bc383613c25565b90611bd1604051928361336e565b838252601f19611be085613c25565b01368484013760a754855b858110611cb2575050609d546001600160a01b039490851693843b15611cae57949060405195632c78fd0360e21b87528160448801604060048a01525260246064880199019288905b838210611c8857505050505091838581611c5c898296849b9884869a03016024850152613d21565b03925af18015611c7d57611c6d5750f35b611c76906132ef565b6102e55780f35b6040513d84823e3d90fd5b90919293998a359082821680920361058d57908152830199830193929160010190611c34565b8680fd5b8082611cc1611cc79387613c9e565b52613d12565b611beb565b8380fd5b50346102e55760208060031936011261187857611ceb613228565b3332036120285760a6544211611fe357609c5460a35410611f9e57611d0f81613657565b611f5957828260a8549260018060a01b0380911693848452609983526040842055611d3c60a95442613bee565b848452609a83526040842055609f5416606460a85460405194859384926323b872dd60e01b845233600485015230602485015260448401525af1908115610599578491611f3c575b5015611f0557611d9560a454613d12565b8060a45560a2548452609b835260408420908452825260408320916001600160601b0360a01b923384825416179055609c549260018401609c558215611ec25791839160a093611e24611e1e7f9da9a86fb849b37cb0098539441b747ca3c0c5a367f5eaef701e6877e4b124d797600052606760205260018060a01b0360406000205416151590565b15613f53565b600084815260676020526040902054611e47906001600160a01b03161515611e1e565b82875260688252604087206001815401905583875260678252826040882091825416179055604051928083887fddf252ad1be2c89b69c2b068fc378daa952ba7f163c4a11628f55a4df523b3ef8180a460a85491838852609a815260408820549385523390850152604084015260608301526080820152a180f35b6064826040519062461bcd60e51b825280600483015260248201527f4552433732313a206d696e7420746f20746865207a65726f20616464726573736044820152fd5b60405162461bcd60e51b815260048101839052600f60248201526e5374616b696e67206661696c65642160881b6044820152606490fd5b611f539150833d85116104dd576104cf818361336e565b38611d84565b60405162461bcd60e51b815260048101839052601e60248201527f416c7265616479206a6f696e65642074686520696e6974696174696f6e2100006044820152606490fd5b60405162461bcd60e51b815260048101839052601b60248201527f5468697320636f686f727420697320616c72656164792066756c6c00000000006044820152606490fd5b60405162461bcd60e51b815260048101839052601960248201527f5468697320636f686f7274206973206e6f7720636c6f736564000000000000006044820152606490fd5b60405162461bcd60e51b815260048101839052601f60248201527f5468652063616c6c657220697320616e6f7468657220636f6e747261637421006044820152606490fd5b50346102e557806003193601126102e557602060a354604051908152f35b50346102e557806003193601126102e557602060ac54604051908152f35b50346102e55760203660031901126102e5576120c361346c565b610357600435613e38565b50346102e55760203660031901126102e5576120e861346c565b60043560a35580f35b50346102e5576020806003193601126118785761210c613228565b6097546000808052609884526040908190205490516321a9204d60e11b81523360048201526024810191909152919291908290829060449082906001600160a01b03165afa908115610d32576000916121a2575b501561217057506103579061359a565b6098906000805252606460406000205460405190631612509360e01b8252600060048301526024820152336044820152fd5b6121b99150823d84116104dd576104cf818361336e565b38612160565b50346102e55760803660031901126102e5576121d9613228565b6121e161323e565b606435916001600160401b038311611ccc5736602384011215611ccc576122156103579336906024816004013591016133aa565b91604435916137dd565b50346102e55761222e3661326a565b9080835260986020526122476001604085200154613556565b808352609860205260408320549081156122a0575b828203612267578380f35b80845260986020528260408520557fc3d694cb68f99c4c204d7aedbaba300907c24102aeeeecd32de2c9910609f30a8480a43880808380f35b6122aa83826135e3565b61225c565b50346102e557806003193601126102e557602060a454604051908152f35b50346102e55760206003198181360112611103576122e9613228565b60ad5460405163320fbbb760e11b8582015260248101919091526001600160a01b0390911660448201526123208160648101610ef8565b612328613c3c565b9061233282613c6b565b5261233c81613c6b565b5061236e60405161234c81613302565b6001815284368183013760ab546001600160a01b0393908416610b5883613c6b565b60008483609d5416600460405180948193639a2f747f60e01b83525af1908115610d325760009161247c575b508061181457906117bd859392604051936123b48561331d565b607e85527f7b2270726f706f73616c54797065223a20224d494e545f41444d494e48415422868601527f2c20227469746c65223a202252697465206f66204d6f6c6f63682028524f4d2960408601527f3a204d696e742041646d696e20486174222c20226465736372697074696f6e2260608601527f3a20224d696e7420524f4d2d41646d696e2068617420746f20454f41227d00006080860152609d5416926117da604051978896879586946307505ff960e31b8652608060048701526084860190613203565b908582813d83116124a2575b612492818361336e565b810103126102e55750513861239a565b503d612488565b50346102e55760203660031901126102e5576124c3613228565b6124cb61346c565b816040516124d881613302565b6001815260203681830137604051926124f084613302565b600184526020368186013760a75461250783613c6b565b5261251184613c6b565b6001600160a01b039182169052609d5416803b156111035761254a9383604051809681958294632c78fd0360e21b845260048401613d55565b03925af18015611c7d5761255c575080f35b610357906132ef565b50346102e557602090816003193601126102e557612581613228565b609e546040516370a0823160e01b81526001600160a01b03928316600482015291849183916024918391165afa9182156125fb5780926125cb575b505060a7541115604051908152f35b9091508282813d83116125f4575b6125e3818361336e565b810103126102e557505138806125bc565b503d6125d9565b604051903d90823e3d90fd5b50346102e55760403660031901126102e557612621613228565b60243590811515809203611103576001600160a01b03169033821461269257338352606a602052604083208284526020526040832060ff1981541660ff83161790556040519081527f17307eab39ab6107e8899845ad3d59bd9653f200f220920489ca2b5937696c3160203392a380f35b60405162461bcd60e51b815260206004820152601960248201527f4552433732313a20617070726f766520746f2063616c6c6572000000000000006044820152606490fd5b50346102e557806003193601126102e557602090604051908152f35b50346102e557806003193601126102e5576097546040516001600160a01b039091168152602090f35b50346102e557806003193601126102e557604051908060665461273e816132b5565b808552916001918083169081156127c5575060011461277c575b611a21856127688187038261336e565b604051918291602083526020830190613203565b9250606683526000805160206144db8339815191525b8284106127ad57505050810160200161276882611a21612758565b80546020858701810191909152909301928101612792565b869550611a219693506020925061276894915060ff191682840152151560051b8201019293612758565b50346102e55760403660031901126102e557602061281661280e61323e565b6004356133f9565b6040519015158152f35b50346102e55760203660031901126102e5576020906040906001600160a01b03612848613228565b168152609983522054604051908152f35b50346102e557806003193601126102e55761287261346c565b80819060a25460019081810190818111612a7c5782805b61295a575b5050609f5460aa5460405163a9059cbb60e01b81526001600160a01b03918216600482015260248101959095526020935084925060449183918891165af19081156104e457839161293c575b50156129035760a4556128ef60a55442613bee565b60a6556128fd60a254613d12565b60a25580f35b60405162461bcd60e51b81526020600482015260116024820152704661696c6564205361637269666963652160781b6044820152606490fd5b612954915060203d81116104dd576104cf818361336e565b386128da565b60a4548111612a7757818752609b60208181526040808a20848b528252808a20546001600160a01b0316808b5260998352908a20549297919215612a4957808a52609a835260408a20544211156129f257916129c5879594926129bf6129eb95613f9f565b90613bee565b848b529781526040808b20838c52909152892080546001600160a01b0319169055613d12565b9091612889565b6129eb92612a2b88969593999a888d528b83528c88604082209152835260408d206001600160601b0360a01b9485825416179055613d12565b99858c52815260408b2090838c525260408a20908154169055613d12565b508389529581526040808920838a52909152872080546001600160a01b03191690558391906129eb90613d12565b61288e565b634e487b7160e01b86526011600452602486fd5b50346102e557806003193601126102e557604051908060a154612ab2816132b5565b808552916001918083169081156127c55750600114612adb57611a21856127688187038261336e565b925060a1835260008051602061453b8339815191525b828410612b0c57505050810160200161276882611a21612758565b80546020858701810191909152909301928101612af1565b50346102e557806003193601126102e55760ab546040516001600160a01b039091168152602090f35b50346102e55760203660031901126102e5576020612b71612b6c613228565b613657565b604051908152f35b50346102e55760203660031901126102e5576020612b9860043561371a565b6040516001600160a01b039091168152f35b50346102e557806003193601126102e55760aa546040516001600160a01b039091168152602090f35b50346102e55760203660031901126102e557612bed61346c565b60043560a55580f35b50346102e557612c0536613280565b6040939293519160208301948386106001600160401b03871117612c335761035794956040528584526137dd565b634e487b7160e01b85526041600452602485fd5b50346102e557806003193601126102e557602060a654604051908152f35b50346102e557806003193601126102e557602060a754604051908152f35b50346102e55760203660031901126102e557612c9d61346c565b612cab60043560a654613bee565b60a65580f35b50346102e557806003193601126102e55760206040517fdf8b4c520ffe197c5343c6f5aec59570151ef9a492f2c624fd45ddde6135ec428152f35b50346102e55760203660031901126102e55760016040602092600435815260988452200154604051908152f35b50346102e557610357612d2b36613280565b91612d3e612d398433613878565b61377b565b613940565b50346102e55760203660031901126102e557612d5d61346c565b610357600435613dab565b50346102e557806003193601126102e557602060ad54604051908152f35b50346102e557610357612d983661326a565b908084526098602052612db16001604086200154613556565b6135e3565b50346102e557612dc53661326a565b8183526098602052612ddd6001604085200154613556565b818352609860205280604084205414612df4578280f35b82604081205533917f641261709a27417e18d0ccc3db95ddc812d61be919b2a5a3af21a5870590922a8480a438808280f35b50346102e557806003193601126102e557602060a554604051908152f35b50346102e55760203660031901126102e5576001600160401b036004358181116111035736602382011215611103578060040135918211611103573660248383010111611103576001612e9633613657565b03612f065760807f7ad32bfb950c825d7d252f51537ad223c191a793ae9109cffc3bbd287485f6df9260018060a01b0360aa54169080602460405195869433865260208601526060604086015282606086015201848401378181018301869052601f01601f19168101030190a180f35b60405162461bcd60e51b815260206004820152601960248201527f4f6e6c7920636f686f7274207061727469636970616e747321000000000000006044820152606490fd5b50346102e55760403660031901126102e557612f65613228565b602435906001600160a01b038080612f7c8561371a565b1692169180831461307157803314908115613050575b5015612fe55782845260696020526040842080546001600160a01b03191683179055612fbd8361371a565b167f8c5be1e5ebec7d5bd14f71427d1e84f3dd0314c0f7b2291e5b200ac8c7c3b9258480a480f35b60405162461bcd60e51b815260206004820152603d60248201527f4552433732313a20617070726f76652063616c6c6572206973206e6f7420746f60448201527f6b656e206f776e6572206f7220617070726f76656420666f7220616c6c0000006064820152608490fd5b90508452606a6020526040842033855260205260ff60408520541638612f92565b60405162461bcd60e51b815260206004820152602160248201527f4552433732313a20617070726f76616c20746f2063757272656e74206f776e656044820152603960f91b6064820152608490fd5b50346102e55760203660031901126102e5576020612b9860043561373d565b50346102e557806003193601126102e5576040519080606554613101816132b5565b808552916001918083169081156127c5575060011461312a57611a21856127688187038261336e565b9250606583526000805160206144fb8339815191525b82841061315b57505050810160200161276882611a21612758565b80546020858701810191909152909301928101613140565b9050346118785760203660031901126118785760043563ffffffff60e01b811680910361110357602092506380ac58cd60e01b81149081156131cf575b81156131be575b5015158152f35b6301ffc9a760e01b149050386131b7565b635b5e139f60e01b811491506131b0565b60005b8381106131f35750506000910152565b81810151838201526020016131e3565b9060209161321c815180928185528580860191016131e0565b601f01601f1916010190565b600435906001600160a01b038216820361058d57565b602435906001600160a01b038216820361058d57565b604435906001600160a01b038216820361058d57565b604090600319011261058d576004359060243590565b606090600319011261058d576001600160a01b0390600435828116810361058d5791602435908116810361058d579060443590565b90600182811c921680156132e5575b60208310146132cf57565b634e487b7160e01b600052602260045260246000fd5b91607f16916132c4565b6001600160401b038111611ae657604052565b604081019081106001600160401b03821117611ae657604052565b60a081019081106001600160401b03821117611ae657604052565b60c081019081106001600160401b03821117611ae657604052565b606081019081106001600160401b03821117611ae657604052565b90601f801991011681019081106001600160401b03821117611ae657604052565b6001600160401b038111611ae657601f01601f191660200190565b9291926133b68261338f565b916133c4604051938461336e565b82948184528183011161058d578281602093846000960137010152565b9081602091031261058d5751801515810361058d5790565b6097546000918252609860209081526040928390205492516321a9204d60e11b81526001600160a01b0394851660048201526024810193909352919283916044918391165afa908115610d3257600091613451575090565b613469915060203d81116104dd576104cf818361336e565b90565b6097547fdf8b4c520ffe197c5343c6f5aec59570151ef9a492f2c624fd45ddde6135ec426000818152609860209081527f88eb47b1fd60907005130b8cfeb6b988dbefe264cb37e60e267ee33bf65a90fa546040516321a9204d60e11b815233600482015260248101919091529293919291829060449082906001600160a01b03165afa908115611c7d578291613538575b5015613508575050565b9060408282606494526098602052205460405191631612509360e01b835260048301526024820152336044820152fd5b613550915060203d81116104dd576104cf818361336e565b386134fe565b61356033826133f9565b156135685750565b80606491600052609860205260406000205460405191631612509360e01b835260048301526024820152336044820152fd5b609780546001600160a01b039283166001600160a01b0319821681179092559091167fe2c5fed45442eae2ee9c94b63f1e24155d9bfe92ecd80e48c35ebf2927675737600080a3565b90600091808352609860205260408320548061363957820361360457505050565b80835260986020528160408420557f7c2a2c4bb5a44dafa473fc49e557303dba6db62123713789deefe8ccb3846549339380a4565b604492506040519163aab0817760e01b835260048301526024820152fd5b6001600160a01b0316801561367757600052606860205260406000205490565b60405162461bcd60e51b815260206004820152602960248201527f4552433732313a2061646472657373207a65726f206973206e6f7420612076616044820152683634b21037bbb732b960b91b6064820152608490fd5b156136d557565b60405162461bcd60e51b815260206004820152601860248201527f4552433732313a20696e76616c696420746f6b656e20494400000000000000006044820152606490fd5b6000908152606760205260409020546001600160a01b03166134698115156136ce565b600081815260676020526040902054613760906001600160a01b031615156136ce565b6000908152606960205260409020546001600160a01b031690565b1561378257565b60405162461bcd60e51b815260206004820152602d60248201527f4552433732313a2063616c6c6572206973206e6f7420746f6b656e206f776e6560448201526c1c881bdc88185c1c1c9bdd9959609a1b6064820152608490fd5b906138019392916137f1612d398433613878565b6137fc838383613940565b613a9b565b1561380857565b60405162461bcd60e51b81528061382160048201613825565b0390fd5b60809060208152603260208201527f4552433732313a207472616e7366657220746f206e6f6e20455243373231526560408201527131b2b4bb32b91034b6b83632b6b2b73a32b960711b60608201520190565b906001600160a01b03808061388c8461371a565b169316918383149384156138bf575b5083156138a9575b50505090565b6138b59192935061373d565b16143880806138a3565b909350600052606a60205260406000208260005260205260ff60406000205416923861389b565b156138ed57565b60405162461bcd60e51b815260206004820152602560248201527f4552433732313a207472616e736665722066726f6d20696e636f72726563742060448201526437bbb732b960d91b6064820152608490fd5b906139689161394e8461371a565b6001600160a01b03939184169284929091831684146138e6565b16918215613a4a5781613a05578161398a916139838661371a565b16146138e6565b7fddf252ad1be2c89b69c2b068fc378daa952ba7f163c4a11628f55a4df523b3ef60008481526069602052604081206001600160601b0360a01b9081815416905583825260686020526040822060001981540190558482526040822060018154019055858252606760205284604083209182541617905580a4565b60405162461bcd60e51b815260206004820152601960248201527f5342542063616e6e6f74206265207472616e73666572726564000000000000006044820152606490fd5b60405162461bcd60e51b8152602060048201526024808201527f4552433732313a207472616e7366657220746f20746865207a65726f206164646044820152637265737360e01b6064820152608490fd5b9293600093909291803b15613bb157948491613af59660405180948193630a85bd0160e11b9788845233600485015260018060a01b0380921660248501526044840152608060648401528260209b8c976084830190613203565b0393165af1849181613b71575b50613b60575050503d600014613b58573d613b1c8161338f565b90613b2a604051928361336e565b81528091833d92013e5b80519182613b555760405162461bcd60e51b81528061382160048201613825565b01fd5b506060613b34565b6001600160e01b0319161492509050565b9091508581813d8311613baa575b613b89818361336e565b8101031261125757516001600160e01b031981168103611257579038613b02565b503d613b7f565b505050915050600190565b903590601e198136030182121561058d57018035906001600160401b03821161058d5760200191813603831361058d57565b91908201809211613bfb57565b634e487b7160e01b600052601160045260246000fd5b356001600160a01b038116810361058d5790565b6001600160401b038111611ae65760051b60200190565b604051613c4881613302565b600181528060005b6020808210156138a357906060602092828501015201613c50565b805115613c785760200190565b634e487b7160e01b600052603260045260246000fd5b805160011015613c785760400190565b8051821015613c785760209160051b010190565b15613cb957565b60405162461bcd60e51b815260206004820152602b60248201527f496e697469616c697a61626c653a20636f6e7472616374206973206e6f74206960448201526a6e697469616c697a696e6760a81b6064820152608490fd5b6000198114613bfb5760010190565b90815180825260208080930193019160005b828110613d41575050505090565b835185529381019392810192600101613d33565b9092916040820191604081528451809352606081019260208096019060005b818110613d8e575050506134699394818403910152613d21565b82516001600160a01b031686529487019491870191600101613d74565b8015613de2576020817fb4b5fad09421a48c68e8513475c3adbf47ed48a5eefe543d4fec52c82db474699260a855604051908152a1565b60405162461bcd60e51b815260206004820152602860248201527f4d696e696d756d207374616b65206d7573742062652067726561746572207468604482015267616e207a65726f2160c01b6064820152608490fd5b8015613e6f576020817f7155dd2d80b479664a5c9bf2c04a1b00c07aad515f3c089a20ce1ebff2c6ecdd9260a755604051908152a1565b60405162461bcd60e51b815260206004820152602960248201527f4d696e696d756d20736861726573206d7573742062652067726561746572207460448201526868616e207a65726f2160b81b6064820152608490fd5b8015613efd576020817f856717cb327b027e506a205b6a989525427e169d7b6acb09ad84d849dea2b93f9260a955604051908152a1565b60405162461bcd60e51b815260206004820152602860248201527f4d696e696d756d206475726174696f6e206d7573742062652067726561746572604482015267207468616e20302160c01b6064820152608490fd5b15613f5a57565b60405162461bcd60e51b815260206004820152601c60248201527f4552433732313a20746f6b656e20616c7265616479206d696e746564000000006044820152606490fd5b60018060a01b03167f1b4365d94ccfc86d7cd3eef46bf15cd821f8abb29721248eca1d751eebb6690060606000928084526099602052604084205493806040812055609a6020526040812055604051908152836020820152336040820152a190565b9092919260ae5460ff81166143785760019060ff19161760ae5560018060a01b03938460ab541660ac549186609d541693604095865195635829492f60e11b87526004958688015260e06024880152600960e4880152682927a69020b236b4b760b91b610104880152600360448801528060648801526084870152600160a487015261012060c4870152600095869485610124830152816101448160209889945af19081156142eb57879161434b575b508060ad557fdf8b4c520ffe197c5343c6f5aec59570151ef9a492f2c624fd45ddde6135ec4280885260988652888820548061432e5792828792614134948a9796036142f5575b5060ab548b5163320fbbb760e11b8082529781019283526001600160a01b039093166020830152919384928e169183918c918391604090910190565b03925af180156142eb576142ce575b5083898216614263575b50508782166141f3575b5050508460ab541660ac549560aa541695813b15611ccc5784516329287c1b60e21b81528381019182523060208301526001600160a01b0390971660408201529495948391869182908490829060600103925af180156141e9576141bc575b50505050565b6001600160401b0384116141d657505052388080806141b6565b634e487b7160e01b825260419052602490fd5b83513d84823e3d90fd5b60ab5460ad5487519283528583019081526001600160a01b0393909316602084015290918391839182900360400190829088908c165af180156142595761423b575b80614157565b8161425192903d106104dd576104cf818361336e565b503880614235565b85513d86823e3d90fd5b60ab5460ad5489518581528881019182526001600160a01b03909416602082015283918c169082908a90829060400103925af180156142c4576142a7575b8361414d565b6142bd90843d86116104dd576104cf818361336e565b50386142a1565b87513d88823e3d90fd5b6142e490853d87116104dd576104cf818361336e565b5038614143565b88513d89823e3d90fd5b808b5260988452818c8c20558133917f7c2a2c4bb5a44dafa473fc49e557303dba6db62123713789deefe8ccb38465498d80a4386140f8565b895163aab0817760e01b8152808901929092526024820152604490fd5b90508481813d8311614371575b614362818361336e565b81010312611cae5751386140b1565b503d614358565b60405162461bcd60e51b815260206004820152601860248201527f4861747320616c726561647920696e697469616c697a656400000000000000006044820152606490fd5b6040516329287c1b60e21b602082015260248101919091526001600160a01b039182166044820152911660648201526134698160848101610ef8565b9190606090600090825b85518310156144a8576144a29061449c61441d8585613c9e565b5191614429868a613c9e565b5151614435878b613c9e565b51936040519485918451614451816020978880880191016131e0565b8301906000868301526001600160601b0319908c1b166021820152600060358201526055938482015261448e8251809360759788850191016131e0565b01039081018452018261336e565b92613d12565b91614403565b915050610ef892935061346991506040519283916346c07f8560e11b602084015260206024840152604483019061320356fe46501879b8ca8525e8c2fd519e2fbfcfa2ebea26501294aa02cbfcfb12e943548ff97419363ffd7000167f130ef7168fbea05faf9251824ca5043f113cc6a7c778fdc8d422c49ced035a9edf18d00d3c6a8d81df210f3e5e448e045e77b41e88aadc37b8ba5645e62f4546802db221593a94729ccbfc5a97d01365a88f649878a264697066735822122084a3426608b929726addaaf949b9d54e3449ee2abcfc01cfe0179363f97bfe3e64736f6c63430008110033",
    "linkReferences": {}
  },
  "methodIdentifiers": {
    "ADMIN()": "2a0acc6a",
    "DEFAULT_ADMIN_ROLE()": "a217fddf",
    "HATS()": "7150ef88",
    "adminHat()": "232b0432",
    "approve(address,uint256)": "095ea7b3",
    "baal()": "e5a2a2a5",
    "balanceOf(address)": "70a08231",
    "batchMintBaalShares(address[])": "c81f83a2",
    "changeHatsContract(address)": "b8c45361",
    "changeJoinSizeLimit(uint256)": "b8ebdcd9",
    "changeJoinTimeDuration(uint256)": "4558e83d",
    "changeRoleHat(bytes32,uint256)": "b5436cec",
    "checkStake(address)": "90d96d76",
    "claimStake()": "eb321173",
    "cohortCounter()": "aee4c96f",
    "cohortName()": "73f78fd0",
    "cohortSeason()": "f68659bd",
    "cohortSize()": "c6db8129",
    "cryForHelp(string)": "0c538f2f",
    "deadlines(address)": "e5d05722",
    "extendJoinTimeLimit(uint256)": "2a4a1342",
    "getApproved(uint256)": "081812fc",
    "getDeadline(address)": "a2213262",
    "getRoleAdmin(bytes32)": "248a9ca3",
    "grantRole(bytes32,uint256)": "1b6ea9f9",
    "hasRole(bytes32,address)": "91d14854",
    "hatsContract()": "97e39fef",
    "initialize((address,address,address,address,address,uint256,uint256,uint256,uint256,uint256,uint256,string,string,string,string,bool),address,address)": "cfdb44d6",
    "initializeHatTree(address,address,address)": "f3450f00",
    "isApprovedForAll(address,address)": "e985e9c5",
    "isMember(address)": "a230c524",
    "joinDuration()": "172bf854",
    "joinEndTime()": "35439bb3",
    "joinInitiation(address)": "c733d5e9",
    "maximumTime()": "f9bb68fc",
    "minimumShare()": "2e152618",
    "minimumStake()": "ec5ffac2",
    "mintAdminHatProposal(address)": "a3beab6a",
    "name()": "06fdde03",
    "ownerOf(uint256)": "6352211e",
    "revokeRole(bytes32,uint256)": "19d61ad9",
    "sacrifice()": "8a040df4",
    "safeTransferFrom(address,address,uint256)": "42842e0e",
    "safeTransferFrom(address,address,uint256,bytes)": "b88d4fde",
    "setApprovalForAll(address,bool)": "a22cb465",
    "setMaxDuration(uint256)": "cf0f34c4",
    "setMinimumStake(uint256)": "233e9903",
    "setShareThreshold(uint256)": "bc5fa8df",
    "singleMintBaalShares(address)": "a3919d1f",
    "slaughter(address)": "fc4c0958",
    "supportsInterface(bytes4)": "01ffc9a7",
    "symbol()": "95d89b41",
    "tokenURI(uint256)": "c87b56dd",
    "topHat()": "c2d14f02",
    "transferAdminHat(address,address)": "ccfa5d33",
    "transferFrom(address,address,uint256)": "23b872dd",
    "treasury()": "61d027b3"
  },
  "id": 58
}