{
  "abi": [
    {
      "inputs": [],
      "stateMutability": "nonpayable",
      "type": "constructor"
    },
    {
      "inputs": [
        {
          "internalType": "bytes32",
          "name": "role",
          "type": "bytes32"
        },
        {
          "internalType": "uint256",
          "name": "hat",
          "type": "uint256"
        },
        {
          "internalType": "address",
          "name": "account",
          "type": "address"
        }
      ],
      "name": "NotWearingRoleHat",
      "type": "error"
    },
    {
      "inputs": [
        {
          "internalType": "bytes32",
          "name": "role",
          "type": "bytes32"
        },
        {
          "internalType": "uint256",
          "name": "roleHat",
          "type": "uint256"
        }
      ],
      "name": "RoleAlreadyAssigned",
      "type": "error"
    },
    {
      "anonymous": false,
      "inputs": [
        {
          "indexed": true,
          "internalType": "address",
          "name": "owner",
          "type": "address"
        },
        {
          "indexed": true,
          "internalType": "address",
          "name": "approved",
          "type": "address"
        },
        {
          "indexed": true,
          "internalType": "uint256",
          "name": "tokenId",
          "type": "uint256"
        }
      ],
      "name": "Approval",
      "type": "event"
    },
    {
      "anonymous": false,
      "inputs": [
        {
          "indexed": true,
          "internalType": "address",
          "name": "owner",
          "type": "address"
        },
        {
          "indexed": true,
          "internalType": "address",
          "name": "operator",
          "type": "address"
        },
        {
          "indexed": false,
          "internalType": "bool",
          "name": "approved",
          "type": "bool"
        }
      ],
      "name": "ApprovalForAll",
      "type": "event"
    },
    {
      "anonymous": false,
      "inputs": [
        {
          "indexed": false,
          "internalType": "uint256",
          "name": "newShare",
          "type": "uint256"
        }
      ],
      "name": "ChangedShares",
      "type": "event"
    },
    {
      "anonymous": false,
      "inputs": [
        {
          "indexed": false,
          "internalType": "uint256",
          "name": "newStake",
          "type": "uint256"
        }
      ],
      "name": "ChangedStake",
      "type": "event"
    },
    {
      "anonymous": false,
      "inputs": [
        {
          "indexed": false,
          "internalType": "uint256",
          "name": "newTime",
          "type": "uint256"
        }
      ],
      "name": "ChangedTime",
      "type": "event"
    },
    {
      "anonymous": false,
      "inputs": [
        {
          "indexed": false,
          "internalType": "address",
          "name": "newMember",
          "type": "address"
        },
        {
          "indexed": false,
          "internalType": "uint256",
          "name": "claimAmount",
          "type": "uint256"
        }
      ],
      "name": "Claim",
      "type": "event"
    },
    {
      "anonymous": false,
      "inputs": [
        {
          "indexed": false,
          "internalType": "address",
          "name": "user",
          "type": "address"
        },
        {
          "indexed": false,
          "internalType": "address",
          "name": "treasury",
          "type": "address"
        },
        {
          "indexed": false,
          "internalType": "string",
          "name": "feedback",
          "type": "string"
        }
      ],
      "name": "Feedback",
      "type": "event"
    },
    {
      "anonymous": false,
      "inputs": [
        {
          "indexed": true,
          "internalType": "address",
          "name": "previousHatsContract",
          "type": "address"
        },
        {
          "indexed": true,
          "internalType": "address",
          "name": "newHatsContract",
          "type": "address"
        }
      ],
      "name": "HatsContractChanged",
      "type": "event"
    },
    {
      "anonymous": false,
      "inputs": [
        {
          "indexed": false,
          "internalType": "uint8",
          "name": "version",
          "type": "uint8"
        }
      ],
      "name": "Initialized",
      "type": "event"
    },
    {
      "anonymous": false,
      "inputs": [
        {
          "indexed": false,
          "internalType": "address",
          "name": "newInitiate",
          "type": "address"
        },
        {
          "indexed": false,
          "internalType": "address",
          "name": "benefactor",
          "type": "address"
        },
        {
          "indexed": false,
          "internalType": "uint256",
          "name": "tokenId",
          "type": "uint256"
        },
        {
          "indexed": false,
          "internalType": "uint256",
          "name": "stake",
          "type": "uint256"
        },
        {
          "indexed": false,
          "internalType": "uint256",
          "name": "deadline",
          "type": "uint256"
        }
      ],
      "name": "Initiation",
      "type": "event"
    },
    {
      "anonymous": false,
      "inputs": [
        {
          "indexed": true,
          "internalType": "bytes32",
          "name": "role",
          "type": "bytes32"
        },
        {
          "indexed": true,
          "internalType": "bytes32",
          "name": "previousAdminRole",
          "type": "bytes32"
        },
        {
          "indexed": true,
          "internalType": "bytes32",
          "name": "newAdminRole",
          "type": "bytes32"
        }
      ],
      "name": "RoleAdminChanged",
      "type": "event"
    },
    {
      "anonymous": false,
      "inputs": [
        {
          "indexed": true,
          "internalType": "bytes32",
          "name": "role",
          "type": "bytes32"
        },
        {
          "indexed": true,
          "internalType": "uint256",
          "name": "hat",
          "type": "uint256"
        },
        {
          "indexed": true,
          "internalType": "address",
          "name": "sender",
          "type": "address"
        }
      ],
      "name": "RoleGranted",
      "type": "event"
    },
    {
      "anonymous": false,
      "inputs": [
        {
          "indexed": true,
          "internalType": "bytes32",
          "name": "role",
          "type": "bytes32"
        },
        {
          "indexed": true,
          "internalType": "uint256",
          "name": "previousRoleHat",
          "type": "uint256"
        },
        {
          "indexed": true,
          "internalType": "uint256",
          "name": "newRoleHat",
          "type": "uint256"
        }
      ],
      "name": "RoleHatChanged",
      "type": "event"
    },
    {
      "anonymous": false,
      "inputs": [
        {
          "indexed": true,
          "internalType": "bytes32",
          "name": "role",
          "type": "bytes32"
        },
        {
          "indexed": true,
          "internalType": "uint256",
          "name": "hat",
          "type": "uint256"
        },
        {
          "indexed": true,
          "internalType": "address",
          "name": "sender",
          "type": "address"
        }
      ],
      "name": "RoleRevoked",
      "type": "event"
    },
    {
      "anonymous": false,
      "inputs": [
        {
          "indexed": false,
          "internalType": "address",
          "name": "sacrifice",
          "type": "address"
        },
        {
          "indexed": false,
          "internalType": "uint256",
          "name": "slashedAmount",
          "type": "uint256"
        },
        {
          "indexed": false,
          "internalType": "address",
          "name": "slasher",
          "type": "address"
        }
      ],
      "name": "Sacrifice",
      "type": "event"
    },
    {
      "anonymous": false,
      "inputs": [
        {
          "indexed": true,
          "internalType": "address",
          "name": "from",
          "type": "address"
        },
        {
          "indexed": true,
          "internalType": "address",
          "name": "to",
          "type": "address"
        },
        {
          "indexed": true,
          "internalType": "uint256",
          "name": "tokenId",
          "type": "uint256"
        }
      ],
      "name": "Transfer",
      "type": "event"
    },
    {
      "inputs": [],
      "name": "ADMIN",
      "outputs": [
        {
          "internalType": "bytes32",
          "name": "",
          "type": "bytes32"
        }
      ],
      "stateMutability": "view",
      "type": "function"
    },
    {
      "inputs": [],
      "name": "DEFAULT_ADMIN_ROLE",
      "outputs": [
        {
          "internalType": "bytes32",
          "name": "",
          "type": "bytes32"
        }
      ],
      "stateMutability": "view",
      "type": "function"
    },
    {
      "inputs": [],
      "name": "HATS",
      "outputs": [
        {
          "internalType": "contract IHats",
          "name": "",
          "type": "address"
        }
      ],
      "stateMutability": "view",
      "type": "function"
    },
    {
      "inputs": [],
      "name": "admin1",
      "outputs": [
        {
          "internalType": "address",
          "name": "",
          "type": "address"
        }
      ],
      "stateMutability": "view",
      "type": "function"
    },
    {
      "inputs": [],
      "name": "admin2",
      "outputs": [
        {
          "internalType": "address",
          "name": "",
          "type": "address"
        }
      ],
      "stateMutability": "view",
      "type": "function"
    },
    {
      "inputs": [],
      "name": "adminHat",
      "outputs": [
        {
          "internalType": "uint256",
          "name": "",
          "type": "uint256"
        }
      ],
      "stateMutability": "view",
      "type": "function"
    },
    {
      "inputs": [
        {
          "internalType": "address",
          "name": "to",
          "type": "address"
        },
        {
          "internalType": "uint256",
          "name": "tokenId",
          "type": "uint256"
        }
      ],
      "name": "approve",
      "outputs": [],
      "stateMutability": "nonpayable",
      "type": "function"
    },
    {
      "inputs": [],
      "name": "baal",
      "outputs": [
        {
          "internalType": "contract IBaal",
          "name": "",
          "type": "address"
        }
      ],
      "stateMutability": "view",
      "type": "function"
    },
    {
      "inputs": [
        {
          "internalType": "address",
          "name": "owner",
          "type": "address"
        }
      ],
      "name": "balanceOf",
      "outputs": [
        {
          "internalType": "uint256",
          "name": "",
          "type": "uint256"
        }
      ],
      "stateMutability": "view",
      "type": "function"
    },
    {
      "inputs": [
        {
          "internalType": "address[]",
          "name": "to",
          "type": "address[]"
        }
      ],
      "name": "batchMintBaalShares",
      "outputs": [],
      "stateMutability": "nonpayable",
      "type": "function"
    },
    {
      "inputs": [
        {
          "internalType": "address",
          "name": "newHatsContract",
          "type": "address"
        }
      ],
      "name": "changeHatsContract",
      "outputs": [],
      "stateMutability": "nonpayable",
      "type": "function"
    },
    {
      "inputs": [
        {
          "internalType": "uint256",
          "name": "_cohortSize",
          "type": "uint256"
        }
      ],
      "name": "changeJoinSizeLimit",
      "outputs": [],
      "stateMutability": "nonpayable",
      "type": "function"
    },
    {
      "inputs": [
        {
          "internalType": "uint256",
          "name": "_joinDuration",
          "type": "uint256"
        }
      ],
      "name": "changeJoinTimeDuration",
      "outputs": [],
      "stateMutability": "nonpayable",
      "type": "function"
    },
    {
      "inputs": [
        {
          "internalType": "bytes32",
          "name": "role",
          "type": "bytes32"
        },
        {
          "internalType": "uint256",
          "name": "newRoleHat",
          "type": "uint256"
        }
      ],
      "name": "changeRoleHat",
      "outputs": [],
      "stateMutability": "nonpayable",
      "type": "function"
    },
    {
      "inputs": [
        {
          "internalType": "address",
          "name": "user",
          "type": "address"
        }
      ],
      "name": "checkStake",
      "outputs": [
        {
          "internalType": "uint256",
          "name": "",
          "type": "uint256"
        }
      ],
      "stateMutability": "view",
      "type": "function"
    },
    {
      "inputs": [],
      "name": "claimStake",
      "outputs": [],
      "stateMutability": "nonpayable",
      "type": "function"
    },
    {
      "inputs": [],
      "name": "cohortCounter",
      "outputs": [
        {
          "internalType": "uint256",
          "name": "",
          "type": "uint256"
        }
      ],
      "stateMutability": "view",
      "type": "function"
    },
    {
      "inputs": [],
      "name": "cohortName",
      "outputs": [
        {
          "internalType": "string",
          "name": "",
          "type": "string"
        }
      ],
      "stateMutability": "view",
      "type": "function"
    },
    {
      "inputs": [],
      "name": "cohortSeason",
      "outputs": [
        {
          "internalType": "uint256",
          "name": "",
          "type": "uint256"
        }
      ],
      "stateMutability": "view",
      "type": "function"
    },
    {
      "inputs": [],
      "name": "cohortSize",
      "outputs": [
        {
          "internalType": "uint256",
          "name": "",
          "type": "uint256"
        }
      ],
      "stateMutability": "view",
      "type": "function"
    },
    {
      "inputs": [
        {
          "internalType": "string",
          "name": "feedback",
          "type": "string"
        }
      ],
      "name": "cryForHelp",
      "outputs": [],
      "stateMutability": "nonpayable",
      "type": "function"
    },
    {
      "inputs": [
        {
          "internalType": "address",
          "name": "",
          "type": "address"
        }
      ],
      "name": "deadlines",
      "outputs": [
        {
          "internalType": "uint256",
          "name": "",
          "type": "uint256"
        }
      ],
      "stateMutability": "view",
      "type": "function"
    },
    {
      "inputs": [
        {
          "internalType": "uint256",
          "name": "_extension",
          "type": "uint256"
        }
      ],
      "name": "extendJoinTimeLimit",
      "outputs": [],
      "stateMutability": "nonpayable",
      "type": "function"
    },
    {
      "inputs": [
        {
          "internalType": "uint256",
          "name": "tokenId",
          "type": "uint256"
        }
      ],
      "name": "getApproved",
      "outputs": [
        {
          "internalType": "address",
          "name": "",
          "type": "address"
        }
      ],
      "stateMutability": "view",
      "type": "function"
    },
    {
      "inputs": [
        {
          "internalType": "address",
          "name": "user",
          "type": "address"
        }
      ],
      "name": "getDeadline",
      "outputs": [
        {
          "internalType": "uint256",
          "name": "",
          "type": "uint256"
        }
      ],
      "stateMutability": "view",
      "type": "function"
    },
    {
      "inputs": [
        {
          "internalType": "bytes32",
          "name": "role",
          "type": "bytes32"
        }
      ],
      "name": "getRoleAdmin",
      "outputs": [
        {
          "internalType": "bytes32",
          "name": "",
          "type": "bytes32"
        }
      ],
      "stateMutability": "view",
      "type": "function"
    },
    {
      "inputs": [
        {
          "internalType": "bytes32",
          "name": "role",
          "type": "bytes32"
        },
        {
          "internalType": "uint256",
          "name": "hat",
          "type": "uint256"
        }
      ],
      "name": "grantRole",
      "outputs": [],
      "stateMutability": "nonpayable",
      "type": "function"
    },
    {
      "inputs": [
        {
          "internalType": "bytes32",
          "name": "role",
          "type": "bytes32"
        },
        {
          "internalType": "address",
          "name": "account",
          "type": "address"
        }
      ],
      "name": "hasRole",
      "outputs": [
        {
          "internalType": "bool",
          "name": "",
          "type": "bool"
        }
      ],
      "stateMutability": "view",
      "type": "function"
    },
    {
      "inputs": [],
      "name": "hatsContract",
      "outputs": [
        {
          "internalType": "address",
          "name": "",
          "type": "address"
        }
      ],
      "stateMutability": "view",
      "type": "function"
    },
    {
      "inputs": [
        {
          "components": [
            {
              "internalType": "address",
              "name": "membershipCriteria",
              "type": "address"
            },
            {
              "internalType": "address",
              "name": "stakingAsset",
              "type": "address"
            },
            {
              "internalType": "address",
              "name": "treasury",
              "type": "address"
            },
            {
              "internalType": "address",
              "name": "admin1",
              "type": "address"
            },
            {
              "internalType": "address",
              "name": "admin2",
              "type": "address"
            },
            {
              "internalType": "uint256",
              "name": "cohortSize",
              "type": "uint256"
            },
            {
              "internalType": "uint256",
              "name": "joinDuration",
              "type": "uint256"
            },
            {
              "internalType": "uint256",
              "name": "threshold",
              "type": "uint256"
            },
            {
              "internalType": "uint256",
              "name": "assetAmount",
              "type": "uint256"
            },
            {
              "internalType": "uint256",
              "name": "stakeDuration",
              "type": "uint256"
            },
            {
              "internalType": "uint256",
              "name": "topHatId",
              "type": "uint256"
            },
            {
              "internalType": "string",
              "name": "cohortName",
              "type": "string"
            },
            {
              "internalType": "string",
              "name": "sbtName",
              "type": "string"
            },
            {
              "internalType": "string",
              "name": "sbtSymbol",
              "type": "string"
            },
            {
              "internalType": "string",
              "name": "baseUri",
              "type": "string"
            },
            {
              "internalType": "bool",
              "name": "shamanOn",
              "type": "bool"
            }
          ],
          "internalType": "struct IInitData.InitData",
          "name": "initData",
          "type": "tuple"
        },
        {
          "internalType": "address",
          "name": "hatsProtocol",
          "type": "address"
        },
        {
          "internalType": "address",
          "name": "caller_",
          "type": "address"
        }
      ],
      "name": "initialize",
      "outputs": [],
      "stateMutability": "nonpayable",
      "type": "function"
    },
    {
      "inputs": [
        {
          "internalType": "address",
          "name": "_deployer",
          "type": "address"
        },
        {
          "internalType": "address",
          "name": "_admin1",
          "type": "address"
        },
        {
          "internalType": "address",
          "name": "_admin2",
          "type": "address"
        }
      ],
      "name": "initializeHatTree",
      "outputs": [],
      "stateMutability": "nonpayable",
      "type": "function"
    },
    {
      "inputs": [
        {
          "internalType": "address",
          "name": "owner",
          "type": "address"
        },
        {
          "internalType": "address",
          "name": "operator",
          "type": "address"
        }
      ],
      "name": "isApprovedForAll",
      "outputs": [
        {
          "internalType": "bool",
          "name": "",
          "type": "bool"
        }
      ],
      "stateMutability": "view",
      "type": "function"
    },
    {
      "inputs": [
        {
          "internalType": "address",
          "name": "user",
          "type": "address"
        }
      ],
      "name": "isMember",
      "outputs": [
        {
          "internalType": "bool",
          "name": "",
          "type": "bool"
        }
      ],
      "stateMutability": "view",
      "type": "function"
    },
    {
      "inputs": [],
      "name": "joinDuration",
      "outputs": [
        {
          "internalType": "uint256",
          "name": "",
          "type": "uint256"
        }
      ],
      "stateMutability": "view",
      "type": "function"
    },
    {
      "inputs": [],
      "name": "joinEndTime",
      "outputs": [
        {
          "internalType": "uint256",
          "name": "",
          "type": "uint256"
        }
      ],
      "stateMutability": "view",
      "type": "function"
    },
    {
      "inputs": [
        {
          "internalType": "address",
          "name": "user",
          "type": "address"
        }
      ],
      "name": "joinInitiation",
      "outputs": [],
      "stateMutability": "nonpayable",
      "type": "function"
    },
    {
      "inputs": [],
      "name": "maximumTime",
      "outputs": [
        {
          "internalType": "uint256",
          "name": "",
          "type": "uint256"
        }
      ],
      "stateMutability": "view",
      "type": "function"
    },
    {
      "inputs": [],
      "name": "minimumShare",
      "outputs": [
        {
          "internalType": "uint256",
          "name": "",
          "type": "uint256"
        }
      ],
      "stateMutability": "view",
      "type": "function"
    },
    {
      "inputs": [],
      "name": "minimumStake",
      "outputs": [
        {
          "internalType": "uint256",
          "name": "",
          "type": "uint256"
        }
      ],
      "stateMutability": "view",
      "type": "function"
    },
    {
      "inputs": [
        {
          "internalType": "address",
          "name": "_to",
          "type": "address"
        }
      ],
      "name": "mintAdminHatProposal",
      "outputs": [],
      "stateMutability": "nonpayable",
      "type": "function"
    },
    {
      "inputs": [],
      "name": "name",
      "outputs": [
        {
          "internalType": "string",
          "name": "",
          "type": "string"
        }
      ],
      "stateMutability": "view",
      "type": "function"
    },
    {
      "inputs": [
        {
          "internalType": "uint256",
          "name": "tokenId",
          "type": "uint256"
        }
      ],
      "name": "ownerOf",
      "outputs": [
        {
          "internalType": "address",
          "name": "",
          "type": "address"
        }
      ],
      "stateMutability": "view",
      "type": "function"
    },
    {
      "inputs": [
        {
          "internalType": "bytes32",
          "name": "role",
          "type": "bytes32"
        },
        {
          "internalType": "uint256",
          "name": "hat",
          "type": "uint256"
        }
      ],
      "name": "revokeRole",
      "outputs": [],
      "stateMutability": "nonpayable",
      "type": "function"
    },
    {
      "inputs": [],
      "name": "sacrifice",
      "outputs": [],
      "stateMutability": "nonpayable",
      "type": "function"
    },
    {
      "inputs": [
        {
          "internalType": "address",
          "name": "from",
          "type": "address"
        },
        {
          "internalType": "address",
          "name": "to",
          "type": "address"
        },
        {
          "internalType": "uint256",
          "name": "tokenId",
          "type": "uint256"
        }
      ],
      "name": "safeTransferFrom",
      "outputs": [],
      "stateMutability": "nonpayable",
      "type": "function"
    },
    {
      "inputs": [
        {
          "internalType": "address",
          "name": "from",
          "type": "address"
        },
        {
          "internalType": "address",
          "name": "to",
          "type": "address"
        },
        {
          "internalType": "uint256",
          "name": "tokenId",
          "type": "uint256"
        },
        {
          "internalType": "bytes",
          "name": "data",
          "type": "bytes"
        }
      ],
      "name": "safeTransferFrom",
      "outputs": [],
      "stateMutability": "nonpayable",
      "type": "function"
    },
    {
      "inputs": [
        {
          "internalType": "address",
          "name": "operator",
          "type": "address"
        },
        {
          "internalType": "bool",
          "name": "approved",
          "type": "bool"
        }
      ],
      "name": "setApprovalForAll",
      "outputs": [],
      "stateMutability": "nonpayable",
      "type": "function"
    },
    {
      "inputs": [
        {
          "internalType": "uint256",
          "name": "newMaxTime",
          "type": "uint256"
        }
      ],
      "name": "setMaxDuration",
      "outputs": [],
      "stateMutability": "nonpayable",
      "type": "function"
    },
    {
      "inputs": [
        {
          "internalType": "uint256",
          "name": "newMinimumStake",
          "type": "uint256"
        }
      ],
      "name": "setMinimumStake",
      "outputs": [],
      "stateMutability": "nonpayable",
      "type": "function"
    },
    {
      "inputs": [
        {
          "internalType": "uint256",
          "name": "newShareThreshold",
          "type": "uint256"
        }
      ],
      "name": "setShareThreshold",
      "outputs": [],
      "stateMutability": "nonpayable",
      "type": "function"
    },
    {
      "inputs": [
        {
          "internalType": "address",
          "name": "_to",
          "type": "address"
        }
      ],
      "name": "singleMintBaalShares",
      "outputs": [],
      "stateMutability": "nonpayable",
      "type": "function"
    },
    {
      "inputs": [
        {
          "internalType": "address",
          "name": "_sacrificialLamb",
          "type": "address"
        }
      ],
      "name": "slaughter",
      "outputs": [],
      "stateMutability": "nonpayable",
      "type": "function"
    },
    {
      "inputs": [
        {
          "internalType": "bytes4",
          "name": "interfaceId",
          "type": "bytes4"
        }
      ],
      "name": "supportsInterface",
      "outputs": [
        {
          "internalType": "bool",
          "name": "",
          "type": "bool"
        }
      ],
      "stateMutability": "view",
      "type": "function"
    },
    {
      "inputs": [],
      "name": "symbol",
      "outputs": [
        {
          "internalType": "string",
          "name": "",
          "type": "string"
        }
      ],
      "stateMutability": "view",
      "type": "function"
    },
    {
      "inputs": [
        {
          "internalType": "uint256",
          "name": "tokenId",
          "type": "uint256"
        }
      ],
      "name": "tokenURI",
      "outputs": [
        {
          "internalType": "string",
          "name": "",
          "type": "string"
        }
      ],
      "stateMutability": "view",
      "type": "function"
    },
    {
      "inputs": [],
      "name": "topHat",
      "outputs": [
        {
          "internalType": "uint256",
          "name": "",
          "type": "uint256"
        }
      ],
      "stateMutability": "view",
      "type": "function"
    },
    {
      "inputs": [
        {
          "internalType": "address",
          "name": "_from",
          "type": "address"
        },
        {
          "internalType": "address",
          "name": "_to",
          "type": "address"
        }
      ],
      "name": "transferAdminHatProposal",
      "outputs": [],
      "stateMutability": "nonpayable",
      "type": "function"
    },
    {
      "inputs": [
        {
          "internalType": "address",
          "name": "from",
          "type": "address"
        },
        {
          "internalType": "address",
          "name": "to",
          "type": "address"
        },
        {
          "internalType": "uint256",
          "name": "tokenId",
          "type": "uint256"
        }
      ],
      "name": "transferFrom",
      "outputs": [],
      "stateMutability": "nonpayable",
      "type": "function"
    },
    {
      "inputs": [],
      "name": "treasury",
      "outputs": [
        {
          "internalType": "address",
          "name": "",
          "type": "address"
        }
      ],
      "stateMutability": "view",
      "type": "function"
    }
  ],
  "bytecode": {
    "object": "0x60806040523480156200001157600080fd5b506200001c62000022565b620000e3565b600054610100900460ff16156200008f5760405162461bcd60e51b815260206004820152602760248201527f496e697469616c697a61626c653a20636f6e747261637420697320696e697469604482015266616c697a696e6760c81b606482015260840160405180910390fd5b60005460ff90811614620000e1576000805460ff191660ff9081179091556040519081527f7f26b83ff96e1f2b6a682f133852f6798a09c465da95921460cefb38474024989060200160405180910390a15b565b61466180620000f36000396000f3fe608060405234801561001057600080fd5b50600436106103995760003560e01c806395d89b41116101e9578063c6db81291161010f578063e5d05722116100ad578063f3450f001161007c578063f3450f00146107dd578063f68659bd146107f0578063f9bb68fc146107f9578063fc4c09581461080257600080fd5b8063e5d0572214610770578063e985e9c514610790578063eb321173146107cc578063ec5ffac2146107d457600080fd5b8063c87b56dd116100e9578063c87b56dd14610724578063cf0f34c414610737578063cfdb44d61461074a578063e5a2a2a51461075d57600080fd5b8063c6db8129146106f5578063c733d5e9146106fe578063c81f83a21461071157600080fd5b8063a3beab6a11610187578063b8c4536111610156578063b8c45361146106b3578063b8ebdcd9146106c6578063bc5fa8df146106d9578063c2d14f02146106ec57600080fd5b8063a3beab6a14610671578063aee4c96f14610684578063b5436cec1461068d578063b88d4fde146106a057600080fd5b8063a2213262116101c3578063a22132621461060f578063a22cb46514610638578063a230c5241461064b578063a3919d1f1461065e57600080fd5b806395d89b41146105ee57806397e39fef146105f6578063a217fddf1461060757600080fd5b8063248a9ca3116102ce57806361d027b31161026c57806373f78fd01161023b57806373f78fd0146105a25780638a040df4146105aa57806390d96d76146105b257806391d14854146105db57600080fd5b806361d027b3146105565780636352211e1461056957806370a082311461057c5780637150ef881461058f57600080fd5b80632e152618116102a85780632e1526181461051e57806335439bb31461052757806342842e0e146105305780634558e83d1461054357600080fd5b8063248a9ca3146104d35780632a0acc6a146104f65780632a4a13421461050b57600080fd5b80631719f9a31161033b5780631b6ea9f9116103155780631b6ea9f914610491578063232b0432146104a4578063233e9903146104ad57806323b872dd146104c057600080fd5b80631719f9a314610454578063172bf8541461046757806319d61ad91461047e57600080fd5b8063081812fc11610377578063081812fc14610406578063095ea7b3146104195780630c538f2f1461042e578063115976c41461044157600080fd5b806301ffc9a71461039e57806306a8f8a2146103c657806306fdde03146103f1575b600080fd5b6103b16103ac36600461385b565b610815565b60405190151581526020015b60405180910390f35b60af546103d9906001600160a01b031681565b6040516001600160a01b0390911681526020016103bd565b6103f9610826565b6040516103bd91906138c8565b6103d96104143660046138db565b6108b8565b61042c610427366004613909565b6108df565b005b61042c61043c366004613935565b6109f9565b60ae546103d9906001600160a01b031681565b61042c6104623660046139a7565b610a9e565b61047060a55481565b6040519081526020016103bd565b61042c61048c3660046139e0565b610b7d565b61042c61049f3660046139e0565b610ba2565b61047060ad5481565b61042c6104bb3660046138db565b610bc7565b61042c6104ce366004613a02565b610bec565b6104706104e13660046138db565b60009081526098602052604090206001015490565b61047060008051602061457a83398151915281565b61042c6105193660046138db565b610c1d565b61047060a75481565b61047060a65481565b61042c61053e366004613a02565b610c4a565b61042c6105513660046138db565b610c65565b60aa546103d9906001600160a01b031681565b6103d96105773660046138db565b610c83565b61047061058a366004613a43565b610ce3565b60ab546103d9906001600160a01b031681565b6103f9610d69565b61042c610df7565b6104706105c0366004613a43565b6001600160a01b031660009081526099602052604090205490565b6103b16105e9366004613a60565b610e1a565b6103f9610ea6565b6097546001600160a01b03166103d9565b610470600081565b61047061061d366004613a43565b6001600160a01b03166000908152609a602052604090205490565b61042c610646366004613a93565b610eb5565b6103b1610659366004613a43565b610ec0565b61042c61066c366004613a43565b610f3e565b61042c61067f366004613a43565b611048565b61047060a45481565b61042c61069b3660046139e0565b611125565b61042c6106ae366004613ad7565b61114a565b61042c6106c1366004613a43565b61117c565b61042c6106d43660046138db565b611190565b61042c6106e73660046138db565b6111ae565b61047060ac5481565b61047060a35481565b61042c61070c366004613a43565b6111cf565b61042c61071f366004613bb7565b611308565b6103f96107323660046138db565b611413565b61042c6107453660046138db565b611479565b61042c610758366004613c1a565b61149a565b609d546103d9906001600160a01b031681565b61047061077e366004613a43565b609a6020526000908152604090205481565b6103b161079e3660046139a7565b6001600160a01b039182166000908152606a6020908152604080832093909416825291909152205460ff1690565b61042c611c22565b61047060a85481565b61042c6107eb366004613c84565b611c70565b61047060a25481565b61047060a95481565b61042c610810366004613a43565b611fcc565b600061082082612007565b92915050565b60606065805461083590613ca4565b80601f016020809104026020016040519081016040528092919081815260200182805461086190613ca4565b80156108ae5780601f10610883576101008083540402835291602001916108ae565b820191906000526020600020905b81548152906001019060200180831161089157829003601f168201915b5050505050905090565b60006108c382612057565b506000908152606960205260409020546001600160a01b031690565b60006108ea82610c83565b9050806001600160a01b0316836001600160a01b03160361095c5760405162461bcd60e51b815260206004820152602160248201527f4552433732313a20617070726f76616c20746f2063757272656e74206f776e656044820152603960f91b60648201526084015b60405180910390fd5b336001600160a01b03821614806109785750610978813361079e565b6109ea5760405162461bcd60e51b815260206004820152603d60248201527f4552433732313a20617070726f76652063616c6c6572206973206e6f7420746f60448201527f6b656e206f776e6572206f7220617070726f76656420666f7220616c6c0000006064820152608401610953565b6109f483836120b6565b505050565b610a0233610ce3565b600114610a515760405162461bcd60e51b815260206004820152601960248201527f4f6e6c7920636f686f7274207061727469636970616e747321000000000000006044820152606401610953565b60aa546040517f7ad32bfb950c825d7d252f51537ad223c191a793ae9109cffc3bbd287485f6df91610a929133916001600160a01b03169086908690613cde565b60405180910390a15050565b6060610aad60ad548484612124565b60408051600180825281830190925291925060009190816020015b6060815260200190600190039081610ac85790505090508181600081518110610af357610af3613d2a565b6020908102919091010152604080516001808252818301909252600091816020016020820280368337505060ab5482519293506001600160a01b031691839150600090610b4257610b42613d2a565b60200260200101906001600160a01b031690816001600160a01b031681525050610b76610b6f83836121e4565b60046122c5565b5050505050565b600082815260986020526040902060010154610b98816124b1565b6109f483836124bb565b600082815260986020526040902060010154610bbd816124b1565b6109f48383612511565b60008051602061457a833981519152610bdf816124b1565b610be882612591565b5050565b610bf6338261262e565b610c125760405162461bcd60e51b815260040161095390613d40565b6109f48383836126ad565b60008051602061457a833981519152610c35816124b1565b8160a654610c439190613da3565b60a6555050565b6109f48383836040518060200160405280600081525061114a565b60008051602061457a833981519152610c7d816124b1565b5060a555565b6000818152606760205260408120546001600160a01b0316806108205760405162461bcd60e51b8152602060048201526018602482015277115490cdcc8c4e881a5b9d985b1a59081d1bdad95b88125160421b6044820152606401610953565b60006001600160a01b038216610d4d5760405162461bcd60e51b815260206004820152602960248201527f4552433732313a2061646472657373207a65726f206973206e6f7420612076616044820152683634b21037bbb732b960b91b6064820152608401610953565b506001600160a01b031660009081526068602052604090205490565b60a18054610d7690613ca4565b80601f0160208091040260200160405190810160405280929190818152602001828054610da290613ca4565b8015610def5780601f10610dc457610100808354040283529160200191610def565b820191906000526020600020905b815481529060010190602001808311610dd257829003601f168201915b505050505081565b60008051602061457a833981519152610e0f816124b1565b610e1761281e565b50565b6097546000838152609860205260408082205490516321a9204d60e11b81526001600160a01b038581166004830152602482019290925291921690634352409a90604401602060405180830381865afa158015610e7b573d6000803e3d6000fd5b505050506040513d601f19601f82011682018060405250810190610e9f9190613db6565b9392505050565b60606066805461083590613ca4565b610be8338383612a79565b609e546040516370a0823160e01b81526001600160a01b03838116600483015260009283929116906370a0823190602401602060405180830381865afa158015610f0e573d6000803e3d6000fd5b505050506040513d601f19601f82011682018060405250810190610f329190613dd3565b60a75411159392505050565b60008051602061457a833981519152610f56816124b1565b60408051600180825281830190925260009160208083019080368337505060408051600180825281830190925292935060009291506020808301908036833701905050905060a75482600081518110610fb157610fb1613d2a565b6020026020010181815250508381600081518110610fd157610fd1613d2a565b6001600160a01b039283166020918202929092010152609d54604051632c78fd0360e21b815291169063b1e3f40c906110109084908690600401613e27565b600060405180830381600087803b15801561102a57600080fd5b505af115801561103e573d6000803e3d6000fd5b5050505050505050565b606061105660ad5483612b47565b60408051600180825281830190925291925060009190816020015b6060815260200190600190039081611071579050509050818160008151811061109c5761109c613d2a565b6020908102919091010152604080516001808252818301909252600091816020016020820280368337505060ab5482519293506001600160a01b0316918391506000906110eb576110eb613d2a565b60200260200101906001600160a01b031690816001600160a01b03168152505061111f61111883836121e4565b60036122c5565b50505050565b600082815260986020526040902060010154611140816124b1565b6109f48383612c0c565b611154338361262e565b6111705760405162461bcd60e51b815260040161095390613d40565b61111f84848484612c75565b6000611187816124b1565b610be882612ca8565b60008051602061457a8339815191526111a8816124b1565b5060a355565b60008051602061457a8339815191526111c6816124b1565b610be882612cfa565b60a6544211156112215760405162461bcd60e51b815260206004820152601960248201527f5468697320636f686f7274206973206e6f7720636c6f736564000000000000006044820152606401610953565b60a354609c5411156112755760405162461bcd60e51b815260206004820152601b60248201527f5468697320636f686f727420697320616c72656164792066756c6c00000000006044820152606401610953565b61127e81612d91565b6112bc5760405162461bcd60e51b815260206004820152600f60248201526e5374616b696e67206661696c65642160881b6044820152606401610953565b60a480549060006112cc83613e87565b909155505060a2546000908152609b6020908152604080832060a4548452909152902080546001600160a01b03191633179055610e1781612ea5565b60008051602061457a833981519152611320816124b1565b8160008167ffffffffffffffff81111561133c5761133c613ac1565b604051908082528060200260200182016040528015611365578160200160208202803683370190505b50905060005b828110156113a55760a75482828151811061138857611388613d2a565b60209081029190910101528061139d81613e87565b91505061136b565b50609d54604051632c78fd0360e21b81526001600160a01b039091169063b1e3f40c906113da90889088908690600401613ea0565b600060405180830381600087803b1580156113f457600080fd5b505af1158015611408573d6000803e3d6000fd5b505050505050505050565b606061141e82612057565b6000611428612f37565b905060008151116114485760405180602001604052806000815250610e9f565b8061145284612f46565b604051602001611463929190613f01565b6040516020818303038152906040529392505050565b60008051602061457a833981519152611491816124b1565b610be882612fd9565b600054610100900460ff16158080156114ba5750600054600160ff909116105b806114d45750303b1580156114d4575060005460ff166001145b6115375760405162461bcd60e51b815260206004820152602e60248201527f496e697469616c697a61626c653a20636f6e747261637420697320616c72656160448201526d191e481a5b9a5d1a585b1a5e995960921b6064820152608401610953565b6000805460ff19166001179055801561155a576000805461ff0019166101001790555b611568609c80546001019055565b600160a25561157b610160850185613f30565b60a191611589919083613fcc565b5060a084013560a35560c084013560a58190556115a69042613da3565b60a6556116376115ba610180860186613f30565b8080601f0160208091040260200160405190810160405280939291908181526020018383808284376000920191909152506115fd925050506101a0870187613f30565b8080601f01602080910402602001604051908101604052809392919081815260200183838082843760009201919091525061306f92505050565b6116446020850185613a43565b609d80546001600160a01b0319166001600160a01b0392909216918217905560408051638009ba1f60e01b81529051638009ba1f9160048082019260209290919082900301816000875af11580156116a0573d6000803e3d6000fd5b505050506040513d601f19601f820116820180604052508101906116c4919061408c565b609e80546001600160a01b0319166001600160a01b03929092169190911790556116f46060850160408601613a43565b60aa80546001600160a01b0319166001600160a01b03929092169190911790556117246040850160208601613a43565b609f80546001600160a01b0319166001600160a01b0392909216919091179055611752610100850135612591565b61175f8460e00135612cfa565b61176d846101200135612fd9565b61178361177e6101c0860186613f30565b6130a0565b60ab80546001600160a01b0319166001600160a01b0385161790556117a783612ca8565b6117b961020085016101e086016140a9565b156118985760606117cb3060026130ad565b60408051600180825281830190925291925060009190816020015b60608152602001906001900390816117e6579050509050818160008151811061181157611811613d2a565b60209081029190910101526040805160018082528183019092526000918160200160208202803683375050609d5482519293506001600160a01b03169183915060009061186057611860613d2a565b60200260200101906001600160a01b031690816001600160a01b03168152505061189461188d83836121e4565b60016122c5565b5050505b60ab5460aa546040516321a9204d60e11b81526001600160a01b0391821660048201526101408701356024820152911690634352409a90604401602060405180830381865afa1580156118ef573d6000803e3d6000fd5b505050506040513d601f19601f820116820180604052508101906119139190613db6565b15611b135761014084013560ac5560608061193360808701878301613a43565b60ae80546001600160a01b0319166001600160a01b039290921691909117905561196360a0870160808801613a43565b60af80546001600160a01b0319166001600160a01b0392831617905560ac5460aa54611990921630612124565b60ae5460af54604080516001600160a01b03898116602483015293841660448201529290911660648084019190915281518084039091018152608490920190526020810180516001600160e01b031662f3450f60e81b1790529092506040805160028082526060820190925291925060009190816020015b6060815260200190600190039081611a085790505090508281600081518110611a3357611a33613d2a565b60200260200101819052508181600181518110611a5257611a52613d2a565b602090810291909101015260408051600280825260608201909252600091816020016020820280368337505060ab5482519293506001600160a01b031691839150600090611aa257611aa2613d2a565b60200260200101906001600160a01b031690816001600160a01b0316815250503081600181518110611ad657611ad6613d2a565b60200260200101906001600160a01b031690816001600160a01b031681525050611b0a611b0383836121e4565b60026122c5565b50505050611bd7565b60ab54604051631a64dfad60e01b815230600482015260606024820152600a6064820152691493d348151bdc12185d60b21b608482015260a06044820152600060a48201526001600160a01b0390911690631a64dfad9060c4016020604051808303816000875af1158015611b8c573d6000803e3d6000fd5b505050506040513d601f19601f82011682018060405250810190611bb09190613dd3565b60ac55611bd782611bc76080870160608801613a43565b6107eb60a0880160808901613a43565b801561111f576000805461ff0019169055604051600181527f7f26b83ff96e1f2b6a682f133852f6798a09c465da95921460cefb38474024989060200160405180910390a150505050565b611c2a61318b565b611c32613244565b611c6e5760405162461bcd60e51b815260206004820152600d60248201526c436c61696d206661696c65642160981b6044820152606401610953565b565b60af54600160a01b900460ff1615611cca5760405162461bcd60e51b815260206004820152601860248201527f4861747320616c726561647920696e697469616c697a656400000000000000006044820152606401610953565b60af805460ff60a01b1916600160a01b17905560ab5460ac54609d54604051635829492f60e11b8152600481019290925260e06024830152600960e4830152682927a69020b236b4b760b91b610104830152600360448301526001600160a01b03908116606483018190526084830152600160a483015261012060c483015260006101248301529091169063b052925e90610144016020604051808303816000875af1158015611d7e573d6000803e3d6000fd5b505050506040513d601f19601f82011682018060405250810190611da29190613dd3565b60ad819055611dc09060008051602061457a83398151915290612511565b60ab5460ad5460405163320fbbb760e11b815260048101919091526001600160a01b0385811660248301529091169063641f776e906044016020604051808303816000875af1158015611e17573d6000803e3d6000fd5b505050506040513d601f19601f82011682018060405250810190611e3b9190613db6565b506001600160a01b03821615611ec85760ab5460ad5460405163320fbbb760e11b815260048101919091526001600160a01b0384811660248301529091169063641f776e906044016020604051808303816000875af1158015611ea2573d6000803e3d6000fd5b505050506040513d601f19601f82011682018060405250810190611ec69190613db6565b505b6001600160a01b03811615611f545760ab5460ad5460405163320fbbb760e11b815260048101919091526001600160a01b0383811660248301529091169063641f776e906044016020604051808303816000875af1158015611f2e573d6000803e3d6000fd5b505050506040513d601f19601f82011682018060405250810190611f529190613db6565b505b60ab5460ac5460aa546040516329287c1b60e21b815260048101929092523060248301526001600160a01b0390811660448301529091169063a4a1f06c90606401600060405180830381600087803b158015611faf57600080fd5b505af1158015611fc3573d6000803e3d6000fd5b50505050505050565b60008051602061457a833981519152611fe4816124b1565b611fed8261337b565b5060a48054906000611ffe836140c6565b91905055505050565b60006001600160e01b031982166380ac58cd60e01b148061203857506001600160e01b03198216635b5e139f60e01b145b8061082057506301ffc9a760e01b6001600160e01b0319831614610820565b6000818152606760205260409020546001600160a01b0316610e175760405162461bcd60e51b8152602060048201526018602482015277115490cdcc8c4e881a5b9d985b1a59081d1bdad95b88125160421b6044820152606401610953565b600081815260696020526040902080546001600160a01b0319166001600160a01b03841690811790915581906120eb82610c83565b6001600160a01b03167f8c5be1e5ebec7d5bd14f71427d1e84f3dd0314c0f7b2291e5b200ac8c7c3b92560405160405180910390a45050565b60ae546060906001600160a01b0380851691160361215c5760ae80546001600160a01b0319166001600160a01b03841617905561218d565b60af546001600160a01b0380851691160361218d5760af80546001600160a01b0319166001600160a01b0384161790555b604051602481018590526001600160a01b0380851660448301528316606482015260840160408051601f198184030181529190526020810180516001600160e01b03166329287c1b60e21b17905290509392505050565b60608060005b84518110156122805781600085838151811061220857612208613d2a565b6020026020010151600088858151811061222457612224613d2a565b60200260200101515189868151811061223f5761223f613d2a565b602002602001015160405160200161225c969594939291906140dd565b6040516020818303038152906040529150808061227890613e87565b9150506121ea565b508060405160240161229291906138c8565b60408051601f198184030181529190526020810180516001600160e01b03166346c07f8560e11b17905291505092915050565b609d5460408051639a2f747f60e01b815290516000926001600160a01b031691639a2f747f916004808301926020929190829003018187875af1158015612310573d6000803e3d6000fd5b505050506040513d601f19601f820116820180604052508101906123349190613dd3565b90508034146123775760405162461bcd60e51b815260206004820152600f60248201526e4d697373696e67207472696275746560881b6044820152606401610953565b6060826001036123a1576040518060c00160405280609c81526020016143ef609c91399050612435565b826002036123c9576040518060c001604052806092815260200161459a609291399050612435565b826003036123f1576040518060a00160405280607e8152602001614371607e91399050612435565b82600403612419576040518060c00160405280608a81526020016144f0608a91399050612435565b6040518060a001604052806065815260200161448b6065913990505b609d546040516307505ff960e31b81526001600160a01b0390911690633a82ffc890849061246e90889060009081908890600401614147565b60206040518083038185885af115801561248c573d6000803e3d6000fd5b50505050506040513d601f19601f82011682018060405250810190610b769190613dd3565b610e1781336133eb565b600082815260986020526040902054819003610be857600082815260986020526040808220829055513391839185917f641261709a27417e18d0ccc3db95ddc812d61be919b2a5a3af21a5870590922a91a45050565b60008281526098602052604090205480156125495760405163aab0817760e01b81526004810184905260248101829052604401610953565b8181146109f457600083815260986020526040808220849055513391849186917f7c2a2c4bb5a44dafa473fc49e557303dba6db62123713789deefe8ccb384654991a4505050565b600081116125f25760405162461bcd60e51b815260206004820152602860248201527f4d696e696d756d207374616b65206d7573742062652067726561746572207468604482015267616e207a65726f2160c01b6064820152608401610953565b60a88190556040518181527fb4b5fad09421a48c68e8513475c3adbf47ed48a5eefe543d4fec52c82db47469906020015b60405180910390a150565b60008061263a83610c83565b9050806001600160a01b0316846001600160a01b0316148061268157506001600160a01b038082166000908152606a602090815260408083209388168352929052205460ff165b806126a55750836001600160a01b031661269a846108b8565b6001600160a01b0316145b949350505050565b826001600160a01b03166126c082610c83565b6001600160a01b0316146126e65760405162461bcd60e51b81526004016109539061417e565b6001600160a01b0382166127485760405162461bcd60e51b8152602060048201526024808201527f4552433732313a207472616e7366657220746f20746865207a65726f206164646044820152637265737360e01b6064820152608401610953565b612755838383600161343c565b826001600160a01b031661276882610c83565b6001600160a01b03161461278e5760405162461bcd60e51b81526004016109539061417e565b600081815260696020908152604080832080546001600160a01b03199081169091556001600160a01b0387811680865260688552838620805460001901905590871680865283862080546001019055868652606790945282852080549092168417909155905184937fddf252ad1be2c89b69c2b068fc378daa952ba7f163c4a11628f55a4df523b3ef91a4505050565b60a254600090819081612832826001613da3565b905060015b60a454811161298f576000838152609b602090815260408083208484528252808320546001600160a01b031680845260999092529091205460019015612952576001600160a01b0382166000908152609a60205260409020544211156128d8576128a08261337b565b6128aa9088613da3565b6000868152609b60209081526040808320878452909152902080546001600160a01b0319169055965061297a565b6000848152609b60209081526040808320848452909152902080546001600160a01b0319166001600160a01b0384161790558061291481613e87565b915050858061292290613e87565b6000878152609b60209081526040808320888452909152902080546001600160a01b0319169055965061297a9050565b6000858152609b60209081526040808320868452909152902080546001600160a01b03191690555b5050808061298790613e87565b915050612837565b50609f5460aa5460405163a9059cbb60e01b81526001600160a01b0391821660048201526024810187905291169063a9059cbb906044016020604051808303816000875af11580156129e5573d6000803e3d6000fd5b505050506040513d601f19601f82011682018060405250810190612a099190613db6565b612a495760405162461bcd60e51b81526020600482015260116024820152704661696c6564205361637269666963652160781b6044820152606401610953565b60a483905560a554612a5b9042613da3565b60a65560a28054906000612a6e83613e87565b919050555050505050565b816001600160a01b0316836001600160a01b031603612ada5760405162461bcd60e51b815260206004820152601960248201527f4552433732313a20617070726f766520746f2063616c6c6572000000000000006044820152606401610953565b6001600160a01b038381166000818152606a6020908152604080832094871680845294825291829020805460ff191686151590811790915591519182527f17307eab39ab6107e8899845ad3d59bd9653f200f220920489ca2b5937696c31910160405180910390a3505050565b60ae546060906001600160a01b0316612b7a5760ae80546001600160a01b0319166001600160a01b038416179055612bbe565b60ae546001600160a01b031615801590612b9d575060af546001600160a01b0316155b15612bbe5760af80546001600160a01b0319166001600160a01b0384161790555b604051602481018490526001600160a01b038316604482015260640160408051601f198184030181529190526020810180516001600160e01b031663320fbbb760e11b179052905092915050565b60008281526098602052604081205490819003612c2d57612c2d8383612511565b8181146109f457600083815260986020526040808220849055518391839186917fc3d694cb68f99c4c204d7aedbaba300907c24102aeeeecd32de2c9910609f30a91a4505050565b612c808484846126ad565b612c8c84848484613493565b61111f5760405162461bcd60e51b8152600401610953906141c3565b609780546001600160a01b038381166001600160a01b0319831681179093556040519116919082907fe2c5fed45442eae2ee9c94b63f1e24155d9bfe92ecd80e48c35ebf292767573790600090a35050565b60008111612d5c5760405162461bcd60e51b815260206004820152602960248201527f4d696e696d756d20736861726573206d7573742062652067726561746572207460448201526868616e207a65726f2160b81b6064820152608401610953565b60a78190556040518181527f7155dd2d80b479664a5c9bf2c04a1b00c07aad515f3c089a20ce1ebff2c6ecdd90602001612623565b6000612d9c82610ce3565b15612de95760405162461bcd60e51b815260206004820152601e60248201527f416c7265616479206a6f696e65642074686520696e6974696174696f6e2100006044820152606401610953565b60a8546001600160a01b03831660009081526099602052604090205560a954612e129042613da3565b6001600160a01b038381166000908152609a60205260409081902092909255609f5460a85492516323b872dd60e01b8152336004820152306024820152604481019390935216906323b872dd906064016020604051808303816000875af1158015612e81573d6000803e3d6000fd5b505050506040513d601f19601f820116820180604052508101906108209190613db6565b6000612eb0609c5490565b9050612ec0609c80546001019055565b612eca8282613594565b60a8546001600160a01b0383166000818152609a60209081526040918290205482519384523391840191909152908201849052606082019290925260808101919091527f9da9a86fb849b37cb0098539441b747ca3c0c5a367f5eaef701e6877e4b124d79060a001610a92565b606060a0805461083590613ca4565b60606000612f538361372d565b600101905060008167ffffffffffffffff811115612f7357612f73613ac1565b6040519080825280601f01601f191660200182016040528015612f9d576020820181803683370190505b5090508181016020015b600019016f181899199a1a9b1b9c1cb0b131b232b360811b600a86061a8153600a8504945084612fa757509392505050565b6000811161303a5760405162461bcd60e51b815260206004820152602860248201527f4d696e696d756d206475726174696f6e206d7573742062652067726561746572604482015267207468616e20302160c01b6064820152608401610953565b60a98190556040518181527f856717cb327b027e506a205b6a989525427e169d7b6acb09ad84d849dea2b93f90602001612623565b600054610100900460ff166130965760405162461bcd60e51b815260040161095390614215565b610be88282613805565b60a06109f4828483613fcc565b604080516001808252818301909252606091600091906020808301908036833701905050905083816000815181106130e7576130e7613d2a565b6001600160a01b039290921660209283029190910190910152604080516001808252818301909252600091816020016020820280368337019050509050838160008151811061313857613138613d2a565b6020026020010181815250508181604051602401613157929190613e27565b60408051601f198184030181529190526020810180516001600160e01b0316630f656a2160e01b1790529250505092915050565b609e546040516370a0823160e01b81523360048201526000916001600160a01b0316906370a0823190602401602060405180830381865afa1580156131d4573d6000803e3d6000fd5b505050506040513d601f19601f820116820180604052508101906131f89190613dd3565b905060a754811015610e175760405162461bcd60e51b8152602060048201526015602482015274596f75206d7573742062652061206d656d6265722160581b6044820152606401610953565b336000818152609960205260408120549091906132995760405162461bcd60e51b81526020600482015260136024820152725573657220686173206e6f207374616b65212160681b6044820152606401610953565b6001600160a01b0381166000818152609960209081526040808320805490849055609a835281842093909355805193845290830182905290917f47cee97cb7acd717b3c0aa1435d004cd5b3c8c57d70dbceb4e4458bbd60e39d4910160405180910390a1609f5460405163a9059cbb60e01b81526001600160a01b038481166004830152602482018490529091169063a9059cbb906044016020604051808303816000875af1158015613350573d6000803e3d6000fd5b505050506040513d601f19601f820116820180604052508101906133749190613db6565b9250505090565b6001600160a01b0381166000818152609960209081526040808320805490849055609a83528184208490558151948552918401829052339084015290917f1b4365d94ccfc86d7cd3eef46bf15cd821f8abb29721248eca1d751eebb669009060600160405180910390a192915050565b6133f58282610e1a565b610be85760008281526098602052604090819020549051631612509360e01b81526004810184905260248101919091526001600160a01b0382166044820152606401610953565b6001600160a01b0384161561111f5760405162461bcd60e51b815260206004820152601960248201527f5342542063616e6e6f74206265207472616e73666572726564000000000000006044820152606401610953565b60006001600160a01b0384163b1561358957604051630a85bd0160e11b81526001600160a01b0385169063150b7a02906134d7903390899088908890600401614260565b6020604051808303816000875af1925050508015613512575060408051601f3d908101601f1916820190925261350f91810190614293565b60015b61356f573d808015613540576040519150601f19603f3d011682016040523d82523d6000602084013e613545565b606091505b5080516000036135675760405162461bcd60e51b8152600401610953906141c3565b805181602001fd5b6001600160e01b031916630a85bd0160e11b1490506126a5565b506001949350505050565b6001600160a01b0382166135ea5760405162461bcd60e51b815260206004820181905260248201527f4552433732313a206d696e7420746f20746865207a65726f20616464726573736044820152606401610953565b6000818152606760205260409020546001600160a01b03161561364f5760405162461bcd60e51b815260206004820152601c60248201527f4552433732313a20746f6b656e20616c7265616479206d696e746564000000006044820152606401610953565b61365d60008383600161343c565b6000818152606760205260409020546001600160a01b0316156136c25760405162461bcd60e51b815260206004820152601c60248201527f4552433732313a20746f6b656e20616c7265616479206d696e746564000000006044820152606401610953565b6001600160a01b038216600081815260686020908152604080832080546001019055848352606790915280822080546001600160a01b0319168417905551839291907fddf252ad1be2c89b69c2b068fc378daa952ba7f163c4a11628f55a4df523b3ef908290a45050565b60008072184f03e93ff9f4daa797ed6e38ed64bf6a1f0160401b831061376c5772184f03e93ff9f4daa797ed6e38ed64bf6a1f0160401b830492506040015b6d04ee2d6d415b85acef81000000008310613798576d04ee2d6d415b85acef8100000000830492506020015b662386f26fc1000083106137b657662386f26fc10000830492506010015b6305f5e10083106137ce576305f5e100830492506008015b61271083106137e257612710830492506004015b606483106137f4576064830492506002015b600a83106108205760010192915050565b600054610100900460ff1661382c5760405162461bcd60e51b815260040161095390614215565b606561383883826142b0565b5060666109f482826142b0565b6001600160e01b031981168114610e1757600080fd5b60006020828403121561386d57600080fd5b8135610e9f81613845565b60005b8381101561389357818101518382015260200161387b565b50506000910152565b600081518084526138b4816020860160208601613878565b601f01601f19169290920160200192915050565b602081526000610e9f602083018461389c565b6000602082840312156138ed57600080fd5b5035919050565b6001600160a01b0381168114610e1757600080fd5b6000806040838503121561391c57600080fd5b8235613927816138f4565b946020939093013593505050565b6000806020838503121561394857600080fd5b823567ffffffffffffffff8082111561396057600080fd5b818501915085601f83011261397457600080fd5b81358181111561398357600080fd5b86602082850101111561399557600080fd5b60209290920196919550909350505050565b600080604083850312156139ba57600080fd5b82356139c5816138f4565b915060208301356139d5816138f4565b809150509250929050565b600080604083850312156139f357600080fd5b50508035926020909101359150565b600080600060608486031215613a1757600080fd5b8335613a22816138f4565b92506020840135613a32816138f4565b929592945050506040919091013590565b600060208284031215613a5557600080fd5b8135610e9f816138f4565b60008060408385031215613a7357600080fd5b8235915060208301356139d5816138f4565b8015158114610e1757600080fd5b60008060408385031215613aa657600080fd5b8235613ab1816138f4565b915060208301356139d581613a85565b634e487b7160e01b600052604160045260246000fd5b60008060008060808587031215613aed57600080fd5b8435613af8816138f4565b93506020850135613b08816138f4565b925060408501359150606085013567ffffffffffffffff80821115613b2c57600080fd5b818701915087601f830112613b4057600080fd5b813581811115613b5257613b52613ac1565b604051601f8201601f19908116603f01168101908382118183101715613b7a57613b7a613ac1565b816040528281528a6020848701011115613b9357600080fd5b82602086016020830137600060208483010152809550505050505092959194509250565b60008060208385031215613bca57600080fd5b823567ffffffffffffffff80821115613be257600080fd5b818501915085601f830112613bf657600080fd5b813581811115613c0557600080fd5b8660208260051b850101111561399557600080fd5b600080600060608486031215613c2f57600080fd5b833567ffffffffffffffff811115613c4657600080fd5b84016102008187031215613c5957600080fd5b92506020840135613c69816138f4565b91506040840135613c79816138f4565b809150509250925092565b600080600060608486031215613c9957600080fd5b8335613c59816138f4565b600181811c90821680613cb857607f821691505b602082108103613cd857634e487b7160e01b600052602260045260246000fd5b50919050565b6001600160a01b0385811682528416602082015260606040820181905281018290526000828460808401376000608084840101526080601f19601f850116830101905095945050505050565b634e487b7160e01b600052603260045260246000fd5b6020808252602d908201527f4552433732313a2063616c6c6572206973206e6f7420746f6b656e206f776e6560408201526c1c881bdc88185c1c1c9bdd9959609a1b606082015260800190565b634e487b7160e01b600052601160045260246000fd5b8082018082111561082057610820613d8d565b600060208284031215613dc857600080fd5b8151610e9f81613a85565b600060208284031215613de557600080fd5b5051919050565b600081518084526020808501945080840160005b83811015613e1c57815187529582019590820190600101613e00565b509495945050505050565b604080825283519082018190526000906020906060840190828701845b82811015613e695781516001600160a01b031684529284019290840190600101613e44565b50505083810382850152613e7d8186613dec565b9695505050505050565b600060018201613e9957613e99613d8d565b5060010190565b6040808252810183905260008460608301825b86811015613ee3578235613ec6816138f4565b6001600160a01b0316825260209283019290910190600101613eb3565b508381036020850152613ef68186613dec565b979650505050505050565b60008351613f13818460208801613878565b835190830190613f27818360208801613878565b01949350505050565b6000808335601e19843603018112613f4757600080fd5b83018035915067ffffffffffffffff821115613f6257600080fd5b602001915036819003821315613f7757600080fd5b9250929050565b601f8211156109f457600081815260208120601f850160051c81016020861015613fa55750805b601f850160051c820191505b81811015613fc457828155600101613fb1565b505050505050565b67ffffffffffffffff831115613fe457613fe4613ac1565b613ff883613ff28354613ca4565b83613f7e565b6000601f84116001811461402c57600085156140145750838201355b600019600387901b1c1916600186901b178355610b76565b600083815260209020601f19861690835b8281101561405d578685013582556020948501946001909201910161403d565b508682101561407a5760001960f88860031b161c19848701351681555b505060018560011b0183555050505050565b60006020828403121561409e57600080fd5b8151610e9f816138f4565b6000602082840312156140bb57600080fd5b8135610e9f81613a85565b6000816140d5576140d5613d8d565b506000190190565b600087516140ef818460208c01613878565b808301905060ff60f81b8860f81b1681526bffffffffffffffffffffffff198760601b1660018201528560158201528460358201528351614137816055840160208801613878565b0160550198975050505050505050565b60808152600061415a608083018761389c565b63ffffffff861660208401528460408401528281036060840152613ef6818561389c565b60208082526025908201527f4552433732313a207472616e736665722066726f6d20696e636f72726563742060408201526437bbb732b960d91b606082015260800190565b60208082526032908201527f4552433732313a207472616e7366657220746f206e6f6e20455243373231526560408201527131b2b4bb32b91034b6b83632b6b2b73a32b960711b606082015260800190565b6020808252602b908201527f496e697469616c697a61626c653a20636f6e7472616374206973206e6f74206960408201526a6e697469616c697a696e6760a81b606082015260800190565b6001600160a01b0385811682528416602082015260408101839052608060608201819052600090613e7d9083018461389c565b6000602082840312156142a557600080fd5b8151610e9f81613845565b815167ffffffffffffffff8111156142ca576142ca613ac1565b6142de816142d88454613ca4565b84613f7e565b602080601f83116001811461431357600084156142fb5750858301515b600019600386901b1c1916600185901b178555613fc4565b600085815260208120601f198616915b8281101561434257888601518255948401946001909101908401614323565b50858210156143605787850151600019600388901b60f8161c191681555b5050505050600190811b0190555056fe7b2270726f706f73616c54797065223a20224d494e545f41444d494e484154222c20227469746c65223a202252697465206f66204d6f6c6f63682028524f4d293a204d696e742041646d696e20486174222c20226465736372697074696f6e223a20224d696e7420524f4d2d41646d696e2068617420746f20454f41227d7b2270726f706f73616c54797065223a20224144445f5348414d414e222c20227469746c65223a202252697465206f66204d6f6c6f63682028524f4d293a205368616d616e2050726f706f73616c222c20226465736372697074696f6e223a202241737369676e20524f4d2061732061204d616e616765722d5368616d616e20746f206d696e74206d696e696d756d2044414f20736861726573227d7b2270726f706f73616c54797065223a2022554e444546494e4544222c20227469746c65223a202252697465206f66204d6f6c6f63682028524f4d293a20756e646566696e6564222c20226465736372697074696f6e223a2022556e646566696e6564227d7b2270726f706f73616c54797065223a20225452414e534645525f41444d494e484154222c20227469746c65223a202252697465206f66204d6f6c6f63682028524f4d293a205472616e736665722041646d696e20486174222c20226465736372697074696f6e223a20225472616e7366657220524f4d2d41646d696e2068617420746f20454f41227ddf8b4c520ffe197c5343c6f5aec59570151ef9a492f2c624fd45ddde6135ec427b2270726f706f73616c54797065223a2022424f52524f575f544f50484154222c20227469746c65223a202252697465206f66204d6f6c6f63682028524f4d293a20486174732050726f706f73616c222c20226465736372697074696f6e223a202243726561746520616e64206d696e7420524f4d2d41646d696e20686174732066726f6d2044414f20546f70486174227da2646970667358221220266ac99210f515928df9fadb9e2d8dbc8fc0a75cf963542c3f60ec27ceceb01764736f6c63430008110033",
    "linkReferences": {}
  },
  "methodIdentifiers": {
    "ADMIN()": "2a0acc6a",
    "DEFAULT_ADMIN_ROLE()": "a217fddf",
    "HATS()": "7150ef88",
    "admin1()": "115976c4",
    "admin2()": "06a8f8a2",
    "adminHat()": "232b0432",
    "approve(address,uint256)": "095ea7b3",
    "baal()": "e5a2a2a5",
    "balanceOf(address)": "70a08231",
    "batchMintBaalShares(address[])": "c81f83a2",
    "changeHatsContract(address)": "b8c45361",
    "changeJoinSizeLimit(uint256)": "b8ebdcd9",
    "changeJoinTimeDuration(uint256)": "4558e83d",
    "changeRoleHat(bytes32,uint256)": "b5436cec",
    "checkStake(address)": "90d96d76",
    "claimStake()": "eb321173",
    "cohortCounter()": "aee4c96f",
    "cohortName()": "73f78fd0",
    "cohortSeason()": "f68659bd",
    "cohortSize()": "c6db8129",
    "cryForHelp(string)": "0c538f2f",
    "deadlines(address)": "e5d05722",
    "extendJoinTimeLimit(uint256)": "2a4a1342",
    "getApproved(uint256)": "081812fc",
    "getDeadline(address)": "a2213262",
    "getRoleAdmin(bytes32)": "248a9ca3",
    "grantRole(bytes32,uint256)": "1b6ea9f9",
    "hasRole(bytes32,address)": "91d14854",
    "hatsContract()": "97e39fef",
    "initialize((address,address,address,address,address,uint256,uint256,uint256,uint256,uint256,uint256,string,string,string,string,bool),address,address)": "cfdb44d6",
    "initializeHatTree(address,address,address)": "f3450f00",
    "isApprovedForAll(address,address)": "e985e9c5",
    "isMember(address)": "a230c524",
    "joinDuration()": "172bf854",
    "joinEndTime()": "35439bb3",
    "joinInitiation(address)": "c733d5e9",
    "maximumTime()": "f9bb68fc",
    "minimumShare()": "2e152618",
    "minimumStake()": "ec5ffac2",
    "mintAdminHatProposal(address)": "a3beab6a",
    "name()": "06fdde03",
    "ownerOf(uint256)": "6352211e",
    "revokeRole(bytes32,uint256)": "19d61ad9",
    "sacrifice()": "8a040df4",
    "safeTransferFrom(address,address,uint256)": "42842e0e",
    "safeTransferFrom(address,address,uint256,bytes)": "b88d4fde",
    "setApprovalForAll(address,bool)": "a22cb465",
    "setMaxDuration(uint256)": "cf0f34c4",
    "setMinimumStake(uint256)": "233e9903",
    "setShareThreshold(uint256)": "bc5fa8df",
    "singleMintBaalShares(address)": "a3919d1f",
    "slaughter(address)": "fc4c0958",
    "supportsInterface(bytes4)": "01ffc9a7",
    "symbol()": "95d89b41",
    "tokenURI(uint256)": "c87b56dd",
    "topHat()": "c2d14f02",
    "transferAdminHatProposal(address,address)": "1719f9a3",
    "transferFrom(address,address,uint256)": "23b872dd",
    "treasury()": "61d027b3"
  },
  "id": 64
}