{
  "abi": [
    {
      "inputs": [],
      "stateMutability": "nonpayable",
      "type": "constructor"
    },
    {
      "inputs": [
        {
          "internalType": "bytes32",
          "name": "role",
          "type": "bytes32"
        },
        {
          "internalType": "uint256",
          "name": "hat",
          "type": "uint256"
        },
        {
          "internalType": "address",
          "name": "account",
          "type": "address"
        }
      ],
      "name": "NotWearingRoleHat",
      "type": "error"
    },
    {
      "inputs": [
        {
          "internalType": "bytes32",
          "name": "role",
          "type": "bytes32"
        },
        {
          "internalType": "uint256",
          "name": "roleHat",
          "type": "uint256"
        }
      ],
      "name": "RoleAlreadyAssigned",
      "type": "error"
    },
    {
      "anonymous": false,
      "inputs": [
        {
          "indexed": true,
          "internalType": "address",
          "name": "owner",
          "type": "address"
        },
        {
          "indexed": true,
          "internalType": "address",
          "name": "approved",
          "type": "address"
        },
        {
          "indexed": true,
          "internalType": "uint256",
          "name": "tokenId",
          "type": "uint256"
        }
      ],
      "name": "Approval",
      "type": "event"
    },
    {
      "anonymous": false,
      "inputs": [
        {
          "indexed": true,
          "internalType": "address",
          "name": "owner",
          "type": "address"
        },
        {
          "indexed": true,
          "internalType": "address",
          "name": "operator",
          "type": "address"
        },
        {
          "indexed": false,
          "internalType": "bool",
          "name": "approved",
          "type": "bool"
        }
      ],
      "name": "ApprovalForAll",
      "type": "event"
    },
    {
      "anonymous": false,
      "inputs": [
        {
          "indexed": false,
          "internalType": "uint256",
          "name": "newShare",
          "type": "uint256"
        }
      ],
      "name": "ChangedShares",
      "type": "event"
    },
    {
      "anonymous": false,
      "inputs": [
        {
          "indexed": false,
          "internalType": "uint256",
          "name": "newStake",
          "type": "uint256"
        }
      ],
      "name": "ChangedStake",
      "type": "event"
    },
    {
      "anonymous": false,
      "inputs": [
        {
          "indexed": false,
          "internalType": "uint256",
          "name": "newTime",
          "type": "uint256"
        }
      ],
      "name": "ChangedTime",
      "type": "event"
    },
    {
      "anonymous": false,
      "inputs": [
        {
          "indexed": false,
          "internalType": "address",
          "name": "newMember",
          "type": "address"
        },
        {
          "indexed": false,
          "internalType": "uint256",
          "name": "claimAmount",
          "type": "uint256"
        }
      ],
      "name": "Claim",
      "type": "event"
    },
    {
      "anonymous": false,
      "inputs": [
        {
          "indexed": false,
          "internalType": "address",
          "name": "user",
          "type": "address"
        },
        {
          "indexed": false,
          "internalType": "address",
          "name": "treasury",
          "type": "address"
        },
        {
          "indexed": false,
          "internalType": "string",
          "name": "feedback",
          "type": "string"
        }
      ],
      "name": "Feedback",
      "type": "event"
    },
    {
      "anonymous": false,
      "inputs": [
        {
          "indexed": true,
          "internalType": "address",
          "name": "previousHatsContract",
          "type": "address"
        },
        {
          "indexed": true,
          "internalType": "address",
          "name": "newHatsContract",
          "type": "address"
        }
      ],
      "name": "HatsContractChanged",
      "type": "event"
    },
    {
      "anonymous": false,
      "inputs": [
        {
          "indexed": false,
          "internalType": "uint8",
          "name": "version",
          "type": "uint8"
        }
      ],
      "name": "Initialized",
      "type": "event"
    },
    {
      "anonymous": false,
      "inputs": [
        {
          "indexed": false,
          "internalType": "address",
          "name": "newInitiate",
          "type": "address"
        },
        {
          "indexed": false,
          "internalType": "address",
          "name": "benefactor",
          "type": "address"
        },
        {
          "indexed": false,
          "internalType": "uint256",
          "name": "tokenId",
          "type": "uint256"
        },
        {
          "indexed": false,
          "internalType": "uint256",
          "name": "stake",
          "type": "uint256"
        },
        {
          "indexed": false,
          "internalType": "uint256",
          "name": "deadline",
          "type": "uint256"
        }
      ],
      "name": "Initiation",
      "type": "event"
    },
    {
      "anonymous": false,
      "inputs": [
        {
          "indexed": true,
          "internalType": "bytes32",
          "name": "role",
          "type": "bytes32"
        },
        {
          "indexed": true,
          "internalType": "bytes32",
          "name": "previousAdminRole",
          "type": "bytes32"
        },
        {
          "indexed": true,
          "internalType": "bytes32",
          "name": "newAdminRole",
          "type": "bytes32"
        }
      ],
      "name": "RoleAdminChanged",
      "type": "event"
    },
    {
      "anonymous": false,
      "inputs": [
        {
          "indexed": true,
          "internalType": "bytes32",
          "name": "role",
          "type": "bytes32"
        },
        {
          "indexed": true,
          "internalType": "uint256",
          "name": "hat",
          "type": "uint256"
        },
        {
          "indexed": true,
          "internalType": "address",
          "name": "sender",
          "type": "address"
        }
      ],
      "name": "RoleGranted",
      "type": "event"
    },
    {
      "anonymous": false,
      "inputs": [
        {
          "indexed": true,
          "internalType": "bytes32",
          "name": "role",
          "type": "bytes32"
        },
        {
          "indexed": true,
          "internalType": "uint256",
          "name": "previousRoleHat",
          "type": "uint256"
        },
        {
          "indexed": true,
          "internalType": "uint256",
          "name": "newRoleHat",
          "type": "uint256"
        }
      ],
      "name": "RoleHatChanged",
      "type": "event"
    },
    {
      "anonymous": false,
      "inputs": [
        {
          "indexed": true,
          "internalType": "bytes32",
          "name": "role",
          "type": "bytes32"
        },
        {
          "indexed": true,
          "internalType": "uint256",
          "name": "hat",
          "type": "uint256"
        },
        {
          "indexed": true,
          "internalType": "address",
          "name": "sender",
          "type": "address"
        }
      ],
      "name": "RoleRevoked",
      "type": "event"
    },
    {
      "anonymous": false,
      "inputs": [
        {
          "indexed": false,
          "internalType": "address",
          "name": "sacrifice",
          "type": "address"
        },
        {
          "indexed": false,
          "internalType": "uint256",
          "name": "slashedAmount",
          "type": "uint256"
        },
        {
          "indexed": false,
          "internalType": "address",
          "name": "slasher",
          "type": "address"
        }
      ],
      "name": "Sacrifice",
      "type": "event"
    },
    {
      "anonymous": false,
      "inputs": [
        {
          "indexed": true,
          "internalType": "address",
          "name": "from",
          "type": "address"
        },
        {
          "indexed": true,
          "internalType": "address",
          "name": "to",
          "type": "address"
        },
        {
          "indexed": true,
          "internalType": "uint256",
          "name": "tokenId",
          "type": "uint256"
        }
      ],
      "name": "Transfer",
      "type": "event"
    },
    {
      "inputs": [],
      "name": "ADMIN",
      "outputs": [
        {
          "internalType": "bytes32",
          "name": "",
          "type": "bytes32"
        }
      ],
      "stateMutability": "view",
      "type": "function"
    },
    {
      "inputs": [],
      "name": "DEFAULT_ADMIN_ROLE",
      "outputs": [
        {
          "internalType": "bytes32",
          "name": "",
          "type": "bytes32"
        }
      ],
      "stateMutability": "view",
      "type": "function"
    },
    {
      "inputs": [],
      "name": "HATS",
      "outputs": [
        {
          "internalType": "contract IHats",
          "name": "",
          "type": "address"
        }
      ],
      "stateMutability": "view",
      "type": "function"
    },
    {
      "inputs": [],
      "name": "adminHat",
      "outputs": [
        {
          "internalType": "uint256",
          "name": "",
          "type": "uint256"
        }
      ],
      "stateMutability": "view",
      "type": "function"
    },
    {
      "inputs": [
        {
          "internalType": "address",
          "name": "to",
          "type": "address"
        },
        {
          "internalType": "uint256",
          "name": "tokenId",
          "type": "uint256"
        }
      ],
      "name": "approve",
      "outputs": [],
      "stateMutability": "nonpayable",
      "type": "function"
    },
    {
      "inputs": [],
      "name": "baal",
      "outputs": [
        {
          "internalType": "contract IBaal",
          "name": "",
          "type": "address"
        }
      ],
      "stateMutability": "view",
      "type": "function"
    },
    {
      "inputs": [
        {
          "internalType": "address",
          "name": "owner",
          "type": "address"
        }
      ],
      "name": "balanceOf",
      "outputs": [
        {
          "internalType": "uint256",
          "name": "",
          "type": "uint256"
        }
      ],
      "stateMutability": "view",
      "type": "function"
    },
    {
      "inputs": [
        {
          "internalType": "address[]",
          "name": "to",
          "type": "address[]"
        }
      ],
      "name": "batchMintBaalShares",
      "outputs": [],
      "stateMutability": "nonpayable",
      "type": "function"
    },
    {
      "inputs": [
        {
          "internalType": "address",
          "name": "newHatsContract",
          "type": "address"
        }
      ],
      "name": "changeHatsContract",
      "outputs": [],
      "stateMutability": "nonpayable",
      "type": "function"
    },
    {
      "inputs": [
        {
          "internalType": "uint256",
          "name": "_cohortSize",
          "type": "uint256"
        }
      ],
      "name": "changeJoinSizeLimit",
      "outputs": [],
      "stateMutability": "nonpayable",
      "type": "function"
    },
    {
      "inputs": [
        {
          "internalType": "uint256",
          "name": "_joinDuration",
          "type": "uint256"
        }
      ],
      "name": "changeJoinTimeDuration",
      "outputs": [],
      "stateMutability": "nonpayable",
      "type": "function"
    },
    {
      "inputs": [
        {
          "internalType": "bytes32",
          "name": "role",
          "type": "bytes32"
        },
        {
          "internalType": "uint256",
          "name": "newRoleHat",
          "type": "uint256"
        }
      ],
      "name": "changeRoleHat",
      "outputs": [],
      "stateMutability": "nonpayable",
      "type": "function"
    },
    {
      "inputs": [
        {
          "internalType": "address",
          "name": "user",
          "type": "address"
        }
      ],
      "name": "checkStake",
      "outputs": [
        {
          "internalType": "uint256",
          "name": "",
          "type": "uint256"
        }
      ],
      "stateMutability": "view",
      "type": "function"
    },
    {
      "inputs": [],
      "name": "claimStake",
      "outputs": [],
      "stateMutability": "nonpayable",
      "type": "function"
    },
    {
      "inputs": [],
      "name": "cohortCounter",
      "outputs": [
        {
          "internalType": "uint256",
          "name": "",
          "type": "uint256"
        }
      ],
      "stateMutability": "view",
      "type": "function"
    },
    {
      "inputs": [],
      "name": "cohortName",
      "outputs": [
        {
          "internalType": "string",
          "name": "",
          "type": "string"
        }
      ],
      "stateMutability": "view",
      "type": "function"
    },
    {
      "inputs": [],
      "name": "cohortSeason",
      "outputs": [
        {
          "internalType": "uint256",
          "name": "",
          "type": "uint256"
        }
      ],
      "stateMutability": "view",
      "type": "function"
    },
    {
      "inputs": [],
      "name": "cohortSize",
      "outputs": [
        {
          "internalType": "uint256",
          "name": "",
          "type": "uint256"
        }
      ],
      "stateMutability": "view",
      "type": "function"
    },
    {
      "inputs": [
        {
          "internalType": "string",
          "name": "feedback",
          "type": "string"
        }
      ],
      "name": "cryForHelp",
      "outputs": [],
      "stateMutability": "nonpayable",
      "type": "function"
    },
    {
      "inputs": [
        {
          "internalType": "address",
          "name": "",
          "type": "address"
        }
      ],
      "name": "deadlines",
      "outputs": [
        {
          "internalType": "uint256",
          "name": "",
          "type": "uint256"
        }
      ],
      "stateMutability": "view",
      "type": "function"
    },
    {
      "inputs": [
        {
          "internalType": "uint256",
          "name": "_extension",
          "type": "uint256"
        }
      ],
      "name": "extendJoinTimeLimit",
      "outputs": [],
      "stateMutability": "nonpayable",
      "type": "function"
    },
    {
      "inputs": [
        {
          "internalType": "uint256",
          "name": "tokenId",
          "type": "uint256"
        }
      ],
      "name": "getApproved",
      "outputs": [
        {
          "internalType": "address",
          "name": "",
          "type": "address"
        }
      ],
      "stateMutability": "view",
      "type": "function"
    },
    {
      "inputs": [
        {
          "internalType": "address",
          "name": "user",
          "type": "address"
        }
      ],
      "name": "getDeadline",
      "outputs": [
        {
          "internalType": "uint256",
          "name": "",
          "type": "uint256"
        }
      ],
      "stateMutability": "view",
      "type": "function"
    },
    {
      "inputs": [
        {
          "internalType": "bytes32",
          "name": "role",
          "type": "bytes32"
        }
      ],
      "name": "getRoleAdmin",
      "outputs": [
        {
          "internalType": "bytes32",
          "name": "",
          "type": "bytes32"
        }
      ],
      "stateMutability": "view",
      "type": "function"
    },
    {
      "inputs": [
        {
          "internalType": "bytes32",
          "name": "role",
          "type": "bytes32"
        },
        {
          "internalType": "uint256",
          "name": "hat",
          "type": "uint256"
        }
      ],
      "name": "grantRole",
      "outputs": [],
      "stateMutability": "nonpayable",
      "type": "function"
    },
    {
      "inputs": [
        {
          "internalType": "bytes32",
          "name": "role",
          "type": "bytes32"
        },
        {
          "internalType": "address",
          "name": "account",
          "type": "address"
        }
      ],
      "name": "hasRole",
      "outputs": [
        {
          "internalType": "bool",
          "name": "",
          "type": "bool"
        }
      ],
      "stateMutability": "view",
      "type": "function"
    },
    {
      "inputs": [],
      "name": "hatsContract",
      "outputs": [
        {
          "internalType": "address",
          "name": "",
          "type": "address"
        }
      ],
      "stateMutability": "view",
      "type": "function"
    },
    {
      "inputs": [
        {
          "components": [
            {
              "internalType": "address",
              "name": "membershipCriteria",
              "type": "address"
            },
            {
              "internalType": "address",
              "name": "stakingAsset",
              "type": "address"
            },
            {
              "internalType": "address",
              "name": "treasury",
              "type": "address"
            },
            {
              "internalType": "address",
              "name": "admin1",
              "type": "address"
            },
            {
              "internalType": "address",
              "name": "admin2",
              "type": "address"
            },
            {
              "internalType": "uint256",
              "name": "cohortSize",
              "type": "uint256"
            },
            {
              "internalType": "uint256",
              "name": "joinDuration",
              "type": "uint256"
            },
            {
              "internalType": "uint256",
              "name": "threshold",
              "type": "uint256"
            },
            {
              "internalType": "uint256",
              "name": "assetAmount",
              "type": "uint256"
            },
            {
              "internalType": "uint256",
              "name": "stakeDuration",
              "type": "uint256"
            },
            {
              "internalType": "uint256",
              "name": "topHatId",
              "type": "uint256"
            },
            {
              "internalType": "string",
              "name": "cohortName",
              "type": "string"
            },
            {
              "internalType": "string",
              "name": "sbtName",
              "type": "string"
            },
            {
              "internalType": "string",
              "name": "sbtSymbol",
              "type": "string"
            },
            {
              "internalType": "string",
              "name": "baseUri",
              "type": "string"
            },
            {
              "internalType": "bool",
              "name": "shamanOn",
              "type": "bool"
            }
          ],
          "internalType": "struct IInitData.InitData",
          "name": "initData",
          "type": "tuple"
        },
        {
          "internalType": "address",
          "name": "hatsProtocol",
          "type": "address"
        },
        {
          "internalType": "address",
          "name": "caller_",
          "type": "address"
        }
      ],
      "name": "initialize",
      "outputs": [],
      "stateMutability": "nonpayable",
      "type": "function"
    },
    {
      "inputs": [
        {
          "internalType": "address",
          "name": "_deployer",
          "type": "address"
        },
        {
          "internalType": "address",
          "name": "_admin1",
          "type": "address"
        },
        {
          "internalType": "address",
          "name": "_admin2",
          "type": "address"
        }
      ],
      "name": "initializeHatTree",
      "outputs": [],
      "stateMutability": "nonpayable",
      "type": "function"
    },
    {
      "inputs": [
        {
          "internalType": "address",
          "name": "owner",
          "type": "address"
        },
        {
          "internalType": "address",
          "name": "operator",
          "type": "address"
        }
      ],
      "name": "isApprovedForAll",
      "outputs": [
        {
          "internalType": "bool",
          "name": "",
          "type": "bool"
        }
      ],
      "stateMutability": "view",
      "type": "function"
    },
    {
      "inputs": [
        {
          "internalType": "address",
          "name": "user",
          "type": "address"
        }
      ],
      "name": "isMember",
      "outputs": [
        {
          "internalType": "bool",
          "name": "",
          "type": "bool"
        }
      ],
      "stateMutability": "view",
      "type": "function"
    },
    {
      "inputs": [],
      "name": "joinDuration",
      "outputs": [
        {
          "internalType": "uint256",
          "name": "",
          "type": "uint256"
        }
      ],
      "stateMutability": "view",
      "type": "function"
    },
    {
      "inputs": [],
      "name": "joinEndTime",
      "outputs": [
        {
          "internalType": "uint256",
          "name": "",
          "type": "uint256"
        }
      ],
      "stateMutability": "view",
      "type": "function"
    },
    {
      "inputs": [
        {
          "internalType": "address",
          "name": "user",
          "type": "address"
        }
      ],
      "name": "joinInitiation",
      "outputs": [],
      "stateMutability": "nonpayable",
      "type": "function"
    },
    {
      "inputs": [],
      "name": "maximumTime",
      "outputs": [
        {
          "internalType": "uint256",
          "name": "",
          "type": "uint256"
        }
      ],
      "stateMutability": "view",
      "type": "function"
    },
    {
      "inputs": [],
      "name": "minimumShare",
      "outputs": [
        {
          "internalType": "uint256",
          "name": "",
          "type": "uint256"
        }
      ],
      "stateMutability": "view",
      "type": "function"
    },
    {
      "inputs": [],
      "name": "minimumStake",
      "outputs": [
        {
          "internalType": "uint256",
          "name": "",
          "type": "uint256"
        }
      ],
      "stateMutability": "view",
      "type": "function"
    },
    {
      "inputs": [
        {
          "internalType": "address",
          "name": "_to",
          "type": "address"
        }
      ],
      "name": "mintAdminHatProposal",
      "outputs": [],
      "stateMutability": "nonpayable",
      "type": "function"
    },
    {
      "inputs": [],
      "name": "name",
      "outputs": [
        {
          "internalType": "string",
          "name": "",
          "type": "string"
        }
      ],
      "stateMutability": "view",
      "type": "function"
    },
    {
      "inputs": [
        {
          "internalType": "uint256",
          "name": "tokenId",
          "type": "uint256"
        }
      ],
      "name": "ownerOf",
      "outputs": [
        {
          "internalType": "address",
          "name": "",
          "type": "address"
        }
      ],
      "stateMutability": "view",
      "type": "function"
    },
    {
      "inputs": [
        {
          "internalType": "bytes32",
          "name": "role",
          "type": "bytes32"
        },
        {
          "internalType": "uint256",
          "name": "hat",
          "type": "uint256"
        }
      ],
      "name": "revokeRole",
      "outputs": [],
      "stateMutability": "nonpayable",
      "type": "function"
    },
    {
      "inputs": [],
      "name": "sacrifice",
      "outputs": [],
      "stateMutability": "nonpayable",
      "type": "function"
    },
    {
      "inputs": [
        {
          "internalType": "address",
          "name": "from",
          "type": "address"
        },
        {
          "internalType": "address",
          "name": "to",
          "type": "address"
        },
        {
          "internalType": "uint256",
          "name": "tokenId",
          "type": "uint256"
        }
      ],
      "name": "safeTransferFrom",
      "outputs": [],
      "stateMutability": "nonpayable",
      "type": "function"
    },
    {
      "inputs": [
        {
          "internalType": "address",
          "name": "from",
          "type": "address"
        },
        {
          "internalType": "address",
          "name": "to",
          "type": "address"
        },
        {
          "internalType": "uint256",
          "name": "tokenId",
          "type": "uint256"
        },
        {
          "internalType": "bytes",
          "name": "data",
          "type": "bytes"
        }
      ],
      "name": "safeTransferFrom",
      "outputs": [],
      "stateMutability": "nonpayable",
      "type": "function"
    },
    {
      "inputs": [
        {
          "internalType": "address",
          "name": "operator",
          "type": "address"
        },
        {
          "internalType": "bool",
          "name": "approved",
          "type": "bool"
        }
      ],
      "name": "setApprovalForAll",
      "outputs": [],
      "stateMutability": "nonpayable",
      "type": "function"
    },
    {
      "inputs": [
        {
          "internalType": "uint256",
          "name": "newMaxTime",
          "type": "uint256"
        }
      ],
      "name": "setMaxDuration",
      "outputs": [],
      "stateMutability": "nonpayable",
      "type": "function"
    },
    {
      "inputs": [
        {
          "internalType": "uint256",
          "name": "newMinimumStake",
          "type": "uint256"
        }
      ],
      "name": "setMinimumStake",
      "outputs": [],
      "stateMutability": "nonpayable",
      "type": "function"
    },
    {
      "inputs": [
        {
          "internalType": "uint256",
          "name": "newShareThreshold",
          "type": "uint256"
        }
      ],
      "name": "setShareThreshold",
      "outputs": [],
      "stateMutability": "nonpayable",
      "type": "function"
    },
    {
      "inputs": [
        {
          "internalType": "address",
          "name": "_to",
          "type": "address"
        }
      ],
      "name": "singleMintBaalShares",
      "outputs": [],
      "stateMutability": "nonpayable",
      "type": "function"
    },
    {
      "inputs": [
        {
          "internalType": "address",
          "name": "_sacrificialLamb",
          "type": "address"
        }
      ],
      "name": "slaughter",
      "outputs": [],
      "stateMutability": "nonpayable",
      "type": "function"
    },
    {
      "inputs": [
        {
          "internalType": "bytes4",
          "name": "interfaceId",
          "type": "bytes4"
        }
      ],
      "name": "supportsInterface",
      "outputs": [
        {
          "internalType": "bool",
          "name": "",
          "type": "bool"
        }
      ],
      "stateMutability": "view",
      "type": "function"
    },
    {
      "inputs": [],
      "name": "symbol",
      "outputs": [
        {
          "internalType": "string",
          "name": "",
          "type": "string"
        }
      ],
      "stateMutability": "view",
      "type": "function"
    },
    {
      "inputs": [
        {
          "internalType": "uint256",
          "name": "tokenId",
          "type": "uint256"
        }
      ],
      "name": "tokenURI",
      "outputs": [
        {
          "internalType": "string",
          "name": "",
          "type": "string"
        }
      ],
      "stateMutability": "view",
      "type": "function"
    },
    {
      "inputs": [],
      "name": "topHat",
      "outputs": [
        {
          "internalType": "uint256",
          "name": "",
          "type": "uint256"
        }
      ],
      "stateMutability": "view",
      "type": "function"
    },
    {
      "inputs": [
        {
          "internalType": "address",
          "name": "_from",
          "type": "address"
        },
        {
          "internalType": "address",
          "name": "_to",
          "type": "address"
        }
      ],
      "name": "transferAdminHatProposal",
      "outputs": [],
      "stateMutability": "nonpayable",
      "type": "function"
    },
    {
      "inputs": [
        {
          "internalType": "address",
          "name": "from",
          "type": "address"
        },
        {
          "internalType": "address",
          "name": "to",
          "type": "address"
        },
        {
          "internalType": "uint256",
          "name": "tokenId",
          "type": "uint256"
        }
      ],
      "name": "transferFrom",
      "outputs": [],
      "stateMutability": "nonpayable",
      "type": "function"
    },
    {
      "inputs": [],
      "name": "treasury",
      "outputs": [
        {
          "internalType": "address",
          "name": "",
          "type": "address"
        }
      ],
      "stateMutability": "view",
      "type": "function"
    }
  ],
  "bytecode": {
    "object": "0x60806040523480156200001157600080fd5b506200001c62000022565b620000e3565b600054610100900460ff16156200008f5760405162461bcd60e51b815260206004820152602760248201527f496e697469616c697a61626c653a20636f6e747261637420697320696e697469604482015266616c697a696e6760c81b606482015260840160405180910390fd5b60005460ff90811614620000e1576000805460ff191660ff9081179091556040519081527f7f26b83ff96e1f2b6a682f133852f6798a09c465da95921460cefb38474024989060200160405180910390a15b565b61455e80620000f36000396000f3fe608060405234801561001057600080fd5b50600436106103835760003560e01c806397e39fef116101de578063c6db81291161010f578063e5d05722116100ad578063f3450f001161007c578063f3450f00146107a1578063f68659bd146107b4578063f9bb68fc146107bd578063fc4c0958146107c657600080fd5b8063e5d0572214610734578063e985e9c514610754578063eb32117314610790578063ec5ffac21461079857600080fd5b8063c87b56dd116100e9578063c87b56dd146106e8578063cf0f34c4146106fb578063cfdb44d61461070e578063e5a2a2a51461072157600080fd5b8063c6db8129146106b9578063c733d5e9146106c2578063c81f83a2146106d557600080fd5b8063aee4c96f1161017c578063b8c4536111610156578063b8c4536114610677578063b8ebdcd91461068a578063bc5fa8df1461069d578063c2d14f02146106b057600080fd5b8063aee4c96f14610648578063b5436cec14610651578063b88d4fde1461066457600080fd5b8063a22cb465116101b8578063a22cb465146105fc578063a230c5241461060f578063a3919d1f14610622578063a3beab6a1461063557600080fd5b806397e39fef146105ba578063a217fddf146105cb578063a2213262146105d357600080fd5b80632a4a1342116102b857806370a08231116102565780638a040df4116102305780638a040df41461056e57806390d96d761461057657806391d148541461059f57806395d89b41146105b257600080fd5b806370a08231146105405780637150ef881461055357806373f78fd01461056657600080fd5b806342842e0e1161029257806342842e0e146104f45780634558e83d1461050757806361d027b31461051a5780636352211e1461052d57600080fd5b80632a4a1342146104cf5780632e152618146104e257806335439bb3146104eb57600080fd5b806319d61ad911610325578063233e9903116102ff578063233e99031461047157806323b872dd14610484578063248a9ca3146104975780632a0acc6a146104ba57600080fd5b806319d61ad9146104425780631b6ea9f914610455578063232b04321461046857600080fd5b8063095ea7b311610361578063095ea7b3146103f05780630c538f2f146104055780631719f9a314610418578063172bf8541461042b57600080fd5b806301ffc9a71461038857806306fdde03146103b0578063081812fc146103c5575b600080fd5b61039b610396366004613758565b6107d9565b60405190151581526020015b60405180910390f35b6103b86107ea565b6040516103a791906137c5565b6103d86103d33660046137d8565b61087c565b6040516001600160a01b0390911681526020016103a7565b6104036103fe366004613806565b6108a3565b005b610403610413366004613832565b6109bd565b6104036104263660046138a4565b610a62565b61043460a55481565b6040519081526020016103a7565b6104036104503660046138dd565b610b41565b6104036104633660046138dd565b610b66565b61043460ad5481565b61040361047f3660046137d8565b610b8b565b6104036104923660046138ff565b610bb0565b6104346104a53660046137d8565b60009081526098602052604090206001015490565b61043460008051602061447783398151915281565b6104036104dd3660046137d8565b610be1565b61043460a75481565b61043460a65481565b6104036105023660046138ff565b610c0e565b6104036105153660046137d8565b610c29565b60aa546103d8906001600160a01b031681565b6103d861053b3660046137d8565b610c47565b61043461054e366004613940565b610ca7565b60ab546103d8906001600160a01b031681565b6103b8610d2d565b610403610dbb565b610434610584366004613940565b6001600160a01b031660009081526099602052604090205490565b61039b6105ad36600461395d565b610dde565b6103b8610e6a565b6097546001600160a01b03166103d8565b610434600081565b6104346105e1366004613940565b6001600160a01b03166000908152609a602052604090205490565b61040361060a366004613990565b610e79565b61039b61061d366004613940565b610e84565b610403610630366004613940565b610f02565b610403610643366004613940565b61100c565b61043460a45481565b61040361065f3660046138dd565b611135565b6104036106723660046139d4565b61115a565b610403610685366004613940565b61118c565b6104036106983660046137d8565b6111a0565b6104036106ab3660046137d8565b6111be565b61043460ac5481565b61043460a35481565b6104036106d0366004613940565b6111df565b6104036106e3366004613ab4565b611367565b6103b86106f63660046137d8565b611472565b6104036107093660046137d8565b6114d8565b61040361071c366004613b17565b6114f9565b609d546103d8906001600160a01b031681565b610434610742366004613940565b609a6020526000908152604090205481565b61039b6107623660046138a4565b6001600160a01b039182166000908152606a6020908152604080832093909416825291909152205460ff1690565b610403611c54565b61043460a85481565b6104036107af366004613b81565b611ca2565b61043460a25481565b61043460a95481565b6104036107d4366004613940565b611ff4565b60006107e48261202f565b92915050565b6060606580546107f990613ba1565b80601f016020809104026020016040519081016040528092919081815260200182805461082590613ba1565b80156108725780601f1061084757610100808354040283529160200191610872565b820191906000526020600020905b81548152906001019060200180831161085557829003601f168201915b5050505050905090565b60006108878261207f565b506000908152606960205260409020546001600160a01b031690565b60006108ae82610c47565b9050806001600160a01b0316836001600160a01b0316036109205760405162461bcd60e51b815260206004820152602160248201527f4552433732313a20617070726f76616c20746f2063757272656e74206f776e656044820152603960f91b60648201526084015b60405180910390fd5b336001600160a01b038216148061093c575061093c8133610762565b6109ae5760405162461bcd60e51b815260206004820152603d60248201527f4552433732313a20617070726f76652063616c6c6572206973206e6f7420746f60448201527f6b656e206f776e6572206f7220617070726f76656420666f7220616c6c0000006064820152608401610917565b6109b883836120de565b505050565b6109c633610ca7565b600114610a155760405162461bcd60e51b815260206004820152601960248201527f4f6e6c7920636f686f7274207061727469636970616e747321000000000000006044820152606401610917565b60aa546040517f7ad32bfb950c825d7d252f51537ad223c191a793ae9109cffc3bbd287485f6df91610a569133916001600160a01b03169086908690613bdb565b60405180910390a15050565b6060610a7160ad54848461214c565b60408051600180825281830190925291925060009190816020015b6060815260200190600190039081610a8c5790505090508181600081518110610ab757610ab7613c27565b6020908102919091010152604080516001808252818301909252600091816020016020820280368337505060ab5482519293506001600160a01b031691839150600090610b0657610b06613c27565b60200260200101906001600160a01b031690816001600160a01b031681525050610b3a610b3383836121a6565b6004612287565b5050505050565b600082815260986020526040902060010154610b5c81612473565b6109b8838361247d565b600082815260986020526040902060010154610b8181612473565b6109b883836124d3565b600080516020614477833981519152610ba381612473565b610bac82612553565b5050565b610bba33826125f0565b610bd65760405162461bcd60e51b815260040161091790613c3d565b6109b883838361266f565b600080516020614477833981519152610bf981612473565b8160a654610c079190613ca0565b60a6555050565b6109b88383836040518060200160405280600081525061115a565b600080516020614477833981519152610c4181612473565b5060a555565b6000818152606760205260408120546001600160a01b0316806107e45760405162461bcd60e51b8152602060048201526018602482015277115490cdcc8c4e881a5b9d985b1a59081d1bdad95b88125160421b6044820152606401610917565b60006001600160a01b038216610d115760405162461bcd60e51b815260206004820152602960248201527f4552433732313a2061646472657373207a65726f206973206e6f7420612076616044820152683634b21037bbb732b960b91b6064820152608401610917565b506001600160a01b031660009081526068602052604090205490565b60a18054610d3a90613ba1565b80601f0160208091040260200160405190810160405280929190818152602001828054610d6690613ba1565b8015610db35780601f10610d8857610100808354040283529160200191610db3565b820191906000526020600020905b815481529060010190602001808311610d9657829003601f168201915b505050505081565b600080516020614477833981519152610dd381612473565b610ddb6127e0565b50565b6097546000838152609860205260408082205490516321a9204d60e11b81526001600160a01b038581166004830152602482019290925291921690634352409a90604401602060405180830381865afa158015610e3f573d6000803e3d6000fd5b505050506040513d601f19601f82011682018060405250810190610e639190613cb3565b9392505050565b6060606680546107f990613ba1565b610bac338383612a3b565b609e546040516370a0823160e01b81526001600160a01b03838116600483015260009283929116906370a0823190602401602060405180830381865afa158015610ed2573d6000803e3d6000fd5b505050506040513d601f19601f82011682018060405250810190610ef69190613cd0565b60a75411159392505050565b600080516020614477833981519152610f1a81612473565b60408051600180825281830190925260009160208083019080368337505060408051600180825281830190925292935060009291506020808301908036833701905050905060a75482600081518110610f7557610f75613c27565b6020026020010181815250508381600081518110610f9557610f95613c27565b6001600160a01b039283166020918202929092010152609d54604051632c78fd0360e21b815291169063b1e3f40c90610fd49084908690600401613d24565b600060405180830381600087803b158015610fee57600080fd5b505af1158015611002573d6000803e3d6000fd5b5050505050505050565b606061106660ad5483604051602481018390526001600160a01b038216604482015260609060640160408051601f198184030181529190526020810180516001600160e01b031663320fbbb760e11b179052905092915050565b60408051600180825281830190925291925060009190816020015b606081526020019060019003908161108157905050905081816000815181106110ac576110ac613c27565b6020908102919091010152604080516001808252818301909252600091816020016020820280368337505060ab5482519293506001600160a01b0316918391506000906110fb576110fb613c27565b60200260200101906001600160a01b031690816001600160a01b03168152505061112f61112883836121a6565b6003612287565b50505050565b60008281526098602052604090206001015461115081612473565b6109b88383612b09565b61116433836125f0565b6111805760405162461bcd60e51b815260040161091790613c3d565b61112f84848484612b72565b600061119781612473565b610bac82612ba5565b6000805160206144778339815191526111b881612473565b5060a355565b6000805160206144778339815191526111d681612473565b610bac82612bf7565b32331461122e5760405162461bcd60e51b815260206004820152601f60248201527f5468652063616c6c657220697320616e6f7468657220636f6e747261637421006044820152606401610917565b60a6544211156112805760405162461bcd60e51b815260206004820152601960248201527f5468697320636f686f7274206973206e6f7720636c6f736564000000000000006044820152606401610917565b60a354609c5411156112d45760405162461bcd60e51b815260206004820152601b60248201527f5468697320636f686f727420697320616c72656164792066756c6c00000000006044820152606401610917565b6112dd81612c8e565b61131b5760405162461bcd60e51b815260206004820152600f60248201526e5374616b696e67206661696c65642160881b6044820152606401610917565b60a4805490600061132b83613d84565b909155505060a2546000908152609b6020908152604080832060a4548452909152902080546001600160a01b03191633179055610ddb81612da2565b60008051602061447783398151915261137f81612473565b8160008167ffffffffffffffff81111561139b5761139b6139be565b6040519080825280602002602001820160405280156113c4578160200160208202803683370190505b50905060005b828110156114045760a7548282815181106113e7576113e7613c27565b6020908102919091010152806113fc81613d84565b9150506113ca565b50609d54604051632c78fd0360e21b81526001600160a01b039091169063b1e3f40c9061143990889088908690600401613d9d565b600060405180830381600087803b15801561145357600080fd5b505af1158015611467573d6000803e3d6000fd5b505050505050505050565b606061147d8261207f565b6000611487612e34565b905060008151116114a75760405180602001604052806000815250610e63565b806114b184612e43565b6040516020016114c2929190613dfe565b6040516020818303038152906040529392505050565b6000805160206144778339815191526114f081612473565b610bac82612ed6565b600054610100900460ff16158080156115195750600054600160ff909116105b806115335750303b158015611533575060005460ff166001145b6115965760405162461bcd60e51b815260206004820152602e60248201527f496e697469616c697a61626c653a20636f6e747261637420697320616c72656160448201526d191e481a5b9a5d1a585b1a5e995960921b6064820152608401610917565b6000805460ff1916600117905580156115b9576000805461ff0019166101001790555b6115c7609c80546001019055565b600160a2556115da610160850185613e2d565b60a1916115e8919083613ec9565b5060a084013560a35560c084013560a58190556116059042613ca0565b60a655611696611619610180860186613e2d565b8080601f01602080910402602001604051908101604052809392919081815260200183838082843760009201919091525061165c925050506101a0870187613e2d565b8080601f016020809104026020016040519081016040528093929190818152602001838380828437600092019190915250612f6c92505050565b6116a36020850185613940565b609d80546001600160a01b0319166001600160a01b0392909216918217905560408051638009ba1f60e01b81529051638009ba1f9160048082019260209290919082900301816000875af11580156116ff573d6000803e3d6000fd5b505050506040513d601f19601f820116820180604052508101906117239190613f89565b609e80546001600160a01b0319166001600160a01b03929092169190911790556117536060850160408601613940565b60aa80546001600160a01b0319166001600160a01b03929092169190911790556117836040850160208601613940565b609f80546001600160a01b0319166001600160a01b03929092169190911790556117b1610100850135612553565b6117be8460e00135612bf7565b6117cc846101200135612ed6565b6117e26117dd6101c0860186613e2d565b612f9d565b60ab80546001600160a01b0319166001600160a01b03851617905561180683612ba5565b61181861020085016101e08601613fa6565b156118f757606061182a306002612faa565b60408051600180825281830190925291925060009190816020015b6060815260200190600190039081611845579050509050818160008151811061187057611870613c27565b60209081029190910101526040805160018082528183019092526000918160200160208202803683375050609d5482519293506001600160a01b0316918391506000906118bf576118bf613c27565b60200260200101906001600160a01b031690816001600160a01b0316815250506118f36118ec83836121a6565b6001612287565b5050505b60ab5460aa546040516321a9204d60e11b81526001600160a01b0391821660048201526101408701356024820152911690634352409a90604401602060405180830381865afa15801561194e573d6000803e3d6000fd5b505050506040513d601f19601f820116820180604052508101906119729190613cb3565b15611b455761014084013560ac81905560aa54606091829161199e91906001600160a01b03163061214c565b9150611a1e846119b46080890160608a01613940565b6119c460a08a0160808b01613940565b6040516001600160a01b03808516602483015280841660448301528216606482015260609060840160408051601f198184030181529190526020810180516001600160e01b031662f3450f60e81b17905290509392505050565b6040805160028082526060820190925291925060009190816020015b6060815260200190600190039081611a3a5790505090508281600081518110611a6557611a65613c27565b60200260200101819052508181600181518110611a8457611a84613c27565b602090810291909101015260408051600280825260608201909252600091816020016020820280368337505060ab5482519293506001600160a01b031691839150600090611ad457611ad4613c27565b60200260200101906001600160a01b031690816001600160a01b0316815250503081600181518110611b0857611b08613c27565b60200260200101906001600160a01b031690816001600160a01b031681525050611b3c611b3583836121a6565b6002612287565b50505050611c09565b60ab54604051631a64dfad60e01b815230600482015260606024820152600a6064820152691493d348151bdc12185d60b21b608482015260a06044820152600060a48201526001600160a01b0390911690631a64dfad9060c4016020604051808303816000875af1158015611bbe573d6000803e3d6000fd5b505050506040513d601f19601f82011682018060405250810190611be29190613cd0565b60ac55611c0982611bf96080870160608801613940565b6107af60a0880160808901613940565b801561112f576000805461ff0019169055604051600181527f7f26b83ff96e1f2b6a682f133852f6798a09c465da95921460cefb38474024989060200160405180910390a150505050565b611c5c613088565b611c64613141565b611ca05760405162461bcd60e51b815260206004820152600d60248201526c436c61696d206661696c65642160981b6044820152606401610917565b565b60ae5460ff1615611cf55760405162461bcd60e51b815260206004820152601860248201527f4861747320616c726561647920696e697469616c697a656400000000000000006044820152606401610917565b60ae805460ff1916600190811790915560ab5460ac54609d54604051635829492f60e11b8152600481019290925260e06024830152600960e4830152682927a69020b236b4b760b91b610104830152600360448301526001600160a01b0390811660648301819052608483015260a482019390935261012060c4820152600061012482015291169063b052925e90610144016020604051808303816000875af1158015611da6573d6000803e3d6000fd5b505050506040513d601f19601f82011682018060405250810190611dca9190613cd0565b60ad819055611de890600080516020614477833981519152906124d3565b60ab5460ad5460405163320fbbb760e11b815260048101919091526001600160a01b0385811660248301529091169063641f776e906044016020604051808303816000875af1158015611e3f573d6000803e3d6000fd5b505050506040513d601f19601f82011682018060405250810190611e639190613cb3565b506001600160a01b03821615611ef05760ab5460ad5460405163320fbbb760e11b815260048101919091526001600160a01b0384811660248301529091169063641f776e906044016020604051808303816000875af1158015611eca573d6000803e3d6000fd5b505050506040513d601f19601f82011682018060405250810190611eee9190613cb3565b505b6001600160a01b03811615611f7c5760ab5460ad5460405163320fbbb760e11b815260048101919091526001600160a01b0383811660248301529091169063641f776e906044016020604051808303816000875af1158015611f56573d6000803e3d6000fd5b505050506040513d601f19601f82011682018060405250810190611f7a9190613cb3565b505b60ab5460ac5460aa546040516329287c1b60e21b815260048101929092523060248301526001600160a01b0390811660448301529091169063a4a1f06c90606401600060405180830381600087803b158015611fd757600080fd5b505af1158015611feb573d6000803e3d6000fd5b50505050505050565b60008051602061447783398151915261200c81612473565b61201582613278565b5060a4805490600061202683613fc3565b91905055505050565b60006001600160e01b031982166380ac58cd60e01b148061206057506001600160e01b03198216635b5e139f60e01b145b806107e457506301ffc9a760e01b6001600160e01b03198316146107e4565b6000818152606760205260409020546001600160a01b0316610ddb5760405162461bcd60e51b8152602060048201526018602482015277115490cdcc8c4e881a5b9d985b1a59081d1bdad95b88125160421b6044820152606401610917565b600081815260696020526040902080546001600160a01b0319166001600160a01b038416908117909155819061211382610c47565b6001600160a01b03167f8c5be1e5ebec7d5bd14f71427d1e84f3dd0314c0f7b2291e5b200ac8c7c3b92560405160405180910390a45050565b604051602481018490526001600160a01b0380841660448301528216606482015260609060840160408051601f198184030181529190526020810180516001600160e01b03166329287c1b60e21b17905290509392505050565b60608060005b8451811015612242578160008583815181106121ca576121ca613c27565b602002602001015160008885815181106121e6576121e6613c27565b60200260200101515189868151811061220157612201613c27565b602002602001015160405160200161221e96959493929190613fda565b6040516020818303038152906040529150808061223a90613d84565b9150506121ac565b508060405160240161225491906137c5565b60408051601f198184030181529190526020810180516001600160e01b03166346c07f8560e11b17905291505092915050565b609d5460408051639a2f747f60e01b815290516000926001600160a01b031691639a2f747f916004808301926020929190829003018187875af11580156122d2573d6000803e3d6000fd5b505050506040513d601f19601f820116820180604052508101906122f69190613cd0565b90508034146123395760405162461bcd60e51b815260206004820152600f60248201526e4d697373696e67207472696275746560881b6044820152606401610917565b606082600103612363576040518060c00160405280609c81526020016142ec609c913990506123f7565b8260020361238b576040518060c00160405280609281526020016144976092913990506123f7565b826003036123b3576040518060a00160405280607e815260200161426e607e913990506123f7565b826004036123db576040518060c00160405280608a81526020016143ed608a913990506123f7565b6040518060a00160405280606581526020016143886065913990505b609d546040516307505ff960e31b81526001600160a01b0390911690633a82ffc890849061243090889060009081908890600401614044565b60206040518083038185885af115801561244e573d6000803e3d6000fd5b50505050506040513d601f19601f82011682018060405250810190610b3a9190613cd0565b610ddb81336132e8565b600082815260986020526040902054819003610bac57600082815260986020526040808220829055513391839185917f641261709a27417e18d0ccc3db95ddc812d61be919b2a5a3af21a5870590922a91a45050565b600082815260986020526040902054801561250b5760405163aab0817760e01b81526004810184905260248101829052604401610917565b8181146109b857600083815260986020526040808220849055513391849186917f7c2a2c4bb5a44dafa473fc49e557303dba6db62123713789deefe8ccb384654991a4505050565b600081116125b45760405162461bcd60e51b815260206004820152602860248201527f4d696e696d756d207374616b65206d7573742062652067726561746572207468604482015267616e207a65726f2160c01b6064820152608401610917565b60a88190556040518181527fb4b5fad09421a48c68e8513475c3adbf47ed48a5eefe543d4fec52c82db47469906020015b60405180910390a150565b6000806125fc83610c47565b9050806001600160a01b0316846001600160a01b0316148061264357506001600160a01b038082166000908152606a602090815260408083209388168352929052205460ff165b806126675750836001600160a01b031661265c8461087c565b6001600160a01b0316145b949350505050565b826001600160a01b031661268282610c47565b6001600160a01b0316146126a85760405162461bcd60e51b81526004016109179061407b565b6001600160a01b03821661270a5760405162461bcd60e51b8152602060048201526024808201527f4552433732313a207472616e7366657220746f20746865207a65726f206164646044820152637265737360e01b6064820152608401610917565b6127178383836001613339565b826001600160a01b031661272a82610c47565b6001600160a01b0316146127505760405162461bcd60e51b81526004016109179061407b565b600081815260696020908152604080832080546001600160a01b03199081169091556001600160a01b0387811680865260688552838620805460001901905590871680865283862080546001019055868652606790945282852080549092168417909155905184937fddf252ad1be2c89b69c2b068fc378daa952ba7f163c4a11628f55a4df523b3ef91a4505050565b60a2546000908190816127f4826001613ca0565b905060015b60a4548111612951576000838152609b602090815260408083208484528252808320546001600160a01b031680845260999092529091205460019015612914576001600160a01b0382166000908152609a602052604090205442111561289a5761286282613278565b61286c9088613ca0565b6000868152609b60209081526040808320878452909152902080546001600160a01b0319169055965061293c565b6000848152609b60209081526040808320848452909152902080546001600160a01b0319166001600160a01b038416179055806128d681613d84565b91505085806128e490613d84565b6000878152609b60209081526040808320888452909152902080546001600160a01b0319169055965061293c9050565b6000858152609b60209081526040808320868452909152902080546001600160a01b03191690555b5050808061294990613d84565b9150506127f9565b50609f5460aa5460405163a9059cbb60e01b81526001600160a01b0391821660048201526024810187905291169063a9059cbb906044016020604051808303816000875af11580156129a7573d6000803e3d6000fd5b505050506040513d601f19601f820116820180604052508101906129cb9190613cb3565b612a0b5760405162461bcd60e51b81526020600482015260116024820152704661696c6564205361637269666963652160781b6044820152606401610917565b60a483905560a554612a1d9042613ca0565b60a65560a28054906000612a3083613d84565b919050555050505050565b816001600160a01b0316836001600160a01b031603612a9c5760405162461bcd60e51b815260206004820152601960248201527f4552433732313a20617070726f766520746f2063616c6c6572000000000000006044820152606401610917565b6001600160a01b038381166000818152606a6020908152604080832094871680845294825291829020805460ff191686151590811790915591519182527f17307eab39ab6107e8899845ad3d59bd9653f200f220920489ca2b5937696c31910160405180910390a3505050565b60008281526098602052604081205490819003612b2a57612b2a83836124d3565b8181146109b857600083815260986020526040808220849055518391839186917fc3d694cb68f99c4c204d7aedbaba300907c24102aeeeecd32de2c9910609f30a91a4505050565b612b7d84848461266f565b612b8984848484613390565b61112f5760405162461bcd60e51b8152600401610917906140c0565b609780546001600160a01b038381166001600160a01b0319831681179093556040519116919082907fe2c5fed45442eae2ee9c94b63f1e24155d9bfe92ecd80e48c35ebf292767573790600090a35050565b60008111612c595760405162461bcd60e51b815260206004820152602960248201527f4d696e696d756d20736861726573206d7573742062652067726561746572207460448201526868616e207a65726f2160b81b6064820152608401610917565b60a78190556040518181527f7155dd2d80b479664a5c9bf2c04a1b00c07aad515f3c089a20ce1ebff2c6ecdd906020016125e5565b6000612c9982610ca7565b15612ce65760405162461bcd60e51b815260206004820152601e60248201527f416c7265616479206a6f696e65642074686520696e6974696174696f6e2100006044820152606401610917565b60a8546001600160a01b03831660009081526099602052604090205560a954612d0f9042613ca0565b6001600160a01b038381166000908152609a60205260409081902092909255609f5460a85492516323b872dd60e01b8152336004820152306024820152604481019390935216906323b872dd906064016020604051808303816000875af1158015612d7e573d6000803e3d6000fd5b505050506040513d601f19601f820116820180604052508101906107e49190613cb3565b6000612dad609c5490565b9050612dbd609c80546001019055565b612dc78282613491565b60a8546001600160a01b0383166000818152609a60209081526040918290205482519384523391840191909152908201849052606082019290925260808101919091527f9da9a86fb849b37cb0098539441b747ca3c0c5a367f5eaef701e6877e4b124d79060a001610a56565b606060a080546107f990613ba1565b60606000612e508361362a565b600101905060008167ffffffffffffffff811115612e7057612e706139be565b6040519080825280601f01601f191660200182016040528015612e9a576020820181803683370190505b5090508181016020015b600019016f181899199a1a9b1b9c1cb0b131b232b360811b600a86061a8153600a8504945084612ea457509392505050565b60008111612f375760405162461bcd60e51b815260206004820152602860248201527f4d696e696d756d206475726174696f6e206d7573742062652067726561746572604482015267207468616e20302160c01b6064820152608401610917565b60a98190556040518181527f856717cb327b027e506a205b6a989525427e169d7b6acb09ad84d849dea2b93f906020016125e5565b600054610100900460ff16612f935760405162461bcd60e51b815260040161091790614112565b610bac8282613702565b60a06109b8828483613ec9565b60408051600180825281830190925260609160009190602080830190803683370190505090508381600081518110612fe457612fe4613c27565b6001600160a01b039290921660209283029190910190910152604080516001808252818301909252600091816020016020820280368337019050509050838160008151811061303557613035613c27565b6020026020010181815250508181604051602401613054929190613d24565b60408051601f198184030181529190526020810180516001600160e01b0316630f656a2160e01b1790529250505092915050565b609e546040516370a0823160e01b81523360048201526000916001600160a01b0316906370a0823190602401602060405180830381865afa1580156130d1573d6000803e3d6000fd5b505050506040513d601f19601f820116820180604052508101906130f59190613cd0565b905060a754811015610ddb5760405162461bcd60e51b8152602060048201526015602482015274596f75206d7573742062652061206d656d6265722160581b6044820152606401610917565b336000818152609960205260408120549091906131965760405162461bcd60e51b81526020600482015260136024820152725573657220686173206e6f207374616b65212160681b6044820152606401610917565b6001600160a01b0381166000818152609960209081526040808320805490849055609a835281842093909355805193845290830182905290917f47cee97cb7acd717b3c0aa1435d004cd5b3c8c57d70dbceb4e4458bbd60e39d4910160405180910390a1609f5460405163a9059cbb60e01b81526001600160a01b038481166004830152602482018490529091169063a9059cbb906044016020604051808303816000875af115801561324d573d6000803e3d6000fd5b505050506040513d601f19601f820116820180604052508101906132719190613cb3565b9250505090565b6001600160a01b0381166000818152609960209081526040808320805490849055609a83528184208490558151948552918401829052339084015290917f1b4365d94ccfc86d7cd3eef46bf15cd821f8abb29721248eca1d751eebb669009060600160405180910390a192915050565b6132f28282610dde565b610bac5760008281526098602052604090819020549051631612509360e01b81526004810184905260248101919091526001600160a01b0382166044820152606401610917565b6001600160a01b0384161561112f5760405162461bcd60e51b815260206004820152601960248201527f5342542063616e6e6f74206265207472616e73666572726564000000000000006044820152606401610917565b60006001600160a01b0384163b1561348657604051630a85bd0160e11b81526001600160a01b0385169063150b7a02906133d490339089908890889060040161415d565b6020604051808303816000875af192505050801561340f575060408051601f3d908101601f1916820190925261340c91810190614190565b60015b61346c573d80801561343d576040519150601f19603f3d011682016040523d82523d6000602084013e613442565b606091505b5080516000036134645760405162461bcd60e51b8152600401610917906140c0565b805181602001fd5b6001600160e01b031916630a85bd0160e11b149050612667565b506001949350505050565b6001600160a01b0382166134e75760405162461bcd60e51b815260206004820181905260248201527f4552433732313a206d696e7420746f20746865207a65726f20616464726573736044820152606401610917565b6000818152606760205260409020546001600160a01b03161561354c5760405162461bcd60e51b815260206004820152601c60248201527f4552433732313a20746f6b656e20616c7265616479206d696e746564000000006044820152606401610917565b61355a600083836001613339565b6000818152606760205260409020546001600160a01b0316156135bf5760405162461bcd60e51b815260206004820152601c60248201527f4552433732313a20746f6b656e20616c7265616479206d696e746564000000006044820152606401610917565b6001600160a01b038216600081815260686020908152604080832080546001019055848352606790915280822080546001600160a01b0319168417905551839291907fddf252ad1be2c89b69c2b068fc378daa952ba7f163c4a11628f55a4df523b3ef908290a45050565b60008072184f03e93ff9f4daa797ed6e38ed64bf6a1f0160401b83106136695772184f03e93ff9f4daa797ed6e38ed64bf6a1f0160401b830492506040015b6d04ee2d6d415b85acef81000000008310613695576d04ee2d6d415b85acef8100000000830492506020015b662386f26fc1000083106136b357662386f26fc10000830492506010015b6305f5e10083106136cb576305f5e100830492506008015b61271083106136df57612710830492506004015b606483106136f1576064830492506002015b600a83106107e45760010192915050565b600054610100900460ff166137295760405162461bcd60e51b815260040161091790614112565b606561373583826141ad565b5060666109b882826141ad565b6001600160e01b031981168114610ddb57600080fd5b60006020828403121561376a57600080fd5b8135610e6381613742565b60005b83811015613790578181015183820152602001613778565b50506000910152565b600081518084526137b1816020860160208601613775565b601f01601f19169290920160200192915050565b602081526000610e636020830184613799565b6000602082840312156137ea57600080fd5b5035919050565b6001600160a01b0381168114610ddb57600080fd5b6000806040838503121561381957600080fd5b8235613824816137f1565b946020939093013593505050565b6000806020838503121561384557600080fd5b823567ffffffffffffffff8082111561385d57600080fd5b818501915085601f83011261387157600080fd5b81358181111561388057600080fd5b86602082850101111561389257600080fd5b60209290920196919550909350505050565b600080604083850312156138b757600080fd5b82356138c2816137f1565b915060208301356138d2816137f1565b809150509250929050565b600080604083850312156138f057600080fd5b50508035926020909101359150565b60008060006060848603121561391457600080fd5b833561391f816137f1565b9250602084013561392f816137f1565b929592945050506040919091013590565b60006020828403121561395257600080fd5b8135610e63816137f1565b6000806040838503121561397057600080fd5b8235915060208301356138d2816137f1565b8015158114610ddb57600080fd5b600080604083850312156139a357600080fd5b82356139ae816137f1565b915060208301356138d281613982565b634e487b7160e01b600052604160045260246000fd5b600080600080608085870312156139ea57600080fd5b84356139f5816137f1565b93506020850135613a05816137f1565b925060408501359150606085013567ffffffffffffffff80821115613a2957600080fd5b818701915087601f830112613a3d57600080fd5b813581811115613a4f57613a4f6139be565b604051601f8201601f19908116603f01168101908382118183101715613a7757613a776139be565b816040528281528a6020848701011115613a9057600080fd5b82602086016020830137600060208483010152809550505050505092959194509250565b60008060208385031215613ac757600080fd5b823567ffffffffffffffff80821115613adf57600080fd5b818501915085601f830112613af357600080fd5b813581811115613b0257600080fd5b8660208260051b850101111561389257600080fd5b600080600060608486031215613b2c57600080fd5b833567ffffffffffffffff811115613b4357600080fd5b84016102008187031215613b5657600080fd5b92506020840135613b66816137f1565b91506040840135613b76816137f1565b809150509250925092565b600080600060608486031215613b9657600080fd5b8335613b56816137f1565b600181811c90821680613bb557607f821691505b602082108103613bd557634e487b7160e01b600052602260045260246000fd5b50919050565b6001600160a01b0385811682528416602082015260606040820181905281018290526000828460808401376000608084840101526080601f19601f850116830101905095945050505050565b634e487b7160e01b600052603260045260246000fd5b6020808252602d908201527f4552433732313a2063616c6c6572206973206e6f7420746f6b656e206f776e6560408201526c1c881bdc88185c1c1c9bdd9959609a1b606082015260800190565b634e487b7160e01b600052601160045260246000fd5b808201808211156107e4576107e4613c8a565b600060208284031215613cc557600080fd5b8151610e6381613982565b600060208284031215613ce257600080fd5b5051919050565b600081518084526020808501945080840160005b83811015613d1957815187529582019590820190600101613cfd565b509495945050505050565b604080825283519082018190526000906020906060840190828701845b82811015613d665781516001600160a01b031684529284019290840190600101613d41565b50505083810382850152613d7a8186613ce9565b9695505050505050565b600060018201613d9657613d96613c8a565b5060010190565b6040808252810183905260008460608301825b86811015613de0578235613dc3816137f1565b6001600160a01b0316825260209283019290910190600101613db0565b508381036020850152613df38186613ce9565b979650505050505050565b60008351613e10818460208801613775565b835190830190613e24818360208801613775565b01949350505050565b6000808335601e19843603018112613e4457600080fd5b83018035915067ffffffffffffffff821115613e5f57600080fd5b602001915036819003821315613e7457600080fd5b9250929050565b601f8211156109b857600081815260208120601f850160051c81016020861015613ea25750805b601f850160051c820191505b81811015613ec157828155600101613eae565b505050505050565b67ffffffffffffffff831115613ee157613ee16139be565b613ef583613eef8354613ba1565b83613e7b565b6000601f841160018114613f295760008515613f115750838201355b600019600387901b1c1916600186901b178355610b3a565b600083815260209020601f19861690835b82811015613f5a5786850135825560209485019460019092019101613f3a565b5086821015613f775760001960f88860031b161c19848701351681555b505060018560011b0183555050505050565b600060208284031215613f9b57600080fd5b8151610e63816137f1565b600060208284031215613fb857600080fd5b8135610e6381613982565b600081613fd257613fd2613c8a565b506000190190565b60008751613fec818460208c01613775565b808301905060ff60f81b8860f81b1681526bffffffffffffffffffffffff198760601b1660018201528560158201528460358201528351614034816055840160208801613775565b0160550198975050505050505050565b6080815260006140576080830187613799565b63ffffffff861660208401528460408401528281036060840152613df38185613799565b60208082526025908201527f4552433732313a207472616e736665722066726f6d20696e636f72726563742060408201526437bbb732b960d91b606082015260800190565b60208082526032908201527f4552433732313a207472616e7366657220746f206e6f6e20455243373231526560408201527131b2b4bb32b91034b6b83632b6b2b73a32b960711b606082015260800190565b6020808252602b908201527f496e697469616c697a61626c653a20636f6e7472616374206973206e6f74206960408201526a6e697469616c697a696e6760a81b606082015260800190565b6001600160a01b0385811682528416602082015260408101839052608060608201819052600090613d7a90830184613799565b6000602082840312156141a257600080fd5b8151610e6381613742565b815167ffffffffffffffff8111156141c7576141c76139be565b6141db816141d58454613ba1565b84613e7b565b602080601f83116001811461421057600084156141f85750858301515b600019600386901b1c1916600185901b178555613ec1565b600085815260208120601f198616915b8281101561423f57888601518255948401946001909101908401614220565b508582101561425d5787850151600019600388901b60f8161c191681555b5050505050600190811b0190555056fe7b2270726f706f73616c54797065223a20224d494e545f41444d494e484154222c20227469746c65223a202252697465206f66204d6f6c6f63682028524f4d293a204d696e742041646d696e20486174222c20226465736372697074696f6e223a20224d696e7420524f4d2d41646d696e2068617420746f20454f41227d7b2270726f706f73616c54797065223a20224144445f5348414d414e222c20227469746c65223a202252697465206f66204d6f6c6f63682028524f4d293a205368616d616e2050726f706f73616c222c20226465736372697074696f6e223a202241737369676e20524f4d2061732061204d616e616765722d5368616d616e20746f206d696e74206d696e696d756d2044414f20736861726573227d7b2270726f706f73616c54797065223a2022554e444546494e4544222c20227469746c65223a202252697465206f66204d6f6c6f63682028524f4d293a20756e646566696e6564222c20226465736372697074696f6e223a2022556e646566696e6564227d7b2270726f706f73616c54797065223a20225452414e534645525f41444d494e484154222c20227469746c65223a202252697465206f66204d6f6c6f63682028524f4d293a205472616e736665722041646d696e20486174222c20226465736372697074696f6e223a20225472616e7366657220524f4d2d41646d696e2068617420746f20454f41227ddf8b4c520ffe197c5343c6f5aec59570151ef9a492f2c624fd45ddde6135ec427b2270726f706f73616c54797065223a2022424f52524f575f544f50484154222c20227469746c65223a202252697465206f66204d6f6c6f63682028524f4d293a20486174732050726f706f73616c222c20226465736372697074696f6e223a202243726561746520616e64206d696e7420524f4d2d41646d696e20686174732066726f6d2044414f20546f70486174227da2646970667358221220c0af9a451450dff1f07ef452a058d9c9b65b8f011c6d9a2bef48d59d97e131e664736f6c63430008110033",
    "linkReferences": {}
  },
  "methodIdentifiers": {
    "ADMIN()": "2a0acc6a",
    "DEFAULT_ADMIN_ROLE()": "a217fddf",
    "HATS()": "7150ef88",
    "adminHat()": "232b0432",
    "approve(address,uint256)": "095ea7b3",
    "baal()": "e5a2a2a5",
    "balanceOf(address)": "70a08231",
    "batchMintBaalShares(address[])": "c81f83a2",
    "changeHatsContract(address)": "b8c45361",
    "changeJoinSizeLimit(uint256)": "b8ebdcd9",
    "changeJoinTimeDuration(uint256)": "4558e83d",
    "changeRoleHat(bytes32,uint256)": "b5436cec",
    "checkStake(address)": "90d96d76",
    "claimStake()": "eb321173",
    "cohortCounter()": "aee4c96f",
    "cohortName()": "73f78fd0",
    "cohortSeason()": "f68659bd",
    "cohortSize()": "c6db8129",
    "cryForHelp(string)": "0c538f2f",
    "deadlines(address)": "e5d05722",
    "extendJoinTimeLimit(uint256)": "2a4a1342",
    "getApproved(uint256)": "081812fc",
    "getDeadline(address)": "a2213262",
    "getRoleAdmin(bytes32)": "248a9ca3",
    "grantRole(bytes32,uint256)": "1b6ea9f9",
    "hasRole(bytes32,address)": "91d14854",
    "hatsContract()": "97e39fef",
    "initialize((address,address,address,address,address,uint256,uint256,uint256,uint256,uint256,uint256,string,string,string,string,bool),address,address)": "cfdb44d6",
    "initializeHatTree(address,address,address)": "f3450f00",
    "isApprovedForAll(address,address)": "e985e9c5",
    "isMember(address)": "a230c524",
    "joinDuration()": "172bf854",
    "joinEndTime()": "35439bb3",
    "joinInitiation(address)": "c733d5e9",
    "maximumTime()": "f9bb68fc",
    "minimumShare()": "2e152618",
    "minimumStake()": "ec5ffac2",
    "mintAdminHatProposal(address)": "a3beab6a",
    "name()": "06fdde03",
    "ownerOf(uint256)": "6352211e",
    "revokeRole(bytes32,uint256)": "19d61ad9",
    "sacrifice()": "8a040df4",
    "safeTransferFrom(address,address,uint256)": "42842e0e",
    "safeTransferFrom(address,address,uint256,bytes)": "b88d4fde",
    "setApprovalForAll(address,bool)": "a22cb465",
    "setMaxDuration(uint256)": "cf0f34c4",
    "setMinimumStake(uint256)": "233e9903",
    "setShareThreshold(uint256)": "bc5fa8df",
    "singleMintBaalShares(address)": "a3919d1f",
    "slaughter(address)": "fc4c0958",
    "supportsInterface(bytes4)": "01ffc9a7",
    "symbol()": "95d89b41",
    "tokenURI(uint256)": "c87b56dd",
    "topHat()": "c2d14f02",
    "transferAdminHatProposal(address,address)": "1719f9a3",
    "transferFrom(address,address,uint256)": "23b872dd",
    "treasury()": "61d027b3"
  },
  "id": 64
}