{
  "abi": [
    {
      "inputs": [],
      "stateMutability": "nonpayable",
      "type": "constructor"
    },
    {
      "inputs": [
        {
          "internalType": "bytes32",
          "name": "role",
          "type": "bytes32"
        },
        {
          "internalType": "uint256",
          "name": "hat",
          "type": "uint256"
        },
        {
          "internalType": "address",
          "name": "account",
          "type": "address"
        }
      ],
      "name": "NotWearingRoleHat",
      "type": "error"
    },
    {
      "inputs": [
        {
          "internalType": "bytes32",
          "name": "role",
          "type": "bytes32"
        },
        {
          "internalType": "uint256",
          "name": "roleHat",
          "type": "uint256"
        }
      ],
      "name": "RoleAlreadyAssigned",
      "type": "error"
    },
    {
      "anonymous": false,
      "inputs": [
        {
          "indexed": true,
          "internalType": "address",
          "name": "owner",
          "type": "address"
        },
        {
          "indexed": true,
          "internalType": "address",
          "name": "approved",
          "type": "address"
        },
        {
          "indexed": true,
          "internalType": "uint256",
          "name": "tokenId",
          "type": "uint256"
        }
      ],
      "name": "Approval",
      "type": "event"
    },
    {
      "anonymous": false,
      "inputs": [
        {
          "indexed": true,
          "internalType": "address",
          "name": "owner",
          "type": "address"
        },
        {
          "indexed": true,
          "internalType": "address",
          "name": "operator",
          "type": "address"
        },
        {
          "indexed": false,
          "internalType": "bool",
          "name": "approved",
          "type": "bool"
        }
      ],
      "name": "ApprovalForAll",
      "type": "event"
    },
    {
      "anonymous": false,
      "inputs": [
        {
          "indexed": false,
          "internalType": "uint256",
          "name": "newShare",
          "type": "uint256"
        }
      ],
      "name": "ChangedShares",
      "type": "event"
    },
    {
      "anonymous": false,
      "inputs": [
        {
          "indexed": false,
          "internalType": "uint256",
          "name": "newStake",
          "type": "uint256"
        }
      ],
      "name": "ChangedStake",
      "type": "event"
    },
    {
      "anonymous": false,
      "inputs": [
        {
          "indexed": false,
          "internalType": "uint256",
          "name": "newTime",
          "type": "uint256"
        }
      ],
      "name": "ChangedTime",
      "type": "event"
    },
    {
      "anonymous": false,
      "inputs": [
        {
          "indexed": false,
          "internalType": "address",
          "name": "newMember",
          "type": "address"
        },
        {
          "indexed": false,
          "internalType": "uint256",
          "name": "claimAmount",
          "type": "uint256"
        }
      ],
      "name": "Claim",
      "type": "event"
    },
    {
      "anonymous": false,
      "inputs": [
        {
          "indexed": false,
          "internalType": "address",
          "name": "user",
          "type": "address"
        },
        {
          "indexed": false,
          "internalType": "address",
          "name": "treasury",
          "type": "address"
        },
        {
          "indexed": false,
          "internalType": "string",
          "name": "feedback",
          "type": "string"
        }
      ],
      "name": "Feedback",
      "type": "event"
    },
    {
      "anonymous": false,
      "inputs": [
        {
          "indexed": true,
          "internalType": "address",
          "name": "previousHatsContract",
          "type": "address"
        },
        {
          "indexed": true,
          "internalType": "address",
          "name": "newHatsContract",
          "type": "address"
        }
      ],
      "name": "HatsContractChanged",
      "type": "event"
    },
    {
      "anonymous": false,
      "inputs": [
        {
          "indexed": false,
          "internalType": "uint8",
          "name": "version",
          "type": "uint8"
        }
      ],
      "name": "Initialized",
      "type": "event"
    },
    {
      "anonymous": false,
      "inputs": [
        {
          "indexed": false,
          "internalType": "address",
          "name": "newInitiate",
          "type": "address"
        },
        {
          "indexed": false,
          "internalType": "address",
          "name": "benefactor",
          "type": "address"
        },
        {
          "indexed": false,
          "internalType": "uint256",
          "name": "tokenId",
          "type": "uint256"
        },
        {
          "indexed": false,
          "internalType": "uint256",
          "name": "stake",
          "type": "uint256"
        },
        {
          "indexed": false,
          "internalType": "uint256",
          "name": "deadline",
          "type": "uint256"
        }
      ],
      "name": "Initiation",
      "type": "event"
    },
    {
      "anonymous": false,
      "inputs": [
        {
          "indexed": true,
          "internalType": "bytes32",
          "name": "role",
          "type": "bytes32"
        },
        {
          "indexed": true,
          "internalType": "bytes32",
          "name": "previousAdminRole",
          "type": "bytes32"
        },
        {
          "indexed": true,
          "internalType": "bytes32",
          "name": "newAdminRole",
          "type": "bytes32"
        }
      ],
      "name": "RoleAdminChanged",
      "type": "event"
    },
    {
      "anonymous": false,
      "inputs": [
        {
          "indexed": true,
          "internalType": "bytes32",
          "name": "role",
          "type": "bytes32"
        },
        {
          "indexed": true,
          "internalType": "uint256",
          "name": "hat",
          "type": "uint256"
        },
        {
          "indexed": true,
          "internalType": "address",
          "name": "sender",
          "type": "address"
        }
      ],
      "name": "RoleGranted",
      "type": "event"
    },
    {
      "anonymous": false,
      "inputs": [
        {
          "indexed": true,
          "internalType": "bytes32",
          "name": "role",
          "type": "bytes32"
        },
        {
          "indexed": true,
          "internalType": "uint256",
          "name": "previousRoleHat",
          "type": "uint256"
        },
        {
          "indexed": true,
          "internalType": "uint256",
          "name": "newRoleHat",
          "type": "uint256"
        }
      ],
      "name": "RoleHatChanged",
      "type": "event"
    },
    {
      "anonymous": false,
      "inputs": [
        {
          "indexed": true,
          "internalType": "bytes32",
          "name": "role",
          "type": "bytes32"
        },
        {
          "indexed": true,
          "internalType": "uint256",
          "name": "hat",
          "type": "uint256"
        },
        {
          "indexed": true,
          "internalType": "address",
          "name": "sender",
          "type": "address"
        }
      ],
      "name": "RoleRevoked",
      "type": "event"
    },
    {
      "anonymous": false,
      "inputs": [
        {
          "indexed": false,
          "internalType": "address",
          "name": "sacrifice",
          "type": "address"
        },
        {
          "indexed": false,
          "internalType": "uint256",
          "name": "slashedAmount",
          "type": "uint256"
        },
        {
          "indexed": false,
          "internalType": "address",
          "name": "slasher",
          "type": "address"
        }
      ],
      "name": "Sacrifice",
      "type": "event"
    },
    {
      "anonymous": false,
      "inputs": [
        {
          "indexed": true,
          "internalType": "address",
          "name": "from",
          "type": "address"
        },
        {
          "indexed": true,
          "internalType": "address",
          "name": "to",
          "type": "address"
        },
        {
          "indexed": true,
          "internalType": "uint256",
          "name": "tokenId",
          "type": "uint256"
        }
      ],
      "name": "Transfer",
      "type": "event"
    },
    {
      "inputs": [],
      "name": "ADMIN",
      "outputs": [
        {
          "internalType": "bytes32",
          "name": "",
          "type": "bytes32"
        }
      ],
      "stateMutability": "view",
      "type": "function"
    },
    {
      "inputs": [],
      "name": "DEFAULT_ADMIN_ROLE",
      "outputs": [
        {
          "internalType": "bytes32",
          "name": "",
          "type": "bytes32"
        }
      ],
      "stateMutability": "view",
      "type": "function"
    },
    {
      "inputs": [],
      "name": "HATS",
      "outputs": [
        {
          "internalType": "contract IHats",
          "name": "",
          "type": "address"
        }
      ],
      "stateMutability": "view",
      "type": "function"
    },
    {
      "inputs": [],
      "name": "adminHat",
      "outputs": [
        {
          "internalType": "uint256",
          "name": "",
          "type": "uint256"
        }
      ],
      "stateMutability": "view",
      "type": "function"
    },
    {
      "inputs": [
        {
          "internalType": "address",
          "name": "to",
          "type": "address"
        },
        {
          "internalType": "uint256",
          "name": "tokenId",
          "type": "uint256"
        }
      ],
      "name": "approve",
      "outputs": [],
      "stateMutability": "nonpayable",
      "type": "function"
    },
    {
      "inputs": [],
      "name": "baal",
      "outputs": [
        {
          "internalType": "contract IBaal",
          "name": "",
          "type": "address"
        }
      ],
      "stateMutability": "view",
      "type": "function"
    },
    {
      "inputs": [
        {
          "internalType": "address",
          "name": "owner",
          "type": "address"
        }
      ],
      "name": "balanceOf",
      "outputs": [
        {
          "internalType": "uint256",
          "name": "",
          "type": "uint256"
        }
      ],
      "stateMutability": "view",
      "type": "function"
    },
    {
      "inputs": [
        {
          "internalType": "address[]",
          "name": "to",
          "type": "address[]"
        }
      ],
      "name": "batchMintBaalShares",
      "outputs": [],
      "stateMutability": "nonpayable",
      "type": "function"
    },
    {
      "inputs": [
        {
          "internalType": "address",
          "name": "newHatsContract",
          "type": "address"
        }
      ],
      "name": "changeHatsContract",
      "outputs": [],
      "stateMutability": "nonpayable",
      "type": "function"
    },
    {
      "inputs": [
        {
          "internalType": "uint256",
          "name": "_cohortSize",
          "type": "uint256"
        }
      ],
      "name": "changeJoinSizeLimit",
      "outputs": [],
      "stateMutability": "nonpayable",
      "type": "function"
    },
    {
      "inputs": [
        {
          "internalType": "uint256",
          "name": "_joinDuration",
          "type": "uint256"
        }
      ],
      "name": "changeJoinTimeDuration",
      "outputs": [],
      "stateMutability": "nonpayable",
      "type": "function"
    },
    {
      "inputs": [
        {
          "internalType": "bytes32",
          "name": "role",
          "type": "bytes32"
        },
        {
          "internalType": "uint256",
          "name": "newRoleHat",
          "type": "uint256"
        }
      ],
      "name": "changeRoleHat",
      "outputs": [],
      "stateMutability": "nonpayable",
      "type": "function"
    },
    {
      "inputs": [
        {
          "internalType": "address",
          "name": "user",
          "type": "address"
        }
      ],
      "name": "checkStake",
      "outputs": [
        {
          "internalType": "uint256",
          "name": "",
          "type": "uint256"
        }
      ],
      "stateMutability": "view",
      "type": "function"
    },
    {
      "inputs": [],
      "name": "claimStake",
      "outputs": [],
      "stateMutability": "nonpayable",
      "type": "function"
    },
    {
      "inputs": [],
      "name": "cohortCounter",
      "outputs": [
        {
          "internalType": "uint256",
          "name": "",
          "type": "uint256"
        }
      ],
      "stateMutability": "view",
      "type": "function"
    },
    {
      "inputs": [],
      "name": "cohortName",
      "outputs": [
        {
          "internalType": "string",
          "name": "",
          "type": "string"
        }
      ],
      "stateMutability": "view",
      "type": "function"
    },
    {
      "inputs": [],
      "name": "cohortSeason",
      "outputs": [
        {
          "internalType": "uint256",
          "name": "",
          "type": "uint256"
        }
      ],
      "stateMutability": "view",
      "type": "function"
    },
    {
      "inputs": [],
      "name": "cohortSize",
      "outputs": [
        {
          "internalType": "uint256",
          "name": "",
          "type": "uint256"
        }
      ],
      "stateMutability": "view",
      "type": "function"
    },
    {
      "inputs": [
        {
          "internalType": "string",
          "name": "feedback",
          "type": "string"
        }
      ],
      "name": "cryForHelp",
      "outputs": [],
      "stateMutability": "nonpayable",
      "type": "function"
    },
    {
      "inputs": [
        {
          "internalType": "address",
          "name": "",
          "type": "address"
        }
      ],
      "name": "deadlines",
      "outputs": [
        {
          "internalType": "uint256",
          "name": "",
          "type": "uint256"
        }
      ],
      "stateMutability": "view",
      "type": "function"
    },
    {
      "inputs": [
        {
          "internalType": "uint256",
          "name": "_extension",
          "type": "uint256"
        }
      ],
      "name": "extendJoinTimeLimit",
      "outputs": [],
      "stateMutability": "nonpayable",
      "type": "function"
    },
    {
      "inputs": [
        {
          "internalType": "uint256",
          "name": "tokenId",
          "type": "uint256"
        }
      ],
      "name": "getApproved",
      "outputs": [
        {
          "internalType": "address",
          "name": "",
          "type": "address"
        }
      ],
      "stateMutability": "view",
      "type": "function"
    },
    {
      "inputs": [
        {
          "internalType": "address",
          "name": "user",
          "type": "address"
        }
      ],
      "name": "getDeadline",
      "outputs": [
        {
          "internalType": "uint256",
          "name": "",
          "type": "uint256"
        }
      ],
      "stateMutability": "view",
      "type": "function"
    },
    {
      "inputs": [
        {
          "internalType": "bytes32",
          "name": "role",
          "type": "bytes32"
        }
      ],
      "name": "getRoleAdmin",
      "outputs": [
        {
          "internalType": "bytes32",
          "name": "",
          "type": "bytes32"
        }
      ],
      "stateMutability": "view",
      "type": "function"
    },
    {
      "inputs": [
        {
          "internalType": "bytes32",
          "name": "role",
          "type": "bytes32"
        },
        {
          "internalType": "uint256",
          "name": "hat",
          "type": "uint256"
        }
      ],
      "name": "grantRole",
      "outputs": [],
      "stateMutability": "nonpayable",
      "type": "function"
    },
    {
      "inputs": [
        {
          "internalType": "bytes32",
          "name": "role",
          "type": "bytes32"
        },
        {
          "internalType": "address",
          "name": "account",
          "type": "address"
        }
      ],
      "name": "hasRole",
      "outputs": [
        {
          "internalType": "bool",
          "name": "",
          "type": "bool"
        }
      ],
      "stateMutability": "view",
      "type": "function"
    },
    {
      "inputs": [],
      "name": "hatsContract",
      "outputs": [
        {
          "internalType": "address",
          "name": "",
          "type": "address"
        }
      ],
      "stateMutability": "view",
      "type": "function"
    },
    {
      "inputs": [
        {
          "components": [
            {
              "internalType": "address",
              "name": "membershipCriteria",
              "type": "address"
            },
            {
              "internalType": "address",
              "name": "stakingAsset",
              "type": "address"
            },
            {
              "internalType": "address",
              "name": "treasury",
              "type": "address"
            },
            {
              "internalType": "address",
              "name": "admin1",
              "type": "address"
            },
            {
              "internalType": "address",
              "name": "admin2",
              "type": "address"
            },
            {
              "internalType": "uint256",
              "name": "cohortSize",
              "type": "uint256"
            },
            {
              "internalType": "uint256",
              "name": "joinDuration",
              "type": "uint256"
            },
            {
              "internalType": "uint256",
              "name": "threshold",
              "type": "uint256"
            },
            {
              "internalType": "uint256",
              "name": "assetAmount",
              "type": "uint256"
            },
            {
              "internalType": "uint256",
              "name": "stakeDuration",
              "type": "uint256"
            },
            {
              "internalType": "uint256",
              "name": "topHatId",
              "type": "uint256"
            },
            {
              "internalType": "string",
              "name": "cohortName",
              "type": "string"
            },
            {
              "internalType": "string",
              "name": "sbtName",
              "type": "string"
            },
            {
              "internalType": "string",
              "name": "sbtSymbol",
              "type": "string"
            },
            {
              "internalType": "string",
              "name": "baseUri",
              "type": "string"
            },
            {
              "internalType": "bool",
              "name": "shamanOn",
              "type": "bool"
            }
          ],
          "internalType": "struct IInitData.InitData",
          "name": "initData",
          "type": "tuple"
        },
        {
          "internalType": "address",
          "name": "hatsProtocol",
          "type": "address"
        },
        {
          "internalType": "address",
          "name": "caller_",
          "type": "address"
        }
      ],
      "name": "initialize",
      "outputs": [],
      "stateMutability": "nonpayable",
      "type": "function"
    },
    {
      "inputs": [
        {
          "internalType": "address",
          "name": "_deployer",
          "type": "address"
        },
        {
          "internalType": "address",
          "name": "_admin1",
          "type": "address"
        },
        {
          "internalType": "address",
          "name": "_admin2",
          "type": "address"
        }
      ],
      "name": "initializeHatTree",
      "outputs": [],
      "stateMutability": "nonpayable",
      "type": "function"
    },
    {
      "inputs": [
        {
          "internalType": "address",
          "name": "owner",
          "type": "address"
        },
        {
          "internalType": "address",
          "name": "operator",
          "type": "address"
        }
      ],
      "name": "isApprovedForAll",
      "outputs": [
        {
          "internalType": "bool",
          "name": "",
          "type": "bool"
        }
      ],
      "stateMutability": "view",
      "type": "function"
    },
    {
      "inputs": [
        {
          "internalType": "address",
          "name": "user",
          "type": "address"
        }
      ],
      "name": "isMember",
      "outputs": [
        {
          "internalType": "bool",
          "name": "",
          "type": "bool"
        }
      ],
      "stateMutability": "view",
      "type": "function"
    },
    {
      "inputs": [],
      "name": "joinDuration",
      "outputs": [
        {
          "internalType": "uint256",
          "name": "",
          "type": "uint256"
        }
      ],
      "stateMutability": "view",
      "type": "function"
    },
    {
      "inputs": [],
      "name": "joinEndTime",
      "outputs": [
        {
          "internalType": "uint256",
          "name": "",
          "type": "uint256"
        }
      ],
      "stateMutability": "view",
      "type": "function"
    },
    {
      "inputs": [
        {
          "internalType": "address",
          "name": "user",
          "type": "address"
        }
      ],
      "name": "joinInitiation",
      "outputs": [],
      "stateMutability": "nonpayable",
      "type": "function"
    },
    {
      "inputs": [],
      "name": "maximumTime",
      "outputs": [
        {
          "internalType": "uint256",
          "name": "",
          "type": "uint256"
        }
      ],
      "stateMutability": "view",
      "type": "function"
    },
    {
      "inputs": [],
      "name": "minimumShare",
      "outputs": [
        {
          "internalType": "uint256",
          "name": "",
          "type": "uint256"
        }
      ],
      "stateMutability": "view",
      "type": "function"
    },
    {
      "inputs": [],
      "name": "minimumStake",
      "outputs": [
        {
          "internalType": "uint256",
          "name": "",
          "type": "uint256"
        }
      ],
      "stateMutability": "view",
      "type": "function"
    },
    {
      "inputs": [
        {
          "internalType": "address",
          "name": "_to",
          "type": "address"
        }
      ],
      "name": "mintAdminHatProposal",
      "outputs": [],
      "stateMutability": "nonpayable",
      "type": "function"
    },
    {
      "inputs": [],
      "name": "name",
      "outputs": [
        {
          "internalType": "string",
          "name": "",
          "type": "string"
        }
      ],
      "stateMutability": "view",
      "type": "function"
    },
    {
      "inputs": [
        {
          "internalType": "uint256",
          "name": "tokenId",
          "type": "uint256"
        }
      ],
      "name": "ownerOf",
      "outputs": [
        {
          "internalType": "address",
          "name": "",
          "type": "address"
        }
      ],
      "stateMutability": "view",
      "type": "function"
    },
    {
      "inputs": [
        {
          "internalType": "bytes32",
          "name": "role",
          "type": "bytes32"
        },
        {
          "internalType": "uint256",
          "name": "hat",
          "type": "uint256"
        }
      ],
      "name": "revokeRole",
      "outputs": [],
      "stateMutability": "nonpayable",
      "type": "function"
    },
    {
      "inputs": [],
      "name": "sacrifice",
      "outputs": [],
      "stateMutability": "nonpayable",
      "type": "function"
    },
    {
      "inputs": [
        {
          "internalType": "address",
          "name": "from",
          "type": "address"
        },
        {
          "internalType": "address",
          "name": "to",
          "type": "address"
        },
        {
          "internalType": "uint256",
          "name": "tokenId",
          "type": "uint256"
        }
      ],
      "name": "safeTransferFrom",
      "outputs": [],
      "stateMutability": "nonpayable",
      "type": "function"
    },
    {
      "inputs": [
        {
          "internalType": "address",
          "name": "from",
          "type": "address"
        },
        {
          "internalType": "address",
          "name": "to",
          "type": "address"
        },
        {
          "internalType": "uint256",
          "name": "tokenId",
          "type": "uint256"
        },
        {
          "internalType": "bytes",
          "name": "data",
          "type": "bytes"
        }
      ],
      "name": "safeTransferFrom",
      "outputs": [],
      "stateMutability": "nonpayable",
      "type": "function"
    },
    {
      "inputs": [
        {
          "internalType": "address",
          "name": "operator",
          "type": "address"
        },
        {
          "internalType": "bool",
          "name": "approved",
          "type": "bool"
        }
      ],
      "name": "setApprovalForAll",
      "outputs": [],
      "stateMutability": "nonpayable",
      "type": "function"
    },
    {
      "inputs": [
        {
          "internalType": "uint256",
          "name": "newMaxTime",
          "type": "uint256"
        }
      ],
      "name": "setMaxDuration",
      "outputs": [],
      "stateMutability": "nonpayable",
      "type": "function"
    },
    {
      "inputs": [
        {
          "internalType": "uint256",
          "name": "newMinimumStake",
          "type": "uint256"
        }
      ],
      "name": "setMinimumStake",
      "outputs": [],
      "stateMutability": "nonpayable",
      "type": "function"
    },
    {
      "inputs": [
        {
          "internalType": "uint256",
          "name": "newShareThreshold",
          "type": "uint256"
        }
      ],
      "name": "setShareThreshold",
      "outputs": [],
      "stateMutability": "nonpayable",
      "type": "function"
    },
    {
      "inputs": [
        {
          "internalType": "address",
          "name": "_to",
          "type": "address"
        }
      ],
      "name": "singleMintBaalShares",
      "outputs": [],
      "stateMutability": "nonpayable",
      "type": "function"
    },
    {
      "inputs": [
        {
          "internalType": "address",
          "name": "_sacrificialLamb",
          "type": "address"
        }
      ],
      "name": "slaughter",
      "outputs": [],
      "stateMutability": "nonpayable",
      "type": "function"
    },
    {
      "inputs": [
        {
          "internalType": "bytes4",
          "name": "interfaceId",
          "type": "bytes4"
        }
      ],
      "name": "supportsInterface",
      "outputs": [
        {
          "internalType": "bool",
          "name": "",
          "type": "bool"
        }
      ],
      "stateMutability": "view",
      "type": "function"
    },
    {
      "inputs": [],
      "name": "symbol",
      "outputs": [
        {
          "internalType": "string",
          "name": "",
          "type": "string"
        }
      ],
      "stateMutability": "view",
      "type": "function"
    },
    {
      "inputs": [
        {
          "internalType": "uint256",
          "name": "tokenId",
          "type": "uint256"
        }
      ],
      "name": "tokenURI",
      "outputs": [
        {
          "internalType": "string",
          "name": "",
          "type": "string"
        }
      ],
      "stateMutability": "view",
      "type": "function"
    },
    {
      "inputs": [],
      "name": "topHat",
      "outputs": [
        {
          "internalType": "uint256",
          "name": "",
          "type": "uint256"
        }
      ],
      "stateMutability": "view",
      "type": "function"
    },
    {
      "inputs": [
        {
          "internalType": "address",
          "name": "_from",
          "type": "address"
        },
        {
          "internalType": "address",
          "name": "_to",
          "type": "address"
        }
      ],
      "name": "transferAdminHatProposal",
      "outputs": [],
      "stateMutability": "nonpayable",
      "type": "function"
    },
    {
      "inputs": [
        {
          "internalType": "address",
          "name": "from",
          "type": "address"
        },
        {
          "internalType": "address",
          "name": "to",
          "type": "address"
        },
        {
          "internalType": "uint256",
          "name": "tokenId",
          "type": "uint256"
        }
      ],
      "name": "transferFrom",
      "outputs": [],
      "stateMutability": "nonpayable",
      "type": "function"
    },
    {
      "inputs": [],
      "name": "treasury",
      "outputs": [
        {
          "internalType": "address",
          "name": "",
          "type": "address"
        }
      ],
      "stateMutability": "view",
      "type": "function"
    }
  ],
  "bytecode": {
    "object": "0x60806040523480156200001157600080fd5b506200001c62000022565b620000e3565b600054610100900460ff16156200008f5760405162461bcd60e51b815260206004820152602760248201527f496e697469616c697a61626c653a20636f6e747261637420697320696e697469604482015266616c697a696e6760c81b606482015260840160405180910390fd5b60005460ff90811614620000e1576000805460ff191660ff9081179091556040519081527f7f26b83ff96e1f2b6a682f133852f6798a09c465da95921460cefb38474024989060200160405180910390a15b565b61449380620000f36000396000f3fe608060405234801561001057600080fd5b50600436106103835760003560e01c806397e39fef116101de578063c6db81291161010f578063e5d05722116100ad578063f3450f001161007c578063f3450f00146107a1578063f68659bd146107b4578063f9bb68fc146107bd578063fc4c0958146107c657600080fd5b8063e5d0572214610734578063e985e9c514610754578063eb32117314610790578063ec5ffac21461079857600080fd5b8063c87b56dd116100e9578063c87b56dd146106e8578063cf0f34c4146106fb578063cfdb44d61461070e578063e5a2a2a51461072157600080fd5b8063c6db8129146106b9578063c733d5e9146106c2578063c81f83a2146106d557600080fd5b8063aee4c96f1161017c578063b8c4536111610156578063b8c4536114610677578063b8ebdcd91461068a578063bc5fa8df1461069d578063c2d14f02146106b057600080fd5b8063aee4c96f14610648578063b5436cec14610651578063b88d4fde1461066457600080fd5b8063a22cb465116101b8578063a22cb465146105fc578063a230c5241461060f578063a3919d1f14610622578063a3beab6a1461063557600080fd5b806397e39fef146105ba578063a217fddf146105cb578063a2213262146105d357600080fd5b80632a4a1342116102b857806370a08231116102565780638a040df4116102305780638a040df41461056e57806390d96d761461057657806391d148541461059f57806395d89b41146105b257600080fd5b806370a08231146105405780637150ef881461055357806373f78fd01461056657600080fd5b806342842e0e1161029257806342842e0e146104f45780634558e83d1461050757806361d027b31461051a5780636352211e1461052d57600080fd5b80632a4a1342146104cf5780632e152618146104e257806335439bb3146104eb57600080fd5b806319d61ad911610325578063233e9903116102ff578063233e99031461047157806323b872dd14610484578063248a9ca3146104975780632a0acc6a146104ba57600080fd5b806319d61ad9146104425780631b6ea9f914610455578063232b04321461046857600080fd5b8063095ea7b311610361578063095ea7b3146103f05780630c538f2f146104055780631719f9a314610418578063172bf8541461042b57600080fd5b806301ffc9a71461038857806306fdde03146103b0578063081812fc146103c5575b600080fd5b61039b6103963660046136b9565b6107d9565b60405190151581526020015b60405180910390f35b6103b86107ea565b6040516103a79190613726565b6103d86103d3366004613739565b61087c565b6040516001600160a01b0390911681526020016103a7565b6104036103fe36600461376e565b6108a3565b005b610403610413366004613798565b6109bd565b61040361042636600461380a565b610a62565b61043460a55481565b6040519081526020016103a7565b61040361045036600461383d565b610b41565b61040361046336600461383d565b610b66565b61043460ad5481565b61040361047f366004613739565b610b8b565b61040361049236600461385f565b610bb0565b6104346104a5366004613739565b60009081526098602052604090206001015490565b6104346000805160206143ac83398151915281565b6104036104dd366004613739565b610be1565b61043460a75481565b61043460a65481565b61040361050236600461385f565b610c0e565b610403610515366004613739565b610c29565b60aa546103d8906001600160a01b031681565b6103d861053b366004613739565b610c47565b61043461054e36600461389b565b610ca7565b60ab546103d8906001600160a01b031681565b6103b8610d2d565b610403610dbb565b61043461058436600461389b565b6001600160a01b031660009081526099602052604090205490565b61039b6105ad3660046138b6565b610dde565b6103b8610e6a565b6097546001600160a01b03166103d8565b610434600081565b6104346105e136600461389b565b6001600160a01b03166000908152609a602052604090205490565b61040361060a3660046138e7565b610e79565b61039b61061d36600461389b565b610e84565b61040361063036600461389b565b610f02565b61040361064336600461389b565b61100c565b61043460a45481565b61040361065f36600461383d565b611135565b610403610672366004613934565b61115a565b61040361068536600461389b565b61118c565b610403610698366004613739565b6111a0565b6104036106ab366004613739565b6111be565b61043460ac5481565b61043460a35481565b6104036106d036600461389b565b6111df565b6104036106e3366004613a10565b611318565b6103b86106f6366004613739565b611423565b610403610709366004613739565b611489565b61040361071c366004613a73565b6114aa565b609d546103d8906001600160a01b031681565b61043461074236600461389b565b609a6020526000908152604090205481565b61039b61076236600461380a565b6001600160a01b039182166000908152606a6020908152604080832093909416825291909152205460ff1690565b610403611bb5565b61043460a85481565b6104036107af366004613ad7565b611c03565b61043460a25481565b61043460a95481565b6104036107d436600461389b565b611f55565b60006107e482611f90565b92915050565b6060606580546107f990613af5565b80601f016020809104026020016040519081016040528092919081815260200182805461082590613af5565b80156108725780601f1061084757610100808354040283529160200191610872565b820191906000526020600020905b81548152906001019060200180831161085557829003601f168201915b5050505050905090565b600061088782611fe0565b506000908152606960205260409020546001600160a01b031690565b60006108ae82610c47565b9050806001600160a01b0316836001600160a01b0316036109205760405162461bcd60e51b815260206004820152602160248201527f4552433732313a20617070726f76616c20746f2063757272656e74206f776e656044820152603960f91b60648201526084015b60405180910390fd5b336001600160a01b038216148061093c575061093c8133610762565b6109ae5760405162461bcd60e51b815260206004820152603d60248201527f4552433732313a20617070726f76652063616c6c6572206973206e6f7420746f60448201527f6b656e206f776e6572206f7220617070726f76656420666f7220616c6c0000006064820152608401610917565b6109b8838361203f565b505050565b6109c633610ca7565b600114610a155760405162461bcd60e51b815260206004820152601960248201527f4f6e6c7920636f686f7274207061727469636970616e747321000000000000006044820152606401610917565b60aa546040517f7ad32bfb950c825d7d252f51537ad223c191a793ae9109cffc3bbd287485f6df91610a569133916001600160a01b03169086908690613b2f565b60405180910390a15050565b6060610a7160ad5484846120ad565b60408051600180825281830190925291925060009190816020015b6060815260200190600190039081610a8c5790505090508181600081518110610ab757610ab7613b7b565b6020908102919091010152604080516001808252818301909252600091816020016020820280368337505060ab5482519293506001600160a01b031691839150600090610b0657610b06613b7b565b60200260200101906001600160a01b031690816001600160a01b031681525050610b3a610b338383612107565b60046121e8565b5050505050565b600082815260986020526040902060010154610b5c816123d4565b6109b883836123de565b600082815260986020526040902060010154610b81816123d4565b6109b88383612434565b6000805160206143ac833981519152610ba3816123d4565b610bac826124b4565b5050565b610bba3382612551565b610bd65760405162461bcd60e51b815260040161091790613b91565b6109b88383836125d0565b6000805160206143ac833981519152610bf9816123d4565b8160a654610c079190613bf4565b60a6555050565b6109b88383836040518060200160405280600081525061115a565b6000805160206143ac833981519152610c41816123d4565b5060a555565b6000818152606760205260408120546001600160a01b0316806107e45760405162461bcd60e51b8152602060048201526018602482015277115490cdcc8c4e881a5b9d985b1a59081d1bdad95b88125160421b6044820152606401610917565b60006001600160a01b038216610d115760405162461bcd60e51b815260206004820152602960248201527f4552433732313a2061646472657373207a65726f206973206e6f7420612076616044820152683634b21037bbb732b960b91b6064820152608401610917565b506001600160a01b031660009081526068602052604090205490565b60a18054610d3a90613af5565b80601f0160208091040260200160405190810160405280929190818152602001828054610d6690613af5565b8015610db35780601f10610d8857610100808354040283529160200191610db3565b820191906000526020600020905b815481529060010190602001808311610d9657829003601f168201915b505050505081565b6000805160206143ac833981519152610dd3816123d4565b610ddb612741565b50565b6097546000838152609860205260408082205490516321a9204d60e11b81526001600160a01b038581166004830152602482019290925291921690634352409a90604401602060405180830381865afa158015610e3f573d6000803e3d6000fd5b505050506040513d601f19601f82011682018060405250810190610e639190613c07565b9392505050565b6060606680546107f990613af5565b610bac33838361299c565b609e546040516370a0823160e01b81526001600160a01b03838116600483015260009283929116906370a0823190602401602060405180830381865afa158015610ed2573d6000803e3d6000fd5b505050506040513d601f19601f82011682018060405250810190610ef69190613c24565b60a75411159392505050565b6000805160206143ac833981519152610f1a816123d4565b60408051600180825281830190925260009160208083019080368337505060408051600180825281830190925292935060009291506020808301908036833701905050905060a75482600081518110610f7557610f75613b7b565b6020026020010181815250508381600081518110610f9557610f95613b7b565b6001600160a01b039283166020918202929092010152609d54604051632c78fd0360e21b815291169063b1e3f40c90610fd49084908690600401613c78565b600060405180830381600087803b158015610fee57600080fd5b505af1158015611002573d6000803e3d6000fd5b5050505050505050565b606061106660ad5483604051602481018390526001600160a01b038216604482015260609060640160408051601f198184030181529190526020810180516001600160e01b031663320fbbb760e11b179052905092915050565b60408051600180825281830190925291925060009190816020015b606081526020019060019003908161108157905050905081816000815181106110ac576110ac613b7b565b6020908102919091010152604080516001808252818301909252600091816020016020820280368337505060ab5482519293506001600160a01b0316918391506000906110fb576110fb613b7b565b60200260200101906001600160a01b031690816001600160a01b03168152505061112f6111288383612107565b60036121e8565b50505050565b600082815260986020526040902060010154611150816123d4565b6109b88383612a6a565b6111643383612551565b6111805760405162461bcd60e51b815260040161091790613b91565b61112f84848484612ad3565b6000611197816123d4565b610bac82612b06565b6000805160206143ac8339815191526111b8816123d4565b5060a355565b6000805160206143ac8339815191526111d6816123d4565b610bac82612b58565b60a6544211156112315760405162461bcd60e51b815260206004820152601960248201527f5468697320636f686f7274206973206e6f7720636c6f736564000000000000006044820152606401610917565b60a354609c5411156112855760405162461bcd60e51b815260206004820152601b60248201527f5468697320636f686f727420697320616c72656164792066756c6c00000000006044820152606401610917565b61128e81612bef565b6112cc5760405162461bcd60e51b815260206004820152600f60248201526e5374616b696e67206661696c65642160881b6044820152606401610917565b60a480549060006112dc83613cd8565b909155505060a2546000908152609b6020908152604080832060a4548452909152902080546001600160a01b03191633179055610ddb81612d03565b6000805160206143ac833981519152611330816123d4565b8160008167ffffffffffffffff81111561134c5761134c61391e565b604051908082528060200260200182016040528015611375578160200160208202803683370190505b50905060005b828110156113b55760a75482828151811061139857611398613b7b565b6020908102919091010152806113ad81613cd8565b91505061137b565b50609d54604051632c78fd0360e21b81526001600160a01b039091169063b1e3f40c906113ea90889088908690600401613cf1565b600060405180830381600087803b15801561140457600080fd5b505af1158015611418573d6000803e3d6000fd5b505050505050505050565b606061142e82611fe0565b6000611438612d95565b905060008151116114585760405180602001604052806000815250610e63565b8061146284612da4565b604051602001611473929190613d50565b6040516020818303038152906040529392505050565b6000805160206143ac8339815191526114a1816123d4565b610bac82612e37565b600054610100900460ff16158080156114ca5750600054600160ff909116105b806114e45750303b1580156114e4575060005460ff166001145b6115475760405162461bcd60e51b815260206004820152602e60248201527f496e697469616c697a61626c653a20636f6e747261637420697320616c72656160448201526d191e481a5b9a5d1a585b1a5e995960921b6064820152608401610917565b6000805460ff19166001179055801561156a576000805461ff0019166101001790555b611578609c80546001019055565b600160a25561158b610160850185613d7f565b60a191611599919083613e1b565b5060a084013560a35560c084013560a58190556115b69042613bf4565b60a6556116476115ca610180860186613d7f565b8080601f01602080910402602001604051908101604052809392919081815260200183838082843760009201919091525061160d925050506101a0870187613d7f565b8080601f016020809104026020016040519081016040528093929190818152602001838380828437600092019190915250612ecd92505050565b611654602085018561389b565b609d80546001600160a01b0319166001600160a01b0392909216919091179055611684604085016020860161389b565b609e80546001600160a01b0319166001600160a01b03929092169190911790556116b4606085016040860161389b565b60aa80546001600160a01b0319166001600160a01b03929092169190911790556116e4604085016020860161389b565b609f80546001600160a01b0319166001600160a01b03929092169190911790556117126101008501356124b4565b61171f8460e00135612b58565b61172d846101200135612e37565b61174361173e6101c0860186613d7f565b612efe565b60ab80546001600160a01b0319166001600160a01b03851617905561176783612b06565b61177961020085016101e08601613edb565b1561185857606061178b306002612f0b565b60408051600180825281830190925291925060009190816020015b60608152602001906001900390816117a657905050905081816000815181106117d1576117d1613b7b565b60209081029190910101526040805160018082528183019092526000918160200160208202803683375050609d5482519293506001600160a01b03169183915060009061182057611820613b7b565b60200260200101906001600160a01b031690816001600160a01b03168152505061185461184d8383612107565b60016121e8565b5050505b60ab5460aa546040516321a9204d60e11b81526001600160a01b0391821660048201526101408701356024820152911690634352409a90604401602060405180830381865afa1580156118af573d6000803e3d6000fd5b505050506040513d601f19601f820116820180604052508101906118d39190613c07565b15611aa65761014084013560ac81905560aa5460609182916118ff91906001600160a01b0316306120ad565b915061197f846119156080890160608a0161389b565b61192560a08a0160808b0161389b565b6040516001600160a01b03808516602483015280841660448301528216606482015260609060840160408051601f198184030181529190526020810180516001600160e01b031662f3450f60e81b17905290509392505050565b6040805160028082526060820190925291925060009190816020015b606081526020019060019003908161199b57905050905082816000815181106119c6576119c6613b7b565b602002602001018190525081816001815181106119e5576119e5613b7b565b602090810291909101015260408051600280825260608201909252600091816020016020820280368337505060ab5482519293506001600160a01b031691839150600090611a3557611a35613b7b565b60200260200101906001600160a01b031690816001600160a01b0316815250503081600181518110611a6957611a69613b7b565b60200260200101906001600160a01b031690816001600160a01b031681525050611a9d611a968383612107565b60026121e8565b50505050611b6a565b60ab54604051631a64dfad60e01b815230600482015260606024820152600a6064820152691493d348151bdc12185d60b21b608482015260a06044820152600060a48201526001600160a01b0390911690631a64dfad9060c4016020604051808303816000875af1158015611b1f573d6000803e3d6000fd5b505050506040513d601f19601f82011682018060405250810190611b439190613c24565b60ac55611b6a82611b5a608087016060880161389b565b6107af60a088016080890161389b565b801561112f576000805461ff0019169055604051600181527f7f26b83ff96e1f2b6a682f133852f6798a09c465da95921460cefb38474024989060200160405180910390a150505050565b611bbd612fe9565b611bc56130a2565b611c015760405162461bcd60e51b815260206004820152600d60248201526c436c61696d206661696c65642160981b6044820152606401610917565b565b60ae5460ff1615611c565760405162461bcd60e51b815260206004820152601860248201527f4861747320616c726561647920696e697469616c697a656400000000000000006044820152606401610917565b60ae805460ff1916600190811790915560ab5460ac54609d54604051635829492f60e11b8152600481019290925260e06024830152600960e4830152682927a69020b236b4b760b91b610104830152600360448301526001600160a01b0390811660648301819052608483015260a482019390935261012060c4820152600061012482015291169063b052925e90610144016020604051808303816000875af1158015611d07573d6000803e3d6000fd5b505050506040513d601f19601f82011682018060405250810190611d2b9190613c24565b60ad819055611d49906000805160206143ac83398151915290612434565b60ab5460ad5460405163320fbbb760e11b815260048101919091526001600160a01b0385811660248301529091169063641f776e906044016020604051808303816000875af1158015611da0573d6000803e3d6000fd5b505050506040513d601f19601f82011682018060405250810190611dc49190613c07565b506001600160a01b03821615611e515760ab5460ad5460405163320fbbb760e11b815260048101919091526001600160a01b0384811660248301529091169063641f776e906044016020604051808303816000875af1158015611e2b573d6000803e3d6000fd5b505050506040513d601f19601f82011682018060405250810190611e4f9190613c07565b505b6001600160a01b03811615611edd5760ab5460ad5460405163320fbbb760e11b815260048101919091526001600160a01b0383811660248301529091169063641f776e906044016020604051808303816000875af1158015611eb7573d6000803e3d6000fd5b505050506040513d601f19601f82011682018060405250810190611edb9190613c07565b505b60ab5460ac5460aa546040516329287c1b60e21b815260048101929092523060248301526001600160a01b0390811660448301529091169063a4a1f06c90606401600060405180830381600087803b158015611f3857600080fd5b505af1158015611f4c573d6000803e3d6000fd5b50505050505050565b6000805160206143ac833981519152611f6d816123d4565b611f76826131d9565b5060a48054906000611f8783613ef8565b91905055505050565b60006001600160e01b031982166380ac58cd60e01b1480611fc157506001600160e01b03198216635b5e139f60e01b145b806107e457506301ffc9a760e01b6001600160e01b03198316146107e4565b6000818152606760205260409020546001600160a01b0316610ddb5760405162461bcd60e51b8152602060048201526018602482015277115490cdcc8c4e881a5b9d985b1a59081d1bdad95b88125160421b6044820152606401610917565b600081815260696020526040902080546001600160a01b0319166001600160a01b038416908117909155819061207482610c47565b6001600160a01b03167f8c5be1e5ebec7d5bd14f71427d1e84f3dd0314c0f7b2291e5b200ac8c7c3b92560405160405180910390a45050565b604051602481018490526001600160a01b0380841660448301528216606482015260609060840160408051601f198184030181529190526020810180516001600160e01b03166329287c1b60e21b17905290509392505050565b60608060005b84518110156121a35781600085838151811061212b5761212b613b7b565b6020026020010151600088858151811061214757612147613b7b565b60200260200101515189868151811061216257612162613b7b565b602002602001015160405160200161217f96959493929190613f0f565b6040516020818303038152906040529150808061219b90613cd8565b91505061210d565b50806040516024016121b59190613726565b60408051601f198184030181529190526020810180516001600160e01b03166346c07f8560e11b17905291505092915050565b609d5460408051639a2f747f60e01b815290516000926001600160a01b031691639a2f747f916004808301926020929190829003018187875af1158015612233573d6000803e3d6000fd5b505050506040513d601f19601f820116820180604052508101906122579190613c24565b905080341461229a5760405162461bcd60e51b815260206004820152600f60248201526e4d697373696e67207472696275746560881b6044820152606401610917565b6060826001036122c4576040518060c00160405280609c8152602001614221609c91399050612358565b826002036122ec576040518060c00160405280609281526020016143cc609291399050612358565b82600303612314576040518060a00160405280607e81526020016141a3607e91399050612358565b8260040361233c576040518060c00160405280608a8152602001614322608a91399050612358565b6040518060a00160405280606581526020016142bd6065913990505b609d546040516307505ff960e31b81526001600160a01b0390911690633a82ffc890849061239190889060009081908890600401613f79565b60206040518083038185885af11580156123af573d6000803e3d6000fd5b50505050506040513d601f19601f82011682018060405250810190610b3a9190613c24565b610ddb8133613249565b600082815260986020526040902054819003610bac57600082815260986020526040808220829055513391839185917f641261709a27417e18d0ccc3db95ddc812d61be919b2a5a3af21a5870590922a91a45050565b600082815260986020526040902054801561246c5760405163aab0817760e01b81526004810184905260248101829052604401610917565b8181146109b857600083815260986020526040808220849055513391849186917f7c2a2c4bb5a44dafa473fc49e557303dba6db62123713789deefe8ccb384654991a4505050565b600081116125155760405162461bcd60e51b815260206004820152602860248201527f4d696e696d756d207374616b65206d7573742062652067726561746572207468604482015267616e207a65726f2160c01b6064820152608401610917565b60a88190556040518181527fb4b5fad09421a48c68e8513475c3adbf47ed48a5eefe543d4fec52c82db47469906020015b60405180910390a150565b60008061255d83610c47565b9050806001600160a01b0316846001600160a01b031614806125a457506001600160a01b038082166000908152606a602090815260408083209388168352929052205460ff165b806125c85750836001600160a01b03166125bd8461087c565b6001600160a01b0316145b949350505050565b826001600160a01b03166125e382610c47565b6001600160a01b0316146126095760405162461bcd60e51b815260040161091790613fb0565b6001600160a01b03821661266b5760405162461bcd60e51b8152602060048201526024808201527f4552433732313a207472616e7366657220746f20746865207a65726f206164646044820152637265737360e01b6064820152608401610917565b612678838383600161329a565b826001600160a01b031661268b82610c47565b6001600160a01b0316146126b15760405162461bcd60e51b815260040161091790613fb0565b600081815260696020908152604080832080546001600160a01b03199081169091556001600160a01b0387811680865260688552838620805460001901905590871680865283862080546001019055868652606790945282852080549092168417909155905184937fddf252ad1be2c89b69c2b068fc378daa952ba7f163c4a11628f55a4df523b3ef91a4505050565b60a254600090819081612755826001613bf4565b905060015b60a45481116128b2576000838152609b602090815260408083208484528252808320546001600160a01b031680845260999092529091205460019015612875576001600160a01b0382166000908152609a60205260409020544211156127fb576127c3826131d9565b6127cd9088613bf4565b6000868152609b60209081526040808320878452909152902080546001600160a01b0319169055965061289d565b6000848152609b60209081526040808320848452909152902080546001600160a01b0319166001600160a01b0384161790558061283781613cd8565b915050858061284590613cd8565b6000878152609b60209081526040808320888452909152902080546001600160a01b0319169055965061289d9050565b6000858152609b60209081526040808320868452909152902080546001600160a01b03191690555b505080806128aa90613cd8565b91505061275a565b50609f5460aa5460405163a9059cbb60e01b81526001600160a01b0391821660048201526024810187905291169063a9059cbb906044016020604051808303816000875af1158015612908573d6000803e3d6000fd5b505050506040513d601f19601f8201168201806040525081019061292c9190613c07565b61296c5760405162461bcd60e51b81526020600482015260116024820152704661696c6564205361637269666963652160781b6044820152606401610917565b60a483905560a55461297e9042613bf4565b60a65560a2805490600061299183613cd8565b919050555050505050565b816001600160a01b0316836001600160a01b0316036129fd5760405162461bcd60e51b815260206004820152601960248201527f4552433732313a20617070726f766520746f2063616c6c6572000000000000006044820152606401610917565b6001600160a01b038381166000818152606a6020908152604080832094871680845294825291829020805460ff191686151590811790915591519182527f17307eab39ab6107e8899845ad3d59bd9653f200f220920489ca2b5937696c31910160405180910390a3505050565b60008281526098602052604081205490819003612a8b57612a8b8383612434565b8181146109b857600083815260986020526040808220849055518391839186917fc3d694cb68f99c4c204d7aedbaba300907c24102aeeeecd32de2c9910609f30a91a4505050565b612ade8484846125d0565b612aea848484846132f1565b61112f5760405162461bcd60e51b815260040161091790613ff5565b609780546001600160a01b038381166001600160a01b0319831681179093556040519116919082907fe2c5fed45442eae2ee9c94b63f1e24155d9bfe92ecd80e48c35ebf292767573790600090a35050565b60008111612bba5760405162461bcd60e51b815260206004820152602960248201527f4d696e696d756d20736861726573206d7573742062652067726561746572207460448201526868616e207a65726f2160b81b6064820152608401610917565b60a78190556040518181527f7155dd2d80b479664a5c9bf2c04a1b00c07aad515f3c089a20ce1ebff2c6ecdd90602001612546565b6000612bfa82610ca7565b15612c475760405162461bcd60e51b815260206004820152601e60248201527f416c7265616479206a6f696e65642074686520696e6974696174696f6e2100006044820152606401610917565b60a8546001600160a01b03831660009081526099602052604090205560a954612c709042613bf4565b6001600160a01b038381166000908152609a60205260409081902092909255609f5460a85492516323b872dd60e01b8152336004820152306024820152604481019390935216906323b872dd906064016020604051808303816000875af1158015612cdf573d6000803e3d6000fd5b505050506040513d601f19601f820116820180604052508101906107e49190613c07565b6000612d0e609c5490565b9050612d1e609c80546001019055565b612d2882826133f2565b60a8546001600160a01b0383166000818152609a60209081526040918290205482519384523391840191909152908201849052606082019290925260808101919091527f9da9a86fb849b37cb0098539441b747ca3c0c5a367f5eaef701e6877e4b124d79060a001610a56565b606060a080546107f990613af5565b60606000612db18361358b565b600101905060008167ffffffffffffffff811115612dd157612dd161391e565b6040519080825280601f01601f191660200182016040528015612dfb576020820181803683370190505b5090508181016020015b600019016f181899199a1a9b1b9c1cb0b131b232b360811b600a86061a8153600a8504945084612e0557509392505050565b60008111612e985760405162461bcd60e51b815260206004820152602860248201527f4d696e696d756d206475726174696f6e206d7573742062652067726561746572604482015267207468616e20302160c01b6064820152608401610917565b60a98190556040518181527f856717cb327b027e506a205b6a989525427e169d7b6acb09ad84d849dea2b93f90602001612546565b600054610100900460ff16612ef45760405162461bcd60e51b815260040161091790614047565b610bac8282613663565b60a06109b8828483613e1b565b60408051600180825281830190925260609160009190602080830190803683370190505090508381600081518110612f4557612f45613b7b565b6001600160a01b0392909216602092830291909101909101526040805160018082528183019092526000918160200160208202803683370190505090508381600081518110612f9657612f96613b7b565b6020026020010181815250508181604051602401612fb5929190613c78565b60408051601f198184030181529190526020810180516001600160e01b0316630f656a2160e01b1790529250505092915050565b609e546040516370a0823160e01b81523360048201526000916001600160a01b0316906370a0823190602401602060405180830381865afa158015613032573d6000803e3d6000fd5b505050506040513d601f19601f820116820180604052508101906130569190613c24565b905060a754811015610ddb5760405162461bcd60e51b8152602060048201526015602482015274596f75206d7573742062652061206d656d6265722160581b6044820152606401610917565b336000818152609960205260408120549091906130f75760405162461bcd60e51b81526020600482015260136024820152725573657220686173206e6f207374616b65212160681b6044820152606401610917565b6001600160a01b0381166000818152609960209081526040808320805490849055609a835281842093909355805193845290830182905290917f47cee97cb7acd717b3c0aa1435d004cd5b3c8c57d70dbceb4e4458bbd60e39d4910160405180910390a1609f5460405163a9059cbb60e01b81526001600160a01b038481166004830152602482018490529091169063a9059cbb906044016020604051808303816000875af11580156131ae573d6000803e3d6000fd5b505050506040513d601f19601f820116820180604052508101906131d29190613c07565b9250505090565b6001600160a01b0381166000818152609960209081526040808320805490849055609a83528184208490558151948552918401829052339084015290917f1b4365d94ccfc86d7cd3eef46bf15cd821f8abb29721248eca1d751eebb669009060600160405180910390a192915050565b6132538282610dde565b610bac5760008281526098602052604090819020549051631612509360e01b81526004810184905260248101919091526001600160a01b0382166044820152606401610917565b6001600160a01b0384161561112f5760405162461bcd60e51b815260206004820152601960248201527f5342542063616e6e6f74206265207472616e73666572726564000000000000006044820152606401610917565b60006001600160a01b0384163b156133e757604051630a85bd0160e11b81526001600160a01b0385169063150b7a0290613335903390899088908890600401614092565b6020604051808303816000875af1925050508015613370575060408051601f3d908101601f1916820190925261336d918101906140c5565b60015b6133cd573d80801561339e576040519150601f19603f3d011682016040523d82523d6000602084013e6133a3565b606091505b5080516000036133c55760405162461bcd60e51b815260040161091790613ff5565b805181602001fd5b6001600160e01b031916630a85bd0160e11b1490506125c8565b506001949350505050565b6001600160a01b0382166134485760405162461bcd60e51b815260206004820181905260248201527f4552433732313a206d696e7420746f20746865207a65726f20616464726573736044820152606401610917565b6000818152606760205260409020546001600160a01b0316156134ad5760405162461bcd60e51b815260206004820152601c60248201527f4552433732313a20746f6b656e20616c7265616479206d696e746564000000006044820152606401610917565b6134bb60008383600161329a565b6000818152606760205260409020546001600160a01b0316156135205760405162461bcd60e51b815260206004820152601c60248201527f4552433732313a20746f6b656e20616c7265616479206d696e746564000000006044820152606401610917565b6001600160a01b038216600081815260686020908152604080832080546001019055848352606790915280822080546001600160a01b0319168417905551839291907fddf252ad1be2c89b69c2b068fc378daa952ba7f163c4a11628f55a4df523b3ef908290a45050565b60008072184f03e93ff9f4daa797ed6e38ed64bf6a1f0160401b83106135ca5772184f03e93ff9f4daa797ed6e38ed64bf6a1f0160401b830492506040015b6d04ee2d6d415b85acef810000000083106135f6576d04ee2d6d415b85acef8100000000830492506020015b662386f26fc10000831061361457662386f26fc10000830492506010015b6305f5e100831061362c576305f5e100830492506008015b612710831061364057612710830492506004015b60648310613652576064830492506002015b600a83106107e45760010192915050565b600054610100900460ff1661368a5760405162461bcd60e51b815260040161091790614047565b606561369683826140e2565b5060666109b882826140e2565b6001600160e01b031981168114610ddb57600080fd5b6000602082840312156136cb57600080fd5b8135610e63816136a3565b60005b838110156136f15781810151838201526020016136d9565b50506000910152565b600081518084526137128160208601602086016136d6565b601f01601f19169290920160200192915050565b602081526000610e6360208301846136fa565b60006020828403121561374b57600080fd5b5035919050565b80356001600160a01b038116811461376957600080fd5b919050565b6000806040838503121561378157600080fd5b61378a83613752565b946020939093013593505050565b600080602083850312156137ab57600080fd5b823567ffffffffffffffff808211156137c357600080fd5b818501915085601f8301126137d757600080fd5b8135818111156137e657600080fd5b8660208285010111156137f857600080fd5b60209290920196919550909350505050565b6000806040838503121561381d57600080fd5b61382683613752565b915061383460208401613752565b90509250929050565b6000806040838503121561385057600080fd5b50508035926020909101359150565b60008060006060848603121561387457600080fd5b61387d84613752565b925061388b60208501613752565b9150604084013590509250925092565b6000602082840312156138ad57600080fd5b610e6382613752565b600080604083850312156138c957600080fd5b8235915061383460208401613752565b8015158114610ddb57600080fd5b600080604083850312156138fa57600080fd5b61390383613752565b91506020830135613913816138d9565b809150509250929050565b634e487b7160e01b600052604160045260246000fd5b6000806000806080858703121561394a57600080fd5b61395385613752565b935061396160208601613752565b925060408501359150606085013567ffffffffffffffff8082111561398557600080fd5b818701915087601f83011261399957600080fd5b8135818111156139ab576139ab61391e565b604051601f8201601f19908116603f011681019083821181831017156139d3576139d361391e565b816040528281528a60208487010111156139ec57600080fd5b82602086016020830137600060208483010152809550505050505092959194509250565b60008060208385031215613a2357600080fd5b823567ffffffffffffffff80821115613a3b57600080fd5b818501915085601f830112613a4f57600080fd5b813581811115613a5e57600080fd5b8660208260051b85010111156137f857600080fd5b600080600060608486031215613a8857600080fd5b833567ffffffffffffffff811115613a9f57600080fd5b84016102008187031215613ab257600080fd5b9250613ac060208501613752565b9150613ace60408501613752565b90509250925092565b600080600060608486031215613aec57600080fd5b613ab284613752565b600181811c90821680613b0957607f821691505b602082108103613b2957634e487b7160e01b600052602260045260246000fd5b50919050565b6001600160a01b0385811682528416602082015260606040820181905281018290526000828460808401376000608084840101526080601f19601f850116830101905095945050505050565b634e487b7160e01b600052603260045260246000fd5b6020808252602d908201527f4552433732313a2063616c6c6572206973206e6f7420746f6b656e206f776e6560408201526c1c881bdc88185c1c1c9bdd9959609a1b606082015260800190565b634e487b7160e01b600052601160045260246000fd5b808201808211156107e4576107e4613bde565b600060208284031215613c1957600080fd5b8151610e63816138d9565b600060208284031215613c3657600080fd5b5051919050565b600081518084526020808501945080840160005b83811015613c6d57815187529582019590820190600101613c51565b509495945050505050565b604080825283519082018190526000906020906060840190828701845b82811015613cba5781516001600160a01b031684529284019290840190600101613c95565b50505083810382850152613cce8186613c3d565b9695505050505050565b600060018201613cea57613cea613bde565b5060010190565b6040808252810183905260008460608301825b86811015613d32576001600160a01b03613d1d84613752565b16825260209283019290910190600101613d04565b508381036020850152613d458186613c3d565b979650505050505050565b60008351613d628184602088016136d6565b835190830190613d768183602088016136d6565b01949350505050565b6000808335601e19843603018112613d9657600080fd5b83018035915067ffffffffffffffff821115613db157600080fd5b602001915036819003821315613dc657600080fd5b9250929050565b601f8211156109b857600081815260208120601f850160051c81016020861015613df45750805b601f850160051c820191505b81811015613e1357828155600101613e00565b505050505050565b67ffffffffffffffff831115613e3357613e3361391e565b613e4783613e418354613af5565b83613dcd565b6000601f841160018114613e7b5760008515613e635750838201355b600019600387901b1c1916600186901b178355610b3a565b600083815260209020601f19861690835b82811015613eac5786850135825560209485019460019092019101613e8c565b5086821015613ec95760001960f88860031b161c19848701351681555b505060018560011b0183555050505050565b600060208284031215613eed57600080fd5b8135610e63816138d9565b600081613f0757613f07613bde565b506000190190565b60008751613f21818460208c016136d6565b808301905060ff60f81b8860f81b1681526bffffffffffffffffffffffff198760601b1660018201528560158201528460358201528351613f698160558401602088016136d6565b0160550198975050505050505050565b608081526000613f8c60808301876136fa565b63ffffffff861660208401528460408401528281036060840152613d4581856136fa565b60208082526025908201527f4552433732313a207472616e736665722066726f6d20696e636f72726563742060408201526437bbb732b960d91b606082015260800190565b60208082526032908201527f4552433732313a207472616e7366657220746f206e6f6e20455243373231526560408201527131b2b4bb32b91034b6b83632b6b2b73a32b960711b606082015260800190565b6020808252602b908201527f496e697469616c697a61626c653a20636f6e7472616374206973206e6f74206960408201526a6e697469616c697a696e6760a81b606082015260800190565b6001600160a01b0385811682528416602082015260408101839052608060608201819052600090613cce908301846136fa565b6000602082840312156140d757600080fd5b8151610e63816136a3565b815167ffffffffffffffff8111156140fc576140fc61391e565b6141108161410a8454613af5565b84613dcd565b602080601f831160018114614145576000841561412d5750858301515b600019600386901b1c1916600185901b178555613e13565b600085815260208120601f198616915b8281101561417457888601518255948401946001909101908401614155565b50858210156141925787850151600019600388901b60f8161c191681555b5050505050600190811b0190555056fe7b2270726f706f73616c54797065223a20224d494e545f41444d494e484154222c20227469746c65223a202252697465206f66204d6f6c6f63682028524f4d293a204d696e742041646d696e20486174222c20226465736372697074696f6e223a20224d696e7420524f4d2d41646d696e2068617420746f20454f41227d7b2270726f706f73616c54797065223a20224144445f5348414d414e222c20227469746c65223a202252697465206f66204d6f6c6f63682028524f4d293a205368616d616e2050726f706f73616c222c20226465736372697074696f6e223a202241737369676e20524f4d2061732061204d616e616765722d5368616d616e20746f206d696e74206d696e696d756d2044414f20736861726573227d7b2270726f706f73616c54797065223a2022554e444546494e4544222c20227469746c65223a202252697465206f66204d6f6c6f63682028524f4d293a20756e646566696e6564222c20226465736372697074696f6e223a2022556e646566696e6564227d7b2270726f706f73616c54797065223a20225452414e534645525f41444d494e484154222c20227469746c65223a202252697465206f66204d6f6c6f63682028524f4d293a205472616e736665722041646d696e20486174222c20226465736372697074696f6e223a20225472616e7366657220524f4d2d41646d696e2068617420746f20454f41227ddf8b4c520ffe197c5343c6f5aec59570151ef9a492f2c624fd45ddde6135ec427b2270726f706f73616c54797065223a2022424f52524f575f544f50484154222c20227469746c65223a202252697465206f66204d6f6c6f63682028524f4d293a20486174732050726f706f73616c222c20226465736372697074696f6e223a202243726561746520616e64206d696e7420524f4d2d41646d696e20686174732066726f6d2044414f20546f70486174227da26469706673582212205e687b91768d4b801f9ecc1adea4b1a95342bce3dfb5d8ce00af22de91c9836964736f6c63430008110033",
    "linkReferences": {}
  },
  "methodIdentifiers": {
    "ADMIN()": "2a0acc6a",
    "DEFAULT_ADMIN_ROLE()": "a217fddf",
    "HATS()": "7150ef88",
    "adminHat()": "232b0432",
    "approve(address,uint256)": "095ea7b3",
    "baal()": "e5a2a2a5",
    "balanceOf(address)": "70a08231",
    "batchMintBaalShares(address[])": "c81f83a2",
    "changeHatsContract(address)": "b8c45361",
    "changeJoinSizeLimit(uint256)": "b8ebdcd9",
    "changeJoinTimeDuration(uint256)": "4558e83d",
    "changeRoleHat(bytes32,uint256)": "b5436cec",
    "checkStake(address)": "90d96d76",
    "claimStake()": "eb321173",
    "cohortCounter()": "aee4c96f",
    "cohortName()": "73f78fd0",
    "cohortSeason()": "f68659bd",
    "cohortSize()": "c6db8129",
    "cryForHelp(string)": "0c538f2f",
    "deadlines(address)": "e5d05722",
    "extendJoinTimeLimit(uint256)": "2a4a1342",
    "getApproved(uint256)": "081812fc",
    "getDeadline(address)": "a2213262",
    "getRoleAdmin(bytes32)": "248a9ca3",
    "grantRole(bytes32,uint256)": "1b6ea9f9",
    "hasRole(bytes32,address)": "91d14854",
    "hatsContract()": "97e39fef",
    "initialize((address,address,address,address,address,uint256,uint256,uint256,uint256,uint256,uint256,string,string,string,string,bool),address,address)": "cfdb44d6",
    "initializeHatTree(address,address,address)": "f3450f00",
    "isApprovedForAll(address,address)": "e985e9c5",
    "isMember(address)": "a230c524",
    "joinDuration()": "172bf854",
    "joinEndTime()": "35439bb3",
    "joinInitiation(address)": "c733d5e9",
    "maximumTime()": "f9bb68fc",
    "minimumShare()": "2e152618",
    "minimumStake()": "ec5ffac2",
    "mintAdminHatProposal(address)": "a3beab6a",
    "name()": "06fdde03",
    "ownerOf(uint256)": "6352211e",
    "revokeRole(bytes32,uint256)": "19d61ad9",
    "sacrifice()": "8a040df4",
    "safeTransferFrom(address,address,uint256)": "42842e0e",
    "safeTransferFrom(address,address,uint256,bytes)": "b88d4fde",
    "setApprovalForAll(address,bool)": "a22cb465",
    "setMaxDuration(uint256)": "cf0f34c4",
    "setMinimumStake(uint256)": "233e9903",
    "setShareThreshold(uint256)": "bc5fa8df",
    "singleMintBaalShares(address)": "a3919d1f",
    "slaughter(address)": "fc4c0958",
    "supportsInterface(bytes4)": "01ffc9a7",
    "symbol()": "95d89b41",
    "tokenURI(uint256)": "c87b56dd",
    "topHat()": "c2d14f02",
    "transferAdminHatProposal(address,address)": "1719f9a3",
    "transferFrom(address,address,uint256)": "23b872dd",
    "treasury()": "61d027b3"
  },
  "id": 64
}