{
  "abi": [
    {
      "inputs": [],
      "stateMutability": "nonpayable",
      "type": "constructor"
    },
    {
      "inputs": [
        {
          "internalType": "bytes32",
          "name": "role",
          "type": "bytes32"
        },
        {
          "internalType": "uint256",
          "name": "hat",
          "type": "uint256"
        },
        {
          "internalType": "address",
          "name": "account",
          "type": "address"
        }
      ],
      "name": "NotWearingRoleHat",
      "type": "error"
    },
    {
      "inputs": [
        {
          "internalType": "bytes32",
          "name": "role",
          "type": "bytes32"
        },
        {
          "internalType": "uint256",
          "name": "roleHat",
          "type": "uint256"
        }
      ],
      "name": "RoleAlreadyAssigned",
      "type": "error"
    },
    {
      "anonymous": false,
      "inputs": [
        {
          "indexed": true,
          "internalType": "address",
          "name": "owner",
          "type": "address"
        },
        {
          "indexed": true,
          "internalType": "address",
          "name": "approved",
          "type": "address"
        },
        {
          "indexed": true,
          "internalType": "uint256",
          "name": "tokenId",
          "type": "uint256"
        }
      ],
      "name": "Approval",
      "type": "event"
    },
    {
      "anonymous": false,
      "inputs": [
        {
          "indexed": true,
          "internalType": "address",
          "name": "owner",
          "type": "address"
        },
        {
          "indexed": true,
          "internalType": "address",
          "name": "operator",
          "type": "address"
        },
        {
          "indexed": false,
          "internalType": "bool",
          "name": "approved",
          "type": "bool"
        }
      ],
      "name": "ApprovalForAll",
      "type": "event"
    },
    {
      "anonymous": false,
      "inputs": [
        {
          "indexed": false,
          "internalType": "uint256",
          "name": "newShare",
          "type": "uint256"
        }
      ],
      "name": "ChangedShares",
      "type": "event"
    },
    {
      "anonymous": false,
      "inputs": [
        {
          "indexed": false,
          "internalType": "uint256",
          "name": "newStake",
          "type": "uint256"
        }
      ],
      "name": "ChangedStake",
      "type": "event"
    },
    {
      "anonymous": false,
      "inputs": [
        {
          "indexed": false,
          "internalType": "uint256",
          "name": "newTime",
          "type": "uint256"
        }
      ],
      "name": "ChangedTime",
      "type": "event"
    },
    {
      "anonymous": false,
      "inputs": [
        {
          "indexed": false,
          "internalType": "address",
          "name": "newMember",
          "type": "address"
        },
        {
          "indexed": false,
          "internalType": "uint256",
          "name": "claimAmount",
          "type": "uint256"
        }
      ],
      "name": "Claim",
      "type": "event"
    },
    {
      "anonymous": false,
      "inputs": [
        {
          "indexed": false,
          "internalType": "address",
          "name": "user",
          "type": "address"
        },
        {
          "indexed": false,
          "internalType": "address",
          "name": "treasury",
          "type": "address"
        },
        {
          "indexed": false,
          "internalType": "string",
          "name": "feedback",
          "type": "string"
        }
      ],
      "name": "Feedback",
      "type": "event"
    },
    {
      "anonymous": false,
      "inputs": [
        {
          "indexed": true,
          "internalType": "address",
          "name": "previousHatsContract",
          "type": "address"
        },
        {
          "indexed": true,
          "internalType": "address",
          "name": "newHatsContract",
          "type": "address"
        }
      ],
      "name": "HatsContractChanged",
      "type": "event"
    },
    {
      "anonymous": false,
      "inputs": [
        {
          "indexed": false,
          "internalType": "uint8",
          "name": "version",
          "type": "uint8"
        }
      ],
      "name": "Initialized",
      "type": "event"
    },
    {
      "anonymous": false,
      "inputs": [
        {
          "indexed": false,
          "internalType": "address",
          "name": "newInitiate",
          "type": "address"
        },
        {
          "indexed": false,
          "internalType": "address",
          "name": "benefactor",
          "type": "address"
        },
        {
          "indexed": false,
          "internalType": "uint256",
          "name": "tokenId",
          "type": "uint256"
        },
        {
          "indexed": false,
          "internalType": "uint256",
          "name": "stake",
          "type": "uint256"
        },
        {
          "indexed": false,
          "internalType": "uint256",
          "name": "deadline",
          "type": "uint256"
        }
      ],
      "name": "Initiation",
      "type": "event"
    },
    {
      "anonymous": false,
      "inputs": [
        {
          "indexed": true,
          "internalType": "bytes32",
          "name": "role",
          "type": "bytes32"
        },
        {
          "indexed": true,
          "internalType": "bytes32",
          "name": "previousAdminRole",
          "type": "bytes32"
        },
        {
          "indexed": true,
          "internalType": "bytes32",
          "name": "newAdminRole",
          "type": "bytes32"
        }
      ],
      "name": "RoleAdminChanged",
      "type": "event"
    },
    {
      "anonymous": false,
      "inputs": [
        {
          "indexed": true,
          "internalType": "bytes32",
          "name": "role",
          "type": "bytes32"
        },
        {
          "indexed": true,
          "internalType": "uint256",
          "name": "hat",
          "type": "uint256"
        },
        {
          "indexed": true,
          "internalType": "address",
          "name": "sender",
          "type": "address"
        }
      ],
      "name": "RoleGranted",
      "type": "event"
    },
    {
      "anonymous": false,
      "inputs": [
        {
          "indexed": true,
          "internalType": "bytes32",
          "name": "role",
          "type": "bytes32"
        },
        {
          "indexed": true,
          "internalType": "uint256",
          "name": "previousRoleHat",
          "type": "uint256"
        },
        {
          "indexed": true,
          "internalType": "uint256",
          "name": "newRoleHat",
          "type": "uint256"
        }
      ],
      "name": "RoleHatChanged",
      "type": "event"
    },
    {
      "anonymous": false,
      "inputs": [
        {
          "indexed": true,
          "internalType": "bytes32",
          "name": "role",
          "type": "bytes32"
        },
        {
          "indexed": true,
          "internalType": "uint256",
          "name": "hat",
          "type": "uint256"
        },
        {
          "indexed": true,
          "internalType": "address",
          "name": "sender",
          "type": "address"
        }
      ],
      "name": "RoleRevoked",
      "type": "event"
    },
    {
      "anonymous": false,
      "inputs": [
        {
          "indexed": false,
          "internalType": "address",
          "name": "sacrifice",
          "type": "address"
        },
        {
          "indexed": false,
          "internalType": "uint256",
          "name": "slashedAmount",
          "type": "uint256"
        },
        {
          "indexed": false,
          "internalType": "address",
          "name": "slasher",
          "type": "address"
        }
      ],
      "name": "Sacrifice",
      "type": "event"
    },
    {
      "anonymous": false,
      "inputs": [
        {
          "indexed": true,
          "internalType": "address",
          "name": "from",
          "type": "address"
        },
        {
          "indexed": true,
          "internalType": "address",
          "name": "to",
          "type": "address"
        },
        {
          "indexed": true,
          "internalType": "uint256",
          "name": "tokenId",
          "type": "uint256"
        }
      ],
      "name": "Transfer",
      "type": "event"
    },
    {
      "inputs": [],
      "name": "ADMIN",
      "outputs": [
        {
          "internalType": "bytes32",
          "name": "",
          "type": "bytes32"
        }
      ],
      "stateMutability": "view",
      "type": "function"
    },
    {
      "inputs": [],
      "name": "DEFAULT_ADMIN_ROLE",
      "outputs": [
        {
          "internalType": "bytes32",
          "name": "",
          "type": "bytes32"
        }
      ],
      "stateMutability": "view",
      "type": "function"
    },
    {
      "inputs": [],
      "name": "HATS",
      "outputs": [
        {
          "internalType": "contract IHats",
          "name": "",
          "type": "address"
        }
      ],
      "stateMutability": "view",
      "type": "function"
    },
    {
      "inputs": [],
      "name": "adminHat",
      "outputs": [
        {
          "internalType": "uint256",
          "name": "",
          "type": "uint256"
        }
      ],
      "stateMutability": "view",
      "type": "function"
    },
    {
      "inputs": [
        {
          "internalType": "address",
          "name": "to",
          "type": "address"
        },
        {
          "internalType": "uint256",
          "name": "tokenId",
          "type": "uint256"
        }
      ],
      "name": "approve",
      "outputs": [],
      "stateMutability": "nonpayable",
      "type": "function"
    },
    {
      "inputs": [],
      "name": "baal",
      "outputs": [
        {
          "internalType": "contract IBaal",
          "name": "",
          "type": "address"
        }
      ],
      "stateMutability": "view",
      "type": "function"
    },
    {
      "inputs": [
        {
          "internalType": "address",
          "name": "owner",
          "type": "address"
        }
      ],
      "name": "balanceOf",
      "outputs": [
        {
          "internalType": "uint256",
          "name": "",
          "type": "uint256"
        }
      ],
      "stateMutability": "view",
      "type": "function"
    },
    {
      "inputs": [
        {
          "internalType": "address[]",
          "name": "to",
          "type": "address[]"
        }
      ],
      "name": "batchMintBaalShares",
      "outputs": [],
      "stateMutability": "nonpayable",
      "type": "function"
    },
    {
      "inputs": [
        {
          "internalType": "address",
          "name": "newHatsContract",
          "type": "address"
        }
      ],
      "name": "changeHatsContract",
      "outputs": [],
      "stateMutability": "nonpayable",
      "type": "function"
    },
    {
      "inputs": [
        {
          "internalType": "uint256",
          "name": "_cohortSize",
          "type": "uint256"
        }
      ],
      "name": "changeJoinSizeLimit",
      "outputs": [],
      "stateMutability": "nonpayable",
      "type": "function"
    },
    {
      "inputs": [
        {
          "internalType": "uint256",
          "name": "_joinDuration",
          "type": "uint256"
        }
      ],
      "name": "changeJoinTimeDuration",
      "outputs": [],
      "stateMutability": "nonpayable",
      "type": "function"
    },
    {
      "inputs": [
        {
          "internalType": "bytes32",
          "name": "role",
          "type": "bytes32"
        },
        {
          "internalType": "uint256",
          "name": "newRoleHat",
          "type": "uint256"
        }
      ],
      "name": "changeRoleHat",
      "outputs": [],
      "stateMutability": "nonpayable",
      "type": "function"
    },
    {
      "inputs": [
        {
          "internalType": "address",
          "name": "user",
          "type": "address"
        }
      ],
      "name": "checkStake",
      "outputs": [
        {
          "internalType": "uint256",
          "name": "",
          "type": "uint256"
        }
      ],
      "stateMutability": "view",
      "type": "function"
    },
    {
      "inputs": [],
      "name": "claimStake",
      "outputs": [],
      "stateMutability": "nonpayable",
      "type": "function"
    },
    {
      "inputs": [],
      "name": "cohortCounter",
      "outputs": [
        {
          "internalType": "uint256",
          "name": "",
          "type": "uint256"
        }
      ],
      "stateMutability": "view",
      "type": "function"
    },
    {
      "inputs": [],
      "name": "cohortName",
      "outputs": [
        {
          "internalType": "string",
          "name": "",
          "type": "string"
        }
      ],
      "stateMutability": "view",
      "type": "function"
    },
    {
      "inputs": [],
      "name": "cohortSeason",
      "outputs": [
        {
          "internalType": "uint256",
          "name": "",
          "type": "uint256"
        }
      ],
      "stateMutability": "view",
      "type": "function"
    },
    {
      "inputs": [],
      "name": "cohortSize",
      "outputs": [
        {
          "internalType": "uint256",
          "name": "",
          "type": "uint256"
        }
      ],
      "stateMutability": "view",
      "type": "function"
    },
    {
      "inputs": [
        {
          "internalType": "string",
          "name": "feedback",
          "type": "string"
        }
      ],
      "name": "cryForHelp",
      "outputs": [],
      "stateMutability": "nonpayable",
      "type": "function"
    },
    {
      "inputs": [
        {
          "internalType": "address",
          "name": "",
          "type": "address"
        }
      ],
      "name": "deadlines",
      "outputs": [
        {
          "internalType": "uint256",
          "name": "",
          "type": "uint256"
        }
      ],
      "stateMutability": "view",
      "type": "function"
    },
    {
      "inputs": [
        {
          "internalType": "uint256",
          "name": "_extension",
          "type": "uint256"
        }
      ],
      "name": "extendJoinTimeLimit",
      "outputs": [],
      "stateMutability": "nonpayable",
      "type": "function"
    },
    {
      "inputs": [
        {
          "internalType": "uint256",
          "name": "tokenId",
          "type": "uint256"
        }
      ],
      "name": "getApproved",
      "outputs": [
        {
          "internalType": "address",
          "name": "",
          "type": "address"
        }
      ],
      "stateMutability": "view",
      "type": "function"
    },
    {
      "inputs": [
        {
          "internalType": "address",
          "name": "user",
          "type": "address"
        }
      ],
      "name": "getDeadline",
      "outputs": [
        {
          "internalType": "uint256",
          "name": "",
          "type": "uint256"
        }
      ],
      "stateMutability": "view",
      "type": "function"
    },
    {
      "inputs": [
        {
          "internalType": "bytes32",
          "name": "role",
          "type": "bytes32"
        }
      ],
      "name": "getRoleAdmin",
      "outputs": [
        {
          "internalType": "bytes32",
          "name": "",
          "type": "bytes32"
        }
      ],
      "stateMutability": "view",
      "type": "function"
    },
    {
      "inputs": [
        {
          "internalType": "bytes32",
          "name": "role",
          "type": "bytes32"
        },
        {
          "internalType": "uint256",
          "name": "hat",
          "type": "uint256"
        }
      ],
      "name": "grantRole",
      "outputs": [],
      "stateMutability": "nonpayable",
      "type": "function"
    },
    {
      "inputs": [
        {
          "internalType": "bytes32",
          "name": "role",
          "type": "bytes32"
        },
        {
          "internalType": "address",
          "name": "account",
          "type": "address"
        }
      ],
      "name": "hasRole",
      "outputs": [
        {
          "internalType": "bool",
          "name": "",
          "type": "bool"
        }
      ],
      "stateMutability": "view",
      "type": "function"
    },
    {
      "inputs": [],
      "name": "hatsContract",
      "outputs": [
        {
          "internalType": "address",
          "name": "",
          "type": "address"
        }
      ],
      "stateMutability": "view",
      "type": "function"
    },
    {
      "inputs": [
        {
          "components": [
            {
              "internalType": "address",
              "name": "membershipCriteria",
              "type": "address"
            },
            {
              "internalType": "address",
              "name": "stakingAsset",
              "type": "address"
            },
            {
              "internalType": "address",
              "name": "treasury",
              "type": "address"
            },
            {
              "internalType": "address",
              "name": "admin1",
              "type": "address"
            },
            {
              "internalType": "address",
              "name": "admin2",
              "type": "address"
            },
            {
              "internalType": "uint256",
              "name": "cohortSize",
              "type": "uint256"
            },
            {
              "internalType": "uint256",
              "name": "joinDuration",
              "type": "uint256"
            },
            {
              "internalType": "uint256",
              "name": "threshold",
              "type": "uint256"
            },
            {
              "internalType": "uint256",
              "name": "assetAmount",
              "type": "uint256"
            },
            {
              "internalType": "uint256",
              "name": "stakeDuration",
              "type": "uint256"
            },
            {
              "internalType": "uint256",
              "name": "topHatId",
              "type": "uint256"
            },
            {
              "internalType": "string",
              "name": "cohortName",
              "type": "string"
            },
            {
              "internalType": "string",
              "name": "sbtName",
              "type": "string"
            },
            {
              "internalType": "string",
              "name": "sbtSymbol",
              "type": "string"
            },
            {
              "internalType": "string",
              "name": "baseUri",
              "type": "string"
            },
            {
              "internalType": "bool",
              "name": "shamanOn",
              "type": "bool"
            }
          ],
          "internalType": "struct IInitData.InitData",
          "name": "initData",
          "type": "tuple"
        },
        {
          "internalType": "address",
          "name": "hatsProtocol",
          "type": "address"
        },
        {
          "internalType": "address",
          "name": "caller_",
          "type": "address"
        }
      ],
      "name": "initialize",
      "outputs": [],
      "stateMutability": "nonpayable",
      "type": "function"
    },
    {
      "inputs": [
        {
          "internalType": "address",
          "name": "_deployer",
          "type": "address"
        },
        {
          "internalType": "address",
          "name": "_admin1",
          "type": "address"
        },
        {
          "internalType": "address",
          "name": "_admin2",
          "type": "address"
        }
      ],
      "name": "initializeHatTree",
      "outputs": [],
      "stateMutability": "nonpayable",
      "type": "function"
    },
    {
      "inputs": [
        {
          "internalType": "address",
          "name": "owner",
          "type": "address"
        },
        {
          "internalType": "address",
          "name": "operator",
          "type": "address"
        }
      ],
      "name": "isApprovedForAll",
      "outputs": [
        {
          "internalType": "bool",
          "name": "",
          "type": "bool"
        }
      ],
      "stateMutability": "view",
      "type": "function"
    },
    {
      "inputs": [
        {
          "internalType": "address",
          "name": "user",
          "type": "address"
        }
      ],
      "name": "isMember",
      "outputs": [
        {
          "internalType": "bool",
          "name": "",
          "type": "bool"
        }
      ],
      "stateMutability": "view",
      "type": "function"
    },
    {
      "inputs": [],
      "name": "joinDuration",
      "outputs": [
        {
          "internalType": "uint256",
          "name": "",
          "type": "uint256"
        }
      ],
      "stateMutability": "view",
      "type": "function"
    },
    {
      "inputs": [],
      "name": "joinEndTime",
      "outputs": [
        {
          "internalType": "uint256",
          "name": "",
          "type": "uint256"
        }
      ],
      "stateMutability": "view",
      "type": "function"
    },
    {
      "inputs": [
        {
          "internalType": "address",
          "name": "user",
          "type": "address"
        }
      ],
      "name": "joinInitiation",
      "outputs": [],
      "stateMutability": "nonpayable",
      "type": "function"
    },
    {
      "inputs": [],
      "name": "maximumTime",
      "outputs": [
        {
          "internalType": "uint256",
          "name": "",
          "type": "uint256"
        }
      ],
      "stateMutability": "view",
      "type": "function"
    },
    {
      "inputs": [],
      "name": "minimumShare",
      "outputs": [
        {
          "internalType": "uint256",
          "name": "",
          "type": "uint256"
        }
      ],
      "stateMutability": "view",
      "type": "function"
    },
    {
      "inputs": [],
      "name": "minimumStake",
      "outputs": [
        {
          "internalType": "uint256",
          "name": "",
          "type": "uint256"
        }
      ],
      "stateMutability": "view",
      "type": "function"
    },
    {
      "inputs": [],
      "name": "name",
      "outputs": [
        {
          "internalType": "string",
          "name": "",
          "type": "string"
        }
      ],
      "stateMutability": "view",
      "type": "function"
    },
    {
      "inputs": [
        {
          "internalType": "uint256",
          "name": "tokenId",
          "type": "uint256"
        }
      ],
      "name": "ownerOf",
      "outputs": [
        {
          "internalType": "address",
          "name": "",
          "type": "address"
        }
      ],
      "stateMutability": "view",
      "type": "function"
    },
    {
      "inputs": [
        {
          "internalType": "bytes32",
          "name": "role",
          "type": "bytes32"
        },
        {
          "internalType": "uint256",
          "name": "hat",
          "type": "uint256"
        }
      ],
      "name": "revokeRole",
      "outputs": [],
      "stateMutability": "nonpayable",
      "type": "function"
    },
    {
      "inputs": [],
      "name": "sacrifice",
      "outputs": [],
      "stateMutability": "nonpayable",
      "type": "function"
    },
    {
      "inputs": [
        {
          "internalType": "address",
          "name": "from",
          "type": "address"
        },
        {
          "internalType": "address",
          "name": "to",
          "type": "address"
        },
        {
          "internalType": "uint256",
          "name": "tokenId",
          "type": "uint256"
        }
      ],
      "name": "safeTransferFrom",
      "outputs": [],
      "stateMutability": "nonpayable",
      "type": "function"
    },
    {
      "inputs": [
        {
          "internalType": "address",
          "name": "from",
          "type": "address"
        },
        {
          "internalType": "address",
          "name": "to",
          "type": "address"
        },
        {
          "internalType": "uint256",
          "name": "tokenId",
          "type": "uint256"
        },
        {
          "internalType": "bytes",
          "name": "data",
          "type": "bytes"
        }
      ],
      "name": "safeTransferFrom",
      "outputs": [],
      "stateMutability": "nonpayable",
      "type": "function"
    },
    {
      "inputs": [
        {
          "internalType": "address",
          "name": "operator",
          "type": "address"
        },
        {
          "internalType": "bool",
          "name": "approved",
          "type": "bool"
        }
      ],
      "name": "setApprovalForAll",
      "outputs": [],
      "stateMutability": "nonpayable",
      "type": "function"
    },
    {
      "inputs": [
        {
          "internalType": "uint256",
          "name": "newMaxTime",
          "type": "uint256"
        }
      ],
      "name": "setMaxDuration",
      "outputs": [],
      "stateMutability": "nonpayable",
      "type": "function"
    },
    {
      "inputs": [
        {
          "internalType": "uint256",
          "name": "newMinimumStake",
          "type": "uint256"
        }
      ],
      "name": "setMinimumStake",
      "outputs": [],
      "stateMutability": "nonpayable",
      "type": "function"
    },
    {
      "inputs": [
        {
          "internalType": "uint256",
          "name": "newShareThreshold",
          "type": "uint256"
        }
      ],
      "name": "setShareThreshold",
      "outputs": [],
      "stateMutability": "nonpayable",
      "type": "function"
    },
    {
      "inputs": [
        {
          "internalType": "address",
          "name": "_to",
          "type": "address"
        }
      ],
      "name": "singleMintBaalShares",
      "outputs": [],
      "stateMutability": "nonpayable",
      "type": "function"
    },
    {
      "inputs": [
        {
          "internalType": "bytes4",
          "name": "interfaceId",
          "type": "bytes4"
        }
      ],
      "name": "supportsInterface",
      "outputs": [
        {
          "internalType": "bool",
          "name": "",
          "type": "bool"
        }
      ],
      "stateMutability": "view",
      "type": "function"
    },
    {
      "inputs": [],
      "name": "symbol",
      "outputs": [
        {
          "internalType": "string",
          "name": "",
          "type": "string"
        }
      ],
      "stateMutability": "view",
      "type": "function"
    },
    {
      "inputs": [
        {
          "internalType": "uint256",
          "name": "tokenId",
          "type": "uint256"
        }
      ],
      "name": "tokenURI",
      "outputs": [
        {
          "internalType": "string",
          "name": "",
          "type": "string"
        }
      ],
      "stateMutability": "view",
      "type": "function"
    },
    {
      "inputs": [],
      "name": "topHat",
      "outputs": [
        {
          "internalType": "uint256",
          "name": "",
          "type": "uint256"
        }
      ],
      "stateMutability": "view",
      "type": "function"
    },
    {
      "inputs": [
        {
          "internalType": "address",
          "name": "",
          "type": "address"
        }
      ],
      "name": "totalSlash",
      "outputs": [
        {
          "internalType": "uint256",
          "name": "",
          "type": "uint256"
        }
      ],
      "stateMutability": "view",
      "type": "function"
    },
    {
      "inputs": [
        {
          "internalType": "address",
          "name": "from",
          "type": "address"
        },
        {
          "internalType": "address",
          "name": "to",
          "type": "address"
        },
        {
          "internalType": "uint256",
          "name": "tokenId",
          "type": "uint256"
        }
      ],
      "name": "transferFrom",
      "outputs": [],
      "stateMutability": "nonpayable",
      "type": "function"
    },
    {
      "inputs": [],
      "name": "treasury",
      "outputs": [
        {
          "internalType": "address",
          "name": "",
          "type": "address"
        }
      ],
      "stateMutability": "view",
      "type": "function"
    }
  ],
  "bytecode": {
    "object": "0x60806040523480156200001157600080fd5b506200001c62000022565b620000e3565b600054610100900460ff16156200008f5760405162461bcd60e51b815260206004820152602760248201527f496e697469616c697a61626c653a20636f6e747261637420697320696e697469604482015266616c697a696e6760c81b606482015260840160405180910390fd5b60005460ff90811614620000e1576000805460ff191660ff9081179091556040519081527f7f26b83ff96e1f2b6a682f133852f6798a09c465da95921460cefb38474024989060200160405180910390a15b565b61414a80620000f36000396000f3fe608060405234801561001057600080fd5b506004361061035d5760003560e01c806395d89b41116101d3578063c6db812911610104578063e5d05722116100a2578063ec5ffac21161007c578063ec5ffac21461076c578063f3450f0014610775578063f68659bd14610788578063f9bb68fc1461079157600080fd5b8063e5d0572214610708578063e985e9c514610728578063eb3211731461076457600080fd5b8063c87b56dd116100de578063c87b56dd146106bc578063cf0f34c4146106cf578063cfdb44d6146106e2578063e5a2a2a5146106f557600080fd5b8063c6db81291461068d578063c733d5e914610696578063c81f83a2146106a957600080fd5b8063aee4c96f11610171578063b8c453611161014b578063b8c453611461064b578063b8ebdcd91461065e578063bc5fa8df14610671578063c2d14f021461068457600080fd5b8063aee4c96f1461061c578063b5436cec14610625578063b88d4fde1461063857600080fd5b8063a2213262116101ad578063a2213262146105ba578063a22cb465146105e3578063a230c524146105f6578063a3919d1f1461060957600080fd5b806395d89b411461059957806397e39fef146105a1578063a217fddf146105b257600080fd5b80632a4a1342116102ad57806370a082311161024b578063853a77c111610225578063853a77c1146105355780638a040df41461055557806390d96d761461055d57806391d148541461058657600080fd5b806370a08231146105075780637150ef881461051a57806373f78fd01461052d57600080fd5b806342842e0e1161028757806342842e0e146104bb5780634558e83d146104ce57806361d027b3146104e15780636352211e146104f457600080fd5b80632a4a1342146104965780632e152618146104a957806335439bb3146104b257600080fd5b806319d61ad91161031a578063233e9903116102f4578063233e99031461043857806323b872dd1461044b578063248a9ca31461045e5780632a0acc6a1461048157600080fd5b806319d61ad9146104095780631b6ea9f91461041c578063232b04321461042f57600080fd5b806301ffc9a71461036257806306fdde031461038a578063081812fc1461039f578063095ea7b3146103ca5780630c538f2f146103df578063172bf854146103f2575b600080fd5b6103756103703660046134fa565b61079a565b60405190151581526020015b60405180910390f35b6103926107ab565b6040516103819190613567565b6103b26103ad36600461357a565b61083d565b6040516001600160a01b039091168152602001610381565b6103dd6103d83660046135af565b610864565b005b6103dd6103ed3660046135d9565b61097e565b6103fb60a95481565b604051908152602001610381565b6103dd61041736600461364b565b610a23565b6103dd61042a36600461364b565b610a48565b6103fb60b15481565b6103dd61044636600461357a565b610a6d565b6103dd61045936600461366d565b610a92565b6103fb61046c36600461357a565b60009081526098602052604090206001015490565b6103fb60008051602061406383398151915281565b6103dd6104a436600461357a565b610ac3565b6103fb60ab5481565b6103fb60aa5481565b6103dd6104c936600461366d565b610af0565b6103dd6104dc36600461357a565b610b0b565b60ae546103b2906001600160a01b031681565b6103b261050236600461357a565b610b29565b6103fb6105153660046136a9565b610b89565b60af546103b2906001600160a01b031681565b610392610c0f565b6103fb6105433660046136a9565b609d6020526000908152604090205481565b6103dd610c9d565b6103fb61056b3660046136a9565b6001600160a01b03166000908152609b602052604090205490565b6103756105943660046136c4565b610cc0565b610392610d4c565b6097546001600160a01b03166103b2565b6103fb600081565b6103fb6105c83660046136a9565b6001600160a01b03166000908152609c602052604090205490565b6103dd6105f13660046136fe565b610d5b565b6103756106043660046136a9565b610d66565b6103dd6106173660046136a9565b610dfb565b6103fb60a85481565b6103dd61063336600461364b565b610f05565b6103dd61064636600461374b565b610f2a565b6103dd6106593660046136a9565b610f62565b6103dd61066c36600461357a565b610f76565b6103dd61067f36600461357a565b610f94565b6103fb60b05481565b6103fb60a75481565b6103dd6106a43660046136a9565b610fb5565b6103dd6106b7366004613827565b611108565b6103926106ca36600461357a565b6111d9565b6103dd6106dd36600461357a565b61123f565b6103dd6106f036600461388a565b611260565b60a1546103b2906001600160a01b031681565b6103fb6107163660046136a9565b609c6020526000908152604090205481565b6103756107363660046138ee565b6001600160a01b039182166000908152606a6020908152604080832093909416825291909152205460ff1690565b6103dd6119ac565b6103fb60ac5481565b6103dd610783366004613918565b6119fa565b6103fb60a65481565b6103fb60ad5481565b60006107a582611d48565b92915050565b6060606580546107ba90613936565b80601f01602080910402602001604051908101604052809291908181526020018280546107e690613936565b80156108335780601f1061080857610100808354040283529160200191610833565b820191906000526020600020905b81548152906001019060200180831161081657829003601f168201915b5050505050905090565b600061084882611d98565b506000908152606960205260409020546001600160a01b031690565b600061086f82610b29565b9050806001600160a01b0316836001600160a01b0316036108e15760405162461bcd60e51b815260206004820152602160248201527f4552433732313a20617070726f76616c20746f2063757272656e74206f776e656044820152603960f91b60648201526084015b60405180910390fd5b336001600160a01b03821614806108fd57506108fd8133610736565b61096f5760405162461bcd60e51b815260206004820152603d60248201527f4552433732313a20617070726f76652063616c6c6572206973206e6f7420746f60448201527f6b656e206f776e6572206f7220617070726f76656420666f7220616c6c00000060648201526084016108d8565b6109798383611df7565b505050565b61098733610b89565b6001146109d65760405162461bcd60e51b815260206004820152601960248201527f4f6e6c7920636f686f7274207061727469636970616e7473210000000000000060448201526064016108d8565b60ae546040517f7ad32bfb950c825d7d252f51537ad223c191a793ae9109cffc3bbd287485f6df91610a179133916001600160a01b0316908690869061396a565b60405180910390a15050565b600082815260986020526040902060010154610a3e81611e65565b6109798383611e6f565b600082815260986020526040902060010154610a6381611e65565b6109798383611ec5565b600080516020614063833981519152610a8581611e65565b610a8e82611f45565b5050565b610a9c3382611fe2565b610ab85760405162461bcd60e51b81526004016108d8906139b6565b610979838383612061565b600080516020614063833981519152610adb81611e65565b8160aa54610ae99190613a19565b60aa555050565b61097983838360405180602001604052806000815250610f2a565b600080516020614063833981519152610b2381611e65565b5060a955565b6000818152606760205260408120546001600160a01b0316806107a55760405162461bcd60e51b8152602060048201526018602482015277115490cdcc8c4e881a5b9d985b1a59081d1bdad95b88125160421b60448201526064016108d8565b60006001600160a01b038216610bf35760405162461bcd60e51b815260206004820152602960248201527f4552433732313a2061646472657373207a65726f206973206e6f7420612076616044820152683634b21037bbb732b960b91b60648201526084016108d8565b506001600160a01b031660009081526068602052604090205490565b60a58054610c1c90613936565b80601f0160208091040260200160405190810160405280929190818152602001828054610c4890613936565b8015610c955780601f10610c6a57610100808354040283529160200191610c95565b820191906000526020600020905b815481529060010190602001808311610c7857829003601f168201915b505050505081565b600080516020614063833981519152610cb581611e65565b610cbd6121d2565b50565b6097546000838152609860205260408082205490516321a9204d60e11b81526001600160a01b038581166004830152602482019290925291921690634352409a90604401602060405180830381865afa158015610d21573d6000803e3d6000fd5b505050506040513d601f19601f82011682018060405250810190610d459190613a2c565b9392505050565b6060606680546107ba90613936565b610a8e3383836122c2565b60a2546040516370a0823160e01b81526001600160a01b03838116600483015260009283929116906370a0823190602401602060405180830381865afa158015610db4573d6000803e3d6000fd5b505050506040513d601f19601f82011682018060405250810190610dd89190613a49565b905060ab548110610dec5750600192915050565b50600092915050565b50919050565b600080516020614063833981519152610e1381611e65565b60408051600180825281830190925260009160208083019080368337505060408051600180825281830190925292935060009291506020808301908036833701905050905060ab5482600081518110610e6e57610e6e613a62565b6020026020010181815250508381600081518110610e8e57610e8e613a62565b6001600160a01b03928316602091820292909201015260a154604051632c78fd0360e21b815291169063b1e3f40c90610ecd9084908690600401613ab3565b600060405180830381600087803b158015610ee757600080fd5b505af1158015610efb573d6000803e3d6000fd5b5050505050505050565b600082815260986020526040902060010154610f2081611e65565b6109798383612390565b610f343383611fe2565b610f505760405162461bcd60e51b81526004016108d8906139b6565b610f5c848484846123f9565b50505050565b6000610f6d81611e65565b610a8e8261242c565b600080516020614063833981519152610f8e81611e65565b5060a755565b600080516020614063833981519152610fac81611e65565b610a8e8261247e565b60aa544211156110075760405162461bcd60e51b815260206004820152601960248201527f5468697320636f686f7274206973206e6f7720636c6f7365640000000000000060448201526064016108d8565b60a75460a054111561105b5760405162461bcd60e51b815260206004820152601b60248201527f5468697320636f686f727420697320616c72656164792066756c6c000000000060448201526064016108d8565b61106481612515565b6110a25760405162461bcd60e51b815260206004820152600f60248201526e5374616b696e67206661696c65642160881b60448201526064016108d8565b609e805460018101825560009182527fcfe2a20ff701a1f3e14f63bd70d6c6bc6fba8172ec6d5a505cdab3927c0a9de60180546001600160a01b0319166001600160a01b03841617905560a88054916110fa83613b13565b9190505550610cbd81612629565b60008051602061406383398151915261112081611e65565b60008267ffffffffffffffff81111561113b5761113b613735565b604051908082528060200260200182016040528015611164578160200160208202803683370190505b50905060005b838110156111a45760ab5482828151811061118757611187613a62565b60209081029190910101528061119c81613b13565b91505061116a565b5060a154604051632c78fd0360e21b81526001600160a01b039091169063b1e3f40c90610ecd90879087908690600401613b2c565b60606111e482611d98565b60006111ee6126bf565b9050600081511161120e5760405180602001604052806000815250610d45565b80611218846126ce565b604051602001611229929190613b8b565b6040516020818303038152906040529392505050565b60008051602061406383398151915261125781611e65565b610a8e82612761565b600054610100900460ff16158080156112805750600054600160ff909116105b8061129a5750303b15801561129a575060005460ff166001145b6112fd5760405162461bcd60e51b815260206004820152602e60248201527f496e697469616c697a61626c653a20636f6e747261637420697320616c72656160448201526d191e481a5b9a5d1a585b1a5e995960921b60648201526084016108d8565b6000805460ff191660011790558015611320576000805461ff0019166101001790555b61132e60a080546001019055565b61133c610160850185613bba565b60a59161134a919083613c56565b5060a084013560a75560c084013560a98190556113679042613a19565b60aa556113f861137b610180860186613bba565b8080601f0160208091040260200160405190810160405280939291908181526020018383808284376000920191909152506113be925050506101a0870187613bba565b8080601f0160208091040260200160405190810160405280939291908181526020018383808284376000920191909152506127f792505050565b61140560208501856136a9565b60a180546001600160a01b0319166001600160a01b039290921691909117905561143560408501602086016136a9565b60a280546001600160a01b0319166001600160a01b039290921691909117905561146560608501604086016136a9565b60ae80546001600160a01b0319166001600160a01b039290921691909117905561149560408501602086016136a9565b60a380546001600160a01b0319166001600160a01b03929092169190911790556114c3610100850135611f45565b6114d08460e0013561247e565b6114de846101200135612761565b6114f46114ef6101c0860186613bba565b612828565b60af80546001600160a01b0319166001600160a01b0385161790556115188361242c565b61152a61020085016101e08601613d16565b1561160957606061153c306002612835565b60408051600180825281830190925291925060009190816020015b6060815260200190600190039081611557579050509050818160008151811061158257611582613a62565b6020908102919091010152604080516001808252818301909252600091816020016020820280368337505060a15482519293506001600160a01b0316918391506000906115d1576115d1613a62565b60200260200101906001600160a01b031690816001600160a01b0316815250506116056115fe8383612913565b60016129f4565b5050505b60af5460ae546040516321a9204d60e11b81526001600160a01b0391821660048201526101408701356024820152911690634352409a90604401602060405180830381865afa158015611660573d6000803e3d6000fd5b505050506040513d601f19601f820116820180604052508101906116849190613a2c565b151560010361189d5761014084013560b0556060806116f660b05460ae5460405160248101929092526001600160a01b0316604482015230606482015260609060840160408051601f198184030181529190526020810180516001600160e01b03166329287c1b60e21b179052919050565b91506117768461170c6080890160608a016136a9565b61171c60a08a0160808b016136a9565b6040516001600160a01b03808516602483015280841660448301528216606482015260609060840160408051601f198184030181529190526020810180516001600160e01b031662f3450f60e81b17905290509392505050565b6040805160028082526060820190925291925060009190816020015b606081526020019060019003908161179257905050905082816000815181106117bd576117bd613a62565b602002602001018190525081816001815181106117dc576117dc613a62565b602090810291909101015260408051600280825260608201909252600091816020016020820280368337505060af5482519293506001600160a01b03169183915060009061182c5761182c613a62565b60200260200101906001600160a01b031690816001600160a01b031681525050308160018151811061186057611860613a62565b60200260200101906001600160a01b031690816001600160a01b03168152505061189461188d8383612913565b60006129f4565b50505050611961565b60af54604051631a64dfad60e01b815230600482015260606024820152600a6064820152691493d348151bdc12185d60b21b608482015260a06044820152600060a48201526001600160a01b0390911690631a64dfad9060c4016020604051808303816000875af1158015611916573d6000803e3d6000fd5b505050506040513d601f19601f8201168201806040525081019061193a9190613a49565b60b0556119618261195160808701606088016136a9565b61078360a08801608089016136a9565b8015610f5c576000805461ff0019169055604051600181527f7f26b83ff96e1f2b6a682f133852f6798a09c465da95921460cefb38474024989060200160405180910390a150505050565b6119b4612b6d565b6119bc612c26565b6119f85760405162461bcd60e51b815260206004820152600d60248201526c436c61696d206661696c65642160981b60448201526064016108d8565b565b60b25460ff1615611a4d5760405162461bcd60e51b815260206004820152601860248201527f4861747320616c726561647920696e697469616c697a6564000000000000000060448201526064016108d8565b60b2805460ff1916600190811790915560af5460b05460a154604051635829492f60e11b8152600481019290925260e06024830152600960e4830152682927a69020b236b4b760b91b610104830152600360448301526001600160a01b0390811660648301819052608483015260a482019390935261012060c4820152600061012482015291169063b052925e90610144016020604051808303816000875af1158015611afe573d6000803e3d6000fd5b505050506040513d601f19601f82011682018060405250810190611b229190613a49565b60b181905560af5460405163320fbbb760e11b815260048101929092526001600160a01b038581166024840152169063641f776e906044016020604051808303816000875af1158015611b79573d6000803e3d6000fd5b505050506040513d601f19601f82011682018060405250810190611b9d9190613a2c565b506001600160a01b03821615611c2a5760af5460b15460405163320fbbb760e11b815260048101919091526001600160a01b0384811660248301529091169063641f776e906044016020604051808303816000875af1158015611c04573d6000803e3d6000fd5b505050506040513d601f19601f82011682018060405250810190611c289190613a2c565b505b6001600160a01b03811615611cb65760af5460b15460405163320fbbb760e11b815260048101919091526001600160a01b0383811660248301529091169063641f776e906044016020604051808303816000875af1158015611c90573d6000803e3d6000fd5b505050506040513d601f19601f82011682018060405250810190611cb49190613a2c565b505b611cd060008051602061406383398151915260b154611ec5565b60af5460b05460ae546040516329287c1b60e21b815260048101929092523060248301526001600160a01b0390811660448301529091169063a4a1f06c90606401600060405180830381600087803b158015611d2b57600080fd5b505af1158015611d3f573d6000803e3d6000fd5b50505050505050565b60006001600160e01b031982166380ac58cd60e01b1480611d7957506001600160e01b03198216635b5e139f60e01b145b806107a557506301ffc9a760e01b6001600160e01b03198316146107a5565b6000818152606760205260409020546001600160a01b0316610cbd5760405162461bcd60e51b8152602060048201526018602482015277115490cdcc8c4e881a5b9d985b1a59081d1bdad95b88125160421b60448201526064016108d8565b600081815260696020526040902080546001600160a01b0319166001600160a01b0384169081179091558190611e2c82610b29565b6001600160a01b03167f8c5be1e5ebec7d5bd14f71427d1e84f3dd0314c0f7b2291e5b200ac8c7c3b92560405160405180910390a45050565b610cbd8133612d5d565b600082815260986020526040902054819003610a8e57600082815260986020526040808220829055513391839185917f641261709a27417e18d0ccc3db95ddc812d61be919b2a5a3af21a5870590922a91a45050565b6000828152609860205260409020548015611efd5760405163aab0817760e01b815260048101849052602481018290526044016108d8565b81811461097957600083815260986020526040808220849055513391849186917f7c2a2c4bb5a44dafa473fc49e557303dba6db62123713789deefe8ccb384654991a4505050565b60008111611fa65760405162461bcd60e51b815260206004820152602860248201527f4d696e696d756d207374616b65206d7573742062652067726561746572207468604482015267616e207a65726f2160c01b60648201526084016108d8565b60ac8190556040518181527fb4b5fad09421a48c68e8513475c3adbf47ed48a5eefe543d4fec52c82db47469906020015b60405180910390a150565b600080611fee83610b29565b9050806001600160a01b0316846001600160a01b0316148061203557506001600160a01b038082166000908152606a602090815260408083209388168352929052205460ff165b806120595750836001600160a01b031661204e8461083d565b6001600160a01b0316145b949350505050565b826001600160a01b031661207482610b29565b6001600160a01b03161461209a5760405162461bcd60e51b81526004016108d890613d33565b6001600160a01b0382166120fc5760405162461bcd60e51b8152602060048201526024808201527f4552433732313a207472616e7366657220746f20746865207a65726f206164646044820152637265737360e01b60648201526084016108d8565b6121098383836001612dae565b826001600160a01b031661211c82610b29565b6001600160a01b0316146121425760405162461bcd60e51b81526004016108d890613d33565b600081815260696020908152604080832080546001600160a01b03199081169091556001600160a01b0387811680865260688552838620805460001901905590871680865283862080546001019055868652606790945282852080549092168417909155905184937fddf252ad1be2c89b69c2b068fc378daa952ba7f163c4a11628f55a4df523b3ef91a4505050565b6000805b609e548110156122a8576000609e82815481106121f5576121f5613a62565b60009182526020808320909101546001600160a01b0316808352609c909152604090912054909150428110801561224357506001600160a01b0382166000908152609b602052604090205415155b1561228e5761225182612df6565b61225b9085613a19565b9350609e838154811061227057612270613a62565b600091825260209091200180546001600160a01b0319169055612295565b5050612298565b50505b6122a181613b13565b90506121d6565b506122b281612e7c565b6122ba612f5c565b610cbd613022565b816001600160a01b0316836001600160a01b0316036123235760405162461bcd60e51b815260206004820152601960248201527f4552433732313a20617070726f766520746f2063616c6c65720000000000000060448201526064016108d8565b6001600160a01b038381166000818152606a6020908152604080832094871680845294825291829020805460ff191686151590811790915591519182527f17307eab39ab6107e8899845ad3d59bd9653f200f220920489ca2b5937696c31910160405180910390a3505050565b600082815260986020526040812054908190036123b1576123b18383611ec5565b81811461097957600083815260986020526040808220849055518391839186917fc3d694cb68f99c4c204d7aedbaba300907c24102aeeeecd32de2c9910609f30a91a4505050565b612404848484612061565b612410848484846130b3565b610f5c5760405162461bcd60e51b81526004016108d890613d78565b609780546001600160a01b038381166001600160a01b0319831681179093556040519116919082907fe2c5fed45442eae2ee9c94b63f1e24155d9bfe92ecd80e48c35ebf292767573790600090a35050565b600081116124e05760405162461bcd60e51b815260206004820152602960248201527f4d696e696d756d20736861726573206d7573742062652067726561746572207460448201526868616e207a65726f2160b81b60648201526084016108d8565b60ab8190556040518181527f7155dd2d80b479664a5c9bf2c04a1b00c07aad515f3c089a20ce1ebff2c6ecdd90602001611fd7565b600061252082610b89565b1561256d5760405162461bcd60e51b815260206004820152601e60248201527f416c7265616479206a6f696e65642074686520696e6974696174696f6e21000060448201526064016108d8565b60ac546001600160a01b0383166000908152609b602052604090205560ad546125969042613a19565b6001600160a01b038381166000908152609c6020526040908190209290925560a35460ac5492516323b872dd60e01b8152336004820152306024820152604481019390935216906323b872dd906064016020604051808303816000875af1158015612605573d6000803e3d6000fd5b505050506040513d601f19601f820116820180604052508101906107a59190613a2c565b600061263460a05490565b60ac546001600160a01b0384166000818152609c60209081526040918290205482519384523391840191909152908201849052606082019290925260808101919091529091507f9da9a86fb849b37cb0098539441b747ca3c0c5a367f5eaef701e6877e4b124d79060a00160405180910390a16126b560a080546001019055565b610a8e82826131b4565b606060a480546107ba90613936565b606060006126db8361334d565b600101905060008167ffffffffffffffff8111156126fb576126fb613735565b6040519080825280601f01601f191660200182016040528015612725576020820181803683370190505b5090508181016020015b600019016f181899199a1a9b1b9c1cb0b131b232b360811b600a86061a8153600a850494508461272f57509392505050565b600081116127c25760405162461bcd60e51b815260206004820152602860248201527f4d696e696d756d206475726174696f6e206d7573742062652067726561746572604482015267207468616e20302160c01b60648201526084016108d8565b60ad8190556040518181527f856717cb327b027e506a205b6a989525427e169d7b6acb09ad84d849dea2b93f90602001611fd7565b600054610100900460ff1661281e5760405162461bcd60e51b81526004016108d890613dca565b610a8e8282613425565b60a4610979828483613c56565b6040805160018082528183019092526060916000919060208083019080368337019050509050838160008151811061286f5761286f613a62565b6001600160a01b03929092166020928302919091019091015260408051600180825281830190925260009181602001602082028036833701905050905083816000815181106128c0576128c0613a62565b60200260200101818152505081816040516024016128df929190613ab3565b60408051601f198184030181529190526020810180516001600160e01b0316630f656a2160e01b1790529250505092915050565b60608060005b84518110156129af5781600085838151811061293757612937613a62565b6020026020010151600088858151811061295357612953613a62565b60200260200101515189868151811061296e5761296e613a62565b602002602001015160405160200161298b96959493929190613e15565b604051602081830303815290604052915080806129a790613b13565b915050612919565b50806040516024016129c19190613567565b60408051601f198184030181529190526020810180516001600160e01b03166346c07f8560e11b17905291505092915050565b60a15460408051639a2f747f60e01b815290516000926001600160a01b031691639a2f747f916004808301926020929190829003018187875af1158015612a3f573d6000803e3d6000fd5b505050506040513d601f19601f82011682018060405250810190612a639190613a49565b9050803414612aa65760405162461bcd60e51b815260206004820152600f60248201526e4d697373696e67207472696275746560881b60448201526064016108d8565b60608215612ace576040518060c00160405280609c8152602001613fc7609c91399050612aea565b6040518060c00160405280609281526020016140836092913990505b60a1546040516307505ff960e31b81526001600160a01b0390911690633a82ffc8908490612b2390889060009081908890600401613e7f565b60206040518083038185885af1158015612b41573d6000803e3d6000fd5b50505050506040513d601f19601f82011682018060405250810190612b669190613a49565b5050505050565b60a2546040516370a0823160e01b81523360048201526000916001600160a01b0316906370a0823190602401602060405180830381865afa158015612bb6573d6000803e3d6000fd5b505050506040513d601f19601f82011682018060405250810190612bda9190613a49565b905060ab54811015610cbd5760405162461bcd60e51b8152602060048201526015602482015274596f75206d7573742062652061206d656d6265722160581b60448201526064016108d8565b336000818152609b6020526040812054909190612c7b5760405162461bcd60e51b81526020600482015260136024820152725573657220686173206e6f207374616b65212160681b60448201526064016108d8565b6001600160a01b0381166000818152609b60209081526040808320805490849055609c835281842093909355805193845290830182905290917f47cee97cb7acd717b3c0aa1435d004cd5b3c8c57d70dbceb4e4458bbd60e39d4910160405180910390a160a35460405163a9059cbb60e01b81526001600160a01b038481166004830152602482018490529091169063a9059cbb906044016020604051808303816000875af1158015612d32573d6000803e3d6000fd5b505050506040513d601f19601f82011682018060405250810190612d569190613a2c565b9250505090565b612d678282610cc0565b610a8e5760008281526098602052604090819020549051631612509360e01b81526004810184905260248101919091526001600160a01b03821660448201526064016108d8565b60405162461bcd60e51b815260206004820152601960248201527f5342542063616e6e6f74206265207472616e736665727265640000000000000060448201526064016108d8565b6001600160a01b0381166000818152609b60209081526040808320548151948552918401829052339084015290917f1b4365d94ccfc86d7cd3eef46bf15cd821f8abb29721248eca1d751eebb669009060600160405180910390a16001600160a01b039092166000908152609b60209081526040808320839055609c9091528120555090565b60a35460ae5460405163a9059cbb60e01b81526001600160a01b0391821660048201526024810184905291169063a9059cbb906044016020604051808303816000875af1158015612ed1573d6000803e3d6000fd5b505050506040513d601f19601f82011682018060405250810190612ef59190613a2c565b612f355760405162461bcd60e51b81526020600482015260116024820152704661696c6564205361637269666963652160781b60448201526064016108d8565b336000908152609d602052604081208054839290612f54908490613a19565b909155505050565b60005b609e548110156130045760006001600160a01b0316609e8281548110612f8757612f87613a62565b6000918252602090912001546001600160a01b031614612ff257609f609e8281548110612fb657612fb6613a62565b60009182526020808320909101548354600181018555938352912090910180546001600160a01b0319166001600160a01b039092169190911790555b80612ffc81613b13565b915050612f5f565b50609f805461301591609e91613465565b506119f8609f60006134b5565b609e5460a881905560a754101561308c5760405162461bcd60e51b815260206004820152602860248201527f43617272792d6f76657220696e697469617465732065786365656420636f686f6044820152671c9d0b58dbdd5b9d60c21b60648201526084016108d8565b60a9546130999042613a19565b60aa5560a680549060006130ac83613b13565b9190505550565b60006001600160a01b0384163b156131a957604051630a85bd0160e11b81526001600160a01b0385169063150b7a02906130f7903390899088908890600401613eb6565b6020604051808303816000875af1925050508015613132575060408051601f3d908101601f1916820190925261312f91810190613ee9565b60015b61318f573d808015613160576040519150601f19603f3d011682016040523d82523d6000602084013e613165565b606091505b5080516000036131875760405162461bcd60e51b81526004016108d890613d78565b805181602001fd5b6001600160e01b031916630a85bd0160e11b149050612059565b506001949350505050565b6001600160a01b03821661320a5760405162461bcd60e51b815260206004820181905260248201527f4552433732313a206d696e7420746f20746865207a65726f206164647265737360448201526064016108d8565b6000818152606760205260409020546001600160a01b03161561326f5760405162461bcd60e51b815260206004820152601c60248201527f4552433732313a20746f6b656e20616c7265616479206d696e7465640000000060448201526064016108d8565b61327d600083836001612dae565b6000818152606760205260409020546001600160a01b0316156132e25760405162461bcd60e51b815260206004820152601c60248201527f4552433732313a20746f6b656e20616c7265616479206d696e7465640000000060448201526064016108d8565b6001600160a01b038216600081815260686020908152604080832080546001019055848352606790915280822080546001600160a01b0319168417905551839291907fddf252ad1be2c89b69c2b068fc378daa952ba7f163c4a11628f55a4df523b3ef908290a45050565b60008072184f03e93ff9f4daa797ed6e38ed64bf6a1f0160401b831061338c5772184f03e93ff9f4daa797ed6e38ed64bf6a1f0160401b830492506040015b6d04ee2d6d415b85acef810000000083106133b8576d04ee2d6d415b85acef8100000000830492506020015b662386f26fc1000083106133d657662386f26fc10000830492506010015b6305f5e10083106133ee576305f5e100830492506008015b612710831061340257612710830492506004015b60648310613414576064830492506002015b600a83106107a55760010192915050565b600054610100900460ff1661344c5760405162461bcd60e51b81526004016108d890613dca565b60656134588382613f06565b5060666109798282613f06565b8280548282559060005260206000209081019282156134a55760005260206000209182015b828111156134a557825482559160010191906001019061348a565b506134b19291506134cf565b5090565b5080546000825590600052602060002090810190610cbd91905b5b808211156134b157600081556001016134d0565b6001600160e01b031981168114610cbd57600080fd5b60006020828403121561350c57600080fd5b8135610d45816134e4565b60005b8381101561353257818101518382015260200161351a565b50506000910152565b60008151808452613553816020860160208601613517565b601f01601f19169290920160200192915050565b602081526000610d45602083018461353b565b60006020828403121561358c57600080fd5b5035919050565b80356001600160a01b03811681146135aa57600080fd5b919050565b600080604083850312156135c257600080fd5b6135cb83613593565b946020939093013593505050565b600080602083850312156135ec57600080fd5b823567ffffffffffffffff8082111561360457600080fd5b818501915085601f83011261361857600080fd5b81358181111561362757600080fd5b86602082850101111561363957600080fd5b60209290920196919550909350505050565b6000806040838503121561365e57600080fd5b50508035926020909101359150565b60008060006060848603121561368257600080fd5b61368b84613593565b925061369960208501613593565b9150604084013590509250925092565b6000602082840312156136bb57600080fd5b610d4582613593565b600080604083850312156136d757600080fd5b823591506136e760208401613593565b90509250929050565b8015158114610cbd57600080fd5b6000806040838503121561371157600080fd5b61371a83613593565b9150602083013561372a816136f0565b809150509250929050565b634e487b7160e01b600052604160045260246000fd5b6000806000806080858703121561376157600080fd5b61376a85613593565b935061377860208601613593565b925060408501359150606085013567ffffffffffffffff8082111561379c57600080fd5b818701915087601f8301126137b057600080fd5b8135818111156137c2576137c2613735565b604051601f8201601f19908116603f011681019083821181831017156137ea576137ea613735565b816040528281528a602084870101111561380357600080fd5b82602086016020830137600060208483010152809550505050505092959194509250565b6000806020838503121561383a57600080fd5b823567ffffffffffffffff8082111561385257600080fd5b818501915085601f83011261386657600080fd5b81358181111561387557600080fd5b8660208260051b850101111561363957600080fd5b60008060006060848603121561389f57600080fd5b833567ffffffffffffffff8111156138b657600080fd5b840161020081870312156138c957600080fd5b92506138d760208501613593565b91506138e560408501613593565b90509250925092565b6000806040838503121561390157600080fd5b61390a83613593565b91506136e760208401613593565b60008060006060848603121561392d57600080fd5b6138c984613593565b600181811c9082168061394a57607f821691505b602082108103610df557634e487b7160e01b600052602260045260246000fd5b6001600160a01b0385811682528416602082015260606040820181905281018290526000828460808401376000608084840101526080601f19601f850116830101905095945050505050565b6020808252602d908201527f4552433732313a2063616c6c6572206973206e6f7420746f6b656e206f776e6560408201526c1c881bdc88185c1c1c9bdd9959609a1b606082015260800190565b634e487b7160e01b600052601160045260246000fd5b808201808211156107a5576107a5613a03565b600060208284031215613a3e57600080fd5b8151610d45816136f0565b600060208284031215613a5b57600080fd5b5051919050565b634e487b7160e01b600052603260045260246000fd5b600081518084526020808501945080840160005b83811015613aa857815187529582019590820190600101613a8c565b509495945050505050565b604080825283519082018190526000906020906060840190828701845b82811015613af55781516001600160a01b031684529284019290840190600101613ad0565b50505083810382850152613b098186613a78565b9695505050505050565b600060018201613b2557613b25613a03565b5060010190565b6040808252810183905260008460608301825b86811015613b6d576001600160a01b03613b5884613593565b16825260209283019290910190600101613b3f565b508381036020850152613b808186613a78565b979650505050505050565b60008351613b9d818460208801613517565b835190830190613bb1818360208801613517565b01949350505050565b6000808335601e19843603018112613bd157600080fd5b83018035915067ffffffffffffffff821115613bec57600080fd5b602001915036819003821315613c0157600080fd5b9250929050565b601f82111561097957600081815260208120601f850160051c81016020861015613c2f5750805b601f850160051c820191505b81811015613c4e57828155600101613c3b565b505050505050565b67ffffffffffffffff831115613c6e57613c6e613735565b613c8283613c7c8354613936565b83613c08565b6000601f841160018114613cb65760008515613c9e5750838201355b600019600387901b1c1916600186901b178355612b66565b600083815260209020601f19861690835b82811015613ce75786850135825560209485019460019092019101613cc7565b5086821015613d045760001960f88860031b161c19848701351681555b505060018560011b0183555050505050565b600060208284031215613d2857600080fd5b8135610d45816136f0565b60208082526025908201527f4552433732313a207472616e736665722066726f6d20696e636f72726563742060408201526437bbb732b960d91b606082015260800190565b60208082526032908201527f4552433732313a207472616e7366657220746f206e6f6e20455243373231526560408201527131b2b4bb32b91034b6b83632b6b2b73a32b960711b606082015260800190565b6020808252602b908201527f496e697469616c697a61626c653a20636f6e7472616374206973206e6f74206960408201526a6e697469616c697a696e6760a81b606082015260800190565b60008751613e27818460208c01613517565b808301905060ff60f81b8860f81b1681526bffffffffffffffffffffffff198760601b1660018201528560158201528460358201528351613e6f816055840160208801613517565b0160550198975050505050505050565b608081526000613e92608083018761353b565b63ffffffff861660208401528460408401528281036060840152613b80818561353b565b6001600160a01b0385811682528416602082015260408101839052608060608201819052600090613b099083018461353b565b600060208284031215613efb57600080fd5b8151610d45816134e4565b815167ffffffffffffffff811115613f2057613f20613735565b613f3481613f2e8454613936565b84613c08565b602080601f831160018114613f695760008415613f515750858301515b600019600386901b1c1916600185901b178555613c4e565b600085815260208120601f198616915b82811015613f9857888601518255948401946001909101908401613f79565b5085821015613fb65787850151600019600388901b60f8161c191681555b5050505050600190811b0190555056fe7b2270726f706f73616c54797065223a20224144445f5348414d414e222c20227469746c65223a202252697465206f66204d6f6c6f63682028524f4d293a205368616d616e2050726f706f73616c222c20226465736372697074696f6e223a202241737369676e20524f4d2061732061204d616e616765722d5368616d616e20746f206d696e74206d696e696d756d2044414f20736861726573227ddf8b4c520ffe197c5343c6f5aec59570151ef9a492f2c624fd45ddde6135ec427b2270726f706f73616c54797065223a2022424f52524f575f544f50484154222c20227469746c65223a202252697465206f66204d6f6c6f63682028524f4d293a20486174732050726f706f73616c222c20226465736372697074696f6e223a202243726561746520616e64206d696e7420524f4d2d41646d696e20686174732066726f6d2044414f20546f70486174227da2646970667358221220cc282bd70cbb2d047719147e635b6e88b8f77b8d11cd5fa4907c026f9137b58664736f6c63430008110033",
    "linkReferences": {}
  },
  "methodIdentifiers": {
    "ADMIN()": "2a0acc6a",
    "DEFAULT_ADMIN_ROLE()": "a217fddf",
    "HATS()": "7150ef88",
    "adminHat()": "232b0432",
    "approve(address,uint256)": "095ea7b3",
    "baal()": "e5a2a2a5",
    "balanceOf(address)": "70a08231",
    "batchMintBaalShares(address[])": "c81f83a2",
    "changeHatsContract(address)": "b8c45361",
    "changeJoinSizeLimit(uint256)": "b8ebdcd9",
    "changeJoinTimeDuration(uint256)": "4558e83d",
    "changeRoleHat(bytes32,uint256)": "b5436cec",
    "checkStake(address)": "90d96d76",
    "claimStake()": "eb321173",
    "cohortCounter()": "aee4c96f",
    "cohortName()": "73f78fd0",
    "cohortSeason()": "f68659bd",
    "cohortSize()": "c6db8129",
    "cryForHelp(string)": "0c538f2f",
    "deadlines(address)": "e5d05722",
    "extendJoinTimeLimit(uint256)": "2a4a1342",
    "getApproved(uint256)": "081812fc",
    "getDeadline(address)": "a2213262",
    "getRoleAdmin(bytes32)": "248a9ca3",
    "grantRole(bytes32,uint256)": "1b6ea9f9",
    "hasRole(bytes32,address)": "91d14854",
    "hatsContract()": "97e39fef",
    "initialize((address,address,address,address,address,uint256,uint256,uint256,uint256,uint256,uint256,string,string,string,string,bool),address,address)": "cfdb44d6",
    "initializeHatTree(address,address,address)": "f3450f00",
    "isApprovedForAll(address,address)": "e985e9c5",
    "isMember(address)": "a230c524",
    "joinDuration()": "172bf854",
    "joinEndTime()": "35439bb3",
    "joinInitiation(address)": "c733d5e9",
    "maximumTime()": "f9bb68fc",
    "minimumShare()": "2e152618",
    "minimumStake()": "ec5ffac2",
    "name()": "06fdde03",
    "ownerOf(uint256)": "6352211e",
    "revokeRole(bytes32,uint256)": "19d61ad9",
    "sacrifice()": "8a040df4",
    "safeTransferFrom(address,address,uint256)": "42842e0e",
    "safeTransferFrom(address,address,uint256,bytes)": "b88d4fde",
    "setApprovalForAll(address,bool)": "a22cb465",
    "setMaxDuration(uint256)": "cf0f34c4",
    "setMinimumStake(uint256)": "233e9903",
    "setShareThreshold(uint256)": "bc5fa8df",
    "singleMintBaalShares(address)": "a3919d1f",
    "supportsInterface(bytes4)": "01ffc9a7",
    "symbol()": "95d89b41",
    "tokenURI(uint256)": "c87b56dd",
    "topHat()": "c2d14f02",
    "totalSlash(address)": "853a77c1",
    "transferFrom(address,address,uint256)": "23b872dd",
    "treasury()": "61d027b3"
  },
  "id": 53
}