{
  "abi": [
    {
      "inputs": [
        {
          "internalType": "address",
          "name": "_hatsProtocol",
          "type": "address"
        },
        {
          "internalType": "uint256",
          "name": "_factoryOperatorHat",
          "type": "uint256"
        }
      ],
      "stateMutability": "nonpayable",
      "type": "constructor"
    },
    {
      "inputs": [
        {
          "internalType": "bytes32",
          "name": "role",
          "type": "bytes32"
        },
        {
          "internalType": "uint256",
          "name": "hat",
          "type": "uint256"
        },
        {
          "internalType": "address",
          "name": "account",
          "type": "address"
        }
      ],
      "name": "NotWearingRoleHat",
      "type": "error"
    },
    {
      "inputs": [
        {
          "internalType": "bytes32",
          "name": "role",
          "type": "bytes32"
        },
        {
          "internalType": "uint256",
          "name": "roleHat",
          "type": "uint256"
        }
      ],
      "name": "RoleAlreadyAssigned",
      "type": "error"
    },
    {
      "anonymous": false,
      "inputs": [
        {
          "indexed": true,
          "internalType": "address",
          "name": "previousHatsContract",
          "type": "address"
        },
        {
          "indexed": true,
          "internalType": "address",
          "name": "newHatsContract",
          "type": "address"
        }
      ],
      "name": "HatsContractChanged",
      "type": "event"
    },
    {
      "anonymous": false,
      "inputs": [
        {
          "indexed": false,
          "internalType": "address",
          "name": "cohortContract",
          "type": "address"
        },
        {
          "indexed": false,
          "internalType": "address",
          "name": "deployer",
          "type": "address"
        },
        {
          "indexed": false,
          "internalType": "address",
          "name": "implementation",
          "type": "address"
        },
        {
          "indexed": false,
          "internalType": "address",
          "name": "membershipCriteria",
          "type": "address"
        },
        {
          "indexed": false,
          "internalType": "address",
          "name": "stakingAsset",
          "type": "address"
        },
        {
          "indexed": false,
          "internalType": "address",
          "name": "treasury",
          "type": "address"
        },
        {
          "indexed": false,
          "internalType": "uint256",
          "name": "threshold",
          "type": "uint256"
        },
        {
          "indexed": false,
          "internalType": "uint256",
          "name": "assetAmount",
          "type": "uint256"
        },
        {
          "indexed": false,
          "internalType": "uint256",
          "name": "stakeDuration",
          "type": "uint256"
        },
        {
          "indexed": false,
          "internalType": "string",
          "name": "sbtUrl",
          "type": "string"
        }
      ],
      "name": "NewRiteOfMoloch",
      "type": "event"
    },
    {
      "anonymous": false,
      "inputs": [
        {
          "indexed": true,
          "internalType": "bytes32",
          "name": "role",
          "type": "bytes32"
        },
        {
          "indexed": true,
          "internalType": "bytes32",
          "name": "previousAdminRole",
          "type": "bytes32"
        },
        {
          "indexed": true,
          "internalType": "bytes32",
          "name": "newAdminRole",
          "type": "bytes32"
        }
      ],
      "name": "RoleAdminChanged",
      "type": "event"
    },
    {
      "anonymous": false,
      "inputs": [
        {
          "indexed": true,
          "internalType": "bytes32",
          "name": "role",
          "type": "bytes32"
        },
        {
          "indexed": true,
          "internalType": "uint256",
          "name": "hat",
          "type": "uint256"
        },
        {
          "indexed": true,
          "internalType": "address",
          "name": "sender",
          "type": "address"
        }
      ],
      "name": "RoleGranted",
      "type": "event"
    },
    {
      "anonymous": false,
      "inputs": [
        {
          "indexed": true,
          "internalType": "bytes32",
          "name": "role",
          "type": "bytes32"
        },
        {
          "indexed": true,
          "internalType": "uint256",
          "name": "previousRoleHat",
          "type": "uint256"
        },
        {
          "indexed": true,
          "internalType": "uint256",
          "name": "newRoleHat",
          "type": "uint256"
        }
      ],
      "name": "RoleHatChanged",
      "type": "event"
    },
    {
      "anonymous": false,
      "inputs": [
        {
          "indexed": true,
          "internalType": "bytes32",
          "name": "role",
          "type": "bytes32"
        },
        {
          "indexed": true,
          "internalType": "uint256",
          "name": "hat",
          "type": "uint256"
        },
        {
          "indexed": true,
          "internalType": "address",
          "name": "sender",
          "type": "address"
        }
      ],
      "name": "RoleRevoked",
      "type": "event"
    },
    {
      "inputs": [],
      "name": "DEFAULT_ADMIN_ROLE",
      "outputs": [
        {
          "internalType": "bytes32",
          "name": "",
          "type": "bytes32"
        }
      ],
      "stateMutability": "view",
      "type": "function"
    },
    {
      "inputs": [],
      "name": "FACTORY_OPERATOR",
      "outputs": [
        {
          "internalType": "bytes32",
          "name": "",
          "type": "bytes32"
        }
      ],
      "stateMutability": "view",
      "type": "function"
    },
    {
      "inputs": [
        {
          "internalType": "address",
          "name": "implementation",
          "type": "address"
        }
      ],
      "name": "addImplementation",
      "outputs": [],
      "stateMutability": "nonpayable",
      "type": "function"
    },
    {
      "inputs": [
        {
          "internalType": "address",
          "name": "newHatsContract",
          "type": "address"
        }
      ],
      "name": "changeHatsContract",
      "outputs": [],
      "stateMutability": "nonpayable",
      "type": "function"
    },
    {
      "inputs": [
        {
          "internalType": "address",
          "name": "_hatsProtocol",
          "type": "address"
        }
      ],
      "name": "changeHatsProtocol",
      "outputs": [],
      "stateMutability": "nonpayable",
      "type": "function"
    },
    {
      "inputs": [
        {
          "internalType": "bytes32",
          "name": "role",
          "type": "bytes32"
        },
        {
          "internalType": "uint256",
          "name": "newRoleHat",
          "type": "uint256"
        }
      ],
      "name": "changeRoleHat",
      "outputs": [],
      "stateMutability": "nonpayable",
      "type": "function"
    },
    {
      "inputs": [
        {
          "components": [
            {
              "internalType": "address",
              "name": "membershipCriteria",
              "type": "address"
            },
            {
              "internalType": "address",
              "name": "stakingAsset",
              "type": "address"
            },
            {
              "internalType": "address",
              "name": "treasury",
              "type": "address"
            },
            {
              "internalType": "address",
              "name": "admin1",
              "type": "address"
            },
            {
              "internalType": "address",
              "name": "admin2",
              "type": "address"
            },
            {
              "internalType": "uint256",
              "name": "cohortSize",
              "type": "uint256"
            },
            {
              "internalType": "uint256",
              "name": "joinDuration",
              "type": "uint256"
            },
            {
              "internalType": "uint256",
              "name": "threshold",
              "type": "uint256"
            },
            {
              "internalType": "uint256",
              "name": "assetAmount",
              "type": "uint256"
            },
            {
              "internalType": "uint256",
              "name": "stakeDuration",
              "type": "uint256"
            },
            {
              "internalType": "uint256",
              "name": "topHatId",
              "type": "uint256"
            },
            {
              "internalType": "string",
              "name": "cohortName",
              "type": "string"
            },
            {
              "internalType": "string",
              "name": "sbtName",
              "type": "string"
            },
            {
              "internalType": "string",
              "name": "sbtSymbol",
              "type": "string"
            },
            {
              "internalType": "string",
              "name": "baseUri",
              "type": "string"
            },
            {
              "internalType": "bool",
              "name": "shamanOn",
              "type": "bool"
            }
          ],
          "internalType": "struct IInitData.InitData",
          "name": "initData",
          "type": "tuple"
        },
        {
          "internalType": "uint256",
          "name": "implementationSelector",
          "type": "uint256"
        }
      ],
      "name": "createCohort",
      "outputs": [
        {
          "internalType": "address",
          "name": "",
          "type": "address"
        }
      ],
      "stateMutability": "nonpayable",
      "type": "function"
    },
    {
      "inputs": [],
      "name": "factoryOperatorHat",
      "outputs": [
        {
          "internalType": "uint256",
          "name": "",
          "type": "uint256"
        }
      ],
      "stateMutability": "view",
      "type": "function"
    },
    {
      "inputs": [
        {
          "internalType": "bytes32",
          "name": "role",
          "type": "bytes32"
        }
      ],
      "name": "getRoleAdmin",
      "outputs": [
        {
          "internalType": "bytes32",
          "name": "",
          "type": "bytes32"
        }
      ],
      "stateMutability": "view",
      "type": "function"
    },
    {
      "inputs": [
        {
          "internalType": "bytes32",
          "name": "role",
          "type": "bytes32"
        },
        {
          "internalType": "uint256",
          "name": "hat",
          "type": "uint256"
        }
      ],
      "name": "grantRole",
      "outputs": [],
      "stateMutability": "nonpayable",
      "type": "function"
    },
    {
      "inputs": [
        {
          "internalType": "bytes32",
          "name": "role",
          "type": "bytes32"
        },
        {
          "internalType": "address",
          "name": "account",
          "type": "address"
        }
      ],
      "name": "hasRole",
      "outputs": [
        {
          "internalType": "bool",
          "name": "",
          "type": "bool"
        }
      ],
      "stateMutability": "view",
      "type": "function"
    },
    {
      "inputs": [],
      "name": "hatsContract",
      "outputs": [
        {
          "internalType": "address",
          "name": "",
          "type": "address"
        }
      ],
      "stateMutability": "view",
      "type": "function"
    },
    {
      "inputs": [],
      "name": "hatsProtocol",
      "outputs": [
        {
          "internalType": "address",
          "name": "",
          "type": "address"
        }
      ],
      "stateMutability": "view",
      "type": "function"
    },
    {
      "inputs": [],
      "name": "iid",
      "outputs": [
        {
          "internalType": "uint256",
          "name": "",
          "type": "uint256"
        }
      ],
      "stateMutability": "view",
      "type": "function"
    },
    {
      "inputs": [
        {
          "internalType": "uint256",
          "name": "",
          "type": "uint256"
        }
      ],
      "name": "implementations",
      "outputs": [
        {
          "internalType": "address",
          "name": "",
          "type": "address"
        }
      ],
      "stateMutability": "view",
      "type": "function"
    },
    {
      "inputs": [
        {
          "internalType": "bytes32",
          "name": "role",
          "type": "bytes32"
        },
        {
          "internalType": "uint256",
          "name": "hat",
          "type": "uint256"
        }
      ],
      "name": "revokeRole",
      "outputs": [],
      "stateMutability": "nonpayable",
      "type": "function"
    }
  ],
  "bytecode": {
    "object": "0x608060405234801561001057600080fd5b506040516200521238038062005212833981016040819052610031916101c9565b600480546001600160a01b0319166001600160a01b038416908117909155610058906100e6565b6001600355604051610069906101bb565b604051809103906000f080158015610085573d6000803e3d6000fd5b50600354600090815260026020526040902080546001600160a01b0319166001600160a01b03929092169190911790556100df7fb19670d2e3818e839ba59517be280f7a5561efd94d08a56c89ac3f27bce5803982610136565b5050610203565b600080546001600160a01b038381166001600160a01b0319831681178455604051919092169283917fe2c5fed45442eae2ee9c94b63f1e24155d9bfe92ecd80e48c35ebf29276757379190a35050565b60008281526001602052604090205480156101725760405163aab0817760e01b8152600481018490526024810182905260440160405180910390fd5b8181146101b657600083815260016020526040808220849055513391849186917f7c2a2c4bb5a44dafa473fc49e557303dba6db62123713789deefe8ccb384654991a45b505050565b6143178062000efb83390190565b600080604083850312156101dc57600080fd5b82516001600160a01b03811681146101f357600080fd5b6020939093015192949293505050565b610ce880620002136000396000f3fe608060405234801561001057600080fd5b50600436106101005760003560e01c806397e39fef11610097578063c049098f11610066578063c049098f1461024a578063c6e2a4001461025d578063f7b5fdfd14610270578063fd529b691461027957600080fd5b806397e39fef1461020b578063a217fddf1461021c578063b5436cec14610224578063b8c453611461023757600080fd5b806337ce178a116100d357806337ce178a14610177578063515c731b1461019e578063845affc8146101a757806391d14854146101e857600080fd5b80630be10b831461010557806319d61ad91461011a5780631b6ea9f91461012d578063248a9ca314610140575b600080fd5b610118610113366004610895565b61028c565b005b6101186101283660046108b0565b6102de565b61011861013b3660046108b0565b610309565b61016461014e3660046108d2565b6000908152600160208190526040909120015490565b6040519081526020015b60405180910390f35b6101647fb19670d2e3818e839ba59517be280f7a5561efd94d08a56c89ac3f27bce5803981565b61016460035481565b6101d06101b53660046108d2565b6002602052600090815260409020546001600160a01b031681565b6040516001600160a01b03909116815260200161016e565b6101fb6101f63660046108eb565b61032f565b604051901515815260200161016e565b6000546001600160a01b03166101d0565b610164600081565b6101186102323660046108b0565b6103b9565b610118610245366004610895565b6103df565b6004546101d0906001600160a01b031681565b61011861026b366004610895565b6103f3565b61016460055481565b6101d0610287366004610917565b610465565b7fb19670d2e3818e839ba59517be280f7a5561efd94d08a56c89ac3f27bce580396102b6816105f7565b600480546001600160a01b0319166001600160a01b0384161790556102da82610604565b5050565b600082815260016020819052604090912001546102fa816105f7565b6103048383610654565b505050565b60008281526001602081905260409091200154610325816105f7565b61030483836106aa565b60008054838252600160205260408083205490516321a9204d60e11b81526001600160a01b0385811660048301526024820192909252911690634352409a90604401602060405180830381865afa15801561038e573d6000803e3d6000fd5b505050506040513d601f19601f820116820180604052508101906103b29190610970565b9392505050565b600082815260016020819052604090912001546103d5816105f7565b610304838361072a565b60006103ea816105f7565b6102da82610604565b7fb19670d2e3818e839ba59517be280f7a5561efd94d08a56c89ac3f27bce5803961041d816105f7565b6003805490600061042d8361098d565b9091555050600354600090815260026020526040902080546001600160a01b0319166001600160a01b03939093169290921790915550565b6000808211801561047857506003548211155b6104bb5760405162461bcd60e51b815260206004820152600f60248201526e10b4b6b83632b6b2b73a30ba34b7b760891b60448201526064015b60405180910390fd5b6000828152600260205260408120546104dc906001600160a01b0316610793565b600480546040516367eda26b60e11b81529293506001600160a01b038085169363cfdb44d693610512938a931691339101610a35565b600060405180830381600087803b15801561052c57600080fd5b505af1158015610540573d6000803e3d6000fd5b5050506000848152600260209081526040909120547f3efec0bbb34a85f91d3e929bf7e6bf1cdcf3dd581ae1dc5505e8e13731e7067f9250839133916001600160a01b03169061059290890189610895565b6105a260408a0160208b01610895565b6105b260608b0160408c01610895565b60e08b01356101008c01356101208d01356105d16101c08f018f610bf4565b6040516105e89b9a99989796959493929190610c3b565b60405180910390a19392505050565b610601813361082d565b50565b600080546001600160a01b038381166001600160a01b0319831681178455604051919092169283917fe2c5fed45442eae2ee9c94b63f1e24155d9bfe92ecd80e48c35ebf29276757379190a35050565b6000828152600160205260409020548190036102da57600082815260016020526040808220829055513391839185917f641261709a27417e18d0ccc3db95ddc812d61be919b2a5a3af21a5870590922a91a45050565b60008281526001602052604090205480156106e25760405163aab0817760e01b815260048101849052602481018290526044016104b2565b81811461030457600083815260016020526040808220849055513391849186917f7c2a2c4bb5a44dafa473fc49e557303dba6db62123713789deefe8ccb384654991a4505050565b6000828152600160205260408120549081900361074b5761074b83836106aa565b81811461030457600083815260016020526040808220849055518391839186917fc3d694cb68f99c4c204d7aedbaba300907c24102aeeeecd32de2c9910609f30a91a4505050565b6000763d602d80600a3d3981f3363d3d373d3d3d363d730000008260601b60e81c176000526e5af43d82803e903d91602b57fd5bf38260781b17602052603760096000f090506001600160a01b0381166108285760405162461bcd60e51b8152602060048201526016602482015275115490cc4c4d8dce8818dc99585d194819985a5b195960521b60448201526064016104b2565b919050565b610837828261032f565b6102da5760008281526001602052604090819020549051631612509360e01b81526004810184905260248101919091526001600160a01b03821660448201526064016104b2565b80356001600160a01b038116811461082857600080fd5b6000602082840312156108a757600080fd5b6103b28261087e565b600080604083850312156108c357600080fd5b50508035926020909101359150565b6000602082840312156108e457600080fd5b5035919050565b600080604083850312156108fe57600080fd5b8235915061090e6020840161087e565b90509250929050565b6000806040838503121561092a57600080fd5b823567ffffffffffffffff81111561094157600080fd5b8301610200818603121561095457600080fd5b946020939093013593505050565b801515811461060157600080fd5b60006020828403121561098257600080fd5b81516103b281610962565b6000600182016109ad57634e487b7160e01b600052601160045260246000fd5b5060010190565b6000808335601e198436030181126109cb57600080fd5b830160208101925035905067ffffffffffffffff8111156109eb57600080fd5b8036038213156109fa57600080fd5b9250929050565b81835281816020850137506000828201602090810191909152601f909101601f19169091010190565b803561082881610962565b60608152610a5660608201610a498661087e565b6001600160a01b03169052565b6000610a646020860161087e565b6001600160a01b03166080830152610a7e6040860161087e565b6001600160a01b031660a0830152610a986060860161087e565b6001600160a01b031660c0830152610ab26080860161087e565b6001600160a01b03811660e08401525061010060a08601358184015261012060c08701358185015261014060e0880135818601526101608389013581870152610180935082890135848701526101a092508189013583870152610b17818a018a6109b4565b925090506102006101c08181890152610b3561026089018585610a01565b9350610b43868c018c6109b4565b96509250605f196101e0818a870301818b0152610b61868987610a01565b9750610b6f878e018e6109b4565b97509550818a890301848b0152610b87888888610a01565b9750610b95838e018e6109b4565b97509550818a8903016102208b0152610baf888888610a01565b9750610bbc818e01610a2a565b9650505050505050610bd361024085018215159052565b506001600160a01b0394851660208401529290931660409091015292915050565b6000808335601e19843603018112610c0b57600080fd5b83018035915067ffffffffffffffff821115610c2657600080fd5b6020019150368190038213156109fa57600080fd5b6001600160a01b038c811682528b811660208301528a8116604083015289811660608301528881166080830152871660a082015260c0810186905260e0810185905261010081018490526101406101208201819052600090610ca08382018587610a01565b9e9d505050505050505050505050505056fea2646970667358221220bc1ec7c44ff3f343e276addaf07262dd19ebdceafdc1e7f3c0a0d3138b262d2464736f6c6343000811003360806040523480156200001157600080fd5b506200001c62000022565b620000e3565b600054610100900460ff16156200008f5760405162461bcd60e51b815260206004820152602760248201527f496e697469616c697a61626c653a20636f6e747261637420697320696e697469604482015266616c697a696e6760c81b606482015260840160405180910390fd5b60005460ff90811614620000e1576000805460ff191660ff9081179091556040519081527f7f26b83ff96e1f2b6a682f133852f6798a09c465da95921460cefb38474024989060200160405180910390a15b565b61422480620000f36000396000f3fe608060405234801561001057600080fd5b506004361061035d5760003560e01c806395d89b41116101d3578063c6db812911610104578063e5d05722116100a2578063ec5ffac21161007c578063ec5ffac21461076c578063f3450f0014610775578063f68659bd14610788578063f9bb68fc1461079157600080fd5b8063e5d0572214610708578063e985e9c514610728578063eb3211731461076457600080fd5b8063c87b56dd116100de578063c87b56dd146106bc578063cf0f34c4146106cf578063cfdb44d6146106e2578063e5a2a2a5146106f557600080fd5b8063c6db81291461068d578063c733d5e914610696578063c81f83a2146106a957600080fd5b8063aee4c96f11610171578063b8c453611161014b578063b8c453611461064b578063b8ebdcd91461065e578063bc5fa8df14610671578063c2d14f021461068457600080fd5b8063aee4c96f1461061c578063b5436cec14610625578063b88d4fde1461063857600080fd5b8063a2213262116101ad578063a2213262146105ba578063a22cb465146105e3578063a230c524146105f6578063a3919d1f1461060957600080fd5b806395d89b411461059957806397e39fef146105a1578063a217fddf146105b257600080fd5b80632a4a1342116102ad57806370a082311161024b578063853a77c111610225578063853a77c1146105355780638a040df41461055557806390d96d761461055d57806391d148541461058657600080fd5b806370a08231146105075780637150ef881461051a57806373f78fd01461052d57600080fd5b806342842e0e1161028757806342842e0e146104bb5780634558e83d146104ce57806361d027b3146104e15780636352211e146104f457600080fd5b80632a4a1342146104965780632e152618146104a957806335439bb3146104b257600080fd5b806319d61ad91161031a578063233e9903116102f4578063233e99031461043857806323b872dd1461044b578063248a9ca31461045e5780632a0acc6a1461048157600080fd5b806319d61ad9146104095780631b6ea9f91461041c578063232b04321461042f57600080fd5b806301ffc9a71461036257806306fdde031461038a578063081812fc1461039f578063095ea7b3146103ca5780630c538f2f146103df578063172bf854146103f2575b600080fd5b6103756103703660046135a8565b61079a565b60405190151581526020015b60405180910390f35b6103926107ab565b6040516103819190613615565b6103b26103ad366004613628565b61083d565b6040516001600160a01b039091168152602001610381565b6103dd6103d8366004613656565b610864565b005b6103dd6103ed366004613682565b61097e565b6103fb60a75481565b604051908152602001610381565b6103dd6104173660046136f4565b610a23565b6103dd61042a3660046136f4565b610a48565b6103fb60af5481565b6103dd610446366004613628565b610a6d565b6103dd610459366004613716565b610a92565b6103fb61046c366004613628565b60009081526098602052604090206001015490565b6103fb60008051602061413d83398151915281565b6103dd6104a4366004613628565b610ac3565b6103fb60a95481565b6103fb60a85481565b6103dd6104c9366004613716565b610af0565b6103dd6104dc366004613628565b610b0b565b60ac546103b2906001600160a01b031681565b6103b2610502366004613628565b610b29565b6103fb610515366004613757565b610b89565b60ad546103b2906001600160a01b031681565b610392610c0f565b6103fb610543366004613757565b609b6020526000908152604090205481565b6103dd610c9d565b6103fb61056b366004613757565b6001600160a01b031660009081526099602052604090205490565b610375610594366004613774565b610cc0565b610392610d4c565b6097546001600160a01b03166103b2565b6103fb600081565b6103fb6105c8366004613757565b6001600160a01b03166000908152609a602052604090205490565b6103dd6105f13660046137b2565b610d5b565b610375610604366004613757565b610d66565b6103dd610617366004613757565b610dfb565b6103fb60a65481565b6103dd6106333660046136f4565b610f05565b6103dd6106463660046137f6565b610f2a565b6103dd610659366004613757565b610f62565b6103dd61066c366004613628565b610f76565b6103dd61067f366004613628565b610f94565b6103fb60ae5481565b6103fb60a55481565b6103dd6106a4366004613757565b610fb5565b6103dd6106b73660046138d6565b611157565b6103926106ca366004613628565b611228565b6103dd6106dd366004613628565b61128e565b6103dd6106f0366004613939565b6112af565b609f546103b2906001600160a01b031681565b6103fb610716366004613757565b609a6020526000908152604090205481565b6103756107363660046139a3565b6001600160a01b039182166000908152606a6020908152604080832093909416825291909152205460ff1690565b6103dd611a4b565b6103fb60aa5481565b6103dd6107833660046139d1565b611a99565b6103fb60a45481565b6103fb60ab5481565b60006107a582611de7565b92915050565b6060606580546107ba906139f1565b80601f01602080910402602001604051908101604052809291908181526020018280546107e6906139f1565b80156108335780601f1061080857610100808354040283529160200191610833565b820191906000526020600020905b81548152906001019060200180831161081657829003601f168201915b5050505050905090565b600061084882611e37565b506000908152606960205260409020546001600160a01b031690565b600061086f82610b29565b9050806001600160a01b0316836001600160a01b0316036108e15760405162461bcd60e51b815260206004820152602160248201527f4552433732313a20617070726f76616c20746f2063757272656e74206f776e656044820152603960f91b60648201526084015b60405180910390fd5b336001600160a01b03821614806108fd57506108fd8133610736565b61096f5760405162461bcd60e51b815260206004820152603d60248201527f4552433732313a20617070726f76652063616c6c6572206973206e6f7420746f60448201527f6b656e206f776e6572206f7220617070726f76656420666f7220616c6c00000060648201526084016108d8565b6109798383611e96565b505050565b61098733610b89565b6001146109d65760405162461bcd60e51b815260206004820152601960248201527f4f6e6c7920636f686f7274207061727469636970616e7473210000000000000060448201526064016108d8565b60ac546040517f7ad32bfb950c825d7d252f51537ad223c191a793ae9109cffc3bbd287485f6df91610a179133916001600160a01b03169086908690613a25565b60405180910390a15050565b600082815260986020526040902060010154610a3e81611f04565b6109798383611f0e565b600082815260986020526040902060010154610a6381611f04565b6109798383611f64565b60008051602061413d833981519152610a8581611f04565b610a8e82611fe4565b5050565b610a9c3382612081565b610ab85760405162461bcd60e51b81526004016108d890613a71565b610979838383612100565b60008051602061413d833981519152610adb81611f04565b8160a854610ae99190613ad4565b60a8555050565b61097983838360405180602001604052806000815250610f2a565b60008051602061413d833981519152610b2381611f04565b5060a755565b6000818152606760205260408120546001600160a01b0316806107a55760405162461bcd60e51b8152602060048201526018602482015277115490cdcc8c4e881a5b9d985b1a59081d1bdad95b88125160421b60448201526064016108d8565b60006001600160a01b038216610bf35760405162461bcd60e51b815260206004820152602960248201527f4552433732313a2061646472657373207a65726f206973206e6f7420612076616044820152683634b21037bbb732b960b91b60648201526084016108d8565b506001600160a01b031660009081526068602052604090205490565b60a38054610c1c906139f1565b80601f0160208091040260200160405190810160405280929190818152602001828054610c48906139f1565b8015610c955780601f10610c6a57610100808354040283529160200191610c95565b820191906000526020600020905b815481529060010190602001808311610c7857829003601f168201915b505050505081565b60008051602061413d833981519152610cb581611f04565b610cbd612271565b50565b6097546000838152609860205260408082205490516321a9204d60e11b81526001600160a01b038581166004830152602482019290925291921690634352409a90604401602060405180830381865afa158015610d21573d6000803e3d6000fd5b505050506040513d601f19601f82011682018060405250810190610d459190613ae7565b9392505050565b6060606680546107ba906139f1565b610a8e338383612361565b60a0546040516370a0823160e01b81526001600160a01b03838116600483015260009283929116906370a0823190602401602060405180830381865afa158015610db4573d6000803e3d6000fd5b505050506040513d601f19601f82011682018060405250810190610dd89190613b04565b905060a9548110610dec5750600192915050565b50600092915050565b50919050565b60008051602061413d833981519152610e1381611f04565b60408051600180825281830190925260009160208083019080368337505060408051600180825281830190925292935060009291506020808301908036833701905050905060a95482600081518110610e6e57610e6e613b1d565b6020026020010181815250508381600081518110610e8e57610e8e613b1d565b6001600160a01b039283166020918202929092010152609f54604051632c78fd0360e21b815291169063b1e3f40c90610ecd9084908690600401613b6e565b600060405180830381600087803b158015610ee757600080fd5b505af1158015610efb573d6000803e3d6000fd5b5050505050505050565b600082815260986020526040902060010154610f2081611f04565b610979838361242f565b610f343383612081565b610f505760405162461bcd60e51b81526004016108d890613a71565b610f5c84848484612498565b50505050565b6000610f6d81611f04565b610a8e826124cb565b60008051602061413d833981519152610f8e81611f04565b5060a555565b60008051602061413d833981519152610fac81611f04565b610a8e8261251d565b3233146110045760405162461bcd60e51b815260206004820152601f60248201527f5468652063616c6c657220697320616e6f7468657220636f6e7472616374210060448201526064016108d8565b60a8544211156110565760405162461bcd60e51b815260206004820152601960248201527f5468697320636f686f7274206973206e6f7720636c6f7365640000000000000060448201526064016108d8565b60a554609e5411156110aa5760405162461bcd60e51b815260206004820152601b60248201527f5468697320636f686f727420697320616c72656164792066756c6c000000000060448201526064016108d8565b6110b3816125b4565b6110f15760405162461bcd60e51b815260206004820152600f60248201526e5374616b696e67206661696c65642160881b60448201526064016108d8565b609c805460018101825560009182527faf85b9071dfafeac1409d3f1d19bafc9bc7c37974cde8df0ee6168f0086e539c0180546001600160a01b0319166001600160a01b03841617905560a680549161114983613bce565b9190505550610cbd816126c8565b60008051602061413d83398151915261116f81611f04565b60008267ffffffffffffffff81111561118a5761118a6137e0565b6040519080825280602002602001820160405280156111b3578160200160208202803683370190505b50905060005b838110156111f35760a9548282815181106111d6576111d6613b1d565b6020908102919091010152806111eb81613bce565b9150506111b9565b50609f54604051632c78fd0360e21b81526001600160a01b039091169063b1e3f40c90610ecd90879087908690600401613be7565b606061123382611e37565b600061123d61275e565b9050600081511161125d5760405180602001604052806000815250610d45565b806112678461276d565b604051602001611278929190613c48565b6040516020818303038152906040529392505050565b60008051602061413d8339815191526112a681611f04565b610a8e82612800565b600054610100900460ff16158080156112cf5750600054600160ff909116105b806112e95750303b1580156112e9575060005460ff166001145b61134c5760405162461bcd60e51b815260206004820152602e60248201527f496e697469616c697a61626c653a20636f6e747261637420697320616c72656160448201526d191e481a5b9a5d1a585b1a5e995960921b60648201526084016108d8565b6000805460ff19166001179055801561136f576000805461ff0019166101001790555b61137d609e80546001019055565b61138b610160850185613c77565b60a391611399919083613d13565b5060a084013560a55560c084013560a78190556113b69042613ad4565b60a8556114476113ca610180860186613c77565b8080601f01602080910402602001604051908101604052809392919081815260200183838082843760009201919091525061140d925050506101a0870187613c77565b8080601f01602080910402602001604051908101604052809392919081815260200183838082843760009201919091525061289692505050565b6114546020850185613757565b609f80546001600160a01b0319166001600160a01b0392909216918217905560408051638009ba1f60e01b81529051638009ba1f9160048082019260209290919082900301816000875af11580156114b0573d6000803e3d6000fd5b505050506040513d601f19601f820116820180604052508101906114d49190613dd3565b60a080546001600160a01b0319166001600160a01b03929092169190911790556115046060850160408601613757565b60ac80546001600160a01b0319166001600160a01b03929092169190911790556115346040850160208601613757565b60a180546001600160a01b0319166001600160a01b0392909216919091179055611562610100850135611fe4565b61156f8460e0013561251d565b61157d846101200135612800565b61159361158e6101c0860186613c77565b6128c7565b60ad80546001600160a01b0319166001600160a01b0385161790556115b7836124cb565b6115c961020085016101e08601613df0565b156116a85760606115db3060026128d4565b60408051600180825281830190925291925060009190816020015b60608152602001906001900390816115f6579050509050818160008151811061162157611621613b1d565b60209081029190910101526040805160018082528183019092526000918160200160208202803683375050609f5482519293506001600160a01b03169183915060009061167057611670613b1d565b60200260200101906001600160a01b031690816001600160a01b0316815250506116a461169d83836129b2565b6001612a93565b5050505b60ad5460ac546040516321a9204d60e11b81526001600160a01b0391821660048201526101408701356024820152911690634352409a90604401602060405180830381865afa1580156116ff573d6000803e3d6000fd5b505050506040513d601f19601f820116820180604052508101906117239190613ae7565b151560010361193c5761014084013560ae5560608061179560ae5460ac5460405160248101929092526001600160a01b0316604482015230606482015260609060840160408051601f198184030181529190526020810180516001600160e01b03166329287c1b60e21b179052919050565b9150611815846117ab6080890160608a01613757565b6117bb60a08a0160808b01613757565b6040516001600160a01b03808516602483015280841660448301528216606482015260609060840160408051601f198184030181529190526020810180516001600160e01b031662f3450f60e81b17905290509392505050565b6040805160028082526060820190925291925060009190816020015b6060815260200190600190039081611831579050509050828160008151811061185c5761185c613b1d565b6020026020010181905250818160018151811061187b5761187b613b1d565b602090810291909101015260408051600280825260608201909252600091816020016020820280368337505060ad5482519293506001600160a01b0316918391506000906118cb576118cb613b1d565b60200260200101906001600160a01b031690816001600160a01b03168152505030816001815181106118ff576118ff613b1d565b60200260200101906001600160a01b031690816001600160a01b03168152505061193361192c83836129b2565b6000612a93565b50505050611a00565b60ad54604051631a64dfad60e01b815230600482015260606024820152600a6064820152691493d348151bdc12185d60b21b608482015260a06044820152600060a48201526001600160a01b0390911690631a64dfad9060c4016020604051808303816000875af11580156119b5573d6000803e3d6000fd5b505050506040513d601f19601f820116820180604052508101906119d99190613b04565b60ae55611a00826119f06080870160608801613757565b61078360a0880160808901613757565b8015610f5c576000805461ff0019169055604051600181527f7f26b83ff96e1f2b6a682f133852f6798a09c465da95921460cefb38474024989060200160405180910390a150505050565b611a53612c0c565b611a5b612cc5565b611a975760405162461bcd60e51b815260206004820152600d60248201526c436c61696d206661696c65642160981b60448201526064016108d8565b565b60b05460ff1615611aec5760405162461bcd60e51b815260206004820152601860248201527f4861747320616c726561647920696e697469616c697a6564000000000000000060448201526064016108d8565b60b0805460ff1916600190811790915560ad5460ae54609f54604051635829492f60e11b8152600481019290925260e06024830152600960e4830152682927a69020b236b4b760b91b610104830152600360448301526001600160a01b0390811660648301819052608483015260a482019390935261012060c4820152600061012482015291169063b052925e90610144016020604051808303816000875af1158015611b9d573d6000803e3d6000fd5b505050506040513d601f19601f82011682018060405250810190611bc19190613b04565b60af81905560ad5460405163320fbbb760e11b815260048101929092526001600160a01b038581166024840152169063641f776e906044016020604051808303816000875af1158015611c18573d6000803e3d6000fd5b505050506040513d601f19601f82011682018060405250810190611c3c9190613ae7565b506001600160a01b03821615611cc95760ad5460af5460405163320fbbb760e11b815260048101919091526001600160a01b0384811660248301529091169063641f776e906044016020604051808303816000875af1158015611ca3573d6000803e3d6000fd5b505050506040513d601f19601f82011682018060405250810190611cc79190613ae7565b505b6001600160a01b03811615611d555760ad5460af5460405163320fbbb760e11b815260048101919091526001600160a01b0383811660248301529091169063641f776e906044016020604051808303816000875af1158015611d2f573d6000803e3d6000fd5b505050506040513d601f19601f82011682018060405250810190611d539190613ae7565b505b611d6f60008051602061413d83398151915260af54611f64565b60ad5460ae5460ac546040516329287c1b60e21b815260048101929092523060248301526001600160a01b0390811660448301529091169063a4a1f06c90606401600060405180830381600087803b158015611dca57600080fd5b505af1158015611dde573d6000803e3d6000fd5b50505050505050565b60006001600160e01b031982166380ac58cd60e01b1480611e1857506001600160e01b03198216635b5e139f60e01b145b806107a557506301ffc9a760e01b6001600160e01b03198316146107a5565b6000818152606760205260409020546001600160a01b0316610cbd5760405162461bcd60e51b8152602060048201526018602482015277115490cdcc8c4e881a5b9d985b1a59081d1bdad95b88125160421b60448201526064016108d8565b600081815260696020526040902080546001600160a01b0319166001600160a01b0384169081179091558190611ecb82610b29565b6001600160a01b03167f8c5be1e5ebec7d5bd14f71427d1e84f3dd0314c0f7b2291e5b200ac8c7c3b92560405160405180910390a45050565b610cbd8133612dfc565b600082815260986020526040902054819003610a8e57600082815260986020526040808220829055513391839185917f641261709a27417e18d0ccc3db95ddc812d61be919b2a5a3af21a5870590922a91a45050565b6000828152609860205260409020548015611f9c5760405163aab0817760e01b815260048101849052602481018290526044016108d8565b81811461097957600083815260986020526040808220849055513391849186917f7c2a2c4bb5a44dafa473fc49e557303dba6db62123713789deefe8ccb384654991a4505050565b600081116120455760405162461bcd60e51b815260206004820152602860248201527f4d696e696d756d207374616b65206d7573742062652067726561746572207468604482015267616e207a65726f2160c01b60648201526084016108d8565b60aa8190556040518181527fb4b5fad09421a48c68e8513475c3adbf47ed48a5eefe543d4fec52c82db47469906020015b60405180910390a150565b60008061208d83610b29565b9050806001600160a01b0316846001600160a01b031614806120d457506001600160a01b038082166000908152606a602090815260408083209388168352929052205460ff165b806120f85750836001600160a01b03166120ed8461083d565b6001600160a01b0316145b949350505050565b826001600160a01b031661211382610b29565b6001600160a01b0316146121395760405162461bcd60e51b81526004016108d890613e0d565b6001600160a01b03821661219b5760405162461bcd60e51b8152602060048201526024808201527f4552433732313a207472616e7366657220746f20746865207a65726f206164646044820152637265737360e01b60648201526084016108d8565b6121a88383836001612e4d565b826001600160a01b03166121bb82610b29565b6001600160a01b0316146121e15760405162461bcd60e51b81526004016108d890613e0d565b600081815260696020908152604080832080546001600160a01b03199081169091556001600160a01b0387811680865260688552838620805460001901905590871680865283862080546001019055868652606790945282852080549092168417909155905184937fddf252ad1be2c89b69c2b068fc378daa952ba7f163c4a11628f55a4df523b3ef91a4505050565b6000805b609c54811015612347576000609c828154811061229457612294613b1d565b60009182526020808320909101546001600160a01b0316808352609a90915260409091205490915042811080156122e257506001600160a01b03821660009081526099602052604090205415155b1561232d576122f082612ea4565b6122fa9085613ad4565b9350609c838154811061230f5761230f613b1d565b600091825260209091200180546001600160a01b0319169055612334565b5050612337565b50505b61234081613bce565b9050612275565b5061235181612f2a565b61235961300a565b610cbd6130d0565b816001600160a01b0316836001600160a01b0316036123c25760405162461bcd60e51b815260206004820152601960248201527f4552433732313a20617070726f766520746f2063616c6c65720000000000000060448201526064016108d8565b6001600160a01b038381166000818152606a6020908152604080832094871680845294825291829020805460ff191686151590811790915591519182527f17307eab39ab6107e8899845ad3d59bd9653f200f220920489ca2b5937696c31910160405180910390a3505050565b60008281526098602052604081205490819003612450576124508383611f64565b81811461097957600083815260986020526040808220849055518391839186917fc3d694cb68f99c4c204d7aedbaba300907c24102aeeeecd32de2c9910609f30a91a4505050565b6124a3848484612100565b6124af84848484613161565b610f5c5760405162461bcd60e51b81526004016108d890613e52565b609780546001600160a01b038381166001600160a01b0319831681179093556040519116919082907fe2c5fed45442eae2ee9c94b63f1e24155d9bfe92ecd80e48c35ebf292767573790600090a35050565b6000811161257f5760405162461bcd60e51b815260206004820152602960248201527f4d696e696d756d20736861726573206d7573742062652067726561746572207460448201526868616e207a65726f2160b81b60648201526084016108d8565b60a98190556040518181527f7155dd2d80b479664a5c9bf2c04a1b00c07aad515f3c089a20ce1ebff2c6ecdd90602001612076565b60006125bf82610b89565b1561260c5760405162461bcd60e51b815260206004820152601e60248201527f416c7265616479206a6f696e65642074686520696e6974696174696f6e21000060448201526064016108d8565b60aa546001600160a01b03831660009081526099602052604090205560ab546126359042613ad4565b6001600160a01b038381166000908152609a6020526040908190209290925560a15460aa5492516323b872dd60e01b8152336004820152306024820152604481019390935216906323b872dd906064016020604051808303816000875af11580156126a4573d6000803e3d6000fd5b505050506040513d601f19601f820116820180604052508101906107a59190613ae7565b60006126d3609e5490565b60aa546001600160a01b0384166000818152609a60209081526040918290205482519384523391840191909152908201849052606082019290925260808101919091529091507f9da9a86fb849b37cb0098539441b747ca3c0c5a367f5eaef701e6877e4b124d79060a00160405180910390a1612754609e80546001019055565b610a8e8282613262565b606060a280546107ba906139f1565b6060600061277a836133fb565b600101905060008167ffffffffffffffff81111561279a5761279a6137e0565b6040519080825280601f01601f1916602001820160405280156127c4576020820181803683370190505b5090508181016020015b600019016f181899199a1a9b1b9c1cb0b131b232b360811b600a86061a8153600a85049450846127ce57509392505050565b600081116128615760405162461bcd60e51b815260206004820152602860248201527f4d696e696d756d206475726174696f6e206d7573742062652067726561746572604482015267207468616e20302160c01b60648201526084016108d8565b60ab8190556040518181527f856717cb327b027e506a205b6a989525427e169d7b6acb09ad84d849dea2b93f90602001612076565b600054610100900460ff166128bd5760405162461bcd60e51b81526004016108d890613ea4565b610a8e82826134d3565b60a2610979828483613d13565b6040805160018082528183019092526060916000919060208083019080368337019050509050838160008151811061290e5761290e613b1d565b6001600160a01b039290921660209283029190910190910152604080516001808252818301909252600091816020016020820280368337019050509050838160008151811061295f5761295f613b1d565b602002602001018181525050818160405160240161297e929190613b6e565b60408051601f198184030181529190526020810180516001600160e01b0316630f656a2160e01b1790529250505092915050565b60608060005b8451811015612a4e578160008583815181106129d6576129d6613b1d565b602002602001015160008885815181106129f2576129f2613b1d565b602002602001015151898681518110612a0d57612a0d613b1d565b6020026020010151604051602001612a2a96959493929190613eef565b60405160208183030381529060405291508080612a4690613bce565b9150506129b8565b5080604051602401612a609190613615565b60408051601f198184030181529190526020810180516001600160e01b03166346c07f8560e11b17905291505092915050565b609f5460408051639a2f747f60e01b815290516000926001600160a01b031691639a2f747f916004808301926020929190829003018187875af1158015612ade573d6000803e3d6000fd5b505050506040513d601f19601f82011682018060405250810190612b029190613b04565b9050803414612b455760405162461bcd60e51b815260206004820152600f60248201526e4d697373696e67207472696275746560881b60448201526064016108d8565b60608215612b6d576040518060c00160405280609c81526020016140a1609c91399050612b89565b6040518060c001604052806092815260200161415d6092913990505b609f546040516307505ff960e31b81526001600160a01b0390911690633a82ffc8908490612bc290889060009081908890600401613f59565b60206040518083038185885af1158015612be0573d6000803e3d6000fd5b50505050506040513d601f19601f82011682018060405250810190612c059190613b04565b5050505050565b60a0546040516370a0823160e01b81523360048201526000916001600160a01b0316906370a0823190602401602060405180830381865afa158015612c55573d6000803e3d6000fd5b505050506040513d601f19601f82011682018060405250810190612c799190613b04565b905060a954811015610cbd5760405162461bcd60e51b8152602060048201526015602482015274596f75206d7573742062652061206d656d6265722160581b60448201526064016108d8565b33600081815260996020526040812054909190612d1a5760405162461bcd60e51b81526020600482015260136024820152725573657220686173206e6f207374616b65212160681b60448201526064016108d8565b6001600160a01b0381166000818152609960209081526040808320805490849055609a835281842093909355805193845290830182905290917f47cee97cb7acd717b3c0aa1435d004cd5b3c8c57d70dbceb4e4458bbd60e39d4910160405180910390a160a15460405163a9059cbb60e01b81526001600160a01b038481166004830152602482018490529091169063a9059cbb906044016020604051808303816000875af1158015612dd1573d6000803e3d6000fd5b505050506040513d601f19601f82011682018060405250810190612df59190613ae7565b9250505090565b612e068282610cc0565b610a8e5760008281526098602052604090819020549051631612509360e01b81526004810184905260248101919091526001600160a01b03821660448201526064016108d8565b6001600160a01b03841615610f5c5760405162461bcd60e51b815260206004820152601960248201527f5342542063616e6e6f74206265207472616e736665727265640000000000000060448201526064016108d8565b6001600160a01b0381166000818152609960209081526040808320548151948552918401829052339084015290917f1b4365d94ccfc86d7cd3eef46bf15cd821f8abb29721248eca1d751eebb669009060600160405180910390a16001600160a01b039092166000908152609960209081526040808320839055609a9091528120555090565b60a15460ac5460405163a9059cbb60e01b81526001600160a01b0391821660048201526024810184905291169063a9059cbb906044016020604051808303816000875af1158015612f7f573d6000803e3d6000fd5b505050506040513d601f19601f82011682018060405250810190612fa39190613ae7565b612fe35760405162461bcd60e51b81526020600482015260116024820152704661696c6564205361637269666963652160781b60448201526064016108d8565b336000908152609b602052604081208054839290613002908490613ad4565b909155505050565b60005b609c548110156130b25760006001600160a01b0316609c828154811061303557613035613b1d565b6000918252602090912001546001600160a01b0316146130a057609d609c828154811061306457613064613b1d565b60009182526020808320909101548354600181018555938352912090910180546001600160a01b0319166001600160a01b039092169190911790555b806130aa81613bce565b91505061300d565b50609d80546130c391609c91613513565b50611a97609d6000613563565b609c5460a681905560a554101561313a5760405162461bcd60e51b815260206004820152602860248201527f43617272792d6f76657220696e697469617465732065786365656420636f686f6044820152671c9d0b58dbdd5b9d60c21b60648201526084016108d8565b60a7546131479042613ad4565b60a85560a4805490600061315a83613bce565b9190505550565b60006001600160a01b0384163b1561325757604051630a85bd0160e11b81526001600160a01b0385169063150b7a02906131a5903390899088908890600401613f90565b6020604051808303816000875af19250505080156131e0575060408051601f3d908101601f191682019092526131dd91810190613fc3565b60015b61323d573d80801561320e576040519150601f19603f3d011682016040523d82523d6000602084013e613213565b606091505b5080516000036132355760405162461bcd60e51b81526004016108d890613e52565b805181602001fd5b6001600160e01b031916630a85bd0160e11b1490506120f8565b506001949350505050565b6001600160a01b0382166132b85760405162461bcd60e51b815260206004820181905260248201527f4552433732313a206d696e7420746f20746865207a65726f206164647265737360448201526064016108d8565b6000818152606760205260409020546001600160a01b03161561331d5760405162461bcd60e51b815260206004820152601c60248201527f4552433732313a20746f6b656e20616c7265616479206d696e7465640000000060448201526064016108d8565b61332b600083836001612e4d565b6000818152606760205260409020546001600160a01b0316156133905760405162461bcd60e51b815260206004820152601c60248201527f4552433732313a20746f6b656e20616c7265616479206d696e7465640000000060448201526064016108d8565b6001600160a01b038216600081815260686020908152604080832080546001019055848352606790915280822080546001600160a01b0319168417905551839291907fddf252ad1be2c89b69c2b068fc378daa952ba7f163c4a11628f55a4df523b3ef908290a45050565b60008072184f03e93ff9f4daa797ed6e38ed64bf6a1f0160401b831061343a5772184f03e93ff9f4daa797ed6e38ed64bf6a1f0160401b830492506040015b6d04ee2d6d415b85acef81000000008310613466576d04ee2d6d415b85acef8100000000830492506020015b662386f26fc10000831061348457662386f26fc10000830492506010015b6305f5e100831061349c576305f5e100830492506008015b61271083106134b057612710830492506004015b606483106134c2576064830492506002015b600a83106107a55760010192915050565b600054610100900460ff166134fa5760405162461bcd60e51b81526004016108d890613ea4565b60656135068382613fe0565b5060666109798282613fe0565b8280548282559060005260206000209081019282156135535760005260206000209182015b82811115613553578254825591600101919060010190613538565b5061355f92915061357d565b5090565b5080546000825590600052602060002090810190610cbd91905b5b8082111561355f576000815560010161357e565b6001600160e01b031981168114610cbd57600080fd5b6000602082840312156135ba57600080fd5b8135610d4581613592565b60005b838110156135e05781810151838201526020016135c8565b50506000910152565b600081518084526136018160208601602086016135c5565b601f01601f19169290920160200192915050565b602081526000610d4560208301846135e9565b60006020828403121561363a57600080fd5b5035919050565b6001600160a01b0381168114610cbd57600080fd5b6000806040838503121561366957600080fd5b823561367481613641565b946020939093013593505050565b6000806020838503121561369557600080fd5b823567ffffffffffffffff808211156136ad57600080fd5b818501915085601f8301126136c157600080fd5b8135818111156136d057600080fd5b8660208285010111156136e257600080fd5b60209290920196919550909350505050565b6000806040838503121561370757600080fd5b50508035926020909101359150565b60008060006060848603121561372b57600080fd5b833561373681613641565b9250602084013561374681613641565b929592945050506040919091013590565b60006020828403121561376957600080fd5b8135610d4581613641565b6000806040838503121561378757600080fd5b82359150602083013561379981613641565b809150509250929050565b8015158114610cbd57600080fd5b600080604083850312156137c557600080fd5b82356137d081613641565b91506020830135613799816137a4565b634e487b7160e01b600052604160045260246000fd5b6000806000806080858703121561380c57600080fd5b843561381781613641565b9350602085013561382781613641565b925060408501359150606085013567ffffffffffffffff8082111561384b57600080fd5b818701915087601f83011261385f57600080fd5b813581811115613871576138716137e0565b604051601f8201601f19908116603f01168101908382118183101715613899576138996137e0565b816040528281528a60208487010111156138b257600080fd5b82602086016020830137600060208483010152809550505050505092959194509250565b600080602083850312156138e957600080fd5b823567ffffffffffffffff8082111561390157600080fd5b818501915085601f83011261391557600080fd5b81358181111561392457600080fd5b8660208260051b85010111156136e257600080fd5b60008060006060848603121561394e57600080fd5b833567ffffffffffffffff81111561396557600080fd5b8401610200818703121561397857600080fd5b9250602084013561398881613641565b9150604084013561399881613641565b809150509250925092565b600080604083850312156139b657600080fd5b82356139c181613641565b9150602083013561379981613641565b6000806000606084860312156139e657600080fd5b833561397881613641565b600181811c90821680613a0557607f821691505b602082108103610df557634e487b7160e01b600052602260045260246000fd5b6001600160a01b0385811682528416602082015260606040820181905281018290526000828460808401376000608084840101526080601f19601f850116830101905095945050505050565b6020808252602d908201527f4552433732313a2063616c6c6572206973206e6f7420746f6b656e206f776e6560408201526c1c881bdc88185c1c1c9bdd9959609a1b606082015260800190565b634e487b7160e01b600052601160045260246000fd5b808201808211156107a5576107a5613abe565b600060208284031215613af957600080fd5b8151610d45816137a4565b600060208284031215613b1657600080fd5b5051919050565b634e487b7160e01b600052603260045260246000fd5b600081518084526020808501945080840160005b83811015613b6357815187529582019590820190600101613b47565b509495945050505050565b604080825283519082018190526000906020906060840190828701845b82811015613bb05781516001600160a01b031684529284019290840190600101613b8b565b50505083810382850152613bc48186613b33565b9695505050505050565b600060018201613be057613be0613abe565b5060010190565b6040808252810183905260008460608301825b86811015613c2a578235613c0d81613641565b6001600160a01b0316825260209283019290910190600101613bfa565b508381036020850152613c3d8186613b33565b979650505050505050565b60008351613c5a8184602088016135c5565b835190830190613c6e8183602088016135c5565b01949350505050565b6000808335601e19843603018112613c8e57600080fd5b83018035915067ffffffffffffffff821115613ca957600080fd5b602001915036819003821315613cbe57600080fd5b9250929050565b601f82111561097957600081815260208120601f850160051c81016020861015613cec5750805b601f850160051c820191505b81811015613d0b57828155600101613cf8565b505050505050565b67ffffffffffffffff831115613d2b57613d2b6137e0565b613d3f83613d3983546139f1565b83613cc5565b6000601f841160018114613d735760008515613d5b5750838201355b600019600387901b1c1916600186901b178355612c05565b600083815260209020601f19861690835b82811015613da45786850135825560209485019460019092019101613d84565b5086821015613dc15760001960f88860031b161c19848701351681555b505060018560011b0183555050505050565b600060208284031215613de557600080fd5b8151610d4581613641565b600060208284031215613e0257600080fd5b8135610d45816137a4565b60208082526025908201527f4552433732313a207472616e736665722066726f6d20696e636f72726563742060408201526437bbb732b960d91b606082015260800190565b60208082526032908201527f4552433732313a207472616e7366657220746f206e6f6e20455243373231526560408201527131b2b4bb32b91034b6b83632b6b2b73a32b960711b606082015260800190565b6020808252602b908201527f496e697469616c697a61626c653a20636f6e7472616374206973206e6f74206960408201526a6e697469616c697a696e6760a81b606082015260800190565b60008751613f01818460208c016135c5565b808301905060ff60f81b8860f81b1681526bffffffffffffffffffffffff198760601b1660018201528560158201528460358201528351613f498160558401602088016135c5565b0160550198975050505050505050565b608081526000613f6c60808301876135e9565b63ffffffff861660208401528460408401528281036060840152613c3d81856135e9565b6001600160a01b0385811682528416602082015260408101839052608060608201819052600090613bc4908301846135e9565b600060208284031215613fd557600080fd5b8151610d4581613592565b815167ffffffffffffffff811115613ffa57613ffa6137e0565b61400e8161400884546139f1565b84613cc5565b602080601f831160018114614043576000841561402b5750858301515b600019600386901b1c1916600185901b178555613d0b565b600085815260208120601f198616915b8281101561407257888601518255948401946001909101908401614053565b50858210156140905787850151600019600388901b60f8161c191681555b5050505050600190811b0190555056fe7b2270726f706f73616c54797065223a20224144445f5348414d414e222c20227469746c65223a202252697465206f66204d6f6c6f63682028524f4d293a205368616d616e2050726f706f73616c222c20226465736372697074696f6e223a202241737369676e20524f4d2061732061204d616e616765722d5368616d616e20746f206d696e74206d696e696d756d2044414f20736861726573227ddf8b4c520ffe197c5343c6f5aec59570151ef9a492f2c624fd45ddde6135ec427b2270726f706f73616c54797065223a2022424f52524f575f544f50484154222c20227469746c65223a202252697465206f66204d6f6c6f63682028524f4d293a20486174732050726f706f73616c222c20226465736372697074696f6e223a202243726561746520616e64206d696e7420524f4d2d41646d696e20686174732066726f6d2044414f20546f70486174227da26469706673582212201ad4e9bfea7c4727ceede77f263386f8b8510e4ac56932c245bd757c5b8988ba64736f6c63430008110033",
    "linkReferences": {}
  },
  "methodIdentifiers": {
    "DEFAULT_ADMIN_ROLE()": "a217fddf",
    "FACTORY_OPERATOR()": "37ce178a",
    "addImplementation(address)": "c6e2a400",
    "changeHatsContract(address)": "b8c45361",
    "changeHatsProtocol(address)": "0be10b83",
    "changeRoleHat(bytes32,uint256)": "b5436cec",
    "createCohort((address,address,address,address,address,uint256,uint256,uint256,uint256,uint256,uint256,string,string,string,string,bool),uint256)": "fd529b69",
    "factoryOperatorHat()": "f7b5fdfd",
    "getRoleAdmin(bytes32)": "248a9ca3",
    "grantRole(bytes32,uint256)": "1b6ea9f9",
    "hasRole(bytes32,address)": "91d14854",
    "hatsContract()": "97e39fef",
    "hatsProtocol()": "c049098f",
    "iid()": "515c731b",
    "implementations(uint256)": "845affc8",
    "revokeRole(bytes32,uint256)": "19d61ad9"
  },
  "id": 59
}