{
  "abi": [
    {
      "inputs": [
        {
          "internalType": "address",
          "name": "_hatsProtocol",
          "type": "address"
        },
        {
          "internalType": "uint256",
          "name": "_factoryOperatorHat",
          "type": "uint256"
        }
      ],
      "stateMutability": "nonpayable",
      "type": "constructor"
    },
    {
      "inputs": [
        {
          "internalType": "bytes32",
          "name": "role",
          "type": "bytes32"
        },
        {
          "internalType": "uint256",
          "name": "hat",
          "type": "uint256"
        },
        {
          "internalType": "address",
          "name": "account",
          "type": "address"
        }
      ],
      "name": "NotWearingRoleHat",
      "type": "error"
    },
    {
      "inputs": [
        {
          "internalType": "bytes32",
          "name": "role",
          "type": "bytes32"
        },
        {
          "internalType": "uint256",
          "name": "roleHat",
          "type": "uint256"
        }
      ],
      "name": "RoleAlreadyAssigned",
      "type": "error"
    },
    {
      "anonymous": false,
      "inputs": [
        {
          "indexed": true,
          "internalType": "address",
          "name": "previousHatsContract",
          "type": "address"
        },
        {
          "indexed": true,
          "internalType": "address",
          "name": "newHatsContract",
          "type": "address"
        }
      ],
      "name": "HatsContractChanged",
      "type": "event"
    },
    {
      "anonymous": false,
      "inputs": [
        {
          "indexed": false,
          "internalType": "address",
          "name": "cohortContract",
          "type": "address"
        },
        {
          "indexed": false,
          "internalType": "address",
          "name": "deployer",
          "type": "address"
        },
        {
          "indexed": false,
          "internalType": "address",
          "name": "implementation",
          "type": "address"
        },
        {
          "indexed": false,
          "internalType": "address",
          "name": "membershipCriteria",
          "type": "address"
        },
        {
          "indexed": false,
          "internalType": "address",
          "name": "stakingAsset",
          "type": "address"
        },
        {
          "indexed": false,
          "internalType": "address",
          "name": "treasury",
          "type": "address"
        },
        {
          "indexed": false,
          "internalType": "uint256",
          "name": "threshold",
          "type": "uint256"
        },
        {
          "indexed": false,
          "internalType": "uint256",
          "name": "assetAmount",
          "type": "uint256"
        },
        {
          "indexed": false,
          "internalType": "uint256",
          "name": "stakeDuration",
          "type": "uint256"
        }
      ],
      "name": "NewRiteOfMoloch",
      "type": "event"
    },
    {
      "anonymous": false,
      "inputs": [
        {
          "indexed": true,
          "internalType": "bytes32",
          "name": "role",
          "type": "bytes32"
        },
        {
          "indexed": true,
          "internalType": "bytes32",
          "name": "previousAdminRole",
          "type": "bytes32"
        },
        {
          "indexed": true,
          "internalType": "bytes32",
          "name": "newAdminRole",
          "type": "bytes32"
        }
      ],
      "name": "RoleAdminChanged",
      "type": "event"
    },
    {
      "anonymous": false,
      "inputs": [
        {
          "indexed": true,
          "internalType": "bytes32",
          "name": "role",
          "type": "bytes32"
        },
        {
          "indexed": true,
          "internalType": "uint256",
          "name": "hat",
          "type": "uint256"
        },
        {
          "indexed": true,
          "internalType": "address",
          "name": "sender",
          "type": "address"
        }
      ],
      "name": "RoleGranted",
      "type": "event"
    },
    {
      "anonymous": false,
      "inputs": [
        {
          "indexed": true,
          "internalType": "bytes32",
          "name": "role",
          "type": "bytes32"
        },
        {
          "indexed": true,
          "internalType": "uint256",
          "name": "previousRoleHat",
          "type": "uint256"
        },
        {
          "indexed": true,
          "internalType": "uint256",
          "name": "newRoleHat",
          "type": "uint256"
        }
      ],
      "name": "RoleHatChanged",
      "type": "event"
    },
    {
      "anonymous": false,
      "inputs": [
        {
          "indexed": true,
          "internalType": "bytes32",
          "name": "role",
          "type": "bytes32"
        },
        {
          "indexed": true,
          "internalType": "uint256",
          "name": "hat",
          "type": "uint256"
        },
        {
          "indexed": true,
          "internalType": "address",
          "name": "sender",
          "type": "address"
        }
      ],
      "name": "RoleRevoked",
      "type": "event"
    },
    {
      "inputs": [],
      "name": "DEFAULT_ADMIN_ROLE",
      "outputs": [
        {
          "internalType": "bytes32",
          "name": "",
          "type": "bytes32"
        }
      ],
      "stateMutability": "view",
      "type": "function"
    },
    {
      "inputs": [],
      "name": "FACTORY_OPERATOR",
      "outputs": [
        {
          "internalType": "bytes32",
          "name": "",
          "type": "bytes32"
        }
      ],
      "stateMutability": "view",
      "type": "function"
    },
    {
      "inputs": [
        {
          "internalType": "bytes32",
          "name": "",
          "type": "bytes32"
        }
      ],
      "name": "_roles",
      "outputs": [
        {
          "internalType": "uint256",
          "name": "hat",
          "type": "uint256"
        },
        {
          "internalType": "bytes32",
          "name": "adminRole",
          "type": "bytes32"
        }
      ],
      "stateMutability": "view",
      "type": "function"
    },
    {
      "inputs": [
        {
          "internalType": "address",
          "name": "implementation",
          "type": "address"
        }
      ],
      "name": "addImplementation",
      "outputs": [],
      "stateMutability": "nonpayable",
      "type": "function"
    },
    {
      "inputs": [
        {
          "internalType": "address",
          "name": "newHatsContract",
          "type": "address"
        }
      ],
      "name": "changeHatsContract",
      "outputs": [],
      "stateMutability": "nonpayable",
      "type": "function"
    },
    {
      "inputs": [
        {
          "internalType": "address",
          "name": "_hatsProtocol",
          "type": "address"
        }
      ],
      "name": "changeHatsProtocol",
      "outputs": [],
      "stateMutability": "nonpayable",
      "type": "function"
    },
    {
      "inputs": [
        {
          "internalType": "bytes32",
          "name": "role",
          "type": "bytes32"
        },
        {
          "internalType": "uint256",
          "name": "newRoleHat",
          "type": "uint256"
        }
      ],
      "name": "changeRoleHat",
      "outputs": [],
      "stateMutability": "nonpayable",
      "type": "function"
    },
    {
      "inputs": [
        {
          "components": [
            {
              "internalType": "address",
              "name": "membershipCriteria",
              "type": "address"
            },
            {
              "internalType": "address",
              "name": "stakingAsset",
              "type": "address"
            },
            {
              "internalType": "address",
              "name": "treasury",
              "type": "address"
            },
            {
              "internalType": "address",
              "name": "admin1",
              "type": "address"
            },
            {
              "internalType": "address",
              "name": "admin2",
              "type": "address"
            },
            {
              "internalType": "uint256",
              "name": "cohortSize",
              "type": "uint256"
            },
            {
              "internalType": "uint256",
              "name": "joinDuration",
              "type": "uint256"
            },
            {
              "internalType": "uint256",
              "name": "threshold",
              "type": "uint256"
            },
            {
              "internalType": "uint256",
              "name": "assetAmount",
              "type": "uint256"
            },
            {
              "internalType": "uint256",
              "name": "stakeDuration",
              "type": "uint256"
            },
            {
              "internalType": "uint256",
              "name": "topHatId",
              "type": "uint256"
            },
            {
              "internalType": "string",
              "name": "cohortName",
              "type": "string"
            },
            {
              "internalType": "string",
              "name": "sbtName",
              "type": "string"
            },
            {
              "internalType": "string",
              "name": "sbtSymbol",
              "type": "string"
            },
            {
              "internalType": "string",
              "name": "baseUri",
              "type": "string"
            },
            {
              "internalType": "bool",
              "name": "shamanOn",
              "type": "bool"
            }
          ],
          "internalType": "struct IInitData.InitData",
          "name": "initData",
          "type": "tuple"
        },
        {
          "internalType": "uint256",
          "name": "implementationSelector",
          "type": "uint256"
        }
      ],
      "name": "createCohort",
      "outputs": [
        {
          "internalType": "address",
          "name": "",
          "type": "address"
        }
      ],
      "stateMutability": "nonpayable",
      "type": "function"
    },
    {
      "inputs": [],
      "name": "factoryOperatorHat",
      "outputs": [
        {
          "internalType": "uint256",
          "name": "",
          "type": "uint256"
        }
      ],
      "stateMutability": "view",
      "type": "function"
    },
    {
      "inputs": [
        {
          "internalType": "bytes32",
          "name": "role",
          "type": "bytes32"
        }
      ],
      "name": "getRoleAdmin",
      "outputs": [
        {
          "internalType": "bytes32",
          "name": "",
          "type": "bytes32"
        }
      ],
      "stateMutability": "view",
      "type": "function"
    },
    {
      "inputs": [
        {
          "internalType": "bytes32",
          "name": "role",
          "type": "bytes32"
        },
        {
          "internalType": "uint256",
          "name": "hat",
          "type": "uint256"
        }
      ],
      "name": "grantRole",
      "outputs": [],
      "stateMutability": "nonpayable",
      "type": "function"
    },
    {
      "inputs": [
        {
          "internalType": "bytes32",
          "name": "role",
          "type": "bytes32"
        },
        {
          "internalType": "address",
          "name": "account",
          "type": "address"
        }
      ],
      "name": "hasRole",
      "outputs": [
        {
          "internalType": "bool",
          "name": "",
          "type": "bool"
        }
      ],
      "stateMutability": "view",
      "type": "function"
    },
    {
      "inputs": [],
      "name": "hatsContract",
      "outputs": [
        {
          "internalType": "address",
          "name": "",
          "type": "address"
        }
      ],
      "stateMutability": "view",
      "type": "function"
    },
    {
      "inputs": [],
      "name": "hatsProtocol",
      "outputs": [
        {
          "internalType": "address",
          "name": "",
          "type": "address"
        }
      ],
      "stateMutability": "view",
      "type": "function"
    },
    {
      "inputs": [],
      "name": "iid",
      "outputs": [
        {
          "internalType": "uint256",
          "name": "",
          "type": "uint256"
        }
      ],
      "stateMutability": "view",
      "type": "function"
    },
    {
      "inputs": [
        {
          "internalType": "uint256",
          "name": "",
          "type": "uint256"
        }
      ],
      "name": "implementations",
      "outputs": [
        {
          "internalType": "address",
          "name": "",
          "type": "address"
        }
      ],
      "stateMutability": "view",
      "type": "function"
    },
    {
      "inputs": [
        {
          "internalType": "bytes32",
          "name": "role",
          "type": "bytes32"
        },
        {
          "internalType": "uint256",
          "name": "hat",
          "type": "uint256"
        }
      ],
      "name": "revokeRole",
      "outputs": [],
      "stateMutability": "nonpayable",
      "type": "function"
    }
  ],
  "bytecode": {
    "object": "0x608060405234801561001057600080fd5b50604051620050fe380380620050fe833981016040819052610031916101c9565b600580546001600160a01b0319166001600160a01b038416908117909155610058906100e6565b6001600455604051610069906101bb565b604051809103906000f080158015610085573d6000803e3d6000fd5b50600454600090815260036020526040902080546001600160a01b0319166001600160a01b03929092169190911790556100df7fb19670d2e3818e839ba59517be280f7a5561efd94d08a56c89ac3f27bce5803982610136565b5050610203565b600080546001600160a01b038381166001600160a01b0319831681178455604051919092169283917fe2c5fed45442eae2ee9c94b63f1e24155d9bfe92ecd80e48c35ebf29276757379190a35050565b60008281526001602052604090205480156101725760405163aab0817760e01b8152600481018490526024810182905260440160405180910390fd5b8181146101b657600083815260016020526040808220849055513391849186917f7c2a2c4bb5a44dafa473fc49e557303dba6db62123713789deefe8ccb384654991a45b505050565b61424c8062000eb283390190565b600080604083850312156101dc57600080fd5b82516001600160a01b03811681146101f357600080fd5b6020939093015192949293505050565b610c9f80620002136000396000f3fe608060405234801561001057600080fd5b506004361061010b5760003560e01c806397e39fef116100a2578063bd99d7e111610071578063bd99d7e114610255578063c049098f14610291578063c6e2a400146102a4578063f7b5fdfd146102b7578063fd529b69146102c057600080fd5b806397e39fef14610216578063a217fddf14610227578063b5436cec1461022f578063b8c453611461024257600080fd5b806337ce178a116100de57806337ce178a14610182578063515c731b146101a9578063845affc8146101b257806391d14854146101f357600080fd5b80630be10b831461011057806319d61ad9146101255780631b6ea9f914610138578063248a9ca31461014b575b600080fd5b61012361011e36600461090a565b6102d3565b005b610123610133366004610925565b610325565b610123610146366004610925565b610350565b61016f610159366004610947565b6000908152600160208190526040909120015490565b6040519081526020015b60405180910390f35b61016f7fb19670d2e3818e839ba59517be280f7a5561efd94d08a56c89ac3f27bce5803981565b61016f60045481565b6101db6101c0366004610947565b6003602052600090815260409020546001600160a01b031681565b6040516001600160a01b039091168152602001610179565b610206610201366004610960565b610376565b6040519015158152602001610179565b6000546001600160a01b03166101db565b61016f600081565b61012361023d366004610925565b610400565b61012361025036600461090a565b610426565b61027c610263366004610947565b6002602052600090815260409020805460019091015482565b60408051928352602083019190915201610179565b6005546101db906001600160a01b031681565b6101236102b236600461090a565b61043a565b61016f60065481565b6101db6102ce36600461098c565b6104ac565b7fb19670d2e3818e839ba59517be280f7a5561efd94d08a56c89ac3f27bce580396102fd8161066c565b600580546001600160a01b0319166001600160a01b03841617905561032182610679565b5050565b600082815260016020819052604090912001546103418161066c565b61034b83836106c9565b505050565b6000828152600160208190526040909120015461036c8161066c565b61034b838361071f565b60008054838252600160205260408083205490516321a9204d60e11b81526001600160a01b0385811660048301526024820192909252911690634352409a90604401602060405180830381865afa1580156103d5573d6000803e3d6000fd5b505050506040513d601f19601f820116820180604052508101906103f991906109e5565b9392505050565b6000828152600160208190526040909120015461041c8161066c565b61034b838361079f565b60006104318161066c565b61032182610679565b7fb19670d2e3818e839ba59517be280f7a5561efd94d08a56c89ac3f27bce580396104648161066c565b6004805490600061047483610a02565b9091555050600454600090815260036020526040902080546001600160a01b0319166001600160a01b03939093169290921790915550565b600080821180156104bf57506004548211155b6105025760405162461bcd60e51b815260206004820152600f60248201526e10b4b6b83632b6b2b73a30ba34b7b760891b60448201526064015b60405180910390fd5b600082815260036020526040812054610523906001600160a01b0316610808565b6005546040516367eda26b60e11b81529192506001600160a01b038084169263cfdb44d69261055b9289929116903390600401610aaa565b600060405180830381600087803b15801561057557600080fd5b505af1158015610589573d6000803e3d6000fd5b5050506000848152600360209081526040909120547fdb1360348b9d54bfb6c13492d3f409e853ecb6998f117acb7c6ea0a81dce12ba9250839133916001600160a01b0316906105db9089018961090a565b6105eb60408a0160208b0161090a565b6105fb60608b0160408c0161090a565b604080516001600160a01b03978816815295871660208701529386169385019390935290841660608401528316608083015290911660a082015260e08681013560c0830152610100808801359183019190915261012080880135918301919091520160405180910390a19392505050565b61067681336108a2565b50565b600080546001600160a01b038381166001600160a01b0319831681178455604051919092169283917fe2c5fed45442eae2ee9c94b63f1e24155d9bfe92ecd80e48c35ebf29276757379190a35050565b60008281526001602052604090205481900361032157600082815260016020526040808220829055513391839185917f641261709a27417e18d0ccc3db95ddc812d61be919b2a5a3af21a5870590922a91a45050565b60008281526001602052604090205480156107575760405163aab0817760e01b815260048101849052602481018290526044016104f9565b81811461034b57600083815260016020526040808220849055513391849186917f7c2a2c4bb5a44dafa473fc49e557303dba6db62123713789deefe8ccb384654991a4505050565b600082815260016020526040812054908190036107c0576107c0838361071f565b81811461034b57600083815260016020526040808220849055518391839186917fc3d694cb68f99c4c204d7aedbaba300907c24102aeeeecd32de2c9910609f30a91a4505050565b6000763d602d80600a3d3981f3363d3d373d3d3d363d730000008260601b60e81c176000526e5af43d82803e903d91602b57fd5bf38260781b17602052603760096000f090506001600160a01b03811661089d5760405162461bcd60e51b8152602060048201526016602482015275115490cc4c4d8dce8818dc99585d194819985a5b195960521b60448201526064016104f9565b919050565b6108ac8282610376565b6103215760008281526001602052604090819020549051631612509360e01b81526004810184905260248101919091526001600160a01b03821660448201526064016104f9565b80356001600160a01b038116811461089d57600080fd5b60006020828403121561091c57600080fd5b6103f9826108f3565b6000806040838503121561093857600080fd5b50508035926020909101359150565b60006020828403121561095957600080fd5b5035919050565b6000806040838503121561097357600080fd5b82359150610983602084016108f3565b90509250929050565b6000806040838503121561099f57600080fd5b823567ffffffffffffffff8111156109b657600080fd5b830161020081860312156109c957600080fd5b946020939093013593505050565b801515811461067657600080fd5b6000602082840312156109f757600080fd5b81516103f9816109d7565b600060018201610a2257634e487b7160e01b600052601160045260246000fd5b5060010190565b6000808335601e19843603018112610a4057600080fd5b830160208101925035905067ffffffffffffffff811115610a6057600080fd5b803603821315610a6f57600080fd5b9250929050565b81835281816020850137506000828201602090810191909152601f909101601f19169091010190565b803561089d816109d7565b60608152610acb60608201610abe866108f3565b6001600160a01b03169052565b6000610ad9602086016108f3565b6001600160a01b03166080830152610af3604086016108f3565b6001600160a01b031660a0830152610b0d606086016108f3565b6001600160a01b031660c0830152610b27608086016108f3565b6001600160a01b03811660e08401525061010060a08601358184015261012060c08701358185015261014060e0880135818601526101608389013581870152610180935082890135848701526101a092508189013583870152610b8c818a018a610a29565b925090506102006101c08181890152610baa61026089018585610a76565b9350610bb8868c018c610a29565b96509250605f196101e0818a870301818b0152610bd6868987610a76565b9750610be4878e018e610a29565b97509550818a890301848b0152610bfc888888610a76565b9750610c0a838e018e610a29565b97509550818a8903016102208b0152610c24888888610a76565b9750610c31818e01610a9f565b9650505050505050610c4861024085018215159052565b506001600160a01b039485166020840152929093166040909101529291505056fea2646970667358221220909ee6c3832dbe41a257e021b01bc1a104172510b235663b8f7e2fcd0cb9e64f64736f6c6343000811003360806040523480156200001157600080fd5b506200001c62000022565b620000e3565b600054610100900460ff16156200008f5760405162461bcd60e51b815260206004820152602760248201527f496e697469616c697a61626c653a20636f6e747261637420697320696e697469604482015266616c697a696e6760c81b606482015260840160405180910390fd5b60005460ff90811614620000e1576000805460ff191660ff9081179091556040519081527f7f26b83ff96e1f2b6a682f133852f6798a09c465da95921460cefb38474024989060200160405180910390a15b565b61415980620000f36000396000f3fe608060405234801561001057600080fd5b506004361061035d5760003560e01c806395d89b41116101d3578063c6db812911610104578063e5d05722116100a2578063ec5ffac21161007c578063ec5ffac21461076c578063f3450f0014610775578063f68659bd14610788578063f9bb68fc1461079157600080fd5b8063e5d0572214610708578063e985e9c514610728578063eb3211731461076457600080fd5b8063c87b56dd116100de578063c87b56dd146106bc578063cf0f34c4146106cf578063cfdb44d6146106e2578063e5a2a2a5146106f557600080fd5b8063c6db81291461068d578063c733d5e914610696578063c81f83a2146106a957600080fd5b8063aee4c96f11610171578063b8c453611161014b578063b8c453611461064b578063b8ebdcd91461065e578063bc5fa8df14610671578063c2d14f021461068457600080fd5b8063aee4c96f1461061c578063b5436cec14610625578063b88d4fde1461063857600080fd5b8063a2213262116101ad578063a2213262146105ba578063a22cb465146105e3578063a230c524146105f6578063a3919d1f1461060957600080fd5b806395d89b411461059957806397e39fef146105a1578063a217fddf146105b257600080fd5b80632a4a1342116102ad57806370a082311161024b578063853a77c111610225578063853a77c1146105355780638a040df41461055557806390d96d761461055d57806391d148541461058657600080fd5b806370a08231146105075780637150ef881461051a57806373f78fd01461052d57600080fd5b806342842e0e1161028757806342842e0e146104bb5780634558e83d146104ce57806361d027b3146104e15780636352211e146104f457600080fd5b80632a4a1342146104965780632e152618146104a957806335439bb3146104b257600080fd5b806319d61ad91161031a578063233e9903116102f4578063233e99031461043857806323b872dd1461044b578063248a9ca31461045e5780632a0acc6a1461048157600080fd5b806319d61ad9146104095780631b6ea9f91461041c578063232b04321461042f57600080fd5b806301ffc9a71461036257806306fdde031461038a578063081812fc1461039f578063095ea7b3146103ca5780630c538f2f146103df578063172bf854146103f2575b600080fd5b610375610370366004613509565b61079a565b60405190151581526020015b60405180910390f35b6103926107ab565b6040516103819190613576565b6103b26103ad366004613589565b61083d565b6040516001600160a01b039091168152602001610381565b6103dd6103d83660046135be565b610864565b005b6103dd6103ed3660046135e8565b61097e565b6103fb60a75481565b604051908152602001610381565b6103dd61041736600461365a565b610a23565b6103dd61042a36600461365a565b610a48565b6103fb60af5481565b6103dd610446366004613589565b610a6d565b6103dd61045936600461367c565b610a92565b6103fb61046c366004613589565b60009081526098602052604090206001015490565b6103fb60008051602061407283398151915281565b6103dd6104a4366004613589565b610ac3565b6103fb60a95481565b6103fb60a85481565b6103dd6104c936600461367c565b610af0565b6103dd6104dc366004613589565b610b0b565b60ac546103b2906001600160a01b031681565b6103b2610502366004613589565b610b29565b6103fb6105153660046136b8565b610b89565b60ad546103b2906001600160a01b031681565b610392610c0f565b6103fb6105433660046136b8565b609b6020526000908152604090205481565b6103dd610c9d565b6103fb61056b3660046136b8565b6001600160a01b031660009081526099602052604090205490565b6103756105943660046136d3565b610cc0565b610392610d4c565b6097546001600160a01b03166103b2565b6103fb600081565b6103fb6105c83660046136b8565b6001600160a01b03166000908152609a602052604090205490565b6103dd6105f136600461370d565b610d5b565b6103756106043660046136b8565b610d66565b6103dd6106173660046136b8565b610dfb565b6103fb60a65481565b6103dd61063336600461365a565b610f05565b6103dd61064636600461375a565b610f2a565b6103dd6106593660046136b8565b610f62565b6103dd61066c366004613589565b610f76565b6103dd61067f366004613589565b610f94565b6103fb60ae5481565b6103fb60a55481565b6103dd6106a43660046136b8565b610fb5565b6103dd6106b7366004613836565b611108565b6103926106ca366004613589565b6111d9565b6103dd6106dd366004613589565b61123f565b6103dd6106f0366004613899565b611260565b609f546103b2906001600160a01b031681565b6103fb6107163660046136b8565b609a6020526000908152604090205481565b6103756107363660046138fd565b6001600160a01b039182166000908152606a6020908152604080832093909416825291909152205460ff1690565b6103dd6119ac565b6103fb60aa5481565b6103dd610783366004613927565b6119fa565b6103fb60a45481565b6103fb60ab5481565b60006107a582611d48565b92915050565b6060606580546107ba90613945565b80601f01602080910402602001604051908101604052809291908181526020018280546107e690613945565b80156108335780601f1061080857610100808354040283529160200191610833565b820191906000526020600020905b81548152906001019060200180831161081657829003601f168201915b5050505050905090565b600061084882611d98565b506000908152606960205260409020546001600160a01b031690565b600061086f82610b29565b9050806001600160a01b0316836001600160a01b0316036108e15760405162461bcd60e51b815260206004820152602160248201527f4552433732313a20617070726f76616c20746f2063757272656e74206f776e656044820152603960f91b60648201526084015b60405180910390fd5b336001600160a01b03821614806108fd57506108fd8133610736565b61096f5760405162461bcd60e51b815260206004820152603d60248201527f4552433732313a20617070726f76652063616c6c6572206973206e6f7420746f60448201527f6b656e206f776e6572206f7220617070726f76656420666f7220616c6c00000060648201526084016108d8565b6109798383611df7565b505050565b61098733610b89565b6001146109d65760405162461bcd60e51b815260206004820152601960248201527f4f6e6c7920636f686f7274207061727469636970616e7473210000000000000060448201526064016108d8565b60ac546040517f7ad32bfb950c825d7d252f51537ad223c191a793ae9109cffc3bbd287485f6df91610a179133916001600160a01b03169086908690613979565b60405180910390a15050565b600082815260986020526040902060010154610a3e81611e65565b6109798383611e6f565b600082815260986020526040902060010154610a6381611e65565b6109798383611ec5565b600080516020614072833981519152610a8581611e65565b610a8e82611f45565b5050565b610a9c3382611fe2565b610ab85760405162461bcd60e51b81526004016108d8906139c5565b610979838383612061565b600080516020614072833981519152610adb81611e65565b8160a854610ae99190613a28565b60a8555050565b61097983838360405180602001604052806000815250610f2a565b600080516020614072833981519152610b2381611e65565b5060a755565b6000818152606760205260408120546001600160a01b0316806107a55760405162461bcd60e51b8152602060048201526018602482015277115490cdcc8c4e881a5b9d985b1a59081d1bdad95b88125160421b60448201526064016108d8565b60006001600160a01b038216610bf35760405162461bcd60e51b815260206004820152602960248201527f4552433732313a2061646472657373207a65726f206973206e6f7420612076616044820152683634b21037bbb732b960b91b60648201526084016108d8565b506001600160a01b031660009081526068602052604090205490565b60a38054610c1c90613945565b80601f0160208091040260200160405190810160405280929190818152602001828054610c4890613945565b8015610c955780601f10610c6a57610100808354040283529160200191610c95565b820191906000526020600020905b815481529060010190602001808311610c7857829003601f168201915b505050505081565b600080516020614072833981519152610cb581611e65565b610cbd6121d2565b50565b6097546000838152609860205260408082205490516321a9204d60e11b81526001600160a01b038581166004830152602482019290925291921690634352409a90604401602060405180830381865afa158015610d21573d6000803e3d6000fd5b505050506040513d601f19601f82011682018060405250810190610d459190613a3b565b9392505050565b6060606680546107ba90613945565b610a8e3383836122c2565b60a0546040516370a0823160e01b81526001600160a01b03838116600483015260009283929116906370a0823190602401602060405180830381865afa158015610db4573d6000803e3d6000fd5b505050506040513d601f19601f82011682018060405250810190610dd89190613a58565b905060a9548110610dec5750600192915050565b50600092915050565b50919050565b600080516020614072833981519152610e1381611e65565b60408051600180825281830190925260009160208083019080368337505060408051600180825281830190925292935060009291506020808301908036833701905050905060a95482600081518110610e6e57610e6e613a71565b6020026020010181815250508381600081518110610e8e57610e8e613a71565b6001600160a01b039283166020918202929092010152609f54604051632c78fd0360e21b815291169063b1e3f40c90610ecd9084908690600401613ac2565b600060405180830381600087803b158015610ee757600080fd5b505af1158015610efb573d6000803e3d6000fd5b5050505050505050565b600082815260986020526040902060010154610f2081611e65565b6109798383612390565b610f343383611fe2565b610f505760405162461bcd60e51b81526004016108d8906139c5565b610f5c848484846123f9565b50505050565b6000610f6d81611e65565b610a8e8261242c565b600080516020614072833981519152610f8e81611e65565b5060a555565b600080516020614072833981519152610fac81611e65565b610a8e8261247e565b60a8544211156110075760405162461bcd60e51b815260206004820152601960248201527f5468697320636f686f7274206973206e6f7720636c6f7365640000000000000060448201526064016108d8565b60a554609e54111561105b5760405162461bcd60e51b815260206004820152601b60248201527f5468697320636f686f727420697320616c72656164792066756c6c000000000060448201526064016108d8565b61106481612515565b6110a25760405162461bcd60e51b815260206004820152600f60248201526e5374616b696e67206661696c65642160881b60448201526064016108d8565b609c805460018101825560009182527faf85b9071dfafeac1409d3f1d19bafc9bc7c37974cde8df0ee6168f0086e539c0180546001600160a01b0319166001600160a01b03841617905560a68054916110fa83613b22565b9190505550610cbd81612629565b60008051602061407283398151915261112081611e65565b60008267ffffffffffffffff81111561113b5761113b613744565b604051908082528060200260200182016040528015611164578160200160208202803683370190505b50905060005b838110156111a45760a95482828151811061118757611187613a71565b60209081029190910101528061119c81613b22565b91505061116a565b50609f54604051632c78fd0360e21b81526001600160a01b039091169063b1e3f40c90610ecd90879087908690600401613b3b565b60606111e482611d98565b60006111ee6126bf565b9050600081511161120e5760405180602001604052806000815250610d45565b80611218846126ce565b604051602001611229929190613b9a565b6040516020818303038152906040529392505050565b60008051602061407283398151915261125781611e65565b610a8e82612761565b600054610100900460ff16158080156112805750600054600160ff909116105b8061129a5750303b15801561129a575060005460ff166001145b6112fd5760405162461bcd60e51b815260206004820152602e60248201527f496e697469616c697a61626c653a20636f6e747261637420697320616c72656160448201526d191e481a5b9a5d1a585b1a5e995960921b60648201526084016108d8565b6000805460ff191660011790558015611320576000805461ff0019166101001790555b61132e609e80546001019055565b61133c610160850185613bc9565b60a39161134a919083613c65565b5060a084013560a55560c084013560a78190556113679042613a28565b60a8556113f861137b610180860186613bc9565b8080601f0160208091040260200160405190810160405280939291908181526020018383808284376000920191909152506113be925050506101a0870187613bc9565b8080601f0160208091040260200160405190810160405280939291908181526020018383808284376000920191909152506127f792505050565b61140560208501856136b8565b609f80546001600160a01b0319166001600160a01b039290921691909117905561143560408501602086016136b8565b60a080546001600160a01b0319166001600160a01b039290921691909117905561146560608501604086016136b8565b60ac80546001600160a01b0319166001600160a01b039290921691909117905561149560408501602086016136b8565b60a180546001600160a01b0319166001600160a01b03929092169190911790556114c3610100850135611f45565b6114d08460e0013561247e565b6114de846101200135612761565b6114f46114ef6101c0860186613bc9565b612828565b60ad80546001600160a01b0319166001600160a01b0385161790556115188361242c565b61152a61020085016101e08601613d25565b1561160957606061153c306002612835565b60408051600180825281830190925291925060009190816020015b6060815260200190600190039081611557579050509050818160008151811061158257611582613a71565b60209081029190910101526040805160018082528183019092526000918160200160208202803683375050609f5482519293506001600160a01b0316918391506000906115d1576115d1613a71565b60200260200101906001600160a01b031690816001600160a01b0316815250506116056115fe8383612913565b60016129f4565b5050505b60ad5460ac546040516321a9204d60e11b81526001600160a01b0391821660048201526101408701356024820152911690634352409a90604401602060405180830381865afa158015611660573d6000803e3d6000fd5b505050506040513d601f19601f820116820180604052508101906116849190613a3b565b151560010361189d5761014084013560ae556060806116f660ae5460ac5460405160248101929092526001600160a01b0316604482015230606482015260609060840160408051601f198184030181529190526020810180516001600160e01b03166329287c1b60e21b179052919050565b91506117768461170c6080890160608a016136b8565b61171c60a08a0160808b016136b8565b6040516001600160a01b03808516602483015280841660448301528216606482015260609060840160408051601f198184030181529190526020810180516001600160e01b031662f3450f60e81b17905290509392505050565b6040805160028082526060820190925291925060009190816020015b606081526020019060019003908161179257905050905082816000815181106117bd576117bd613a71565b602002602001018190525081816001815181106117dc576117dc613a71565b602090810291909101015260408051600280825260608201909252600091816020016020820280368337505060ad5482519293506001600160a01b03169183915060009061182c5761182c613a71565b60200260200101906001600160a01b031690816001600160a01b031681525050308160018151811061186057611860613a71565b60200260200101906001600160a01b031690816001600160a01b03168152505061189461188d8383612913565b60006129f4565b50505050611961565b60ad54604051631a64dfad60e01b815230600482015260606024820152600a6064820152691493d348151bdc12185d60b21b608482015260a06044820152600060a48201526001600160a01b0390911690631a64dfad9060c4016020604051808303816000875af1158015611916573d6000803e3d6000fd5b505050506040513d601f19601f8201168201806040525081019061193a9190613a58565b60ae556119618261195160808701606088016136b8565b61078360a08801608089016136b8565b8015610f5c576000805461ff0019169055604051600181527f7f26b83ff96e1f2b6a682f133852f6798a09c465da95921460cefb38474024989060200160405180910390a150505050565b6119b4612b6d565b6119bc612c26565b6119f85760405162461bcd60e51b815260206004820152600d60248201526c436c61696d206661696c65642160981b60448201526064016108d8565b565b60b05460ff1615611a4d5760405162461bcd60e51b815260206004820152601860248201527f4861747320616c726561647920696e697469616c697a6564000000000000000060448201526064016108d8565b60b0805460ff1916600190811790915560ad5460ae54609f54604051635829492f60e11b8152600481019290925260e06024830152600960e4830152682927a69020b236b4b760b91b610104830152600360448301526001600160a01b0390811660648301819052608483015260a482019390935261012060c4820152600061012482015291169063b052925e90610144016020604051808303816000875af1158015611afe573d6000803e3d6000fd5b505050506040513d601f19601f82011682018060405250810190611b229190613a58565b60af81905560ad5460405163320fbbb760e11b815260048101929092526001600160a01b038581166024840152169063641f776e906044016020604051808303816000875af1158015611b79573d6000803e3d6000fd5b505050506040513d601f19601f82011682018060405250810190611b9d9190613a3b565b506001600160a01b03821615611c2a5760ad5460af5460405163320fbbb760e11b815260048101919091526001600160a01b0384811660248301529091169063641f776e906044016020604051808303816000875af1158015611c04573d6000803e3d6000fd5b505050506040513d601f19601f82011682018060405250810190611c289190613a3b565b505b6001600160a01b03811615611cb65760ad5460af5460405163320fbbb760e11b815260048101919091526001600160a01b0383811660248301529091169063641f776e906044016020604051808303816000875af1158015611c90573d6000803e3d6000fd5b505050506040513d601f19601f82011682018060405250810190611cb49190613a3b565b505b611cd060008051602061407283398151915260af54611ec5565b60ad5460ae5460ac546040516329287c1b60e21b815260048101929092523060248301526001600160a01b0390811660448301529091169063a4a1f06c90606401600060405180830381600087803b158015611d2b57600080fd5b505af1158015611d3f573d6000803e3d6000fd5b50505050505050565b60006001600160e01b031982166380ac58cd60e01b1480611d7957506001600160e01b03198216635b5e139f60e01b145b806107a557506301ffc9a760e01b6001600160e01b03198316146107a5565b6000818152606760205260409020546001600160a01b0316610cbd5760405162461bcd60e51b8152602060048201526018602482015277115490cdcc8c4e881a5b9d985b1a59081d1bdad95b88125160421b60448201526064016108d8565b600081815260696020526040902080546001600160a01b0319166001600160a01b0384169081179091558190611e2c82610b29565b6001600160a01b03167f8c5be1e5ebec7d5bd14f71427d1e84f3dd0314c0f7b2291e5b200ac8c7c3b92560405160405180910390a45050565b610cbd8133612d5d565b600082815260986020526040902054819003610a8e57600082815260986020526040808220829055513391839185917f641261709a27417e18d0ccc3db95ddc812d61be919b2a5a3af21a5870590922a91a45050565b6000828152609860205260409020548015611efd5760405163aab0817760e01b815260048101849052602481018290526044016108d8565b81811461097957600083815260986020526040808220849055513391849186917f7c2a2c4bb5a44dafa473fc49e557303dba6db62123713789deefe8ccb384654991a4505050565b60008111611fa65760405162461bcd60e51b815260206004820152602860248201527f4d696e696d756d207374616b65206d7573742062652067726561746572207468604482015267616e207a65726f2160c01b60648201526084016108d8565b60aa8190556040518181527fb4b5fad09421a48c68e8513475c3adbf47ed48a5eefe543d4fec52c82db47469906020015b60405180910390a150565b600080611fee83610b29565b9050806001600160a01b0316846001600160a01b0316148061203557506001600160a01b038082166000908152606a602090815260408083209388168352929052205460ff165b806120595750836001600160a01b031661204e8461083d565b6001600160a01b0316145b949350505050565b826001600160a01b031661207482610b29565b6001600160a01b03161461209a5760405162461bcd60e51b81526004016108d890613d42565b6001600160a01b0382166120fc5760405162461bcd60e51b8152602060048201526024808201527f4552433732313a207472616e7366657220746f20746865207a65726f206164646044820152637265737360e01b60648201526084016108d8565b6121098383836001612dae565b826001600160a01b031661211c82610b29565b6001600160a01b0316146121425760405162461bcd60e51b81526004016108d890613d42565b600081815260696020908152604080832080546001600160a01b03199081169091556001600160a01b0387811680865260688552838620805460001901905590871680865283862080546001019055868652606790945282852080549092168417909155905184937fddf252ad1be2c89b69c2b068fc378daa952ba7f163c4a11628f55a4df523b3ef91a4505050565b6000805b609c548110156122a8576000609c82815481106121f5576121f5613a71565b60009182526020808320909101546001600160a01b0316808352609a909152604090912054909150428110801561224357506001600160a01b03821660009081526099602052604090205415155b1561228e5761225182612e05565b61225b9085613a28565b9350609c838154811061227057612270613a71565b600091825260209091200180546001600160a01b0319169055612295565b5050612298565b50505b6122a181613b22565b90506121d6565b506122b281612e8b565b6122ba612f6b565b610cbd613031565b816001600160a01b0316836001600160a01b0316036123235760405162461bcd60e51b815260206004820152601960248201527f4552433732313a20617070726f766520746f2063616c6c65720000000000000060448201526064016108d8565b6001600160a01b038381166000818152606a6020908152604080832094871680845294825291829020805460ff191686151590811790915591519182527f17307eab39ab6107e8899845ad3d59bd9653f200f220920489ca2b5937696c31910160405180910390a3505050565b600082815260986020526040812054908190036123b1576123b18383611ec5565b81811461097957600083815260986020526040808220849055518391839186917fc3d694cb68f99c4c204d7aedbaba300907c24102aeeeecd32de2c9910609f30a91a4505050565b612404848484612061565b612410848484846130c2565b610f5c5760405162461bcd60e51b81526004016108d890613d87565b609780546001600160a01b038381166001600160a01b0319831681179093556040519116919082907fe2c5fed45442eae2ee9c94b63f1e24155d9bfe92ecd80e48c35ebf292767573790600090a35050565b600081116124e05760405162461bcd60e51b815260206004820152602960248201527f4d696e696d756d20736861726573206d7573742062652067726561746572207460448201526868616e207a65726f2160b81b60648201526084016108d8565b60a98190556040518181527f7155dd2d80b479664a5c9bf2c04a1b00c07aad515f3c089a20ce1ebff2c6ecdd90602001611fd7565b600061252082610b89565b1561256d5760405162461bcd60e51b815260206004820152601e60248201527f416c7265616479206a6f696e65642074686520696e6974696174696f6e21000060448201526064016108d8565b60aa546001600160a01b03831660009081526099602052604090205560ab546125969042613a28565b6001600160a01b038381166000908152609a6020526040908190209290925560a15460aa5492516323b872dd60e01b8152336004820152306024820152604481019390935216906323b872dd906064016020604051808303816000875af1158015612605573d6000803e3d6000fd5b505050506040513d601f19601f820116820180604052508101906107a59190613a3b565b6000612634609e5490565b60aa546001600160a01b0384166000818152609a60209081526040918290205482519384523391840191909152908201849052606082019290925260808101919091529091507f9da9a86fb849b37cb0098539441b747ca3c0c5a367f5eaef701e6877e4b124d79060a00160405180910390a16126b5609e80546001019055565b610a8e82826131c3565b606060a280546107ba90613945565b606060006126db8361335c565b600101905060008167ffffffffffffffff8111156126fb576126fb613744565b6040519080825280601f01601f191660200182016040528015612725576020820181803683370190505b5090508181016020015b600019016f181899199a1a9b1b9c1cb0b131b232b360811b600a86061a8153600a850494508461272f57509392505050565b600081116127c25760405162461bcd60e51b815260206004820152602860248201527f4d696e696d756d206475726174696f6e206d7573742062652067726561746572604482015267207468616e20302160c01b60648201526084016108d8565b60ab8190556040518181527f856717cb327b027e506a205b6a989525427e169d7b6acb09ad84d849dea2b93f90602001611fd7565b600054610100900460ff1661281e5760405162461bcd60e51b81526004016108d890613dd9565b610a8e8282613434565b60a2610979828483613c65565b6040805160018082528183019092526060916000919060208083019080368337019050509050838160008151811061286f5761286f613a71565b6001600160a01b03929092166020928302919091019091015260408051600180825281830190925260009181602001602082028036833701905050905083816000815181106128c0576128c0613a71565b60200260200101818152505081816040516024016128df929190613ac2565b60408051601f198184030181529190526020810180516001600160e01b0316630f656a2160e01b1790529250505092915050565b60608060005b84518110156129af5781600085838151811061293757612937613a71565b6020026020010151600088858151811061295357612953613a71565b60200260200101515189868151811061296e5761296e613a71565b602002602001015160405160200161298b96959493929190613e24565b604051602081830303815290604052915080806129a790613b22565b915050612919565b50806040516024016129c19190613576565b60408051601f198184030181529190526020810180516001600160e01b03166346c07f8560e11b17905291505092915050565b609f5460408051639a2f747f60e01b815290516000926001600160a01b031691639a2f747f916004808301926020929190829003018187875af1158015612a3f573d6000803e3d6000fd5b505050506040513d601f19601f82011682018060405250810190612a639190613a58565b9050803414612aa65760405162461bcd60e51b815260206004820152600f60248201526e4d697373696e67207472696275746560881b60448201526064016108d8565b60608215612ace576040518060c00160405280609c8152602001613fd6609c91399050612aea565b6040518060c00160405280609281526020016140926092913990505b609f546040516307505ff960e31b81526001600160a01b0390911690633a82ffc8908490612b2390889060009081908890600401613e8e565b60206040518083038185885af1158015612b41573d6000803e3d6000fd5b50505050506040513d601f19601f82011682018060405250810190612b669190613a58565b5050505050565b60a0546040516370a0823160e01b81523360048201526000916001600160a01b0316906370a0823190602401602060405180830381865afa158015612bb6573d6000803e3d6000fd5b505050506040513d601f19601f82011682018060405250810190612bda9190613a58565b905060a954811015610cbd5760405162461bcd60e51b8152602060048201526015602482015274596f75206d7573742062652061206d656d6265722160581b60448201526064016108d8565b33600081815260996020526040812054909190612c7b5760405162461bcd60e51b81526020600482015260136024820152725573657220686173206e6f207374616b65212160681b60448201526064016108d8565b6001600160a01b0381166000818152609960209081526040808320805490849055609a835281842093909355805193845290830182905290917f47cee97cb7acd717b3c0aa1435d004cd5b3c8c57d70dbceb4e4458bbd60e39d4910160405180910390a160a15460405163a9059cbb60e01b81526001600160a01b038481166004830152602482018490529091169063a9059cbb906044016020604051808303816000875af1158015612d32573d6000803e3d6000fd5b505050506040513d601f19601f82011682018060405250810190612d569190613a3b565b9250505090565b612d678282610cc0565b610a8e5760008281526098602052604090819020549051631612509360e01b81526004810184905260248101919091526001600160a01b03821660448201526064016108d8565b6001600160a01b03841615610f5c5760405162461bcd60e51b815260206004820152601960248201527f5342542063616e6e6f74206265207472616e736665727265640000000000000060448201526064016108d8565b6001600160a01b0381166000818152609960209081526040808320548151948552918401829052339084015290917f1b4365d94ccfc86d7cd3eef46bf15cd821f8abb29721248eca1d751eebb669009060600160405180910390a16001600160a01b039092166000908152609960209081526040808320839055609a9091528120555090565b60a15460ac5460405163a9059cbb60e01b81526001600160a01b0391821660048201526024810184905291169063a9059cbb906044016020604051808303816000875af1158015612ee0573d6000803e3d6000fd5b505050506040513d601f19601f82011682018060405250810190612f049190613a3b565b612f445760405162461bcd60e51b81526020600482015260116024820152704661696c6564205361637269666963652160781b60448201526064016108d8565b336000908152609b602052604081208054839290612f63908490613a28565b909155505050565b60005b609c548110156130135760006001600160a01b0316609c8281548110612f9657612f96613a71565b6000918252602090912001546001600160a01b03161461300157609d609c8281548110612fc557612fc5613a71565b60009182526020808320909101548354600181018555938352912090910180546001600160a01b0319166001600160a01b039092169190911790555b8061300b81613b22565b915050612f6e565b50609d805461302491609c91613474565b506119f8609d60006134c4565b609c5460a681905560a554101561309b5760405162461bcd60e51b815260206004820152602860248201527f43617272792d6f76657220696e697469617465732065786365656420636f686f6044820152671c9d0b58dbdd5b9d60c21b60648201526084016108d8565b60a7546130a89042613a28565b60a85560a480549060006130bb83613b22565b9190505550565b60006001600160a01b0384163b156131b857604051630a85bd0160e11b81526001600160a01b0385169063150b7a0290613106903390899088908890600401613ec5565b6020604051808303816000875af1925050508015613141575060408051601f3d908101601f1916820190925261313e91810190613ef8565b60015b61319e573d80801561316f576040519150601f19603f3d011682016040523d82523d6000602084013e613174565b606091505b5080516000036131965760405162461bcd60e51b81526004016108d890613d87565b805181602001fd5b6001600160e01b031916630a85bd0160e11b149050612059565b506001949350505050565b6001600160a01b0382166132195760405162461bcd60e51b815260206004820181905260248201527f4552433732313a206d696e7420746f20746865207a65726f206164647265737360448201526064016108d8565b6000818152606760205260409020546001600160a01b03161561327e5760405162461bcd60e51b815260206004820152601c60248201527f4552433732313a20746f6b656e20616c7265616479206d696e7465640000000060448201526064016108d8565b61328c600083836001612dae565b6000818152606760205260409020546001600160a01b0316156132f15760405162461bcd60e51b815260206004820152601c60248201527f4552433732313a20746f6b656e20616c7265616479206d696e7465640000000060448201526064016108d8565b6001600160a01b038216600081815260686020908152604080832080546001019055848352606790915280822080546001600160a01b0319168417905551839291907fddf252ad1be2c89b69c2b068fc378daa952ba7f163c4a11628f55a4df523b3ef908290a45050565b60008072184f03e93ff9f4daa797ed6e38ed64bf6a1f0160401b831061339b5772184f03e93ff9f4daa797ed6e38ed64bf6a1f0160401b830492506040015b6d04ee2d6d415b85acef810000000083106133c7576d04ee2d6d415b85acef8100000000830492506020015b662386f26fc1000083106133e557662386f26fc10000830492506010015b6305f5e10083106133fd576305f5e100830492506008015b612710831061341157612710830492506004015b60648310613423576064830492506002015b600a83106107a55760010192915050565b600054610100900460ff1661345b5760405162461bcd60e51b81526004016108d890613dd9565b60656134678382613f15565b5060666109798282613f15565b8280548282559060005260206000209081019282156134b45760005260206000209182015b828111156134b4578254825591600101919060010190613499565b506134c09291506134de565b5090565b5080546000825590600052602060002090810190610cbd91905b5b808211156134c057600081556001016134df565b6001600160e01b031981168114610cbd57600080fd5b60006020828403121561351b57600080fd5b8135610d45816134f3565b60005b83811015613541578181015183820152602001613529565b50506000910152565b60008151808452613562816020860160208601613526565b601f01601f19169290920160200192915050565b602081526000610d45602083018461354a565b60006020828403121561359b57600080fd5b5035919050565b80356001600160a01b03811681146135b957600080fd5b919050565b600080604083850312156135d157600080fd5b6135da836135a2565b946020939093013593505050565b600080602083850312156135fb57600080fd5b823567ffffffffffffffff8082111561361357600080fd5b818501915085601f83011261362757600080fd5b81358181111561363657600080fd5b86602082850101111561364857600080fd5b60209290920196919550909350505050565b6000806040838503121561366d57600080fd5b50508035926020909101359150565b60008060006060848603121561369157600080fd5b61369a846135a2565b92506136a8602085016135a2565b9150604084013590509250925092565b6000602082840312156136ca57600080fd5b610d45826135a2565b600080604083850312156136e657600080fd5b823591506136f6602084016135a2565b90509250929050565b8015158114610cbd57600080fd5b6000806040838503121561372057600080fd5b613729836135a2565b91506020830135613739816136ff565b809150509250929050565b634e487b7160e01b600052604160045260246000fd5b6000806000806080858703121561377057600080fd5b613779856135a2565b9350613787602086016135a2565b925060408501359150606085013567ffffffffffffffff808211156137ab57600080fd5b818701915087601f8301126137bf57600080fd5b8135818111156137d1576137d1613744565b604051601f8201601f19908116603f011681019083821181831017156137f9576137f9613744565b816040528281528a602084870101111561381257600080fd5b82602086016020830137600060208483010152809550505050505092959194509250565b6000806020838503121561384957600080fd5b823567ffffffffffffffff8082111561386157600080fd5b818501915085601f83011261387557600080fd5b81358181111561388457600080fd5b8660208260051b850101111561364857600080fd5b6000806000606084860312156138ae57600080fd5b833567ffffffffffffffff8111156138c557600080fd5b840161020081870312156138d857600080fd5b92506138e6602085016135a2565b91506138f4604085016135a2565b90509250925092565b6000806040838503121561391057600080fd5b613919836135a2565b91506136f6602084016135a2565b60008060006060848603121561393c57600080fd5b6138d8846135a2565b600181811c9082168061395957607f821691505b602082108103610df557634e487b7160e01b600052602260045260246000fd5b6001600160a01b0385811682528416602082015260606040820181905281018290526000828460808401376000608084840101526080601f19601f850116830101905095945050505050565b6020808252602d908201527f4552433732313a2063616c6c6572206973206e6f7420746f6b656e206f776e6560408201526c1c881bdc88185c1c1c9bdd9959609a1b606082015260800190565b634e487b7160e01b600052601160045260246000fd5b808201808211156107a5576107a5613a12565b600060208284031215613a4d57600080fd5b8151610d45816136ff565b600060208284031215613a6a57600080fd5b5051919050565b634e487b7160e01b600052603260045260246000fd5b600081518084526020808501945080840160005b83811015613ab757815187529582019590820190600101613a9b565b509495945050505050565b604080825283519082018190526000906020906060840190828701845b82811015613b045781516001600160a01b031684529284019290840190600101613adf565b50505083810382850152613b188186613a87565b9695505050505050565b600060018201613b3457613b34613a12565b5060010190565b6040808252810183905260008460608301825b86811015613b7c576001600160a01b03613b67846135a2565b16825260209283019290910190600101613b4e565b508381036020850152613b8f8186613a87565b979650505050505050565b60008351613bac818460208801613526565b835190830190613bc0818360208801613526565b01949350505050565b6000808335601e19843603018112613be057600080fd5b83018035915067ffffffffffffffff821115613bfb57600080fd5b602001915036819003821315613c1057600080fd5b9250929050565b601f82111561097957600081815260208120601f850160051c81016020861015613c3e5750805b601f850160051c820191505b81811015613c5d57828155600101613c4a565b505050505050565b67ffffffffffffffff831115613c7d57613c7d613744565b613c9183613c8b8354613945565b83613c17565b6000601f841160018114613cc55760008515613cad5750838201355b600019600387901b1c1916600186901b178355612b66565b600083815260209020601f19861690835b82811015613cf65786850135825560209485019460019092019101613cd6565b5086821015613d135760001960f88860031b161c19848701351681555b505060018560011b0183555050505050565b600060208284031215613d3757600080fd5b8135610d45816136ff565b60208082526025908201527f4552433732313a207472616e736665722066726f6d20696e636f72726563742060408201526437bbb732b960d91b606082015260800190565b60208082526032908201527f4552433732313a207472616e7366657220746f206e6f6e20455243373231526560408201527131b2b4bb32b91034b6b83632b6b2b73a32b960711b606082015260800190565b6020808252602b908201527f496e697469616c697a61626c653a20636f6e7472616374206973206e6f74206960408201526a6e697469616c697a696e6760a81b606082015260800190565b60008751613e36818460208c01613526565b808301905060ff60f81b8860f81b1681526bffffffffffffffffffffffff198760601b1660018201528560158201528460358201528351613e7e816055840160208801613526565b0160550198975050505050505050565b608081526000613ea1608083018761354a565b63ffffffff861660208401528460408401528281036060840152613b8f818561354a565b6001600160a01b0385811682528416602082015260408101839052608060608201819052600090613b189083018461354a565b600060208284031215613f0a57600080fd5b8151610d45816134f3565b815167ffffffffffffffff811115613f2f57613f2f613744565b613f4381613f3d8454613945565b84613c17565b602080601f831160018114613f785760008415613f605750858301515b600019600386901b1c1916600185901b178555613c5d565b600085815260208120601f198616915b82811015613fa757888601518255948401946001909101908401613f88565b5085821015613fc55787850151600019600388901b60f8161c191681555b5050505050600190811b0190555056fe7b2270726f706f73616c54797065223a20224144445f5348414d414e222c20227469746c65223a202252697465206f66204d6f6c6f63682028524f4d293a205368616d616e2050726f706f73616c222c20226465736372697074696f6e223a202241737369676e20524f4d2061732061204d616e616765722d5368616d616e20746f206d696e74206d696e696d756d2044414f20736861726573227ddf8b4c520ffe197c5343c6f5aec59570151ef9a492f2c624fd45ddde6135ec427b2270726f706f73616c54797065223a2022424f52524f575f544f50484154222c20227469746c65223a202252697465206f66204d6f6c6f63682028524f4d293a20486174732050726f706f73616c222c20226465736372697074696f6e223a202243726561746520616e64206d696e7420524f4d2d41646d696e20686174732066726f6d2044414f20546f70486174227da2646970667358221220b1a9cb44459b7735f66c14599ae0cf709ee88e77361de4f25a0d197e7f8031c964736f6c63430008110033",
    "linkReferences": {}
  },
  "methodIdentifiers": {
    "DEFAULT_ADMIN_ROLE()": "a217fddf",
    "FACTORY_OPERATOR()": "37ce178a",
    "_roles(bytes32)": "bd99d7e1",
    "addImplementation(address)": "c6e2a400",
    "changeHatsContract(address)": "b8c45361",
    "changeHatsProtocol(address)": "0be10b83",
    "changeRoleHat(bytes32,uint256)": "b5436cec",
    "createCohort((address,address,address,address,address,uint256,uint256,uint256,uint256,uint256,uint256,string,string,string,string,bool),uint256)": "fd529b69",
    "factoryOperatorHat()": "f7b5fdfd",
    "getRoleAdmin(bytes32)": "248a9ca3",
    "grantRole(bytes32,uint256)": "1b6ea9f9",
    "hasRole(bytes32,address)": "91d14854",
    "hatsContract()": "97e39fef",
    "hatsProtocol()": "c049098f",
    "iid()": "515c731b",
    "implementations(uint256)": "845affc8",
    "revokeRole(bytes32,uint256)": "19d61ad9"
  },
  "id": 54
}